:10000000CBC200000C942021E4C200000C94F0202C
:10001000E0C20000DEC20000DCC20000DAC2000064
:10002000D8C20000D6C200000C942F20D2C200001B
:10003000D0C20000CEC20000CCC20000CAC2000084
:10004000C8C200000C945021C4C20000C2C200000B
:10005000C0C200000C94A421BCC20000BAC20000BF
:10006000B8C200000C943D220C940B22B2C20000D6
:10007000B0C20000AEC20000ACC20000AAC20000C4
:10008000A8C20000A6C20000A4C20000A2C20000D4
:10009000A0C200009EC200009CC200009AC20000E4
:1000A00098C2000096C2000094C2000009024300FA
:1000B000020100803209040000010202010005244F
:1000C0000001100524010301042402060524060092
:1000D00001070582030800FF09040100020A00006D
:1000E00000070504024000000705830240000012DB
:1000F00001100102000008EB034B20000001020088
:10010000012A03430055004C003400330033000043
:10011000002A03430055004C003800360038000028
:1001200000160362007500730077006100720065BD
:10013000002E00640065000000040309040053530E
:1001400000547D7DFFFF4B4B7E7E00504C4C310DAB
:100150000A00504C4C300D0A0000030F1E262700E9
:100160000000030F1E2536386700030F2567406027
:100170005000030F275188838100030F2750C8C305
:10018000C20027000000000000006700000000001F
:10019000000050000000000000008100000000008E
:1001A0000000C2000000000000202F2000203D20A1
:1001B000004E2F4100454F420D0A004E2F41004E88
:1001C0002F4100202F2000203D2000072E050DD3B9
:1001D00091FF080500000C0021656A2D3B1322F8F1
:1001E00062073F181D1CC700B0876BF8B611EA2ADA
:1001F000001F41000D2E2D07D3913D043200000653
:100200000021656A57C43023B900070018146C0731
:100210000090876BF85611E92A001F410020284CF6
:100220006567616379204D6F64652900202853421A
:1002300055204D6F646529002028462D42616E646B
:100240003A203836384D487A29002028462D426118
:100250006E643A203433334D487A290043554C3884
:1002600036380043554C343333005620312E323863
:100270002E323420612D63756C6677204275696C6F
:10028000643A2032342028323032362D30382D3244
:10029000342031303A33353A343029200056532057
:1002A0000043554C5F5633000D2E2D07D3913D046E
:1002B000320000060010B07155E43023B900070089
:1002C00018146C070090876BF85611E92A001F413B
:1002D000000B08105B11F81547191D1A1C1BC71CD1
:1002E000001DB221B623EA0007022E030D04E90522
:1002F000CA070C0B060D210E650F6A10C811931268
:100300000315341733181819161B432156250026D8
:100310001129592C812D353EC34552523A43434150
:100320000D0A000454053D1700000602000B080CDE
:10033000000D210E6B0FD0105C1104120613221455
:10034000F80A00154421B622101818192E1ABF1BDE
:10035000431C091DB523EA242A2500261F29592CF0
:10036000812D352E0907040800090006FF3EC2FF53
:10037000047605961700000602000B080C000D21FC
:100380000E650F6A106A114A1206132214F80A0049
:10039000154721B622101818192E1A6D1B041C09B6
:1003A0001DB223EA242A2500261F29592C812D3528
:1003B0002E0907040800090006FF3EC2FF4F46460B
:1003C000004F464600544D4F444500534D4F444561
:1003D000006E6F7420636F6D70696C656420696E68
:1003E0000D0A000007024604C605260B0610C811B8
:1003F00093120313221534173F182819161B432193
:1004000056250026110D210E650F6A070C160720D0
:10041000F81E871F6B29592C812D353EC3FF004CD8
:100420004F56460D0A004C454E4552520D0A0003E8
:1004300002FF0000000000000000000000000000BB
:10044000000000030210881182FF0000000000007D
:100450000000000000000003071088110B0D210EA2
:100460006B0FD01553FF00000000000B060D210E8E
:10047000650F6A1700181819161B431C68250026FB
:10048000110001024605D4042D03020700080210E2
:1004900089115C12061556FF0073706563696679F1
:1004A0002076616C6964206D6F6465206E756D6285
:1004B00065720D0A00424F56460D0A0000070246BB
:1004C000030D049A057D0642070C0B060D210E65EF
:1004D0000F6A10C811931203153417001818191653
:1004E0001B431C6825002611FF00000000000000CF
:1004F00000000000000000004C4F56460D0A000DA1
:100500002E2D07D3913D04320000060010ABA555F7
:100510000A3023B900070018146C070090876BF8A5
:100520005611E92A001F410041F51842BD1C622CFA
:100530000E43530D45950F65AA1F46F816474716FB
:1005400068DB1469D6194B4B156CF91C4DCF156D32
:100550009E0B4ED20F50430D52C40E54531D745473
:100560000B551715756A1C56850A570B1D58E41351
:1005700078162059FC105A6C18000000206973206E
:10058000756E6B6E6F776E2920557365206F6E6583
:10059000206F66003F20280011241FBECFEFDAE055
:1005A000DEBFCDBF11E0A0E0B1E0E8E0F5E602C0BB
:1005B00005900D92A637B107D9F729E0A6E7B1E07B
:1005C00001C01D92A937B207E1F70E9465220C9481
:1005D000823216CDFC01218130E050E08081F901AA
:1005E000E41BF50B3B967797A0F490E070E0FC01DC
:1005F000E61BF70B3B96779760F4280F391F460FE1
:10060000571F241B350B255F3F4F81E027313105F4
:1006100008F080E008958091D8008E7F8093D80004
:100620001092E2001092DA001092E10010926D092F
:1006300010926C0910926B0910926A098AE482BFC9
:1006400019BC89B5826089BD09B400FEFDCF8091D7
:10065000D800982F9F779093D80080688093D80017
:100660008091D70081608093D7008091D8008F7DE2
:100670008093D8008091E0008B7F8093E000809190
:10068000E0008E7F8093E0008091E1008E7F809378
:10069000E1008091E20081608093E2008091E100BE
:1006A000877F8093E1008091E20088608093E20080
:1006B0008091D80081608093D80008958093E900EC
:1006C000EBEEF0E0808181608083EDEEF0E010825F
:1006D0006093EC0040838091EE00881F8827881F7C
:1006E0000895982F92959F709A3050F4905DFB0179
:1006F00090838F708A3030F4805DFB018183089590
:10070000995CF5CF895CF9CFFC0120E08AE09191FA
:10071000911103C0FB012083089530ED390F3A3069
:10072000B0F7289F900D112420ED290FF0CFFC0188
:1007300030E020E08AE09191911104C0FB01318307
:100740002083089540ED490F4A30A8F7829FA00109
:10075000839F500D11249A0120533109290F311D17
:10076000EACFDC01FB0130E020E09D919923D9F034
:10077000913608F0905280ED890F8A3050F4982F0E
:10078000922B3323A1F0442371F090834150319692
:10079000EACF8FEB890F863010F49753F1CF903268
:1007A00021F39A3311F3CF01861B970B0895292F5C
:1007B0002295207F31E0D9CF880F991F0197F1F75B
:1007C0000895FC012FB7F8948281811102C02FBFD8
:1007D00008959FEF980F9283A18191E09A0F9183E2
:1007E000AE0FBF2FB11D13968C91903481F71182FB
:1007F000EECFFC019FB7F8948281803410F09FBF48
:1008000008958F5F8283A08181E08A0F8083AE0F7D
:10081000BF2FB11D13966C93803489F71082EFCFF0
:10082000CF93DF93DA01EC91882369F0EB01CE0FCF
:10083000D11DA1E0B0E0022E01C0AA0F0A94EAF790
:1008400088818A2B8883222331F02150822F90E0E7
:10085000DF91CF910895EF5FEC3030F4DA01EC9343
:10086000E60FF72FF11D108227E0F0CFCF93C82FAE
:100870008BB19091DD08911123C098E0892B8BB941
:100880008091D908C11102C08091DB0820E1829FCC
:10089000C001112491DF8BB19091DD08911112C03C
:1008A00097EF89238BB98091D808C11102C080913C
:1008B000DA0820E1829FC00111247EDFCF910895E4
:1008C00092E0DCCF9DEFEDCFAC019BB18091DD08D4
:1008D00027EF81112DEF92239BB9CA016DCFAC0197
:1008E0009BB18091DD0828E0811122E0922B9BB919
:1008F000CA0162CFFC0184819581A081B181A80FDA
:10090000B11D2C9130E0092E02C0359527950A942F
:10091000E2F721703FEF390F3583911104C08F5FEB
:10092000848387E08583822F0895B0E0A0E0EBE91F
:10093000F4E00C9444327C01062FA42ED0E0C0E0F9
:1009400010E0BB24B394862F8150990B6C01C70132
:10095000D1DF882361F0AA2099F0C6018C1B9D0B82
:100960002B2D01C0220F8A95EAF7822F182B219692
:10097000C01768F3812FCDB7DEB7EAE00C94603280
:100980008B2D0C2E01C0880F0A94EAF7EFCF10923E
:100990006F00E09189088FE3E89FF0011124E3578D
:1009A000F84F108210928900109288000895CF931A
:1009B000DF93FC01A181A23320F0E9DFDF91CF9129
:1009C00008958381662369F0EF01CA0FD11D21E0EC
:1009D00030E0082E01C0220F0A94EAF79C81922B86
:1009E0009C83882331F08150838386A98F5F86ABF7
:1009F000E5CF87E08383AF5FA183A233B1F3AE0F6E
:100A0000BF2FB11D14961C92F0CF0F931F93CF935D
:100A1000DF930091840010918500B4E0169507954E
:100A2000BA95E1F7C09189089FE3C99FE0011124BD
:100A3000C357D84F90918C07923079F42881243095
:100A400031F40E3210F10F3440F0A1DF1EC025301A
:100A500021F40731D0F00832C0F78091DD088823F7
:100A6000C9F089B1809581708823D9F0923059F40A
:100A700088818450823038F461E0CE0198DF109292
:100A800085001092840000938B07DF91CF911F9116
:100A90000F91089589B182FB882780F921E0822790
:100AA000E3CF80918B07081B00938A071092850083
:100AB00010928400923041F488818450823020F476
:100AC00060E0CE0174DFE1CF82E086BB88810091D7
:100AD0008B07882309F4AEC010918A07823029F170
:100AE000412F602FCE01C99675DD882309F4BEC061
:100AF00061E0CE015CDF39AD23E0802F90E0329FD2
:100B0000800D911D1124959587959595879589AFB1
:100B10008AAD412F50E0829F400D511D1124559503
:100B20004795559547954AAFB0CF412F602FCE01DD
:100B3000C79650DD2A818823F1F04FA933E0802F3A
:100B400090E0439F800D911D112495958795959573
:100B500087958FAB88AD412F50E0839F400D511D8D
:100B60001124559547955595479548AF1EAE1DAE36
:100B70002F5F2A838ACF243008F45BC080EA9FE08D
:100B800090938900809388008A818C3058F08FA9D7
:100B900098AD890F9927991F853691052CF084E02F
:100BA000888311C08A30C8F08FA998AD890F992722
:100BB000991F859794F485E0888388EE93E090935D
:100BC00089008093880009AF1AAF198287E08B8370
:100BD0001C8282E080936F0058CF80918A0888231E
:100BE00031F18BED800F873110F586EF810F8D315C
:100BF000F0F481E090E0101710F090E080E0892B95
:100C0000B1F03FA928AD8BED820F873180F486EFDC
:100C1000830F8D3160F481E090E0321710F090E0A6
:100C200080E0892B21F081E0809389070ECF83E05B
:100C3000B7CF18821FAA18AE19AE1AAE1BAE1CAEE3
:100C40001EAE1DAE1EAA198287E08B831C8205365C
:100C500008F01BCF80918A07853608F016CF0FABBE
:100C600088AF81E08A8382E088830FCF412F602F95
:100C7000CE01C796AFDC882309F4E7CE60E0CE0151
:100C800096DE3FA923E0802F90E0329F800D911DDA
:100C9000112495958795959587958FAB88AD412FB4
:100CA00050E0829F400D511D112455954795559553
:100CB000479548AFEACEB0E0A0E0E1E6F6E00C945C
:100CC0004032DC017A011092870711969C901197AF
:100CD000990C990C990C13968C911397981A892D4D
:100CE00097E0892E890C1092550728E0922E980ED5
:100CF00041E070E057E0E7E0F0E090E037E0C32E3D
:100D0000D12C01E010E094120DC070938707891474
:100D100008F05EC0653409F089C05F3F09F086C005
:100D20009F5F86C09D012F0F311DE9012C8130E0AE
:100D30000E2E02C0359527950A94E2F7822F817016
:100D4000EE2389F0E1506B3441F5533009F076C061
:100D500071110CC0811168C010928707CDB7DEB742
:100D6000EEE00C945C32FF5FE7E0EDCF70E08823AB
:100D700009F458C0292F30E02B5A384F5601A51AD4
:100D8000B10857FDB394E80102C0CC0FDD1FAA944F
:100D9000E2F75E01E90188813FC05F3F61F566349B
:100DA000C9F4292F30E02B5A384FE9012881022E4F
:100DB00022952025022E2695269520252F5F21FBA2
:100DC000662460F8712C8615170459F07093870714
:100DD00080E0C4CF653429F4811103C07093870784
:100DE000BDCF9F5F292F30E02B5A384FE901188281
:100DF00057E04F5F88CF8823A9F0663481F4292F0C
:100E000030E02B5A384FE90188815801052E02C085
:100E1000AA0CBB1C0A94E2F7A82AA88203C0653476
:100E200009F4A8CF5150E5CF71E0E3CF711178CF2D
:100E3000F701908381E0911191CFCACF5F3F09F014
:100E400096CFCACFFC015091870795E020E08FEF45
:100E5000860F611107C0920F30E1939FC0011124EA
:100E6000822B08956150DF01A60FB11D3C91432FE5
:100E700042954F702427940F552311F0681749F3BA
:100E80003F702327930FE5CF282F30E08A3180F081
:100E9000C9014A9754E0959587955A95E1F78D5F7A
:100EA0002F5F3F4F90E0880F991F820F931F089587
:100EB00082E0F6CFCF93DF93EC01A881E981CA2FBE
:100EC000C295CF70D0E0C75ADE4F8881AF70B0E0D6
:100ED000A75ABE4F4C91AE2FA295AF70B0E0A75A63
:100EE000BE4F2C91EF70F0E0E75AFE4F308191E059
:100EF0008F3F09F090E051E04F3F09F050E0952B13
:100F000051E02F3F09F050E0952BB9F43F3FA9F095
:100F1000D0E48D9FC0011124E0E14E9FA001112477
:100F2000842B832BF4E02F9F90011124822BEB0163
:100F3000888380E0DF91CF91089581E0FBCF28E0A6
:100F4000492F55274627880F991F47FF04C035E6CC
:100F500083273DE39327660F215091F70895DC0125
:100F600011968C91119730E020E0411117C0129634
:100F70009C911297E92FEF73F0E0E75EFE4F20811E
:100F800034E0839FF0011124EC73FF27929596952E
:100F900096959370E92BE75EFE4F3081EC9150E11E
:100FA000E59FD0011124A073BB2782958F70A82BD9
:100FB000A75EBE4F8C91E695E695F0E0E75EFE4FAA
:100FC000E08191E08F3F09F090E051E0EF3F09F0C0
:100FD00050E0952B51E02F3F09F050E0952BA1F404
:100FE0003F3F91F090E1E99FF00111248E2BFB012E
:100FF000808341110BC0F0E13F9FC0011124282BD9
:10100000FB012183842F089541E0FCCF40E0FACF1B
:101010009091DD08813081F58BB1992349F192E0FF
:10102000892B8BB983E191E0C7DB8BB19091DD080F
:10103000992301F19DEF89238BB98CE994E0BCDB06
:101040008BB19091DD08992309F47CC092E0892B43
:101050008BB983E191E0B0DB8BB19091DD089923EE
:1010600009F472C09DEF89238BB983E191E02FC011
:1010700098E0D6CF97EFDFCF81112EC08BB19923A7
:1010800039F192E0892B8BB983E191E095DB8BB14B
:101090009091DD089923F1F09DEF89238BB983E1CD
:1010A00091E08ADB8BB19091DD08992379F192E090
:1010B000892B8BB983E191E07FDB8BB19091DD08C7
:1010C000992331F19DEF89238BB98CE994E074CB9E
:1010D00098E0D8CF97EFE1CF8230E1F48BB199233C
:1010E00089F092E0892B8BB983E191E065DB8BB1CC
:1010F0009091DD08992341F09DEF89238BB98CE90C
:1011000094E0CFCF98E0EECF97EFF7CF98E0D0CF35
:1011100097EFD9CF8BB1992389F092E0892B8BB9C6
:1011200083E191E049DB8BB19091DD08992341F097
:101130009DEF89238BB983E191E081CF98E0EECFD9
:1011400097EFF7CF98E083CF97EF8DCFE6E3F4E00A
:101150002081222391F0009751F04181DC013C91E4
:10116000431305C0428111963C91431789F0E20F69
:10117000F11DB4E0E43EFB0758F324E0E43EF2073F
:1011800019F010F0E4EEF4E0892B11F0F0E0E0E06B
:10119000CF0108958EE699E0D9DF0097A1F0E091A4
:1011A0007409DC012C91E21770F4E80FF92FF11D9E
:1011B00080818093700989E7809371098181809390
:1011C000720981E0089580E008951092330410922E
:1011D000320483E0809374098FEF80933404089580
:1011E00020ED37E0815008F40895F9013197F1F7C7
:1011F000F9CFFC019FB7F8944091450750914607FD
:1012000060914707709148074083518362837383DD
:101210009FBF0895CF9380916D09843009F046C037
:101220008093E90080916403811104C08091E800FB
:1012300085FD43C083E08093E9008091AD0388235E
:10124000A9F18091E80085FF31C0CFB7F894809173
:10125000AD03882341F08091F2009091F300803437
:10126000910508F444C0CFBF2091F2003091F30003
:101270008091E800982F9E7F9093E8008F7780936D
:10128000E8002034310591F485E69091EC0090FF60
:1012900034C09091E80090FF34C08091E800982F0E
:1012A0009E7F9093E8008F778093E800CF91089518
:1012B0006091F10086E299E09CDA8091F2009091D1
:1012C000F300892BA9F78091E800982F9B7F9093DA
:1012D000E8008F778093E80081E080936403E091D9
:1012E0006203F0916303099510926403A3CF8BEA24
:1012F00093E067DA8093F100AACF9091E80092FD25
:10130000CCCF90916D09992341F29091EB0095FD1E
:10131000C4CF9091E10092FFB8CF9091E1009B7F04
:101320009093E100815009F0B0CFB7CFCF93C82F91
:101330008091690985FF13C08091DD08882379F0C9
:10134000809168038034E0F7F8946C2F86E693E090
:1013500050DA8091C90080628093C90078948091AE
:101360006D09843081F48091690980FF0CC08091FF
:10137000AD03803408F04EDF6C2F8BEA93E039DA4E
:10138000CA3009F447DF80918B08882309F476C0BE
:101390008091690983FF72C0CA3009F46FC06BE3A2
:1013A000CD3009F06C2F82E998E023DACD3009F0D6
:1013B0005FC080919508843509F05AC0E091920889
:1013C000A2EAB8E08DE08E1708F45AC0F0E09F0161
:1013D0002F5031098217130609F04AC0DF01A957BF
:1013E000B74F8C91843509F043C0909196081196BF
:1013F0008C91119798133CC09091970812968C91FC
:101400001297981335C09091980813968C91139762
:1014100098132EC09091990814968C911497981354
:1014200027C0EC57F74F15968C9115978083169629
:101430008C911697818319968C91199782831A96AD
:101440008C911A9783831B968C911B9784831C968F
:101450008C911C9785831D968C9186838091920830
:101460008A5080939208809194088A5080939408BF
:1014700083E08093AA0382E08093A903CF9108952B
:101480009D919B3309F4A2CF8F5F9DCFFF920F9365
:101490001F93CF93DF938C01D0E083E0F82EDF9D84
:1014A00090011124F901E85DFA4FC491F901E75D5B
:1014B000FA4F25913491CC2389F00115110531F4AF
:1014C00080E234DF8C2F32DFDF5FE9CFF8018081EB
:1014D0008C13FACFC801F9010995C1E08C2FCDB763
:1014E000DEB7E5E00C9465328DE020DF8AE01ECFA8
:1014F000CF93DF93EC01FE018491811103C0DF9152
:10150000CF91089513DF2196F6CF1F93CF93DF93EA
:10151000FC018181883421F481EA92E0E9DF1AC07C
:101520008335F9F48DE992E0E3DFC0E0DEE011E21B
:10153000ED2FF0E0109357008491C0FF03C0829517
:101540008F70DF5F8F708A3050F4805DEFDECF5F89
:10155000C43171F7C9DFDF91CF911F910895895C84
:10156000F5CF8AE692E0C4DF1E9911C083E692E0CF
:10157000BFDF80918C07813069F48AE492E0B8DFA4
:101580008091DD08882349F08CE292E0C7CF8CE59A
:1015900092E0EECF88E392E0F2CF8DE192E0BECF11
:1015A000CF93DF93EC018991811103C0DF91CF913B
:1015B0000895BCDEF8CFA5E0B0E0E1EEFAE00C94CF
:1015C0004C32AC011D8294E0242F2F702A3020F57C
:1015D000205D9150E1E0F0E0EC0FFD1FE90FF11DFF
:1015E000208384E0569547958A95E1F7615041152F
:1015F000510551F780E3615067FD02C091110EC0A3
:1016000021E030E02C0F3D1F290F311DC901C8DF3B
:101610002596E2E00C946832295CDBCF9150E1E042
:10162000F0E0EC0FFD1FE90FF11D8083E4CF62E0D5
:1016300090E0C1CF0F931F93CF93DF938B01D42FF3
:1016400075DEC0E0F80180818C1760F48091E008BD
:1016500085FF02C08D2FEBDF47DFDF91CF911F9118
:101660000F910895F801EC0FF11D8081E0DFCF5F4D
:10167000E9CF0F931F93CF93DF938C0184E556DE60
:10168000E8010B5F1F4F8991D2DFC017D107D9F74F
:101690008091E00885FF02C08AEFC9DF25DFDF9176
:1016A000CF911F910F910895A4E0B0E0EAE5FBE02F
:1016B0000C944C32CE0101969CDD8C81B8DF8B817D
:1016C000B6DF8A81B4DF8981B2DF0EDF2496E2E0E3
:1016D0000C946832A6E0B0E0E0E7FBE00C944A32FC
:1016E000362F1E82FE01369625E00AE010E02150DA
:1016F000B8010E940532805D8293CB013150009782
:1017000089F480E2315037FD02C021110EC081E022
:1017100090E08C0F9D1F820F911D42DF2696E4E022
:101720000C9466322111E3CFECCF2150E1E0F0E0E0
:10173000EC0FFD1FE20FF11D8083E4CFCF93DF9309
:1017400082E4F4DDC0917509D091760965E0CE019F
:10175000C1DFCADE83E5EADD65E080911501909185
:101760001601B8DFC1DE85E4E1DD65E0809113019B
:1017700090911401AFDFB8DE86E4D8DD209721F424
:10178000C0911501D091160180911301909114011F
:10179000009741F48DB79EB7209117013091180141
:1017A000821B930BC817D90740F48C1B9D0B65E077
:1017B00091DF9ADEDF91CF91089590E080E0F7CF3E
:1017C000CF93C0916909809369098091280981119B
:1017D00004C0C0936909CF91089586E299E00E9400
:1017E000E103E09125098A3011F08D30D9F4EE2320
:1017F00061F3F0E0EC51F74F108284EE98E046DEA2
:1018000081110DC084E995E073DE84EE98E0C8DEB6
:101810008CE795E06DDE90E080E038DE65DE1092CA
:101820002509D3CFE03488F691E09E0F90932509E7
:10183000F0E0EC51F74F8083C8CF8EBD0DB407FEAA
:10184000FDCF8EB50895B0E0A0E0E9E2FCE00C9495
:101850004532B82E192F062F6A01790128988FEF8B
:10186000ECDFCB2DD12F0C0F1D2F111DC017D10771
:10187000A1F4C114D10459F080E0DFDFF6018083C8
:10188000E114F10421F080E0D8DFF7018083289A89
:10189000CDB7DEB7E9E00C94613280E0CEDF89930A
:1018A000E5CF2898CADF289A08950F931F93CF9306
:1018B000CFEF04E110E084E3F4DFC15080778031A2
:1018C00029F0C8010197F1F7C111F5CF8091DD082A
:1018D000882389F050985198E89A80916900816036
:1018E00080936900809169008D7F80936900CF911A
:1018F0001F910F9108958091690080618093690024
:10190000809169008F7D80936900EA9AF0CF0F93F0
:101910001F93CF938091DD088823B1F0E898519A06
:1019200086E3BFDFCFEF04E110E085E3BADFC1500B
:101930008077803229F0C8010197F1F7C111F5CF06
:10194000CF911F910F910895EA98EACFCF93C62FB8
:101950002898806472DF8C2F70DF289ACF910895C9
:101960002898806C6ADF80E068DF289A0895CF931A
:10197000C82F882309F437C01092430786E391DF0C
:1019800085E3EEDFC82F8130D9F78BE38ADF8AE366
:1019900088DF1092380710923A0710923907109298
:1019A0003C0710923B078AEE94E090933E078093A9
:1019B0003D0710923F07C093400710924107809166
:1019C00054078093420760E083E0C0DF62E088E074
:1019D000BDDF84E366DF85E3C3DF8D30E1F781E0BF
:1019E0008093430705C085E3BBDF8D3009F0C4CF8A
:1019F0008C2FCF9108950F931F93CF93DF93EA9885
:101A0000209A289A8CE390E0FC013197F1F728980E
:101A10000197F1F7289A8AE590E00197F1F780E3C2
:101A200040DF88EC90E00197F1F7C7EED2E0FE01CD
:101A300031966491FE01849189DF2296F3E0C931E9
:101A4000DF07A9F78091E804882371F0C1EDD2E0A7
:101A500007EE12E0FE0131966491FE01849176DF7B
:101A600022960C171D07B1F783E31BDF84E0B8DB78
:101A700084E317DF85E374DF8D30D1F7DF91CF91F9
:101A80001F910F910895FC018181823749F4809163
:101A9000E208811101C0AFDF81E08093E90408957D
:101AA0001092E9040895A2E0B0E0E9E5FDE00C94AD
:101AB0004A328C01FC018181873701F541E0BE018A
:101AC0006E5F7F4FC80102960E94B103892BB1F06F
:101AD00041E0BE016F5F7F4FC80104960E94B103D1
:101AE000892B61F069818A8131DF83E3DADEDDDE13
:101AF0008A819DDD89819BDDF7DC19C041E0BE0153
:101B00006F5F7F4FC80101960E94B103892B79F066
:101B10008981893981F410E0812F22DF88DD812FCE
:101B20008770873009F4E0DC1F5F1033A9F7229635
:101B3000E4E00C94663214DF182F83E4F7DB89812C
:101B400076DD8DEA91E0D4DC812F71DD89EA91E0C8
:101B5000CFDC62E0812F90E0BDDDCECFEF92FF922F
:101B60000F931F93CF93DF93182F062F10925407D4
:101B7000109244078AB19091DD0891112BC097EF24
:101B800089238AB98AB19091DD08911125C09BEF14
:101B900089238AB9EA98209A289A8CE390E0FC017C
:101BA0003197F1F728980197F1F7289A8AE590E0A4
:101BB0000197F1F780E375DE88EC90E00197F1F78B
:101BC000113061F0123009F433C0CDB7DEB7E6E072
:101BD0000C9464329DEFD4CF9EEFDACFC0E7D3E010
:101BE00098E3E92E94E0F92EFE018491813448F4C3
:101BF00031966491FE018491A9DE2296EC16FD06D1
:101C000099F7109354070093440783E34ADEE8E30F
:101C1000F7E08CE0DF011D928A95E9F7E2E3F7E057
:101C200086E0DF011D928A95E9F784E0D9DACDCF0D
:101C3000C3E2D3E08BEEE82E83E0F82EFE01849120
:101C40008134F8F631966491FE0184917FDE22960C
:101C5000EC16FD0699F7D5CFFC0191819237E9F496
:101C60008281882329F0833781F462E081E076DF86
:101C7000809144078230E9F480915407813091F0DB
:101C80008230A1F081EC93E00FC0843719F462E058
:101C900082E0EDCF60E080E0EACF933749F781ED55
:101CA00093E026CC8BEC93E023DC1ECC85EC93E018
:101CB000FBCF8DEB93E0F8CF0C94EF31CF93DF9314
:101CC000EA98209A289A8CE390E0FC013197F1F78A
:101CD00028980197F1F7289A8AE590E00197F1F7A3
:101CE00080E3DFDD88EC90E00197F1F7289880E44D
:101CF000A4DDC8EAD2E0FE0184919FDD2196F2E0E6
:101D0000C53BDF07C1F78091080197DD809109018C
:101D100094DD80910A0191DDD0E0C0E0FE01E8543D
:101D2000FD4F84918ADD2196C931D105B9F7289AF2
:101D300028988EE782DD8BE290E0EC012196BCDFF3
:101D40007CDDCE01E397C9F7289A83E3AADD81E021
:101D500047DA81E08093DC08DF91CF9108950F93FB
:101D60001F93CF93C62FC15020F4CF911F910F9195
:101D700008958C010F5F1F4F9FDF59DCCC2311F0BA
:101D80008AE3D4DAC801EFCFA2E0B0E0EAECFEE0EB
:101D90000C944932FC0121812D3449F466E08AEF2C
:101DA00093E0DDDFA1DB2296E5E00C94653220357F
:101DB00021F460E18AED93E0F4CF1A82198242E0C7
:101DC000BE016F5F7F4F01960E94B103098110E051
:101DD000823029F409811A81102701271027C801B0
:101DE0006BDFF82E82E5A2DA64E0C801E4DB87EC61
:101DF00091E07EDB8F2D1BDC83EC91E079DB62E0F0
:101E00008F2D90E067DCCECFCF9385E390E054DF59
:101E100080931C0486E390E04FDF80931B04EBE08B
:101E2000F4E0CFEFC083C283C483C683C087C28778
:101E3000C487C687CAD91092360481E08093F00324
:101E4000A2E2B4E0CC93E1EFF3E08FEF9FEF918358
:101E5000808313821282158214821496CC93149775
:101E60009783868311861086138612861896CC93E4
:101E700018979587848717861686118A108A1C966C
:101E8000CC93938B828B158A148A178A168ACF91EA
:101E90000895A2E0B0E0EFE4FFE00C944C321A8227
:101EA000198242E0BE016F5F7F4F0E94B103823012
:101EB00051F489819A81982789279827FDDE2296F7
:101EC000E2E00C946832898190E0F8CFCF93DF9301
:101ED00089E691E0DEDFC82F8CE691E0DADFD82FCB
:101EE0008FE691E0D6DF2C2F30E050E040E0A901F2
:101EF00033272227280F311D411D511D8D2F90E0C2
:101F0000982F8827280F391F411D511DAAE1B0E0E5
:101F10000E943232853F914030F082E080938C07FE
:101F2000DF91CF91089581E0F9CFCF93DF93FC014A
:101F30008181823709F031C0EA98209A289A8CE38F
:101F400090E0FC013197F1F728980197F1F7289A72
:101F50008AE590E00197F1F780E3A3DC88EC90E05C
:101F60000197F1F7CCEBD4E0FE018491813450F479
:101F700031966491FE018491E9DC2296F4E0C83F39
:101F8000DF0791F783E38DDC81E02AD99FDF81E0D1
:101F90008093D508DF91CF9108958337D9F31092BC
:101FA000D508F8CFA1E0B0E0E8EDFFE00C944832AE
:101FB0001982FC012181223709F066C02281222387
:101FC00031F0BE016F5F7F4F02960E948403F9805B
:101FD0008FEF8F0D833038F089E994E089DA21960C
:101FE000E6E00C946432EA98209A10925307289AFB
:101FF0008CE390E0FC013197F1F728980197F1F715
:10200000289A8AE590E00197F1F780E34ADC88ECB2
:1020100090E00197F1F70BE614E0F8018491813428
:1020200058F431966491F801849190DC0E5F1F4F53
:10203000F4E009391F0789F72F2D2150330BC9010F
:1020400024E1289F8001299F100D1124015D1B4F61
:102050008AE0E82EF8018491813450F4319664913D
:10206000F801849173DCEA940E5F1F4FE110F2CF08
:1020700083E317DCF092530729DF81E0B1D8809128
:102080005307D5DA31DAABCF2837C9F78091530738
:10209000882311F086E305DC10925307F0CF0F93ED
:1020A0001F93CF93DF93EA98209A289A8CE390E0CD
:1020B000FC013197F1F728980197F1F7289A8AE502
:1020C00090E00197F1F780E3ECDB88EC90E001977A
:1020D000F1F7C3EED3E0FE018491813450F43196E0
:1020E0006491FE01849132DC2296F4E0CF31DF0767
:1020F00091F783E3D6DB84E073D8CFEF04E110E0FF
:1021000084E3CFDBC8010197F1F7C150C9F781E043
:102110008093DE08DBDEDF91CF911F910F91089550
:10212000EF92FF920F931F93CF93DF93EC011092E6
:10213000DE088091DD08882309F43EC0E998209AE2
:10214000289A8CE390E0FC013197F1F728980197E9
:10215000F1F7289A8AE590E00197F1F780E3A1DB97
:1021600088EC90E00197F1F7289880E466DB8E0117
:10217000075D1F4F7E018FEFE81AF80ACE019CDD44
:102180005CDBE7010E151F05A9F7289A28988EE752
:1021900054DB8BE290E0EC0121968EDD4EDBCE012C
:1021A000E397C9F7289A83E37CDB81E019D8CDB7A0
:1021B000DEB7E6E00C946432EA98C1CF82E090E0AA
:1021C000AFDF81E08093DC081092E2081092DE0815
:1021D00008958091540781110EC08091E0088823F2
:1021E00011F0ECDF62CB86E35CDB1092DC0810922E
:1021F000E2081092DE080895AFE0B0E0E2E0F1E11D
:102200000C943E328C01FC018181833709F0DDC1E1
:102210001F866E01FFE0CF0ED11C41E0B601C80160
:1022200002960E94B1038F85888741E0B601C801FC
:1022300004960E94B1038F85807FB82E898741E084
:10224000B601C80106960E94B1038F858A8741E0D6
:10225000B601C80108960E94B1038F858B8741E0C3
:10226000B601C8010A960E94B1038F858E8741E0AE
:10227000B601C8010C960E94B1038F858D8741E09D
:10228000B601C8010E960E94B1038F858C878E011E
:10229000085F1F4F780180E0F70121917F01922FA5
:1022A00092959F7092278927CE16DF06A9F78F7027
:1022B0008B29898787E0FE013896DE01119601900F
:1022C0000D928A95E1F798012A5F3F4FF801DF01EF
:1022D000319611968C9111979C91892780832E17A6
:1022E0003F07A9F7769A8091DF08811159C0809144
:1022F000E208882329F081E08093E3081092E20845
:102300008091DE08882329F081E08093E108109213
:10231000DE08EA98209A289A8CE390E0FC01319735
:10232000F1F728980197F1F7289A8AE590E001974C
:10233000F1F780E3B6DA88EC90E00197F1F728989E
:1023400080E47BDA7FEFC72E74E0D72EE8E2AE2E72
:10235000E5E0BE2EF601849170DAFFEFCF1ADF0AB6
:10236000AC14BD04B9F7289A28988EE766DA8BE298
:1023700090E06C012FEFC21AD20A9EDC5EDAC60131
:1023800083339105B1F7289A83E38BDA81E00E94C9
:10239000F00881E08093DC0899DD83E00E94F0087A
:1023A00086E37FDA8AE37DDA8BE37BDAB0DA8BB11E
:1023B0009091DD08992359F192E0892B8BB98EE831
:1023C00099E40197F1F78BB19091DD08992309F118
:1023D0009DEF89238BB989E50E94F0088AE694E095
:1023E0000197F1F7512C6CEE862E63E1962E8091C9
:1023F0001201581680F08091DF08882309F4D0C0BC
:102400008091E008882309F4B2C04FDAB2C098E0A6
:10241000D4CF97EFDECF22E0511027E080E09BB1D0
:102420003091DD08332309F47AC032E0932B9BB955
:10243000F4013197F1F79BB13091DD08332309F4B2
:1024400070C03DEF93239BB9F4013197F1F78F5F93
:102450002813E5CF8BB19091DD08992309F463C06F
:1024600092E0892B8BB988EF95E20197F1F78BB158
:102470009091DD08992309F458C09DEF89238BB909
:1024800080910E0190910F010E94DC036801F6011A
:1024900061906F0148E0442E50E8A52EB12C712CBC
:1024A0009091DD0893012A213B218BB1232B09F068
:1024B00042C09923E1F192E0892B8BB980910E0102
:1024C00090910F010E94DC038BB19091DD0899235C
:1024D00081F19DEF89238BB980910E0190910F01BD
:1024E0000E94DC03B694A7944A944110D9CFEC140F
:1024F000FD0469F68BB19091DD08992399F19DEF68
:1025000089238BB98E8587FD2FC080910E01909114
:102510000F01815399480E94DC03539468CF38E03F
:1025200085CF37EF8FCF98E09CCF97EFA7CF98E07C
:10253000C3CF97EFCFCF992389F09DEF89238BB934
:1025400080910E0190910F010E94DC038BB190915C
:10255000DD08992329F092E0892BBDCF97EFEECFCC
:1025600098E0FACF97EFCCCF8FEC96E7D4CF86E305
:1025700098D9769889E50E94960983E70E94960982
:10258000CE0101967C01F70181917F0150D80E1593
:102590001F05C9F70E94740A2F96E0E10C945A3285
:1025A0008091E308882339F01092E30824DA81E06F
:1025B0008093E2082ACF8091E108882321F01092CD
:1025C000E1086DDDD6CF05DED4CF8237A9F462E114
:1025D00071E0C80102960E94840389E50E94960971
:1025E00082E70E9496098AE30E949609809112016F
:1025F00060E090E06FD8CECF843749F58281803398
:10260000F9F488ED94E0909311018093100180918A
:102610001001909111019695879590930F018093E9
:102620000E0189E50E94960984E70E9496098AE3D3
:102630000E94960966E08091100190911101DACF15
:1026400060E171E0C80102960E949703E0CF8837ED
:1026500009F0A2CF8091E308882341F01092E308AB
:10266000CAD981E08093E20820D907C08091E108AF
:10267000882331F01092E10812DD1092DF088CCF30
:1026800082E090E04DDD8091E0088111EDCF86E39E
:1026900008D9F3CFA7E0B0E0E0E5F3E10C944632CF
:1026A0003091950890E0E92FF0E0E457F74F208152
:1026B00021110CC0992371F0109294081092920885
:1026C000109293082796E8E00C946232321711F0CA
:1026D0009F5FE9CF95E7998301E0882389F0BE01E8
:1026E0006E5F7F4F80918B080E94710380918A08F2
:1026F000BE016C5F7F4F0E94710385E58E8306E00B
:102700005DDD05D916E080E891E00E946F0480E06D
:1027100093E00E9464041150B1F780E093E00E94BE
:102720006F0480E891E00E94640480E891E00E94D8
:102730006F048BB19091DD0891113AC097EF892316
:102740008BB987E390E0ECDC83E00E94F0082898E6
:102750008FE773D8109194088FE390E0801B910964
:102760001817190619F014F01FE3101B802F810FA2
:1027700064D8CE0101966C017C01F70181917F0143
:102780005CD88E2D8C198017C0F3115098F4289ABC
:10279000BED810929408109292081092930815E1F6
:1027A0008AE3DED88F7711F0115051F412DD8ACF11
:1027B0009DEFC5CF82E998E00E94E1033ED8E5CFC6
:1027C00081E00E94F008ECCFFC01218121110DC0B5
:1027D0008091E0080E94170B65E08091D6089091E7
:1027E000D7080E946A0B0C94740A41E060EE78E00E
:1027F00001960E94B103EDCCAAE0B0E0E2E0F4E182
:102800000C943C324C01D62E4887422EED82002398
:10281000A9F08C2D8A0D942F9E5F909F800D11241E
:10282000082E000C990B2091D6083091D708281754
:10283000390740F488EF94E00E94780A2A96E2E192
:102840000C945832281B390B3093D7082093D608A4
:10285000769AB090DE08BB2039F01092DE0882E74D
:1028600091E0B2DFBB24B3948091DC08811101C0F8
:10287000A5DC4DD880E1C89E900111243A832983BC
:1028800020E1A29EF0011124FC83EB838D2D90E0CA
:102890009F838E839885E92EF12C66246394712C96
:1028A000512CC11002C0AA20C1F08BB19091DD085B
:1028B000911149C098E0892B8BB989819A810E9436
:1028C000DC038BB19091DD0891113FC097EF892314
:1028D0008BB98B819C810E94DC031886F8858F2F31
:1028E000FF0F990B2E813F818217930784F1DD2022
:1028F00019F081E00E94360410E0812F012E000CB7
:10290000990B9A8789878E159F0544F117E0880DEA
:10291000991D9A878987812F012E000C990B4816E3
:102920005906BCF18D810E94F008015009F0B9CF21
:102930008091E008882309F43AC00E94550CB11038
:10294000AEDB76987BCF92E0B6CF9DEFC0CF80E034
:102950000E943604E885EF5FE887C0CF87E0282E25
:10296000312C89859A85880D991D9A878987C3019D
:10297000022C01C0880F0A94EAF7E985FA85908154
:1029800089230E943604F1E02F1A310880F71F5F77
:10299000B4CFC301012E01C0880F0A94EAF7E9857C
:1029A000FA85908189230E9436041150B4CF86E3C2
:1029B0000E94510CC4CFAF92CF92EF920F93CF935E
:1029C000DF93CDB7DEB72C970FB6F894DEBF0FBEFE
:1029D000CDBF4BE0BE016F5F7F4F02960E94B103F7
:1029E0008530C1F48EE38093DB088CE18093DA08B4
:1029F00081E28093D9088AE38093D80885E2A82EE3
:102A00009AEFC92EE12C05E024E044E068E0CE0115
:102A10000196F2DE2C960FB6F894DEBF0FBECDBF46
:102A2000DF91CF910F91EF90CF90AF900895AF923B
:102A3000CF92EF920F93CF93DF9300D000D0CDB71A
:102A4000DEB743E0BE016F5F7F4F01960E94B10386
:102A50008AE68093DB0894E29093DA0891E29093FF
:102A6000D9088093D80880E88C83A12CC12C8FE0F2
:102A7000E82E03E026E043E060E0CE010196BCDEF4
:102A80000F900F900F900F90DF91CF910F91EF90DB
:102A9000CF90AF900895A9E1B0E0E1E5F5E10C94A5
:102AA00043327E012DE0E20EF11C4BE0B7010196AE
:102AB0000E94B103982E85E38093DB0896E1909302
:102AC000DA089093D9088093D808692DC7010E942D
:102AD0002207F701E90DF11D80839394198E198265
:102AE000670127E0AA24A394B12C8C2D8E19891597
:102AF00070F0A12CC12C8AE0E82E03E0498D6AE039
:102B0000CE01019679DE6996EBE00C945F3210E01D
:102B100000E0C501002E01C0880F0A94EAF7F60113
:102B20009081AE01475E5F4FBE016F5F7F4F89238B
:102B30000E941004282F0F5F1F4F0430110549F722
:102B4000AE01475E5F4FBE016F5F7F4F81E00E9425
:102B50001004282FC501002E01C0880F0A94EAF73F
:102B6000F6019081AE01475E5F4FBE016F5F7F4F00
:102B700089230E941004282F0F5F1F4F0830110572
:102B800049F7AE01475E5F4FBE016F5F7F4F81E047
:102B90000E941004282FFFEFCF1ADF0AA6CFA9E169
:102BA000B0E0E5EDF5E10C9444327E012DE0E20E5B
:102BB000F11C4BE0B70101960E94B1038930B1F5D9
:102BC00029E12093DA082093DB082093D90822E337
:102BD0002093D80899276E01E6E1CE0ED11C40E083
:102BE000F60152918F014527EE15FF0519F5F70102
:102BF000E80FF91F4083198E1982F9E0CF0ED11C1E
:102C000027E0AA24A394B12CF12CE12C0C151D056E
:102C100099F42223B9F12150A12CC12C8AE0E82E8D
:102C200003E0498D6CE0CE010196E6DD6996EAE0AD
:102C30000C9460326801D4CFC5010E2C01C0880FFE
:102C40000A94EAF7F8019081AE01475E5F4FBE013A
:102C50006F5F7F4F89230E941004282FFFEFEF1A28
:102C6000FF0A88E0E816F10489F6AE01475E5F4F7F
:102C7000BE016F5F7F4F81E00E941004282F0F5F1D
:102C80001F4FC2CF898D8F5F898F27E0C5CFAF924D
:102C9000CF92EF920F93CF93DF93CDB7DEB76097CC
:102CA0000FB6F894DEBF0FBECDBF40E1BE016F5F2F
:102CB0007F4F01960E94B10369814A810B818C810B
:102CC0008093DB088D818093DA088E818093D90808
:102CD0008F818093D808E02EE2948FE0E8220F7075
:102CE000242F2F7042954F70A12CC12CCE01089635
:102CF00083DD60960FB6F894DEBF0FBECDBFDF91C7
:102D0000CF910F91EF90CF90AF900895ADE0B0E0EC
:102D1000ECE8F6E10C944332022FFC01E60FF11DC2
:102D2000162F11112BC0408399249394960E1D8663
:102D300019827C0127E0CC24C394D12C97E0A92EE2
:102D4000B12C191510F1222309F44DC0215089E14D
:102D50008093DA088093DB0885E28093D80880931B
:102D6000D908A12CC12C8AE0E82E4D856CE0CE015B
:102D7000019642DD2D96EBE00C945F321150DC01A0
:102D8000A10FB11D2C91420FCCCFC6010A2C01C05E
:102D9000880F0A94EAF7F7019081AE01435F5F4F15
:102DA000BE016F5F7F4F89230E941004282FF1E03E
:102DB000AF1AB10830F6F70181917F01082E829594
:102DC0008025082E8695869580258F5F8695817053
:102DD000AE01435F5F4FBE016F5F7F4F0E941004E3
:102DE000282F1F5FABCF8D858F5F8D8727E0AFCFFB
:102DF000ACE0B0E0EEEFF6E10C944C324BE0BE01FB
:102E00006F5F7F4F01960E94B10323E046E0682F79
:102E1000CE0101967BDF2C96E2E00C94683286E3CB
:102E20000E94510C809170098335A1F08BE40E94BF
:102E3000F00821E04CE065E08EE699E067DF0E9453
:102E4000550C8091E00886FF04C08EE699E00C9452
:102E5000390B08958BE9EBCFE2DF80917009893659
:102E600031F081E08093350489E280933404089541
:102E700094E0899FF0011124EE5DFB4F80818F3F2C
:102E800089F080931D04818180931E048281809348
:102E90001F0483818093200421E04CE064E08DE1F5
:102EA00094E034CF08954F925F926F927F928F9209
:102EB0009F92AF92BF92EF92FF921F93CF93DF93B7
:102EC0007C01EB01FC0110811F5F24E630E02097BC
:102ED00011F430E020E0F8E01F9FC00111246AE007
:102EE00070E00E941932620F731F4B01072E000C15
:102EF000AA08BB088091D6089091D7082C01712CA4
:102F0000612C481459046A047B0490F48FE194E026
:102F10000E94780ADF91CF911F91FF90EF90BF90B0
:102F2000AF909F908F907F906F905F904F9008959B
:102F3000861B970B9093D7088093D6088091DE0864
:102F4000811101C0ACD885E30E94B00C8D30C1F076
:102F50008AE50E94960985E40E94960982E50E940E
:102F6000960982E50E94960981E30E94960985E30D
:102F70000E94B00C0E94170B0E94740A90D8CACF0E
:102F80008090490790904A07A0904B07B0904C075B
:102F9000240135014FEF441A540A640A740A81145B
:102FA0009104A104B104C1F40E94870C85E30E943E
:102FB000B00C833161F18AE50E94960985E40E9494
:102FC000960982E50E94960982E50E94960982E3AD
:102FD000CCCF81E00E94F008809145079091460790
:102FE000A0914707B091480788169906AA06BB0624
:102FF00081F38091450790914607A0914707B091D2
:10300000480784159505A605B70519F3CDCFCD2B37
:1030100039F0CAE0D0E084E60E94F0082197D9F7A1
:1030200028988FE70E941D0CBE2CCE2DDF2D8C2FF3
:103030008B19811708F44CC0289AC0E085E30E94E0
:10304000B00CD82F85E30E94B00CD81305C0DD303A
:1030500031F081E00E94F008CF5FCA3F79F785E345
:103060000E94B00C8D30F1F08AE50E94960985E44B
:103070000E94960982E50E94960982E50E949609BF
:1030800083E30E94960985E30E94B00C0E94170B0F
:103090008D2F0E94170B8C2F0E94170B0E94740A11
:1030A0000E944F108091DE08811101C092D880915A
:1030B000450790914607A0914707B0914807809334
:1030C000490790934A07A0934B07B0934C0722CF30
:1030D00089910E941D0CABCFAEE1B0E0E2E7F8E1D0
:1030E0000C944A328C01FC018181823731F40E94B8
:1030F0004F106E96E4E00C946632833711F08636FA
:10310000F9F44DE1BE016F5F7F4FC80102960E9446
:10311000B1038150990B29812817190629F086E2FD
:1031200094E00E94780AE5CF61E070E0F8018181C7
:10313000833711F070E060E0CE010196B4DED9CFA4
:1031400043E060E577E0813629F0873741F443E0DA
:103150006DE477E0C80102960E94B103CACF1092D5
:10316000DE08C7CFACE0B0E0E8EBF8E10C944B32FE
:10317000FC018BE0898381818A831B8282E08C83BE
:1031800087818D8380858E8381858F8384818887E5
:103190008581898786818A871B861C8684E10E94B7
:1031A000F00870E060E0CE0101967DDE8AE50E94C5
:1031B000960910E08981811768F48091E00885FF05
:1031C00003C080E00E94170B0E94740A2C96E3E073
:1031D0000C946732E1E0F0E0EC0FFD1FE10FF11D10
:1031E00080810E94170B1F5FE5CFA8E4B0E0EBEFF2
:1031F000F8E10C944232FC019181923779F09235DA
:1032000081F481E08093E8040E94FB0C81E08093CC
:10321000E208C85BDF4FECE00C945E321092E804E9
:10322000F3CF933709F0BFC04FE38E010F5F1F4FFD
:10323000B801CF0102960E94B103F82E282F215029
:10324000330BC90129812817190619F78091E20863
:10325000811105C00E94FB0C83E00E94F008EB8006
:103260008A8196E789278A8322E0422F50E0F8017D
:10327000E40FF51F90818981281708F460C08E2D16
:1032800089278083CE018B5B9F4F0E94F90885E3DD
:103290000E94510C85E30E94B00C833109F458C0A0
:1032A000CE018F5B9F4F0E94F90825964CAD5DAD16
:1032B0006EAD7FAD259729968CAD9DADAEADBFAD02
:1032C000299784179507A607B70760F44A015B01A1
:1032D000881A990AAA0ABB0AEDEB8E169104A1047A
:1032E000B10470F4481759076A077B0788F58454BE
:1032F0009F4FAF4FBF4F84179507A607B70740F5FD
:1033000089E193E00E94780A85E30E94B00C86313F
:1033100049F48BE30E94510C86E30E94510C8DE32B
:103320000E94510C8091E2088823D1F184E30E942D
:10333000510C85E30E94B00C8D30C1F76ACF4C0F61
:103340005D1FDA018C918452892780832F5F8DCF96
:1033500085E30E94B00C833109F099CF8AE0E4FE46
:1033600007C088E70E94F00888E70E94F00888E715
:103370000E94F00828988FE70E941D0C68018C2D90
:10338000801B8F1538F0289A85E30E94B00C83319A
:10339000D9F3BACFD6018D916D010E941D0CEFCFEC
:1033A0000E94E91036CF1092E20833CFB0E0A0E0DF
:1033B000ECEDF9E10C944732EC0189818437A1F4FA
:1033C0006CE071E0CE0102960E94970360E080916C
:1033D0000C0190910D010E946A0B0E94740ACDB7F6
:1033E000DEB7E7E00C946332833709F0F7C18A81D6
:1033F000823759F46BE071E0CE0103960E9484039A
:1034000080910B0160E090E0E6CF769A8091E50430
:10341000811117C08091E208882329F081E0809310
:10342000E7041092E2088091DE08882329F081E009
:103430008093E6041092DE080E945E0E83E00E94F4
:10344000F00886E30E94510C8AE30E94510C8BE342
:103450000E94510C0E94870CFE0101900020E9F7A8
:103460003197EC1BFD0BEE24EA94EE0EEB7F11E09E
:10347000E23209F010E000E00E2C000CFF08809111
:103480000B01081768F08091E504882309F482C1D4
:103490008091E008882309F462C10E94550C62C142
:1034A0009091DD088BB11130F1F59923A1F192E0F3
:1034B000892B8BB98BEE90E00E94DC038BB190914D
:1034C000DD08992351F19DEF89238BB980E197E2C3
:1034D0000E94DC038BB19091DD08992301F192E009
:1034E000892B8BB983E191E00E94DC038BB1909131
:1034F000DD089923B1F09DEF89238BB98AE59AE025
:103500000E94DC03DD24D3948D2D90E08E159F0561
:1035100024F10F5FB4CF98E0CBCF97EFD5CF98E0F1
:10352000DFCF97EFE9CF9923A1F092E0892B8BB9F8
:1035300080910C0190910D010E94DC038BB1909160
:10354000DD08992341F09DEF89238BB980E197E253
:10355000D7CF98E0EBCF97EFF7CF8C0F9D1FFC01F3
:103560008181803309F04EC080E0113009F49BC0A6
:103570008BB19091DD08992309F440C092E0892B2A
:103580008BB980910C0190910D010E94DC038BB1ED
:103590009091DD089923A1F19DEF89238BB980914A
:1035A0000C0190910D019C01220F331F820F931F7C
:1035B0000E94DC038BB19091DD08992309F4A1C02E
:1035C00092E0892B8BB980910C0190910D010E94A2
:1035D000DC038BB19091DD08992309F494C09DEF31
:1035E00089238BB980910C0190910D019C01220FD0
:1035F000331F820F931F0E94DC0357C098E0BFCF98
:1036000097EFCBCF813309F04BC081E0113009F443
:103610004AC08BB19091DD089923F1F192E0892B9A
:103620008BB980910C0190910D019C01220F331FE9
:10363000820F931F0E94DC038BB19091DD089923C8
:1036400069F19DEF89238BB980910C0190910D0157
:103650000E94DC038BB19091DD08992309F47BC0B3
:1036600092E0892B8BB980910C0190910D019C0106
:10367000220F331F820F931F0E94DC038BB19091A6
:10368000DD08992309F469C09DEF89238BB98091E6
:103690000C0190910D01AFCF98E0C1CF97EFD2CF41
:1036A000823329F482E00E940808D3942DCF843419
:1036B00061F5113011F483E0F6CF8BB19091DD0804
:1036C0009923D9F092E0892B8BB980910C019091CC
:1036D0000D019C01220F331F820F931F0E94DC03F8
:1036E0008BB19091DD08992351F09DEF89238BB91F
:1036F00080910C0190910D015BCF98E0E4CF97EFA2
:10370000F5CF98E05ECF97EF6BCF1130A1F28BB180
:103710009091DD089923D9F092E0892B8BB98091A3
:103720000C0190910D010E94DC038BB19091DD089A
:10373000992379F09DEF89238BB980910C019091A9
:103740000D019C01220F331F820F931F81CF98E040
:10375000E4CF97EFF0CF98E084CF97EF96CF86E352
:103760000E94510C769889E60E94960983E70E9490
:10377000960901E0802F90E08E159F050CF02DCE6C
:103780008C0F9D1FFC0181818033E1F40E9496091A
:103790000F5FF0CF8091E704882341F01092E70497
:1037A0000E94FB0C81E08093E20877CE8091E604D2
:1037B000882329F01092E6040E944F10D3CF0E9474
:1037C000E910D0CF813311F3823301F3843411F443
:1037D00084E4DCCF1130E1F386E4D8CF8237C1F442
:1037E0008091E208882329F081E08093E704109219
:1037F000E2088091DE08882329F081E08093E604C6
:103800001092DE080E945E0E81E08093E504E7CD11
:10381000863651F58A818033F9F480E1809308017E
:1038200080EB8093090181E780930A0189E60E9479
:10383000960986E60E9496098AE30E94960980917D
:1038400008010E94170B809109010E94170B8091BB
:103850000A010E94170BC1CD43E068E071E0CE0180
:1038600002960E94B103E2CF883729F58091E704E0
:10387000882351F01092E7040E94FB0C81E08093B2
:10388000E2080E94550C08C08091E604882339F0B4
:103890001092E6040E944F101092E504A0CD82E041
:1038A00090E00E9490108091E0088111EACF86E3B9
:1038B0000E94510CF1CF833609F091CD6CE071E09C
:1038C000CE0101960E9497038ACD0E94F731F999A3
:1038D000FECF0895CF93DF93EC01898181110DC054
:1038E00080918A080E94170B80918B080E94170B09
:1038F0000E94740ADF91CF910895863681F4229652
:10390000ACE8B8E0E0E08991882321F08D93EF5F87
:10391000E530C9F7F0E0E457F74F1082EBCF893676
:10392000C9F441E06AE878E0CE0102960E94B10352
:1039300060918A0880E690E0C8DF41E06BE878E0BB
:10394000CE0104960E94B10360918B0881E690E05D
:10395000BCDFD0CF10929408109292081092930876
:1039600021966991611104C080E00E944A13C2CF80
:1039700082E998E00E94F903F4CFA1E0B0E0E3EC23
:10398000FCE10C944C321982009739F041E0BE0101
:103990006F5F7F4F01960E94B10389818F3F09F4C9
:1039A000FFCF882321F061E083E390E08EDF0E9467
:1039B0000B038091E00081608093E0008091D8004B
:1039C0008F778093D80019BC8091D8008F7E809328
:1039D000D8001092E40410926E00F89488E198E008
:1039E0000FB6F894A895809360000FBE9093600086
:1039F000FFCF41E067E071E001960E94B103809142
:103A0000070180FF06C0769A6091070184E390E089
:103A10005CCF7698F9CFA6E0B0E0E1E1FDE10C944F
:103A200046326C0143E0BE016F5F7F4F01960E94FA
:103A3000B103823010F1098110E0823029F0098150
:103A40001A811027012710277C01FF24FE01EE0DAB
:103A5000FF1D6081C80139DFC8010F97039710F47B
:103A60000E94660FEE0CFF1C8FEFE81AF80AEC0CB0
:103A7000FD1CF7018081811104C02696E8E00C94BA
:103A8000623241E0BE016F5F7F4FC7010E94B10308
:103A9000892B99F30F5F1F4F6981C80116DFE2E0A0
:103AA000EE0EF11CE6CFA7E1B0E0E9E5FDE10C94F4
:103AB00042327C018C010F5F1F4F45E0BE01635F06
:103AC0007F4FC8010E94B103843008F0E4C09D8597
:103AD0009130C9F4833071F46E8585E390E0F5DEB2
:103AE0006F8586E390E0F1DE0E94040F6796ECE0BC
:103AF0000C945E3280911C040E94170B80911B0471
:103B00000E94170B34C0923009F050C0EE24E394A9
:103B1000813031F081E09E85913009F080E0E82E1F
:103B200080913604811104C081EB91E00E94780AF3
:103B300006E314E0F80180818823C9F024E006330D
:103B4000120719F080E20E949609F80181810E9413
:103B5000170BF80182810E94170BE1100BC0F801CE
:103B60008081080F111DF4E0043E1F0718F30E9426
:103B7000740ABCCF8AE30E94960983E0F82EF8010C
:103B80008081F81660F723E02F1528F4F0FE03C0BB
:103B90008CE20E949609DD24D394DF0CF801EF0D2E
:103BA000F11D80810E94170BFD2CE9CF933051F459
:103BB00090E080E00E94A608865394409EEA981BFD
:103BC000892F9ECF903149F50BE014E0E12CF12CC8
:103BD000F80180818F3FA1F0FF2019F080E20E9460
:103BE00096098E2D0E94170B8AE30E949609F80110
:103BF00080810E94170BF80181810E94170BF394BA
:103C00000E5F1F4FE394F8E0EF12E2CF8FEB91E0ED
:103C1000F110ADCF0E94780AAACF913151F4809172
:103C2000090490910A046DE770E00E940532862F26
:103C300067CF923109F09BCF02E214E0E12CF12C26
:103C4000F80180818F3FE1F0FF2019F080E20E94AF
:103C500096098E2D0E94170B8AE30E949609F8019F
:103C600080810E94170BF80181810E94170BF801D7
:103C700082810E94170BF80183810E94170BF39435
:103C80000C5F1F4FE394F4E0EF12DACFF1106FCF27
:103C90008BEB91E0BFCF44E0BE016D5E7F4FC8016A
:103CA0000E94B1034B89493608F49BC02E896C8968
:103CB0005D89A2E2B4E090E080E02C3009F070C0B1
:103CC00030E020E0FD01E252F4408C9148133BC00B
:103CD00011969C911197961336C012969C9112974B
:103CE000951331C0EE5DFB4F8CE08383C901880FD3
:103CF000991F820F931FFC01EE0FFF1FEF50FC4F27
:103D000011821082880F991FFC01ED50FC4F118227
:103D1000108222E04CE064E0CE0143960E948616B9
:103D20008FE08E8B22E04CE064E0CE0143960E944F
:103D3000861682E08E8B22E04CE064E0CE01439652
:103D40000E948616D3CE8F3FE9F4EE5DFB4F408391
:103D5000618352838CE08383C901880F991F820F8E
:103D6000931FFC01EE0FFF1FEF50FC4F11821082DA
:103D7000880F991FFC01ED50FC4F118210821092A8
:103D8000F003C7CF2F5F3F4F14962430310509F061
:103D900099CFACCE019614968430910509F4A6CE45
:103DA000FD01E252F4403C914313F4CF11963C9153
:103DB00011973613EFCF12963C9112973513EACF35
:103DC000EE5DFB4F2383FC01EE0FFF1FE80FF91F91
:103DD000EE0FFF1FED50FC4F81E090E09183808358
:103DE00085CEED8520911C04E217F0F1822F90E042
:103DF0000796E817190609F0BCF59E8580911B040B
:103E0000981332C098899F3269F44BE0BE016F5F0E
:103E10007F4FC8010E94B10322E04CE0682FCE0121
:103E200001968ECF89899C32B9F48093EF0321E00B
:103E300030E030930A042093090424E0829FC001FB
:103E400011242091D6083091D708820F931F9093A8
:103E5000D7088093D6084ACEE21BEE0FF0E0E55F6C
:103E6000FB4F9083818342CE90E080E00E94A608C1
:103E70006C01F80101900020E9F73197E01BF10B8C
:103E8000F695E79501E00E0FC601800F911D865350
:103E900094408E3A91052CF085EB91E00E94780ACF
:103EA00025CEF6010083560111E0812F880F815045
:103EB000101758F0F4EECF16F4E0DF0608F016CE37
:103EC000F601E10FF11D108211CE4501FFEF8F1AAF
:103ED0009F0A41E0B4018E0D9F2D911D0E94B103F8
:103EE000133048F010FD07C0F5018081843619F4C5
:103EF00081818093EE031F5F5401D7CFEF92FF9231
:103F00000F931F93CF93C82F8A3008F0C8E028E0A2
:103F1000C29F800111248BE290E0025D1E4FFC01E4
:103F2000E00FF11F64917C012FEFE21AF20ACDDC61
:103F3000C7018333910599F7C55067E1C53008F48F
:103F400061E184E290E0C1DCCF911F910F91FF907D
:103F5000EF9008950F931F93CF93DF93EC0161E0EF
:103F600090E080E0B2DC6AE181E090E0AEDC82E0EB
:103F700090E0FC01EE50FE4F64918C010F5F1F4FEB
:103F8000A4DCC8010B321105A1F787E390E0FC0126
:103F9000EC56FE4F64918C010F5F1F4F96DCC801F9
:103FA00000361105A1F71E9918C060E18FE090E07E
:103FB0008CDC60EB80E190E088DC61E781E190E0FF
:103FC00084DC60E184E490E080DC60EB85E490E0F8
:103FD0007CDC61E786E490E078DC88E08FDF0E949B
:103FE000660F60E080E690E070DC60E081E690E0E3
:103FF0006CDC60E083E390E068DC62E084E390E006
:1040000064DC60E080E690E060DC60E081E690E007
:104010005CDC209719F08981883719F090E080E006
:10402000ACDCDF91CF911F910F910895A1E0B0E03A
:10403000ECE1F0E20C944C3222E0298341E0BE0135
:104040006F5F7F4F01960E94B103898157DF82E045
:1040500090E00E9490102196E2E00C9468321F924A
:104060000F920FB60F9211242F933F934F935F93AC
:104070006F937F938F939F93AF93BF93EF93FF9330
:104080008091DA0080FF10C08091D80080FF0CC0C2
:104090008091DA008E7F8093DA008091D90080FFD2
:1040A0009AC081E080936D098091E10080FF1CC07F
:1040B0008091E20080FF18C08091E1008E7F8093A4
:1040C000E1008091E2008E7F8093E2008091E20027
:1040D00080618093E2008091D80080628093D80054
:1040E00019BC85E080936D098091E10084FF26C0B2
:1040F0008091E20084FF22C019BC89B5826089BD2D
:1041000009B400FEFDCF8091D8008F7D8093D80048
:104110008091E1008F7E8093E1008091E2008F7EAC
:104120008093E2008091E20081608093E2008091C0
:104130006C09811153C083E080936D098091E10087
:1041400083FF38C08091E20083FF34C08091E1009A
:10415000877F8093E10082E080936D0910926C0963
:104160008091E1008E7F8093E1008091E2008E7F5C
:104170008093E2008091E20080618093E2001092DF
:10418000F40080E08093E9001092F0001092E800C3
:104190009091ED009D7F9093ED009091EB009E7FBC
:1041A0009093EB008F5F873069F742E060E080E03A
:1041B0000E945E03FF91EF91BF91AF919F918F910C
:1041C0007F916F915F914F913F912F910F900FBE13
:1041D0000F901F90189510926D0966CF84E0ACCFB8
:1041E0001F920F920FB60F9211242F933F934F936C
:1041F0005F936F937F938F939F93AF93BF93EF934F
:10420000FF938091DD08811107C08091890782307A
:10421000A1F483E080938907FF91EF91BF91AF9163
:104220009F918F917F916F915F914F913F912F91CE
:104230000F900FBE0F901F9018950E940505ECCFB0
:104240001F920F920FB60F9211242F933F934F930B
:104250005F936F937F938F939F93AF93BF93EF93EE
:10426000FF938091DD08882339F08091890782309F
:10427000A1F483E080938907FF91EF91BF91AF9103
:104280009F918F917F916F915F914F913F912F916E
:104290000F900FBE0F901F9018950E940505ECCF50
:1042A0001F920F920FB60F9211242F933F934F93AB
:1042B0005F936F937F938F939F93AF93BF93EF938E
:1042C000FF9310926F008091E00883FF03C08EE29D
:1042D0000E949609809189089FE3899FF00111242B
:1042E000E357F84F9081933018F09181923098F411
:1042F0000E94C704FF91EF91BF91AF919F918F9161
:104300007F916F915F914F913F912F910F900FBED1
:104310000F901F90189590918807933049F48091E1
:10432000E00882FFE5CF85EB94E00E94780AE0CFB9
:104330009F5F909388078F5F843019F0809389087E
:10434000D9CF10928908D6CF1F920F920FB60F9235
:1043500011242F933F934F938F939F93AF93BF93CA
:10436000EF93FF938091450790914607A0914707EF
:10437000B09148070196A11DB11D80934507909308
:104380004607A0934707B0934807809165038F5F66
:104390008093650390E080E0FC01EE0FFF1FEF507B
:1043A000FC4F208131812F3F3F4F59F020813181D7
:1043B0001216130634F420813181215031093183E2
:1043C000208303968C30910539F7809109049091F0
:1043D0000A04892B49F08091090490910A040197FD
:1043E00090930A0480930904809134048F3F29F04C
:1043F00080913404815080933404FF91EF91BF91F8
:10440000AF919F918F914F913F912F910F900FBE40
:104410000F901F9018951F920F920FB60F921124B4
:104420002F933F934F935F936F937F938F939F93BC
:10443000AF93BF93EF93FF93809168038823B9F004
:1044400086E693E00E94E1038093CE00FF91EF9116
:10445000BF91AF919F918F917F916F915F914F919C
:104460003F912F910F900FBE0F901F901895809144
:10447000C9008F7D8093C900E9CF1F920F920FB6BC
:104480000F9211242F933F934F935F936F937F93DA
:104490008F939F93AF93BF93EF93FF936091CE0061
:1044A0008FE193E00E94F903FF91EF91BF91AF91EB
:1044B0009F918F917F916F915F914F913F912F913C
:1044C0000F900FBE0F901F901895A6E4B0E0EBE69A
:1044D000F2E20C943C3288E19FE00FB6F894A89584
:1044E000809360000FBE9093600080E890E00FB66C
:1044F000F89480936100909361000FBE2E9A2D9ADC
:1045000004B603FE12C083E390E00E945C0E882391
:1045100061F060E083E390E0D8D9F89481E085BF52
:1045200082E085BFE0E0F8E3099589EF87BD84E08C
:1045300085BD82E084BD80936E00109280008AE089
:104540008093810084B7877F84BF6E9A80916400D6
:104550008B7F80936400299A84B1876084B9239803
:1045600080E58CBD8DB581608DBD90E080E00E94BE
:104570005C0E813031F481E090E00E945C0E8A3163
:1045800019F090E080E0E6DC84E390E00E945C0EAD
:104590008093070124982C9A8FEC97E00197F1F70C
:1045A00000C000001C99A7C081E08093DD08549AE8
:1045B0005C9A1092CD008CE08093CC0088E98093C7
:1045C000C90086E08093CA000E940B038091D80046
:1045D00080618093D80081E08093E40478940E9405
:1045E000040F8AB19091DD08992309F489C092E003
:1045F000892B8AB98BB19091DD08992309F482C087
:104600009DEF89238BB98091DD08882309F47CC054
:104610005098809169008160809369008091690061
:104620008D7F8093690082EC91E09093D70880930E
:10463000D6081092CC0710920B0810924A081092DC
:10464000DC0880EE9BE0909363038093620380E636
:1046500090E00E945C0E80938A0881E690E00E94C0
:104660005C0E80938B08882329F081E28093E00818
:104670000E94E91010928C0889E08093690980916A
:10468000DD08882319F089E2809369090E94660F8A
:10469000769862E1262E312C80916D09882309F4E9
:1046A00087C01091E90017701092E9008091E8002E
:1046B00083FF7CC0E6E7F1E08EE791E02091F10016
:1046C00021938E179F07D1F7809176019091770102
:1046D0009A3008F064C2E92FF0E0EF58FC4D0C94DA
:1046E0002C328E237324CF257324CF25BC24E324BE
:1046F000CF25792597251092DD08549A5C9864CFD0
:1047000098E076CF97EF7DCF5298809169008F7DAA
:104710008093690080916900806183CF803871F057
:104720008238B1F580917A018093E9008091EB00A5
:1047300085FB882780F91092E90006C080916A09FC
:1047400090916B09911182609091E800977F90930E
:10475000E8008093F1001092F1008091E800982F1A
:104760009E7F9093E8008F778093E8008091E80027
:1047700082FF0AC08091E800982F9B7F9093E80009
:104780008F778093E80004C080916D098111EECF8E
:104790008091E80083FF0AC08091EB0080628093E3
:1047A000EB008091E800877F8093E8001093E90098
:1047B0008091DD08882389F01091690980E2809357
:1047C000690980912103882331F0F89480912103B5
:1047D00081119FC27894109369090E940A09229658
:1047E0001FAE229780918A078823A1F18091E0086B
:1047F00087FF14C084E30E94B00C8058803408F412
:10480000ADC2803C08F0ACC28055990B43E0959551
:1048100087954A95E1F78F590E9496098091E008A3
:1048200083FF16C082E70E9496098091E00884FF0A
:1048300004C080918B070E94960986E60E94960923
:104840008091E00884FF04C080918A070E94960945
:1048500010928A0780918807882309F439C6769ACE
:104860000091F8019FE3099F800111240357184F1D
:1048700070908C07A2E07A1609F474C2D12CD8018A
:104880008C91833009F054C4D110AFC3AE014F5B9B
:104890005F4F66E4C8010E945B06882309F466C383
:1048A00022968FAD2297815022968FAF2297282F84
:1048B00096E0211144C3E82FF0E0EB5AF84F308125
:1048C000391302C0843060F4492F50E04F5F5F4FCE
:1048D0003417150609F0C1C3843008F4BEC39083B1
:1048E00096E4D92E82C3282F2D7F09F051CF88233B
:1048F00071F08230B9F01092E9008091E800877F72
:104900008093E8008091E800982F9E7F37CF8091B8
:104910007801813009F03CCF933009F080E080933A
:104920006B09E9CF809178018111E5CF80917A01FF
:10493000877009F42DCF8093E9002091EB0020FFD0
:10494000DACF9130A9F49091EB0090619093EB0055
:1049500021E030E001C0220F8A95EAF72093EA00B7
:104960001092EA008091EB0088608093EB00C3CF47
:104970008091EB008062F9CF81110ACF809178019C
:104980009091E800977F9093E8009091E800292F9C
:104990002E7F2093E8009F779093E8009091E800A5
:1049A00090FF0CC08F77982F90689093E300882336
:1049B00009F4EECE83E080936D09EACE90916D0903
:1049C0009111ECCFE5CE8058823008F0E1CE809195
:1049D000780190917901292F33272230310509F48C
:1049E0004CC02330310521F1E2E1F0E08FEE90E0A0
:1049F0002130310509F0CCCE2091E800277F2093AB
:104A0000E80020917C0130917D01E217F30708F462
:104A10009F0150E021153105A9F5511133C0809156
:104A2000E80082FDA7CE80916D098111F8CFA2CE5A
:104A3000992781309105B9F060F0029709F0A8CE6E
:104A40001E9918C081E091E0E1E1F1E0E491F0E02D
:104A500006C0E9E3F1E0E491F0E089E391E030970A
:104A600009F496CEC9CFE1E2F1E0E491F0E081E211
:104A700091E0F5CF81E191E0E7CFE3E4F0E08CEA6B
:104A800090E0BACF4091E80043FD74CE4091E80039
:104A900042FDC5CF40916D09442309F46BCE40918E
:104AA000E800FC0140FFB6CFCF012115310539F0F8
:104AB0004091F2005091F3004830510598F0609118
:104AC000F2007091F30051E06830710509F050E098
:104AD0004091E800642F6E7F6093E8004F77409329
:104AE000E80098CF84918093F100215031093196EC
:104AF000DBCF803809F04CCE8091E800877F80932F
:104B0000E80080916C098093F1008091E800982F73
:104B10009E7F9093E8008F778093E8008091E80073
:104B200082FD28CE80916D098111F8CF31CE81119F
:104B30002FCE90917801923008F02ACE8091E80033
:104B4000877F8093E80090936C098091E800982F0C
:104B50009E7F9093E8008F778093E80080916C09A6
:104B60008823D9F084E080936D0942E061EC82E013
:104B70000E945E0342E361E883E00E945E0342E339
:104B800060E884E00E945E0310920001109201012F
:104B90001092020110920301FBCD83E0E4CF913229
:104BA000F1F0923209F496C0903209F0F1CD8132E1
:104BB00009F0EECD8091E800877F8093E800E0E087
:104BC000F1E087E090E0009709F05EC08091E80096
:104BD00080FD98CE80916D098111F8CF93CE813AF6
:104BE00009F0D6CD8091E800877F8093E80080911E
:104BF0007C0190917D018730910510F087E090E075
:104C000030E040E051E012C02091E80023FDB2CD39
:104C10002091E80022FD0EC020916D09222309F4A5
:104C2000A9CD2091E800FA0120FD11C0009761F79D
:104C30003111EACF8091E80082FD9CCD80916D0911
:104C40008111F8CF97CD21912093F1000197AF0109
:104C5000009739F02091F2003091F30028303105AF
:104C600090F36091F2007091F30031E068307105CB
:104C700009F030E02091E800622F6E7F6093E80039
:104C80002F772093E800D2CF2091E80023FD3ACE81
:104C900020916D09222309F435CE2091E80022FFEE
:104CA00092CF2091F2003091F300232B49F09F0125
:104CB0002F5F3F4F4091F10040830197F90189F741
:104CC0002091E800322F3B7F3093E8002F7720932C
:104CD000E80079CF813209F05BCD8091E800877FD1
:104CE0008093E8008091760187FF0EC08091E800F4
:104CF00082FD40CD80916D098111F8CF49CD809121
:104D00006D09882309F444CD8091E80080FFF7CF36
:104D1000F9CD8FE193E00E94E1037894E091BF0127
:104D20008A3011F08D3071F4EE2309F44ACDF0E0B1
:104D3000E258FE4F10828EE791E00E94460A1092E0
:104D4000BF013FCDE03408F03CCD91E09E0F909341
:104D5000BF01F0E0E258FE4F808333CD80E05BCDB1
:104D60008FE059CD1D8287E08E835801B4E0AB0EF1
:104D7000B11CBA82A982F8018081853009F058C03F
:104D80008181F8E08F9FC0011124D80113964C91C6
:104D900027E030E0241B3109820F931F80399105F1
:104DA00009F046C085E5C82E87E0D82E94E6892E06
:104DB00097E0992E29E8622E3FE0E32E30EFF32EA4
:104DC00041E068E0CE0101960E949504E80EF11CD6
:104DD0006826F60161926F01B4E26B2E680E8E16A2
:104DE0009F0671F741E068E0CE0101960E949504AC
:104DF000E80EF11C80958093640780E122968FAFC6
:104E0000229741E068E0CE0101960E94950490E06F
:104E1000982F8827E81AF90A41E068E0CE01019648
:104E20000E949504F3E5DF2E8E151F0409F427CDAB
:104E3000D8018C91843009F021CD1D8287E08E83CA
:104E4000BA82A98211968C91B8E08B9FC00111247F
:104E5000F801438127E030E0241B3109820F931FC2
:104E6000853491050CF40ACD75E5E72E77E0F72E31
:104E7000EBE5CE2EE7E0DE2EA12C40E068E0CE018F
:104E800001960E949504D7018D937D01B82E0B2CBD
:104E9000B294B0240B2CB694B694B024CE010196F3
:104EA0000E947A04B394B1FABB24B0F82496BFAE42
:104EB000249725961FAE25972596EEADFFAD259735
:104EC0008E171F0609F0DACCCE0101960E947A04F3
:104ED0008111D4CCF70131978081A826CE14DF044C
:104EE00061F686E022968FAF229740E068E0CE011F
:104EF00001960E949504E82EF82E0F2CF294F024CF
:104F00000F2CF694F694F024CE0101960E947A04B8
:104F1000F394F1FAFF24F0F82696FFAE2697279631
:104F20001FAE279727962EAD3FAD27978217130602
:104F300009F0A4CCAE10A2CC68E4D62EA0CC2150AF
:104F4000E22FF0E0EB5AF84F3081930FB2CC915042
:104F5000E92FF0E0EB5AF84F4081240F9111F7CF81
:104F6000321304C0843010F00C94EB31B2E07B12A9
:104F700009C0AE014F5B5F4F65E4C8010E945B064C
:104F800081116EC01D8287E08E83C80104969A83CA
:104F90008983F8018181843009F083C08381813065
:104FA00009F07FC055E5E52E57E0F52E41E0D11020
:104FB00072C067E0CE0101960E9495048068F701F7
:104FC00081937F01D394F4E0DF12F0CF41E067E0FA
:104FD000CE0101960E949504880F8093590785E0C1
:104FE00022968FAF229744E7D42E9091E00890FF4D
:104FF000AAC08091F7018E7F8B7F8093F70191FD8E
:10500000D0C1CE0101960E94F90822968FAD229759
:105010009091F60198135EC1E4ECF1E0A5E5B7E0EC
:1050200090E089134CC149815A816B817C818090C9
:10503000C0019090C101A090C201B090C301481975
:1050400059096A097B09463251056105710508F065
:1050500041C19091F70191603BC1982F2CE07ECF28
:1050600022968FAD2297815022968FAF229789305A
:1050700009F088CFEEE5F7E025E537E080E0929192
:1050800089272E173F07D9F790915E0798137ACF9B
:1050900025E4D22EAACF68E0CE0101960E949504A5
:1050A0008ECFD801DA964C9160918B07C801C996D2
:1050B0000E94EA02682FC8010E94D704AE014F5B2C
:1050C0005F4F6BE4C8010E945B06882311F40C94C7
:1050D000D2312296EFAD2297FF24FA94FE0E22964B
:1050E000FFAE2297E0908707FE1410F40C94D231A3
:1050F0006F2D85E597E00E9422072F2D2E19330B87
:10510000F901EB5AF84F908189130C94D2313BE4AA
:10511000D32E6BCFD80113961C92139711968C91B6
:105120001197815011968C93F2E07F120BC005C04D
:10513000B2E07B12C0C0D11058CFF8018181843019
:1051400009F48AC0D12C8091E00882FF63C180E716
:105150000E949609D8018C9162E090E00E946A0B4F
:10516000F80187A965E0F0E18F9FC00111240E943A
:105170006A0BD801D8968C9165E0B0E18B9FC00195
:1051800011240E946A0BF80181AD65E0F0E18F9F68
:10519000C00111240E946A0BD801DA968C9165E057
:1051A000B0E18B9FC00111240E946A0BF80183AD0E
:1051B00065E0F0E18F9FC00111240E946A0BD801C5
:1051C000DC968C9165E0B0E18B9FC00111240E94B8
:1051D0006A0BF80186A964E090E00E946A0BD8018E
:1051E00012968C9163E090E00E946A0BF801818135
:1051F00063E090E00E946A0BD80113969C9162E0F4
:1052000027E030E0F901E91BF109CF010E946A0BA8
:10521000D801DD968D919C9165E024E0880F991F5F
:105220002A95E1F70E946A0B80E20E94960980911C
:10523000E00885FF08C084E30E94B00C0E94170BB1
:1052400080E20E949609F8018381873019F08181FC
:105250008F5F8183F12CD7C08381843009F072CFB6
:105260004EE16CE3C801C7960E94EA02882309F464
:1052700069CF4EE160918B07C801C9960E94EA028E
:10528000682FC8010E94D704F801848180935507D4
:105290008581809356078681809357078781809305
:1052A000580780858093590785E022968FAF229713
:1052B00032E5D32E9ACEDD2009F444CF96CE31913B
:1052C0002D919F5F321709F4ACCE9091F7019D7F2D
:1052D0009093F701E5E5F7E0A4ECB1E090E08913E5
:1052E0005CC08093F60189819A81AB81BC818093F7
:1052F000C0019093C101A093C201B093C301F4E532
:10530000DF1220C08091E00886FD1CC022968FAD80
:1053100022978530B8F0809157078B3471F0893629
:1053200061F09DEA980F923040F08D57823028F05E
:10533000809158078077803729F48091F701816048
:105340008093F7018091F70180FD03C08460809312
:10535000F70124E5D2120DC080918B08882349F013
:1053600080911C04811105C08091F7018B7F80938F
:10537000F7018091F70182FFE6CE8D2D0E949609FC
:1053800080918707882339F022968FAD229781502C
:1053900022968FAF2297F12C11C021912D939F5F00
:1053A0009ECF8D7F81608093F701A9CFEF2DF0E034
:1053B000EB5AF84F80810E94170BF3942296EFADC1
:1053C0002297FE1698F380918707882349F0F0E032
:1053D000EB5AF84F80818F7061E090E00E94DB0A09
:1053E0008091E00885FF05C084E30E94B00C0E9414
:1053F000170B0E94740AA7CEF801EF0DF11D8481EE
:105400000E94170BF394D80111968C91F816A0F313
:105410000E94740AF801108216AA809188078150B0
:10542000809388078091F8018F5F843009F4BEC0B3
:105430008093F801769880918C07823009F048C0FB
:10544000F4E5DF1245C0C090550700915607109152
:105450005707E0905807D09059078FE580933404A0
:1054600010923504F0901C04F11004C080911B04CC
:10547000882371F180916E09C81204C080916F0970
:10548000081731F00E94E508C0926E0900936F0979
:10549000009133040F3FE1F010937009E09271091D
:1054A000D0927209112309F493C0011191C0DF1445
:1054B00009F47FC024E6D21609F47BC08DEA810F7F
:1054C000823018F01D3709F077C08FEF80933304D6
:1054D0008091450790914607A0914707B0914807F2
:1054E0002091FA01281709F4AAC1809145079091EB
:1054F0004607A0914707B09148078093FA01A89505
:10550000B2E2AB2EB4E0BB2ED12CC12C712C1AEF21
:10551000612E2FB7F894F601EE0FFF1FEF50FC4FEE
:10552000808191812FBF892B09F0CFC08091F0033A
:105530008111CBC0D50112968C91877020E830E0A4
:10554000281B3109629EC001639E900D1124959520
:10555000879595958795918380837601B2E0EB0ED0
:10556000F11CEE0CFF1CF701EF50FC4F4F01808146
:10557000918101969183808386010F5F1F4F000FF9
:10558000111FF801EF50FC4F80819181892B09F0A8
:105590008BC0D4018D919C91049709F085C0872D13
:1055A0000E943817F401118210828FC01092F80106
:1055B00041CF143509F48CCF8E2D807F803609F0D1
:1055C00087CF8E2D8067809371090E942C1780CF22
:1055D0000E94CA08811103C0002309F479CF809189
:1055E0003204E82F811105C0E02FF0E0E35CFE4FAC
:1055F000E491E335D9F41435C9F40E5F0093330414
:105600008823F1F0809174098E5F809374090E9461
:10561000CA08882381F0809170098093320484360F
:10562000A1F68091EE0380937209CFCF1E1741F34C
:105630000E94E5084DCF809133048E5F8093330440
:1056400080913304E82FF0E0E25CFE4F14911F3F9D
:1056500011F31093700997E790937109F092720912
:105660008E5F80933304109232048E3099F48EE66C
:1056700099E00E94A608FC01892B51F0808190E0FE
:1056800024EE34E0281B390BE217F30738F01082C0
:105690000E94E508112309F41BCF97CFDF01A80F63
:1056A000B91F4C914193F0CF0F501C4FD8018D91F1
:1056B0009C911197019709F020C1872D0E943817FE
:1056C00022E030E0F801318320837394F3E0CF0EC1
:1056D000D11C24E0A20EB11C34E073121ACF2FB7F4
:1056E000F8948091090490910A042FBF892B09F046
:1056F00044C080911B048A831B829091EF039923FD
:1057000009F40DC1933009F007C187E791E0909348
:105710000A04809309040BE014E0F12C3CE2E32E30
:10572000D8019C919F3FD1F02091EF0380911C0400
:105730008F0D8983222309F403C1EC822D8321E09C
:105740004CE065E0CE0101960E9486168091E0084B
:1057500086FF04C0CE0101960E94390BF3940E5FC0
:105760001F4FF8E0FF12DCCF8091EF03882329F070
:10577000833009F0EAC01092EF0380913404811164
:105780000FC080913504882309F4E3C00E940F17ED
:1057900089E28093340480913504815080933504EC
:1057A0008091AA03882341F181508093AA0381113B
:1057B00023C0E09189082FE3E29FF0011124E35711
:1057C000F84F808181110AC02091340481E090E07B
:1057D0002F3F11F490E080E0892B19F083E0809353
:1057E000A9038091A90381508093A903882309F418
:1057F000B3C083E08093AA03809165038D37F8F0EE
:10580000109265038091070181FF04C08EB190E47E
:1058100089278EB98091D6089091D708843833E0D3
:10582000930728F401969093D7088093D608809127
:10583000F9018F5F8C3309F493C08093F901809153
:105840008907882309F4B0C0C0904507D090460767
:10585000E0904707F090480780918907833009F06E
:105860002FC28FE30E94B00C182F803408F085C03F
:1058700000E0863090F010922809109226091092CC
:10588000270928988FEF0E941D0C80E00E941D0CB4
:10589000082F115009F073C0289A0E94E910109245
:1058A0008907053709F080C041E0BE016F5F7F4F77
:1058B00089E299E00E94B103019709F0FAC1809151
:1058C0008A0899819813F5C180912D09853509F4CD
:1058D00065C08091280984508093280984E08093D2
:1058E00027096AE086E299E00E94F903E0916203E9
:1058F000F091630388E0099557C08D919C910297C0
:1059000009F0E3CE872D0E943817F801118210822A
:10591000F701EF50FC4F47CE8DE790E0F8CE87704F
:1059200090E08A519F4F4DE7489F9001499F300D6D
:1059300011243595279530930A0420930904EBCE62
:105940009C83F80181818D83FACE82508093EF038E
:1059500014CF0E94E50824CF81E00E944A134CCF67
:105960001092F9018091EE038F5F8C3318F48093CD
:10597000EE0365CF1092EE0362CF1FE37CCF80E091
:105980000E941D0C682F86E299E00E94F90381CFE6
:1059900086E299E00E94E1030E949609809128091D
:1059A0008111F6CF0E94740A8091E208811104C02F
:1059B0008091E904882311F189B190E02091DD08FC
:1059C000222309F49EC121E030E082239323892B16
:1059D00009F4C6C18FE30E94B00C8F7789838034AD
:1059E00008F492C18AE30E94510C86E30E94510C94
:1059F0008DE30E94510C84E30E94510C8091DE08DB
:105A0000882309F47CC089B190E02091DD0822232D
:105A100009F445C221E030E082239323892B09F465
:105A200076C28FE30E94B00C8F778E3108F03AC2B5
:105A3000898328988FEF0E941D0C10E08981181728
:105A400008F432C280E00E941D0C082F80E00E9402
:105A50001D0C289A90915007911108C08091510710
:105A6000811104C0809152078823D1F089818A3046
:105A7000B8F08C81803319F08F7E803489F488856A
:105A800098130EC0998580915107981309C09A8583
:105A900080915207981304C0CE0101960E94B2185B
:105AA00080914D07811108C090914E07911104C05B
:105AB00090914F079923B9F099819B30A1F49C8173
:105AC000903489F4988589130EC0998580914E078A
:105AD000981309C09A8580914F07981304C0CE018E
