:10000000C9C200000C94F920E2C200000C94C9207F
:10001000DEC20000DCC20000DAC20000D8C200006C
:10002000D6C20000D4C200000C940820D0C2000048
:10003000CEC20000CCC20000CAC20000C8C200008C
:10004000C6C200000C942921C2C20000C0C2000038
:10005000BEC200000C947D21BAC20000B8C20000EC
:10006000B6C200000C9416220C94E421B0C2000029
:10007000AEC20000ACC20000AAC20000A8C20000CC
:10008000A6C20000A4C20000A2C20000A0C20000DC
:100090009EC200009CC200009AC2000098C20000EC
:1000A00096C2000094C2000092C200000902430000
:1000B000020100803209040000010202010005244F
:1000C0000001100524010301042402060524060092
:1000D00001070582030800FF09040100020A00006D
:1000E00000070504024000000705830240000012DB
:1000F00001100102000008EB034B20000001020088
:10010000012A03430055004C003400330033000043
:10011000002A03430055004C003800360038000028
:1001200000160362007500730077006100720065BD
:10013000002E00640065000000040309040053530E
:1001400000547D7DFFFF4B4B7E7E00504C4C310DAB
:100150000A00504C4C300D0A0000030F1E262700E9
:100160000000030F1E2536386700030F2567406027
:100170005000030F275188838100030F2750C8C305
:10018000C20027000000000000006700000000001F
:10019000000050000000000000008100000000008E
:1001A0000000C2000000000000202F2000203D20A1
:1001B000004E2F4100454F420D0A004E2F41004E88
:1001C0002F4100202F2000203D2000072E050DD3B9
:1001D00091FF080500000C0021656A2D3B1322F8F1
:1001E00062073F181D1CC700B0876BF8B611EA2ADA
:1001F000001F41000D2E2D07D3913D043200000653
:100200000021656A57C43023B900070018146C0731
:100210000090876BF85611E92A001F410020284CF6
:100220006567616379204D6F64652900202853421A
:1002300055204D6F646529002028462D42616E646B
:100240003A203836384D487A29002028462D426118
:100250006E643A203433334D487A290043554C3884
:1002600036380043554C343333005620312E323863
:100270002E323220612D63756C6677204275696C71
:10028000643A2032322028323032362D30382D3246
:10029000322031333A32303A303629200043554C3F
:1002A0005F5633000D2E2D07D3913D04320000061A
:1002B0000010B07155E43023B900070018146C0722
:1002C0000090876BF85611E92A001F41000B0810B7
:1002D0005B11F81547191D1A1C1BC71C001DB22104
:1002E000B623EA0007022E030D04E905CA070C0B2A
:1002F000060D210E650F6A10C811931203153417ED
:1003000033181819161B4321562500261129592C7C
:10031000812D353EC34552523A4343410D0A0004F4
:1003200054053D1700000602000B080C000D210EBD
:100330006B0FD0105C11041206132214F80A00157A
:100340004421B622101818192E1ABF1B431C091D70
:10035000B523EA242A2500261F29592C812D352E64
:100360000907040800090006FF3EC2FF047605964F
:100370001700000602000B080C000D210E650F6A25
:10038000106A114A1206132214F80A00154721B602
:1003900022101818192E1A6D1B041C091DB223EA0D
:1003A000242A2500261F29592C812D352E090704C2
:1003B0000800090006FF3EC2FF4F4646004F464672
:1003C00000544D4F444500534D4F4445006E6F74EB
:1003D00020636F6D70696C656420696E0D0A0000A2
:1003E00007024604C605260B0610C8119312031314
:1003F000221534173F182819161B432156250026AD
:10040000110D210E650F6A070C160720F81E871FB5
:100410006B29592C812D353EC3FF004C4F56460D9C
:100420000A004C454E4552520D0A000302FF0000DF
:1004300000000000000000000000000000000003B9
:100440000210881182FF0000000000000000000080
:1004500000000003071088110B0D210E6B0FD01543
:1004600053FF00000000000B060D210E650F6A17F8
:1004700000181819161B431C6825002611000102DC
:100480004605D4042D0302070008021089115C12EE
:10049000061556FF00737065636966792076616C96
:1004A0006964206D6F6465206E756D6265720D0AFA
:1004B00000424F56460D0A0000070246030D049AFB
:1004C000057D0642070C0B060D210E650F6A10C84C
:1004D0001193120315341700181819161B431C68C2
:1004E00025002611FF0000000000000000000000B1
:1004F000000000004C4F56460D0A000D2E2D07D36C
:10050000913D04320000060010ABA5550A3023B916
:1005100000070018146C070090876BF85611E92A41
:10052000001F410041CE1842961C62050E432C0D5F
:10053000456E0F65831F46D11647201668B41469AF
:10054000AF194B24156CD21C4DA8156D780B4EAB12
:100550000F501C0D529D0E542C1D742E0B55F01473
:1005600075431C56830A57E41C58BD1378EF1F5976
:10057000D5105A451800000020697320756E6B6E07
:100580006F776E2920557365206F6E65206F66004A
:100590003F20280011241FBECFEFDAE0DEBFCDBF21
:1005A00011E0A0E0B1E0EAEBF4E602C005900D92A4
:1005B000A637B107D9F729E0A6E7B1E001C01D923F
:1005C000A937B207E1F70E943E220C945B3218CDA6
:1005D000FC01218130E050E08081F901E41BF50B42
:1005E0003B967797A0F490E070E0FC01E61BF70BD8
:1005F0003B96779760F4280F391F460F571F241B2F
:10060000350B255F3F4F81E02731310508F080E051
:1006100008958091D8008E7F8093D8001092E200D8
:100620001092DA001092E10010926D0910926C099C
:1006300010926B0910926A098AE482BF19BC89B5CD
:10064000826089BD09B400FEFDCF8091D800982F4B
:100650009F779093D80080688093D8008091D700CE
:1006600081608093D7008091D8008F7D8093D800DF
:100670008091E0008B7F8093E0008091E0008E7F8E
:100680008093E0008091E1008E7F8093E100809173
:10069000E20081608093E2008091E100877F809397
:1006A000E1008091E20088608093E2008091D800B0
:1006B00081608093D80008958093E900EBEEF0E02C
:1006C000808181608083EDEEF0E010826093EC0029
:1006D00040838091EE00881F8827881F0895982FF7
:1006E00092959F709A3050F4905DFB0190838F70CB
:1006F0008A3030F4805DFB0181830895995CF5CFE9
:10070000895CF9CFFC0120E08AE09191911103C04E
:10071000FB012083089530ED390F3A30B0F7289F60
:10072000900D112420ED290FF0CFFC0130E020E0E6
:100730008AE09191911104C0FB01318320830895D7
:1007400040ED490F4A30A8F7829FA001839F500DCA
:1007500011249A0120533109290F311DEACFDC0100
:10076000FB0130E020E09D919923D9F0913608F00B
:10077000905280ED890F8A3050F4982F922B3323BA
:10078000A1F0442371F0908341503196EACF8FEB72
:10079000890F863010F49753F1CF903221F39A33BA
:1007A00011F3CF01861B970B0895292F2295207FE7
:1007B00031E0D9CF880F991F0197F1F70895FC0117
:1007C0002FB7F8948281811102C02FBF08959FEF47
:1007D000980F9283A18191E09A0F9183AE0FBF2F62
:1007E000B11D13968C91903481F71182EECFFC01EC
:1007F0009FB7F8948281803410F09FBF08958F5F77
:100800008283A08181E08A0F8083AE0FBF2FB11D4C
:1008100013966C93803489F71082EFCFCF93DF93D8
:10082000DA01EC91882369F0EB01CE0FD11DA1E034
:10083000B0E0022E01C0AA0F0A94EAF788818A2B41
:100840008883222331F02150822F90E0DF91CF91D5
:100850000895EF5FEC3030F4DA01EC93E60FF72FF8
:10086000F11D108227E0F0CFCF93C82F8BB190916C
:10087000DD08911123C098E0892B8BB98091D908AC
:10088000C11102C08091DB0820E1829FC0011124C8
:1008900091DF8BB19091DD08911112C097EF892300
:1008A0008BB98091D808C11102C08091DA0820E18B
:1008B000829FC00111247EDFCF91089592E0DCCFAA
:1008C0009DEFEDCFAC019BB18091DD0827EF811149
:1008D0002DEF92239BB9CA016DCFAC019BB18091E2
:1008E000DD0828E0811122E0922B9BB9CA0162CF7A
:1008F000FC0184819581A081B181A80FB11D2C914B
:1009000030E0092E02C0359527950A94E2F7217050
:100910003FEF390F3583911104C08F5F848387E0E7
:100920008583822F0895B0E0A0E0E9E9F4E00C941B
:100930001D327C01062FA42ED0E0C0E010E0BB24C5
:10094000B394862F8150990B6C01C701D1DF8823A6
:1009500061F0AA2099F0C6018C1B9D0B2B2D01C0C4
:10096000220F8A95EAF7822F182B2196C01768F379
:10097000812FCDB7DEB7EAE00C9439328B2D0C2EE7
:1009800001C0880F0A94EAF7EFCF10926F00E09150
:1009900089088FE3E89FF0011124E357F84F108294
:1009A00010928900109288000895CF93DF93FC0184
:1009B000A181A23320F0E9DFDF91CF9108958381F7
:1009C000662369F0EF01CA0FD11D21E030E0082E47
:1009D00001C0220F0A94EAF79C81922B9C83882302
:1009E00031F08150838386A98F5F86ABE5CF87E0A6
:1009F0008383AF5FA183A233B1F3AE0FBF2FB11DCD
:100A000014961C92F0CF0F931F93CF93DF93009116
:100A1000840010918500B4E016950795BA95E1F72A
:100A2000C09189089FE3C99FE0011124C357D84FA3
:100A300090918C07923079F42881243031F40E3271
:100A400010F10F3440F0A1DF1EC0253021F4073132
:100A5000D0F00832C0F78091DD088823C9F089B151
:100A6000809581708823D9F0923059F48881845020
:100A7000823038F461E0CE0198DF10928500109248
:100A8000840000938B07DF91CF911F910F91089500
:100A900089B182FB882780F921E08227E3CF80910A
:100AA0008B07081B00938A07109285001092840020
:100AB000923041F488818450823020F460E0CE018D
:100AC00074DFE1CF82E086BB888100918B078823A9
:100AD00009F4AEC010918A07823029F1412F602FAE
:100AE000CE01C99675DD882309F4BEC061E0CE0150
:100AF0005CDF39AD23E0802F90E0329F800D911DA7
:100B00001124959587959595879589AF8AAD412F45
:100B100050E0829F400D511D1124559547955595E4
:100B200047954AAFB0CF412F602FCE01C79650DD19
:100B30002A818823F1F04FA933E0802F90E0439F72
:100B4000800D911D112495958795959587958FAB6F
:100B500088AD412F50E0839F400D511D11245595C4
:100B600047955595479548AF1EAE1DAE2F5F2A831A
:100B70008ACF243008F45BC080EA9FE0909389001C
:100B8000809388008A818C3058F08FA998AD890FA6
:100B90009927991F853691052CF084E0888311C030
:100BA0008A30C8F08FA998AD890F9927991F85972A
:100BB00094F485E0888388EE93E090938900809395
:100BC000880009AF1AAF198287E08B831C8282E00C
:100BD00080936F0058CF80918A08882331F18BED84
:100BE000800F873110F586EF810F8D31F0F481E0B1
:100BF00090E0101710F090E080E0892BB1F03FA951
:100C000028AD8BED820F873180F486EF830F8D3115
:100C100060F481E090E0321710F090E080E0892BE2
:100C200021F081E0809389070ECF83E0B7CF18824F
:100C30001FAA18AE19AE1AAE1BAE1CAE1EAE1DAE6C
:100C40001EAA198287E08B831C82053608F01BCF11
:100C500080918A07853608F016CF0FAB88AF81E008
:100C60008A8382E088830FCF412F602FCE01C79601
:100C7000AFDC882309F4E7CE60E0CE0196DE3FA921
:100C800023E0802F90E0329F800D911D11249595D7
:100C90008795959587958FAB88AD412F50E0829FC2
:100CA000400D511D1124559547955595479548AFD1
:100CB000EACEB0E0A0E0EFE5F6E00C941932DC01FA
:100CC0007A011092870711969C901197990C990CB4
:100CD000990C13968C911397981A892D97E0892E69
:100CE000890C1092550728E0922E980E41E070E092
:100CF00057E0E7E0F0E090E037E0C32ED12C01E0D0
:100D000010E094120DC070938707891408F05EC03C
:100D1000653409F089C05F3F09F086C09F5F86C0D7
:100D20009D012F0F311DE9012C8130E00E2E02C0F4
:100D3000359527950A94E2F7822F8170EE2389F08A
:100D4000E1506B3441F5533009F076C071110CC09D
:100D5000811168C010928707CDB7DEB7EEE00C9422
:100D60003532FF5FE7E0EDCF70E0882309F458C02B
:100D7000292F30E02B5A384F5601A51AB10857FDDC
:100D8000B394E80102C0CC0FDD1FAA94E2F75E0124
:100D9000E90188813FC05F3F61F56634C9F4292FBE
:100DA00030E02B5A384FE9012881022E2295202568
:100DB000022E2695269520252F5F21FB662460F8BC
:100DC000712C8615170459F07093870780E0C4CF03
:100DD000653429F4811103C070938707BDCF9F5FED
:100DE000292F30E02B5A384FE901188257E04F5F26
:100DF00088CF8823A9F0663481F4292F30E02B5A5C
:100E0000384FE90188815801052E02C0AA0CBB1C8D
:100E10000A94E2F7A82AA88203C0653409F4A8CF8F
:100E20005150E5CF71E0E3CF711178CFF701908396
:100E300081E0911191CFCACF5F3F09F096CFCACF21
:100E4000FC015091870795E020E08FEF860F61113C
:100E500007C0920F30E1939FC0011124822B0895A7
:100E60006150DF01A60FB11D3C91432F42954F7099
:100E70002427940F552311F0681749F33F70232757
:100E8000930FE5CF282F30E08A3180F0C9014A97CF
:100E900054E0959587955A95E1F78D5F2F5F3F4F09
:100EA00090E0880F991F820F931F089582E0F6CF7C
:100EB000CF93DF93EC01A881E981CA2FC295CF704F
:100EC000D0E0C75ADE4F8881AF70B0E0A75ABE4F5E
:100ED0004C91AE2FA295AF70B0E0A75ABE4F2C91A7
:100EE000EF70F0E0E75AFE4F308191E08F3F09F05C
:100EF00090E051E04F3F09F050E0952B51E02F3F3B
:100F000009F050E0952BB9F43F3FA9F0D0E48D9F54
:100F1000C0011124E0E14E9FA0011124842B832BFA
:100F2000F4E02F9F90011124822BEB01888380E055
:100F3000DF91CF91089581E0FBCF28E0492F55271D
:100F40004627880F991F47FF04C035E683273DE3F6
:100F50009327660F215091F70895DC0111968C912B
:100F6000119730E020E0411117C012969C91129722
:100F7000E92FEF73F0E0E75EFE4F208134E0839FBE
:100F8000F0011124EC73FF27929596959695937036
:100F9000E92BE75EFE4F3081EC9150E1E59FD001F7
:100FA0001124A073BB2782958F70A82BA75EBE4F1C
:100FB0008C91E695E695F0E0E75EFE4FE08191E0EA
:100FC0008F3F09F090E051E0EF3F09F050E0952BA2
:100FD00051E02F3F09F050E0952BA1F43F3F91F0F5
:100FE00090E1E99FF00111248E2BFB0180834111D8
:100FF0000BC0F0E13F9FC0011124282BFB0121838E
:10100000842F089541E0FCCF40E0FACF9091DD08B5
:10101000813081F58BB1992349F192E0892B8BB90D
:1010200083E191E0C7DB8BB19091DD08992301F159
:101030009DEF89238BB98CE994E0BCDB8BB1909157
:10104000DD08992309F47CC092E0892B8BB983E1F8
:1010500091E0B0DB8BB19091DD08992309F472C067
:101060009DEF89238BB983E191E02FC098E0D6CF23
:1010700097EFDFCF81112EC08BB1992339F192E028
:10108000892B8BB983E191E095DB8BB19091DD08E1
:101090009923F1F09DEF89238BB983E191E08ADBFD
:1010A0008BB19091DD08992379F192E0892B8BB96E
:1010B00083E191E07FDB8BB19091DD08992331F1E1
:1010C0009DEF89238BB98CE994E074CB98E0D8CF5D
:1010D00097EFE1CF8230E1F48BB1992389F092E070
:1010E000892B8BB983E191E065DB8BB19091DD08B1
:1010F000992341F09DEF89238BB98CE994E0CFCF00
:1011000098E0EECF97EFF7CF98E0D0CF97EFD9CF19
:101110008BB1992389F092E0892B8BB983E191E01F
:1011200049DB8BB19091DD08992341F09DEF892334
:101130008BB983E191E081CF98E0EECF97EFF7CFC5
:1011400098E083CF97EF8DCFE6E3F4E02081222370
:1011500091F0009751F04181DC013C91431305C0AF
:10116000428111963C91431789F0E20FF11DB4E0E2
:10117000E43EFB0758F324E0E43EF20719F010F0D8
:10118000E4EEF4E0892B11F0F0E0E0E0CF01089507
:101190008EE699E0D9DF0097A1F0E0917409DC01B7
:1011A0002C91E21770F4E80FF92FF11D80818093E4
:1011B000700989E78093710981818093720981E0C8
:1011C000089580E00895109233041092320483E071
:1011D000809374098FEF80933404089520ED37E0F5
:1011E000815008F40895F9013197F1F7F9CFFC0126
:1011F0009FB7F89440914507509146076091470783
:101200007091480740835183628373839FBF089521
:10121000CF9380916D09843009F046C08093E90036
:1012200080916403811104C08091E80085FD43C072
:1012300083E08093E9008091AD038823A9F1809138
:10124000E80085FF31C0CFB7F8948091AD038823C3
:1012500041F08091F2009091F3008034910508F400
:1012600044C0CFBF2091F2003091F3008091E8009C
:10127000982F9E7F9093E8008F778093E80020342A
:10128000310591F485E69091EC0090FF34C0909187
:10129000E80090FF34C08091E800982F9E7F9093E3
:1012A000E8008F778093E800CF9108956091F10076
:1012B00086E299E09CDA8091F2009091F300892B0C
:1012C000A9F78091E800982F9B7F9093E8008F7793
:1012D0008093E80081E080936403E0916203F091E1
:1012E0006303099510926403A3CF8BEA93E067DA56
:1012F0008093F100AACF9091E80092FDCCCF90911D
:101300006D09992341F29091EB0095FDC4CF909126
:10131000E10092FFB8CF9091E1009B7F9093E100B4
:10132000815009F0B0CFB7CFCF93C82F8091690912
:1013300085FF13C08091DD08882379F080916803D0
:101340008034E0F7F8946C2F86E693E050DA8091D1
:10135000C90080628093C900789480916D098430BF
:1013600081F48091690980FF0CC08091AD038034C5
:1013700008F04EDF6C2F8BEA93E039DACA3009F4BB
:1013800047DF80918B08882309F476C08091690932
:1013900083FF72C0CA3009F46FC06BE3CD3009F02F
:1013A0006C2F82E998E023DACD3009F05FC080919C
:1013B0009508843509F05AC0E0919208A2EAB8E095
:1013C0008DE08E1708F45AC0F0E09F012F503109CC
:1013D0008217130609F04AC0DF01A957B74F8C9155
:1013E000843509F043C09091960811968C9111971D
:1013F00098133CC09091970812968C91129798136D
:1014000035C09091980813968C91139798132EC01D
:101410009091990814968C911497981327C0EC57C3
:10142000F74F15968C911597808316968C91169789
:10143000818319968C91199782831A968C911A97A9
:1014400083831B968C911B9784831C968C911C978D
:1014500085831D968C918683809192088A50809313
:101460009208809194088A508093940883E0809336
:10147000AA0382E08093A903CF9108959D919B33A5
:1014800009F4A2CF8F5F9DCFFF920F931F93CF934D
:10149000DF938C01D0E083E0F82EDF9D90011124D2
:1014A000F901EC5DFA4FC491F901EB5DFA4F25911A
:1014B0003491CC2389F00115110531F480E234DF39
:1014C0008C2F32DFDF5FE9CFF80180818C13FACFF8
:1014D000C801F9010995C1E08C2FCDB7DEB7E5E071
:1014E0000C943E328DE020DF8AE01ECFCF93DF9355
:1014F000EC01FE018491811103C0DF91CF91089529
:1015000013DF2196F6CFFC018181883421F48DE927
:1015100092E0ECDFE7CF8AE692E0E8DF1E9911C0A7
:1015200083E692E0E3DF80918C07813069F48AE4FE
:1015300092E0DCDF8091DD08882349F08CE292E0C4
:10154000E8CF8CE592E0EECF88E392E0F2CF8DE138
:1015500092E0DFCFCF93DF93EC018991811103C03B
:10156000DF91CF910895E0DEF8CFA5E0B0E0EBEB9E
:10157000FAE00C942532AC011D8294E0242F2F70E8
:101580002A3020F5205D9150E1E0F0E0EC0FFD1FE6
:10159000E90FF11D208384E0569547958A95E1F780
:1015A00061504115510551F780E3615067FD02C05C
:1015B00091110EC021E030E02C0F3D1F290F311D8D
:1015C000C901C8DF2596E2E00C944132295CDBCFEB
:1015D0009150E1E0F0E0EC0FFD1FE90FF11D808379
:1015E000E4CF62E090E0C1CF0F931F93CF93DF93DE
:1015F0008B01D42F99DEC0E0F80180818C1760F454
:101600008091E00885FF02C08D2FEBDF6BDFDF915B
:10161000CF911F910F910895F801EC0FF11D80817A
:10162000E0DFCF5FE9CF0F931F93CF93DF938C0160
:1016300084E57ADEE8010B5F1F4F8991D2DFC01786
:10164000D107D9F78091E00885FF02C08AEFC9DF92
:1016500049DFDF91CF911F910F910895A4E0B0E091
:10166000E4E3FBE00C942532CE010196C0DD8C81D1
:10167000B8DF8B81B6DF8A81B4DF8981B2DF32DFE8
:101680002496E2E00C944132A6E0B0E0EAE4FBE00C
:101690000C942332362F1E82FE01369625E00AE096
:1016A00010E02150B8010E94DE31805D8293CB01B1
:1016B0003150009789F480E2315037FD02C021118A
:1016C0000EC081E090E08C0F9D1F820F911D42DFC4
:1016D0002696E4E00C943F322111E3CFECCF215069
:1016E000E1E0F0E0EC0FFD1FE20FF11D8083E4CF9D
:1016F000CF93DF9382E418DEC0917509D09176090B
:1017000065E0CE01C1DFEEDE83E50EDE65E08091AF
:10171000150190911601B8DFE5DE85E405DE65E090
:101720008091130190911401AFDFDCDE86E4FCDDD3
:10173000209721F4C0911501D091160180911301D9
:1017400090911401009741F48DB79EB72091170135
:1017500030911801821B930BC817D90740F48C1BDA
:101760009D0B65E091DFBEDEDF91CF91089590E0A3
:1017700080E0F7CFCF93C091690980936909809188
:101780002809811104C0C0936909CF91089586E2A8
:1017900099E015D8E09125098A3011F08D30D9F4FF
:1017A000EE2369F3F0E0EC51F74F108284EE98E0FD
:1017B0006BDE81110DC080E995E098DE84EE98E043
:1017C000C9DE88E795E092DE90E080E05DDE8ADEAB
:1017D00010922509D4CFE03490F691E09E0F9093BB
:1017E0002509F0E0EC51F74F8083C9CF8EBD0DB4D1
:1017F00007FEFDCF8EB50895B0E0A0E0E2E0FCE08A
:101800000C941E32B82E192F062F6A0179012898E0
:101810008FEFECDFCB2DD12F0C0F1D2F111DC0171B
:10182000D107A1F4C114D10459F080E0DFDFF60143
:101830008083E114F10421F080E0D8DFF701808398
:10184000289ACDB7DEB7E9E00C943A3280E0CEDFDB
:101850008993E5CF2898CADF289A08950F931F939C
:10186000CF93CFEF04E110E084E3F4DFC150807741
:10187000803129F0C8010197F1F7C111F5CF8091AE
:10188000DD08882389F050985198E89A8091690082
:10189000816080936900809169008D7F80936900E9
:1018A000CF911F910F91089580916900806180937D
:1018B0006900809169008F7D80936900EA9AF0CF7A
:1018C0000F931F93CF938091DD088823B1F0E898A0
:1018D000519A86E3BFDFCFEF04E110E085E3BADF82
:1018E000C1508077803229F0C8010197F1F7C1110A
:1018F000F5CFCF911F910F910895EA98EACFCF933A
:10190000C62F2898806472DF8C2F70DF289ACF91C1
:1019100008952898806C6ADF80E068DF289A08952F
:10192000CF93C82F882309F437C01092430786E36A
:1019300091DF85E3EEDFC82F8130D9F78BE38ADFB3
:101940008AE388DF1092380710923A07109239071D
:1019500010923C0710923B078AEE94E090933E076A
:1019600080933D0710923F07C093400710924107B4
:10197000809154078093420760E083E0C0DF62E01B
:1019800088E0BDDF84E366DF85E3C3DF8D30E1F708
:1019900081E08093430705C085E3BBDF8D3009F00C
:1019A000C4CF8C2FCF9108950F931F93CF93DF93C4
:1019B000EA98209A289A8CE390E0FC013197F1F79D
:1019C00028980197F1F7289A8AE590E00197F1F7B6
:1019D00080E340DF88EC90E00197F1F7C3EED2E0BE
:1019E000FE0131966491FE01849189DF2296F3E035
:1019F000C531DF07A9F78091E804882371F0CDECA9
:101A0000D2E003EE12E0FE0131966491FE01849172
:101A100076DF22960C171D07B1F783E31BDF84E006
:101A2000DDDB84E317DF85E374DF8D30D1F7DF91F1
:101A3000CF911F910F910895FC018181823749F464
:101A40008091E208811101C0AFDF81E08093E90459
:101A500008951092E9040895A2E0B0E0E2E3FDE009
:101A60000C9423328C01FC018181873701F541E020
:101A7000BE016E5F7F4FC80102960E94AF03892BA3
:101A8000B1F041E0BE016F5F7F4FC80104960E9434
:101A9000AF03892B61F069818A8131DF83E3DADE6C
:101AA000DDDE8A819EDD89819CDD1CDD19C041E07F
:101AB000BE016F5F7F4FC80101960E94AF03892B63
:101AC00079F08981893981F410E0812F22DF89DD65
:101AD000812F8770873009F405DD1F5F1033A9F768
:101AE0002296E4E00C943F3214DF182F83E41CDCD0
:101AF000898177DD8DEA91E0F9DC812F72DD89EA59
:101B000091E0F4DC62E0812F90E0BEDDCECFEF9279
:101B1000FF920F931F93CF93DF93182F062F1092EE
:101B20005407109244078AB19091DD0891112BC09F
:101B300097EF89238AB98AB19091DD08911125C068
:101B40009BEF89238AB9EA98209A289A8CE390E03F
:101B5000FC013197F1F728980197F1F7289A8AE567
:101B600090E00197F1F780E375DE88EC90E0019753
:101B7000F1F7113061F0123009F433C0CDB7DEB7A0
:101B8000E6E00C943D329DEFD4CF9EEFDACFCCE669
:101B9000D3E094E3E92E94E0F92EFE0184918134A0
:101BA00048F431966491FE018491A9DE2296EC16E8
:101BB000FD0699F7109354070093440783E34ADE28
:101BC000E8E3F7E08CE0DF011D928A95E9F7E2E3B4
:101BD000F7E086E0DF011D928A95E9F784E0FEDAFE
:101BE000CDCFCFE1D3E087EEE82E83E0F82EFE01E3
:101BF00084918134F8F631966491FE0184917FDE00
:101C00002296EC16FD0699F7D5CFFC01918192370B
:101C1000E9F48281882329F0833781F462E081E04E
:101C200076DF809144078230E9F480915407813057
:101C300091F08230A1F08DEB93E00FC0843719F45E
:101C400062E082E0EDCF60E080E0EACF933749F7D1
:101C50008DEC93E04BCC87EC93E048DC43CC81ECFB
:101C600093E0FBCF89EB93E0F8CF0C94C831CF938E
:101C7000DF93EA98209A289A8CE390E0FC01319750
:101C8000F1F728980197F1F7289A8AE590E00197F3
:101C9000F1F780E3DFDD88EC90E00197F1F7289819
:101CA00080E4A4DDC4EAD2E0FE0184919FDD2196A8
:101CB000F2E0C13BDF07C1F78091080197DD809119
:101CC000090194DD80910A0191DDD0E0C0E0FE01C0
:101CD000EC54FD4F84918ADD2196C931D105B9F7C5
:101CE000289A28988EE782DD8BE290E0EC0121961D
:101CF000BCDF7CDDCE01E397C9F7289A83E3AADD38
:101D000081E06CDA81E08093DC08DF91CF91089567
:101D10000F931F93CF93C62FC15020F4CF911F91E3
:101D20000F9108958C010F5F1F4F9FDF5ADCCC236A
:101D300011F08AE3F9DAC801EFCFA2E0B0E0E3EAFC
:101D4000FEE00C942232FC0121812D3449F466E03E
:101D50008AEF93E0DDDFC6DB2296E5E00C943E32AD
:101D6000203521F460E18AED93E0F4CF1A821982E4
:101D700042E0BE016F5F7F4F01960E94AF03098171
:101D800010E0823029F409811A81102701271027D9
:101D9000C8016BDFF82E82E5C7DA64E0C801E5DB35
:101DA00087EC91E0A3DB8F2D1CDC83EC91E09EDBC4
:101DB00062E08F2D90E068DCCECFCF9385E390E09A
:101DC00054DF80931C0486E390E04FDF80931B0474
:101DD000EBE0F4E0CFEFC083C283C483C683C08747
:101DE000C287C487C687EFD91092360481E08093FA
:101DF000F003A2E2B4E0CC93E1EFF3E08FEF9FEFCA
:101E00009183808313821282158214821496CC935C
:101E100014979783868311861086138612861896E8
:101E2000CC9318979587848717861686118A108A0F
:101E30001C96CC93938B828B158A148A178A168AE8
:101E4000CF910895A2E0B0E0E8E2FFE00C942532E3
:101E50001A82198242E0BE016F5F7F4F0E94AF037A
:101E6000823051F489819A81982789279827FDDE4D
:101E70002296E2E00C944132898190E0F8CFCF9332
:101E8000DF9389E691E0DEDFC82F8CE691E0DADFB0
:101E9000D82F8FE691E0D6DF2C2F30E050E040E0E5
:101EA000A90133272227280F311D411D511D8D2FD8
:101EB00090E0982F8827280F391F411D511DAAE156
:101EC000B0E00E940B32853F914030F082E0809379
:101ED0008C07DF91CF91089581E0F9CFCF93DF9305
:101EE000FC018181823709F031C0EA98209A289A52
:101EF0008CE390E0FC013197F1F728980197F1F716
:101F0000289A8AE590E00197F1F780E3A3DC88EC5A
:101F100090E00197F1F7C8EBD4E0FE0184918134A1
:101F200050F431966491FE018491E9DC2296F4E04C
:101F3000C43FDF0791F783E38DDC81E04FD99FDF5A
:101F400081E08093D508DF91CF9108958337D9F34D
:101F50001092D508F8CFA1E0B0E0E1EBFFE00C94DF
:101F600021321982FC012181223709F066C02281C9
:101F7000222331F0BE016F5F7F4F02960E948203E1
:101F8000F9808FEF8F0D833038F085E994E0AEDA79
:101F90002196E6E00C943D32EA98209A109253077D
:101FA000289A8CE390E0FC013197F1F7289801978B
:101FB000F1F7289A8AE590E00197F1F780E34ADC8F
:101FC00088EC90E00197F1F707E614E0F8018491BE
:101FD000813458F431966491F801849190DC0E5F5D
:101FE0001F4FF4E005391F0789F72F2D2150330BC0
:101FF000C90124E1289F8001299F100D1124055D4E
:102000001B4F8AE0E82EF8018491813450F4319618
:102010006491F801849173DCEA940E5F1F4FE11024
:10202000F2CF83E317DCF092530729DF81E0D6D8A3
:1020300080915307D6DA56DAABCF2837C9F78091AB
:102040005307882311F086E305DC10925307F0CF85
:102050000F931F93CF93DF93EA98209A289A8CE3EB
:1020600090E0FC013197F1F728980197F1F7289A51
:102070008AE590E00197F1F780E3ECDB88EC90E0F3
:102080000197F1F7CFEDD3E0FE018491813450F454
:1020900031966491FE01849132DC2296F4E0CB31DA
:1020A000DF0791F783E3D6DB84E098D8CFEF04E134
:1020B00010E084E3CFDBC8010197F1F7C150C9F705
:1020C00081E08093DE08DBDEDF91CF911F910F91DD
:1020D0000895EF92FF920F931F93CF93DF93EC013C
:1020E0001092DE088091DD08882309F43EC0E9984B
:1020F000209A289A8CE390E0FC013197F1F7289818
:102100000197F1F7289A8AE590E00197F1F780E3CB
:10211000A1DB88EC90E00197F1F7289880E466DB7A
:102120008E01075D1F4F7E018FEFE81AF80ACE017E
:102130009CDD5CDBE7010E151F05A9F7289A28989E
:102140008EE754DB8BE290E0EC0121968EDD4EDBD6
:10215000CE01E397C9F7289A83E37CDB81E03ED880
:10216000CDB7DEB7E6E00C943D32EA98C1CF82E00D
:1021700090E0AFDF81E08093DC081092E2081092DB
:10218000DE0808958091540781110EC08091E00807
:10219000882311F0ECDF62CB86E35CDB1092DC0875
:1021A0001092E2081092DE080895AFE0B0E0EBED87
:1021B000F0E10C9417328C01FC018181833709F026
:1021C000DDC11F866E01FFE0CF0ED11C41E0B601DC
:1021D000C80102960E94AF038F85888741E0B6014F
:1021E000C80104960E94AF038F85807FB82E89872F
:1021F00041E0B601C80106960E94AF038F858A8729
:1022000041E0B601C80108960E94AF038F858B8715
:1022100041E0B601C8010A960E94AF038F858E8700
:1022200041E0B601C8010C960E94AF038F858D87EF
:1022300041E0B601C8010E960E94AF038F858C87DE
:102240008E01085F1F4F780180E0F70121917F0127
:10225000922F92959F7092278927CE16DF06A9F7B5
:102260008F708B29898787E0FE013896DE011196F1
:1022700001900D928A95E1F798012A5F3F4FF8018E
:10228000DF01319611968C9111979C91892780835B
:102290002E173F07A9F7769A8091DF08811159C060
:1022A0008091E208882329F081E08093E30810926E
:1022B000E2088091DE08882329F081E08093E1081C
:1022C0001092DE08EA98209A289A8CE390E0FC01AC
:1022D0003197F1F728980197F1F7289A8AE590E06D
:1022E0000197F1F780E3B6DA88EC90E00197F1F717
:1022F000289880E47BDA7BEFC72E74E0D72EE4E2E7
:10230000AE2EE5E0BE2EF601849170DAFFEFCF1A13
:10231000DF0AAC14BD04B9F7289A28988EE766DA6C
:102320008BE290E06C012FEFC21AD20A9EDC5EDADB
:10233000C60183339105B1F7289A83E38BDA81E0F4
:102340000E94EE0881E08093DC0899DD83E00E9422
:10235000EE0886E37FDA8AE37DDA8BE37BDAB0DAB4
:102360008BB19091DD08992359F192E0892B8BB9BB
:102370008EE899E40197F1F78BB19091DD089923EC
:1023800009F19DEF89238BB989E50E94EE088AE661
:1023900094E00197F1F7512C6CEE862E63E1962EB6
:1023A00080911201581680F08091DF08882309F48B
:1023B000D0C08091E008882309F4B2C04FDAB2C0DF
:1023C00098E0D4CF97EFDECF22E0511027E080E0F5
:1023D0009BB13091DD08332309F47AC032E0932BAE
:1023E0009BB9F4013197F1F79BB13091DD083323AC
:1023F00009F470C03DEF93239BB9F4013197F1F7D5
:102400008F5F2813E5CF8BB19091DD08992309F4F4
:1024100063C092E0892B8BB988EF95E20197F1F7C1
:102420008BB19091DD08992309F458C09DEF892361
:102430008BB980910E0190910F010E94DA0368011F
:10244000F60161906F0148E0442E50E8A52EB12CB2
:10245000712C9091DD0893012A213B218BB1232B14
:1024600009F042C09923E1F192E0892B8BB9809168
:102470000E0190910F010E94DA038BB19091DD085B
:10248000992381F19DEF89238BB980910E01909161
:102490000F010E94DA03B694A7944A944110D9CF51
:1024A000EC14FD0469F68BB19091DD08992399F144
:1024B0009DEF89238BB98E8587FD2FC080910E01FA
:1024C00090910F01815399480E94DA03539468CF89
:1024D00038E085CF37EF8FCF98E09CCF97EFA7CF2D
:1024E00098E0C3CF97EFCFCF992389F09DEF892351
:1024F0008BB980910E0190910F010E94DA038BB18C
:102500009091DD08992329F092E0892BBDCF97EFB8
:10251000EECF98E0FACF97EFCCCF8FEC96E7D4CF01
:1025200086E398D9769889E50E94940983E70E940A
:102530009409CE0101967C01F70181917F0151D868
:102540000E151F05C9F70E94720A2F96E0E10C9440
:1025500033328091E308882339F01092E30824DABB
:1025600081E08093E2082ACF8091E108882321F05E
:102570001092E1086DDDD6CF05DED4CF8237A9F405
:1025800062E171E0C80102960E94820389E50E941F
:10259000940982E70E9494098AE30E949409809139
:1025A000120160E090E070D8CECF843749F5828187
:1025B0008033F9F488ED94E0909311018093100139
:1025C00080911001909111019695879590930F013C
:1025D00080930E0189E50E94940984E70E94940982
:1025E0008AE30E94940966E08091100190911101A4
:1025F000DACF60E171E0C80102960E949503E0CF56
:10260000883709F0A2CF8091E308882341F0109227
:10261000E308CAD981E08093E20820D907C08091FD
:10262000E108882331F01092E10812DD1092DF08F2
:102630008CCF82E090E04DDD8091E0088111EDCFFC
:1026400086E308D9F3CFA7E0B0E0E9E2F3E10C9428
:102650001F323091950890E0E92FF0E0E457F74FF2
:10266000208121110CC0992371F0109294081092CE
:102670009208109293082796E8E00C943B323217A8
:1026800011F09F5FE9CF95E7998301E0882389F0F6
:10269000BE016E5F7F4F80918B080E946F03809117
:1026A0008A08BE016C5F7F4F0E946F0385E58E83B1
:1026B00006E05DDD05D916E080E891E00E946D043A
:1026C00080E093E00E9462041150B1F780E093E053
:1026D0000E946D0480E891E00E94620480E891E02D
:1026E0000E946D048BB19091DD0891113AC097EF73
:1026F00089238BB987E390E0ECDC83E00E94EE084D
:1027000028988FE773D8109194088FE390E0801B8E
:1027100091091817190619F014F01FE3101B802FE8
:10272000810F64D8CE0101966C017C01F701819183
:102730007F015CD88E2D8C198017C0F3115098F44E
:10274000289ABED81092940810929208109293087A
:1027500015E18AE3DED88F7711F0115051F412DDC4
:102760008ACF9DEFC5CF82E998E00E94DF033ED873
:10277000E5CF81E00E94EE08ECCFFC012181211120
:102780000DC08091E0080E94F10A65E08091D608B2
:102790009091D7080E94440B0C94720A41E060EEBD
:1027A00078E001960E94AF03EDCCAAE0B0E0EBED3B
:1027B000F3E10C9415324C01D62E4887422EED825F
:1027C0000023A9F08C2D8A0D942F9E5F909F800D81
:1027D0001124082E000C990B2091D6083091D708AF
:1027E0002817390740F484EF94E00E94760A2A966D
:1027F000E2E10C943132281B390B3093D708209337
:10280000D608769AB090DE08BB2039F01092DE0828
:1028100082E791E0B2DFBB24B3948091DC088111A0
:1028200001C0A5DC4DD880E1C89E900111243A83F7
:10283000298320E1A29EF0011124FC83EB838D2DDE
:1028400090E09F838E839885E92EF12C6624639413
:10285000712C512CC11002C0AA20C1F08BB19091F3
:10286000DD08911149C098E0892B8BB989819A8143
:102870000E94DA038BB19091DD0891113FC097EF70
:1028800089238BB98B819C810E94DA031886F88595
:102890008F2FFF0F990B2E813F818217930784F1B1
:1028A000DD2019F081E00E94340410E0812F012E18
:1028B000000C990B9A8789878E159F0544F117E0C4
:1028C000880D991D9A878987812F012E000C990BFD
:1028D00048165906BCF18D810E94EE08015009F09E
:1028E000B9CF8091E008882309F43AC00E942E0CE9
:1028F000B110AEDB76987BCF92E0B6CF9DEFC0CF24
:1029000080E00E943404E885EF5FE887C0CF87E06D
:10291000282E312C89859A85880D991D9A8789875B
:10292000C301022C01C0880F0A94EAF7E985FA85F1
:10293000908189230E943404F1E02F1A310880F736
:102940001F5FB4CFC301012E01C0880F0A94EAF7BC
:10295000E985FA85908189230E9434041150B4CF0F
:1029600086E30E942A0CC4CFAF92CF92EF920F93CE
:10297000CF93DF93CDB7DEB72C970FB6F894DEBFB9
:102980000FBECDBF4BE0BE016F5F7F4F02960E942E
:10299000AF038530C1F48EE38093DB088CE1809334
:1029A000DA0881E28093D9088AE38093D80885E227
:1029B000A82E9AEFC92EE12C05E024E044E068E05F
:1029C000CE010196F2DE2C960FB6F894DEBF0FBE54
:1029D000CDBFDF91CF910F91EF90CF90AF90089541
:1029E000AF92CF92EF920F93CF93DF9300D000D0AE
:1029F000CDB7DEB743E0BE016F5F7F4F01960E9407
:102A0000AF038AE68093DB0894E29093DA0891E2C0
:102A10009093D9088093D80880E88C83A12CC12C8E
:102A20008FE0E82E03E026E043E060E0CE0101966F
:102A3000BCDE0F900F900F900F90DF91CF910F9110
:102A4000EF90CF90AF900895A9E1B0E0EAE2F5E110
:102A50000C941C327E012DE0E20EF11C4BE0B7011C
:102A600001960E94AF03982E85E38093DB0896E1E0
:102A70009093DA089093D9088093D808692DC701FC
:102A80000E942007F701E90DF11D80839394198EB0
:102A90001982670127E0AA24A394B12C8C2D8E19EA
:102AA000891570F0A12CC12C8AE0E82E03E0498D35
:102AB0006AE0CE01019679DE6996EBE00C9438323B
:102AC00010E000E0C501002E01C0880F0A94EAF76B
:102AD000F6019081AE01475E5F4FBE016F5F7F4F91
:102AE00089230E940E04282F0F5F1F4F0430110509
:102AF00049F7AE01475E5F4FBE016F5F7F4F81E0D8
:102B00000E940E04282FC501002E01C0880F0A94D0
:102B1000EAF7F6019081AE01475E5F4FBE016F5F3D
:102B20007F4F89230E940E04282F0F5F1F4F08300C
:102B3000110549F7AE01475E5F4FBE016F5F7F4FE2
:102B400081E00E940E04282FFFEFCF1ADF0AA6CFE4
:102B5000A9E1B0E0EEEAF5E10C941D327E012DE032
:102B6000E20EF11C4BE0B70101960E94AF038930E1
:102B7000B1F529E12093DA082093DB082093D908E6
:102B800022E32093D80899276E01E6E1CE0ED11CEE
:102B900040E0F60152918F014527EE15FF0519F52A
:102BA000F701E80FF91F4083198E1982F9E0CF0E63
:102BB000D11C27E0AA24A394B12CF12CE12C0C15F4
:102BC0001D0599F42223B9F12150A12CC12C8AE0D2
:102BD000E82E03E0498D6CE0CE010196E6DD6996B2
:102BE000EAE00C9439326801D4CFC5010E2C01C043
:102BF000880F0A94EAF7F8019081AE01475E5F4FB3
:102C0000BE016F5F7F4F89230E940E04282FFFEFC4
:102C1000EF1AFF0A88E0E816F10489F6AE01475E74
:102C20005F4FBE016F5F7F4F81E00E940E04282F2F
:102C30000F5F1F4FC2CF898D8F5F898F27E0C5CF70
:102C4000AF92CF92EF920F93CF93DF93CDB7DEB7D2
:102C500060970FB6F894DEBF0FBECDBF40E1BE0156
:102C60006F5F7F4F01960E94AF0369814A810B819C
:102C70008C818093DB088D818093DA088E8180932C
:102C8000D9088F818093D808E02EE2948FE0E82263
:102C90000F70242F2F7042954F70A12CC12CCE01A4
:102CA000089683DD60960FB6F894DEBF0FBECDBFE9
:102CB000DF91CF910F91EF90CF90AF900895ADE05D
:102CC000B0E0E5E6F6E10C941C32022FFC01E60FC1
:102CD000F11D162F11112BC0408399249394960E49
:102CE0001D8619827C0127E0CC24C394D12C97E067
:102CF000A92EB12C191510F1222309F44DC0215031
:102D000089E18093DA088093DB0885E28093D80814
:102D10008093D908A12CC12C8AE0E82E4D856CE067
:102D2000CE01019642DD2D96EBE00C943832115025
:102D3000DC01A10FB11D2C91420FCCCFC6010A2C92
:102D400001C0880F0A94EAF7F7019081AE01435F52
:102D50005F4FBE016F5F7F4F89230E940E04282FB3
:102D6000F1E0AF1AB10830F6F70181917F01082E2A
:102D700082958025082E8695869580258F5F86957D
:102D80008170AE01435F5F4FBE016F5F7F4F0E9456
:102D90000E04282F1F5FABCF8D858F5F8D8727E0B7
:102DA000AFCFACE0B0E0E7EDF6E10C9425324BE0BC
:102DB000BE016F5F7F4F01960E94AF0323E046E0A4
:102DC000682FCE0101967BDF2C96E2E00C94413215
:102DD00086E30E942A0C809170098335A1F08BE470
:102DE0000E94EE0821E04CE065E08EE699E067DFA6
:102DF0000E942E0C8091E00886FF04C08EE699E0C8
:102E00000C94130B08958BE9EBCFE2DF80917009EE
:102E1000893631F081E08093350489E2809334046F
:102E2000089594E0899FF0011124EE5DFB4F8081AD
:102E30008F3F89F080931D04818180931E048281DD
:102E400080931F0483818093200421E04CE064E0A0
:102E50008DE194E034CF08954F925F926F927F920C
:102E60008F929F92AF92BF92EF92FF921F93CF9358
:102E7000DF937C01EB01FC0110811F5F24E630E051
:102E8000209711F430E020E0F8E01F9FC0011124EA
:102E90006AE070E00E94F231620F731F4B01072E4F
:102EA000000CAA08BB088091D6089091D7082C0185
:102EB000712C612C481459046A047B0490F48BE152
:102EC00094E00E94760ADF91CF911F91FF90EF90DE
:102ED000BF90AF909F908F907F906F905F904F903A
:102EE0000895861B970B9093D7088093D6088091FE
:102EF000DE08811101C0ACD885E30E94890C8D30B9
:102F0000C1F08AE50E94940985E40E94940982E553
:102F10000E94940982E50E94940981E30E94940929
:102F200085E30E94890C0E94F10A0E94720A90D8DF
:102F3000CACF8090490790904A07A0904B07B09065
:102F40004C07240135014FEF441A540A640A740AED
:102F500081149104A104B104C1F40E94600C85E3C2
:102F60000E94890C833161F18AE50E94940985E40D
:102F70000E94940982E50E94940982E50E949409C6
:102F800082E3CCCF81E00E94EE08809145079091CA
:102F90004607A0914707B091480788169906AA06E8
:102FA000BB0681F38091450790914607A0914707A2
:102FB000B091480784159505A605B70519F3CDCF3F
:102FC000CD2B39F0CAE0D0E084E60E94EE082197CC
:102FD000D9F728988FE70E94F60BBE2CCE2DDF2D57
:102FE0008C2F8B19811708F44CC0289AC0E085E318
:102FF0000E94890CD82F85E30E94890CD81305C044
:10300000DD3031F081E00E94EE08CF5FCA3F79F7F2
:1030100085E30E94890C8D30F1F08AE50E949409C5
:1030200085E40E94940982E50E94940982E50E9449
:10303000940983E30E94940985E30E94890C0E940D
:10304000F10A8D2F0E94F10A8C2F0E94F10A0E9432
:10305000720A0E9428108091DE08811101C092D866
:103060008091450790914607A0914707B091480786
:103070008093490790934A07A0934B07B0934C075E
:1030800022CF89910E94F60BABCFAEE1B0E0EBE42A
:10309000F8E10C9423328C01FC018181823731F4F8
:1030A0000E9428106E96E4E00C943F32833711F0B2
:1030B0008636F9F44DE1BE016F5F7F4FC80102967D
:1030C0000E94AF038150990B29812817190629F016
:1030D00082E294E00E94760AE5CF61E070E0F801B8
:1030E0008181833711F070E060E0CE010196B4DE9B
:1030F000D9CF43E060E577E0813629F0873741F4A6
:1031000043E06DE477E0C80102960E94AF03CACFA6
:103110001092DE08C7CFACE0B0E0E1E9F8E10C9432
:103120002432FC018BE0898381818A831B8282E0C7
:103130008C8387818D8380858E8381858F83848135
:1031400088878581898786818A871B861C8684E19A
:103150000E94EE0870E060E0CE0101967DDE8AE517
:103160000E94940910E08981811768F48091E00839
:1031700085FF03C080E00E94F10A0E94720A2C962B
:10318000E3E00C944032E1E0F0E0EC0FFD1FE10FD2
:10319000F11D80810E94F10A1F5FE5CFA8E4B0E035
:1031A000E4EDF8E10C941B32FC019181923779F047
:1031B000923581F481E08093E8040E94D40C81E090
:1031C0008093E208C85BDF4FECE00C94373210923A
:1031D000E804F3CF933709F0BFC04FE38E010F5FD0
:1031E0001F4FB801CF0102960E94AF03F82E282F7F
:1031F0002150330BC90129812817190619F780912D
:10320000E208811105C00E94D40C83E00E94EE0800
:10321000EB808A8196E789278A8322E0422F50E05B
:10322000F801E40FF51F90818981281708F460C028
:103230008E2D89278083CE018B5B9F4F0E94F708DC
:1032400085E30E942A0C85E30E94890C833109F4EE
:1032500058C0CE018F5B9F4F0E94F70825964CAD5A
:103260005DAD6EAD7FAD259729968CAD9DADAEADB4
:10327000BFAD299784179507A607B70760F44A01E1
:103280005B01881A990AAA0ABB0AEDEB8E16910413
:10329000A104B10470F4481759076A077B0788F541
:1032A00084549F4FAF4FBF4F84179507A607B707AA
:1032B00040F585E193E00E94760A85E30E94890C3F
:1032C000863149F48BE30E942A0C86E30E942A0C83
:1032D0008DE30E942A0C8091E2088823D1F184E3D7
:1032E0000E942A0C85E30E94890C8D30C1F76ACFB9
:1032F0004C0F5D1FDA018C918452892780832F5FE8
:103300008DCF85E30E94890C833109F099CF8AE043
:10331000E4FE07C088E70E94EE0888E70E94EE08F6
:1033200088E70E94EE0828988FE70E94F60B680154
:103330008C2D801B8F1538F0289A85E30E94890C0C
:103340008331D9F3BACFD6018D916D010E94F60B6E
:10335000EFCF0E94C21036CF1092E20833CFB0E018
:10336000A0E0E5EBF9E10C942032EC01898184378F
:10337000A1F46CE071E0CE0102960E94950360E03A
:1033800080910C0190910D010E94440B0E94720AE1
:10339000CDB7DEB7E7E00C943C32833709F0F7C1D4
:1033A0008A81823759F46BE071E0CE0103960E9466
:1033B000820380910B0160E090E0E6CF769A8091E5
:1033C000E504811117C08091E208882329F081E08B
:1033D0008093E7041092E2088091DE08882329F0A8
:1033E00081E08093E6041092DE080E94370E83E0AD
:1033F0000E94EE0886E30E942A0C8AE30E942A0CAF
:103400008BE30E942A0C0E94600CFE0101900020B8
:10341000E9F73197EC1BFD0BEE24EA94EE0EEB7FFF
:1034200011E0E23209F010E000E00E2C000CFF0881
:1034300080910B01081768F08091E504882309F456
:1034400082C18091E008882309F462C10E942E0C99
:1034500062C19091DD088BB11130F1F59923A1F192
:1034600092E0892B8BB98BEE90E00E94DA038BB14E
:103470009091DD08992351F19DEF89238BB980E16B
:1034800097E20E94DA038BB19091DD08992301F154
:1034900092E0892B8BB983E191E00E94DA038BB132
:1034A0009091DD089923B1F09DEF89238BB98AE5CE
:1034B0009AE00E94DA03DD24D3948D2D90E08E15DE
:1034C0009F0524F10F5FB4CF98E0CBCF97EFD5CF16
:1034D00098E0DFCF97EFE9CF9923A1F092E0892B15
:1034E0008BB980910C0190910D010E94DA038BB190
:1034F0009091DD08992341F09DEF89238BB980E1FC
:1035000097E2D7CF98E0EBCF97EFF7CF8C0F9D1FC7
:10351000FC018181803309F04EC080E0113009F454
:103520009BC08BB19091DD08992309F440C092E0D3
:10353000892B8BB980910C0190910D010E94DA03C7
:103540008BB19091DD089923A1F19DEF89238BB96F
:1035500080910C0190910D019C01220F331F820F6D
:10356000931F0E94DA038BB19091DD08992309F42F
:10357000A1C092E0892B8BB980910C0190910D0133
:103580000E94DA038BB19091DD08992309F494C06D
:103590009DEF89238BB980910C0190910D019C01C5
:1035A000220F331F820F931F0E94DA0357C098E047
:1035B000BFCF97EFCBCF813309F04BC081E0113003
:1035C00009F44AC08BB19091DD089923F1F192E0A2
:1035D000892B8BB980910C0190910D019C01220FD8
:1035E000331F820F931F0E94DA038BB19091DD0885
:1035F000992369F19DEF89238BB980910C019091FA
:103600000D010E94DA038BB19091DD08992309F432
:103610007BC092E0892B8BB980910C0190910D01B8
:103620009C01220F331F820F931F0E94DA038BB17C
:103630009091DD08992309F469C09DEF89238BB926
:1036400080910C0190910D01AFCF98E0C1CF97EF21
:10365000D2CF823329F482E00E940608D3942DCF82
:10366000843461F5113011F483E0F6CF8BB1909181
:10367000DD089923D9F092E0892B8BB980910C0158
:1036800090910D019C01220F331F820F931F0E9406
:10369000DA038BB19091DD08992351F09DEF8923D6
:1036A0008BB980910C0190910D015BCF98E0E4CF34
:1036B00097EFF5CF98E05ECF97EF6BCF1130A1F287
:1036C0008BB19091DD089923D9F092E0892B8BB9C9
:1036D00080910C0190910D010E94DA038BB19091C1
:1036E000DD08992379F09DEF89238BB980910C0136
:1036F00090910D019C01220F331F820F931F81CFE8
:1037000098E0E4CF97EFF0CF98E084CF97EF96CF93
:1037100086E30E942A0C769889E60E94940983E742
:103720000E94940901E0802F90E08E159F050CF017
:103730002DCE8C0F9D1FFC0181818033E1F40E940E
:1037400094090F5FF0CF8091E704882341F0109235
:10375000E7040E94D40C81E08093E20877CE809148
:10376000E604882329F01092E6040E942810D3CFA3
:103770000E94C210D0CF813311F3823301F384341D
:1037800011F484E4DCCF1130E1F386E4D8CF823742
:10379000C1F48091E208882329F081E08093E70456
:1037A0001092E2088091DE08882329F081E080935E
:1037B000E6041092DE080E94370E81E08093E50453
:1037C000E7CD863651F58A818033F9F480E1809324
:1037D000080180EB8093090181E780930A0189E663
:1037E0000E94940986E60E9494098AE30E94940943
:1037F000809108010E94F10A809109010E94F10A5A
:1038000080910A010E94F10AC1CD43E068E071E0B5
:10381000CE0102960E94AF03E2CF883729F580914E
:10382000E704882351F01092E7040E94D40C81E051
:103830008093E2080E942E0C08C08091E604882341
:1038400039F01092E6040E9428101092E504A0CDF1
:1038500082E090E00E9469108091E0088111EACF37
:1038600086E30E942A0CF1CF833609F091CD6CE0FB
:1038700071E0CE0101960E9495038ACD0E94D0315D
:10388000F999FECF0895CF93DF93EC0189818111DF
:103890000DC080918A080E94F10A80918B080E94D5
:1038A000F10A0E94720ADF91CF910895863681F461
:1038B0002296ACE8B8E0E0E08991882321F08D936E
:1038C000EF5FE530C9F7F0E0E457F74F1082EBCF38
:1038D0008936C9F441E06AE878E0CE0102960E9498
:1038E000AF0360918A0880E690E0C8DF41E06BE8B2
:1038F00078E0CE0104960E94AF0360918B0881E6C8
:1039000090E0BCDFD0CF10929408109292081092F1
:10391000930821966991611104C080E00E942313ED
:10392000C2CF82E998E00E94F703F4CFA1E0B0E0B3
:10393000ECE9FCE10C9425321982009739F041E062
:10394000BE016F5F7F4F01960E94AF0389818F3F59
:1039500009F4FFCF882321F061E083E390E08EDF5C
:103960000E9409038091E00081608093E0008091D3
:10397000D8008F778093D80019BC8091D8008F7EB3
:103980008093D8001092E40410926E00F89488E1BD
:1039900098E00FB6F894A895809360000FBE9093BE
:1039A0006000FFCF41E067E071E001960E94AF0345
:1039B0008091070180FF06C0769A6091070184E339
:1039C00090E05CCF7698F9CFA6E0B0E0EAEEFCE1BB
:1039D0000C941F326C0143E0BE016F5F7F4F019674
:1039E0000E94AF03823010F1098110E0823029F08B
:1039F00009811A811027012710277C01FF24FE016D
:103A0000EE0DFF1D6081C80139DFC8010F970397D4
:103A100010F40E943F0FEE0CFF1C8FEFE81AF80A1B
:103A2000EC0CFD1CF7018081811104C02696E8E0B2
:103A30000C943B3241E0BE016F5F7F4FC7010E9493
:103A4000AF03892B99F30F5F1F4F6981C80116DF00
:103A5000E2E0EE0EF11CE6CFA7E1B0E0E2E3FDE12B
:103A60000C941B327C018C010F5F1F4F45E0BE019F
:103A7000635F7F4FC8010E94AF03843008F0E4C049
:103A80009D859130C9F4833071F46E8585E390E0B3
:103A9000F5DE6F8586E390E0F1DE0E94DD0E67962D
:103AA000ECE00C94373280911C040E94F10A809162
:103AB0001B040E94F10A34C0923009F050C0EE2479
:103AC000E394813031F081E09E85913009F080E00F
:103AD000E82E80913604811104C081EB91E00E94B0
:103AE000760A06E314E0F80180818823C9F024E017
:103AF0000633120719F080E20E949409F8018181CF
:103B00000E94F10AF80182810E94F10AE1100BC0C3
:103B1000F8018081080F111DF4E0043E1F0718F31F
:103B20000E94720ABCCF8AE30E94940983E0F82EB7
:103B3000F8018081F81660F723E02F1528F4F0FED5
:103B400003C08CE20E949409DD24D394DF0CF801B9
:103B5000EF0DF11D80810E94F10AFD2CE9CF933019
:103B600051F490E080E00E94A408865394409EEABD
:103B7000981B892F9ECF903149F50BE014E0E12C82
:103B8000F12CF80180818F3FA1F0FF2019F080E235
:103B90000E9494098E2D0E94F10A8AE30E949409E2
:103BA000F80180810E94F10AF80181810E94F10AE6
:103BB000F3940E5F1F4FE394F8E0EF12E2CF8FEB28
:103BC00091E0F110ADCF0E94760AAACF913151F465
:103BD0008091090490910A046DE770E00E94DE3143
:103BE000862F67CF923109F09BCF02E214E0E12CDF
:103BF000F12CF80180818F3FE1F0FF2019F080E285
:103C00000E9494098E2D0E94F10A8AE30E94940971
:103C1000F80180810E94F10AF80181810E94F10A75
:103C2000F80182810E94F10AF80183810E94F10A61
:103C3000F3940C5F1F4FE394F4E0EF12DACFF1102E
:103C40006FCF8BEB91E0BFCF44E0BE016D5E7F4F45
:103C5000C8010E94AF034B89493608F49BC02E89E6
:103C60006C895D89A2E2B4E090E080E02C3009F03C
:103C700070C030E020E0FD01E252F4408C91481326
:103C80003BC011969C911197961336C012969C9149
:103C90001297951331C0EE5DFB4F8CE08383C90111
:103CA000880F991F820F931FFC01EE0FFF1FEF502B
:103CB000FC4F11821082880F991FFC01ED50FC4FC0
:103CC0001182108222E04CE064E0CE0143960E9413
:103CD0005F168FE08E8B22E04CE064E0CE014396CD
:103CE0000E945F1682E08E8B22E04CE064E0CE0101
:103CF00043960E945F16D3CE8F3FE9F4EE5DFB4FF3
:103D00004083618352838CE08383C901880F991FAC
:103D1000820F931FFC01EE0FFF1FEF50FC4F11822B
:103D20001082880F991FFC01ED50FC4F1182108208
:103D30001092F003C7CF2F5F3F4F14962430310508
:103D400009F099CFACCE019614968430910509F410
:103D5000A6CEFD01E252F4403C914313F4CF1196FC
:103D60003C9111973613EFCF12963C911297351371
:103D7000EACFEE5DFB4F2383FC01EE0FFF1FE80F40
:103D8000F91FEE0FFF1FED50FC4F81E090E0918393
:103D9000808385CEED8520911C04E217F0F1822FFF
:103DA00090E00796E817190609F0BCF59E8580910A
:103DB0001B04981332C098899F3269F44BE0BE010E
:103DC0006F5F7F4FC8010E94AF0322E04CE0682F75
:103DD000CE0101968ECF89899C32B9F48093EF038E
:103DE00021E030E030930A042093090424E0829F0C
:103DF000C00111242091D6083091D708820F931F5B
:103E00009093D7088093D6084ACEE21BEE0FF0E0DD
:103E1000E55FFB4F9083818342CE90E080E00E947B
:103E2000A4086C01F80101900020E9F73197E01B2C
:103E3000F10BF695E79501E00E0FC601800F911D7D
:103E4000865394408E3A91052CF085EB91E00E94C8
:103E5000760A25CEF6010083560111E0812F880FE6
:103E60008150101758F0F4EECF16F4E0DF0608F09A
:103E700016CEF601E10FF11D108211CE4501FFEFC4
:103E80008F1A9F0A41E0B4018E0D9F2D911D0E9453
:103E9000AF03133048F010FD07C0F5018081843670
:103EA00019F481818093EE031F5F5401D7CFEF9205
:103EB000FF920F931F93CF93C82F8A3008F0C8E06A
:103EC00028E0C29F800111248BE290E0025D1E4F2A
:103ED000FC01E00FF11F64917C012FEFE21AF20A5E
:103EE000CDDCC7018333910599F7C55067E1C53033
:103EF00008F461E184E290E0C1DCCF911F910F9161
:103F0000FF90EF9008950F931F93CF93DF93EC01F1
:103F100061E090E080E0B2DC6AE181E090E0AEDC5C
:103F200082E090E0FC01EE50FE4F64918C010F5F47
:103F30001F4FA4DCC8010B321105A1F787E390E005
:103F4000FC01EC56FE4F64918C010F5F1F4F96DC15
:103F5000C80100361105A1F71E9918C060E18FE075
:103F600090E08CDC60EB80E190E088DC61E781E14F
:103F700090E084DC60E184E490E080DC60EB85E448
:103F800090E07CDC61E786E490E078DC88E08FDF1D
:103F90000E943F0F60E080E690E070DC60E081E628
:103FA00090E06CDC60E083E390E068DC62E084E356
:103FB00090E064DC60E080E690E060DC60E081E658
:103FC00090E05CDC209719F08981883719F090E047
:103FD00080E0ACDCDF91CF911F910F910895A1E0BB
:103FE000B0E0E5EFFFE10C94253222E0298341E0C7
:103FF000BE016F5F7F4F01960E94AF03898157DF3B
:1040000082E090E00E9469102196E2E00C94413237
:104010001F920F920FB60F9211242F933F934F933D
:104020005F936F937F938F939F93AF93BF93EF9320
:10403000FF938091DA0080FF10C08091D80080FF4C
:104040000CC08091DA008E7F8093DA008091D900D5
:1040500080FF9AC081E080936D098091E10080FF2C
:104060001CC08091E20080FF18C08091E1008E7F2B
:104070008093E1008091E2008E7F8093E200809146
:10408000E20080618093E2008091D800806280939A
:10409000D80019BC85E080936D098091E10084FF10
:1040A00026C08091E20084FF22C019BC89B58260DD
:1040B00089BD09B400FEFDCF8091D8008F7D80932B
:1040C000D8008091E1008F7E8093E1008091E20032
:1040D0008F7E8093E2008091E20081608093E20015
:1040E00080916C09811153C083E080936D098091A8
:1040F000E10083FF38C08091E20083FF34C08091EB
:10410000E100877F8093E10082E080936D09109247
:104110006C098091E1008E7F8093E1008091E20044
:104120008E7F8093E2008091E20080618093E200C4
:104130001092F40080E08093E9001092F000109259
:10414000E8009091ED009D7F9093ED009091EB0041
:104150009E7F9093EB008F5F873069F742E060E0CD
:1041600080E00E945C03FF91EF91BF91AF919F911E
:104170008F917F916F915F914F913F912F910F9010
:104180000FBE0F901F90189510926D0966CF84E0B6
:10419000ACCF1F920F920FB60F9211242F933F9323
:1041A0004F935F936F937F938F939F93AF93BF933F
:1041B000EF93FF938091DD08811107C080918907FB
:1041C0008230A1F483E080938907FF91EF91BF9142
:1041D000AF919F918F917F916F915F914F913F919F
:1041E0002F910F900FBE0F901F9018950E940305FE
:1041F000ECCF1F920F920FB60F9211242F933F9383
:104200004F935F936F937F938F939F93AF93BF93DE
:10421000EF93FF938091DD08882339F0809189071F
:104220008230A1F483E080938907FF91EF91BF91E1
:10423000AF919F918F917F916F915F914F913F913E
:104240002F910F900FBE0F901F9018950E9403059D
:10425000ECCF1F920F920FB60F9211242F933F9322
:104260004F935F936F937F938F939F93AF93BF937E
:10427000EF93FF9310926F008091E00883FF03C0DB
:104280008EE20E949409809189089FE3899FF00142
:104290001124E357F84F9081933018F091819230B8
:1042A00098F40E94C504FF91EF91BF91AF919F9147
:1042B0008F917F916F915F914F913F912F910F90CF
:1042C0000FBE0F901F90189590918807933049F476
:1042D0008091E00882FFE5CF81EB94E00E94760AAE
:1042E000E0CF9F5F909388078F5F843019F08093B1
:1042F0008908D9CF10928908D6CF1F920F920FB696
:104300000F9211242F933F934F938F939F93AF93CB
:10431000BF93EF93FF938091450790914607A0913B
:104320004707B09148070196A11DB11D809345072D
:1043300090934607A0934707B09348078091650381
:104340008F5F8093650390E080E0FC01EE0FFF1F1C
:10435000EF50FC4F208131812F3F3F4F59F020819A
:1043600031811216130634F4208131812150310934
:104370003183208303968C30910539F780910904AD
:1043800090910A04892B49F08091090490910A04C4
:10439000019790930A0480930904809134048F3F1D
:1043A00029F080913404815080933404FF91EF917F
:1043B000BF91AF919F918F914F913F912F910F900E
:1043C0000FBE0F901F9018951F920F920FB60F926D
:1043D00011242F933F934F935F936F937F938F930A
:1043E0009F93AF93BF93EF93FF93809168038823CC
:1043F000B9F086E693E00E94DF038093CE00FF9140
:10440000EF91BF91AF919F918F917F916F915F914C
:104410004F913F912F910F900FBE0F901F901895C5
:104420008091C9008F7D8093C900E9CF1F920F92C0
:104430000FB60F9211242F933F934F935F936F9377
:104440007F938F939F93AF93BF93EF93FF9360916D
:10445000CE008FE193E00E94F703FF91EF91BF91AF
:10446000AF919F918F917F916F915F914F913F910C
:104470002F910F900FBE0F901F901895A6E4B0E0FB
:10448000E4E4F2E20C94153288E19FE00FB6F89470
:10449000A895809360000FBE9093600080E890E044
:1044A0000FB6F89480936100909361000FBE2E9A2E
:1044B0002D9A04B603FE12C083E390E00E94350EED
:1044C000882361F060E083E390E0D8D9F89481E03C
:1044D00085BF82E085BFE0E0F8E3099589EF87BDFD
:1044E00084E085BD82E084BD80936E0010928000E0
:1044F0008AE08093810084B7877F84BF6E9A809121
:1045000064008B7F80936400299A84B1876084B9AA
:10451000239880E58CBD8DB581608DBD90E080E0F5
:104520000E94350E813031F481E090E00E94350E1A
:104530008A3119F090E080E0E6DC84E390E00E94AC
:10454000350E8093070124982C9A8FEC97E0019701
:10455000F1F700C000001C99A7C081E08093DD083E
:10456000549A5C9A1092CD008CE08093CC0088E93C
:104570008093C90086E08093CA000E94090380915D
:10458000D80080618093D80081E08093E40478941F
:104590000E94DD0E8AB19091DD08992309F489C04B
:1045A00092E0892B8AB98BB19091DD08992309F4A7
:1045B00082C09DEF89238BB98091DD08882309F49F
:1045C0007CC05098809169008160809369008091DF
:1045D00069008D7F8093690082EC91E09093D70809
:1045E0008093D6081092CC0710920B0810924A08BC
:1045F0001092DC088AEB9BE0909363038093620344
:1046000080E690E00E94350E80938A0881E690E073
:104610000E94350E80938B08882329F081E28093D5
:10462000E0080E94C21010928C0889E0809369090A
:104630008091DD08882319F089E2809369090E943E
:104640003F0F769862E1262E312C80916D098823E8
:1046500009F487C01091E90017701092E900809169
:10466000E80083FF7CC0E6E7F1E08EE791E020916F
:10467000F10021938E179F07D1F7809176019091D9
:1046800077019A3008F064C2E92FF0E0E65BFC4D58
:104690000C94053267234C24A8254C24A825952486
:1046A000BC24A825522570251092DD08549A5C98E8
:1046B00064CF98E076CF97EF7DCF529880916900D4
:1046C0008F7D8093690080916900806183CF8038FD
:1046D00071F08238B1F580917A018093E900809180
:1046E000EB0085FB882780F91092E90006C08091D5
:1046F0006A0990916B09911182609091E800977F0F
:104700009093E8008093F1001092F1008091E8000E
:10471000982F9E7F9093E8008F778093E800809198
:10472000E80082FF0AC08091E800982F9B7F909359
:10473000E8008F778093E80004C080916D098111B3
:10474000EECF8091E80083FF0AC08091EB00806289
:104750008093EB008091E800877F8093E8001093BE
:10476000E9008091DD08882389F01091690980E2D1
:104770008093690980912103882331F0F894809116
:10478000210381119FC27894109369090E9408093E
:1047900022961FAE229780918A078823A1F18091EB
:1047A000E00887FF14C084E30E94890C805880349D
:1047B00008F4ADC2803C08F0ACC28055990B43E0D0
:1047C000959587954A95E1F78F590E9494098091B4
:1047D000E00883FF16C082E70E9494098091E008F8
:1047E00084FF04C080918B070E94940986E60E9492
:1047F00094098091E00884FF04C080918A070E9498
:10480000940910928A0780918807882309F439C691
:10481000769A0091F8019FE3099F800111240357C4
:10482000184F70908C07A2E07A1609F474C2D12C4C
:10483000D8018C91833009F054C4D110AFC3AE01BC
:104840004F5B5F4F66E4C8010E945906882309F454
:1048500066C322968FAD2297815022968FAF229702
:10486000282F96E0211144C3E82FF0E0EB5AF84FCF
:104870003081391302C0843060F4492F50E04F5F1B
:104880005F4F3417150609F0C1C3843008F4BEC366
:10489000908396E4D92E82C3282F2D7F09F051CF23
:1048A000882371F08230B9F01092E9008091E8001D
:1048B000877F8093E8008091E800982F9E7F37CF14
:1048C00080917801813009F03CCF933009F080E08D
:1048D00080936B09E9CF809178018111E5CF8091B8
:1048E0007A01877009F42DCF8093E9002091EB00C5
:1048F00020FFDACF9130A9F49091EB009061909372
:10490000EB0021E030E001C0220F8A95EAF7209306
:10491000EA001092EA008091EB0088608093EB003F
:10492000C3CF8091EB008062F9CF81110ACF8091D3
:1049300078019091E800977F9093E8009091E800CB
:10494000292F2E7F2093E8009F779093E800909185
:10495000E80090FF0CC08F77982F90689093E30049
:10496000882309F4EECE83E080936D09EACE90911E
:104970006D099111ECCFE5CE8058823008F0E1CE80
:104980008091780190917901292F332722303105C8
:1049900009F44CC02330310521F1E2E1F0E08FEE63
:1049A00090E02130310509F0CCCE2091E800277F3E
:1049B0002093E80020917C0130917D01E217F307FC
:1049C00008F49F0150E021153105A9F5511133C0BC
:1049D0008091E80082FDA7CE80916D098111F8CF0A
:1049E000A2CE992781309105B9F060F0029709F0C5
:1049F000A8CE1E9918C081E091E0E1E1F1E0E491D8
:104A0000F0E006C0E9E3F1E0E491F0E089E391E051
:104A1000309709F496CEC9CFE1E2F1E0E491F0E0FD
:104A200081E291E0F5CF81E191E0E7CFE3E4F0E0CE
:104A30008CEA90E0BACF4091E80043FD74CE4091FB
:104A4000E80042FDC5CF40916D09442309F46BCEC7
:104A50004091E800FC0140FFB6CFCF0121153105A0
:104A600039F04091F2005091F3004830510598F030
:104A70006091F2007091F30051E06830710509F027
:104A800050E04091E800642F6E7F6093E8004F771C
:104A90004093E80098CF84918093F1002150310930
:104AA0003196DBCF803809F04CCE8091E800877FCB
:104AB0008093E80080916C098093F1008091E80078
:104AC000982F9E7F9093E8008F778093E8008091E5
:104AD000E80082FD28CE80916D098111F8CF31CE9A
:104AE00081112FCE90917801923008F02ACE8091DA
:104AF000E800877F8093E80090936C098091E8003C
:104B0000982F9E7F9093E8008F778093E8008091A4
:104B10006C098823D9F084E080936D0942E061EC50
:104B200082E00E945C0342E361E883E00E945C0350
:104B300042E360E884E00E945C031092000110925E
:104B400001011092020110920301FBCD83E0E4CF3A
:104B50009132F1F0923209F496C0903209F0F1CD21
:104B6000813209F0EECD8091E800877F8093E800E4
:104B7000E0E0F1E087E090E0009709F05EC080910E
:104B8000E80080FD98CE80916D098111F8CF93CE19
:104B9000813A09F0D6CD8091E800877F8093E800C4
:104BA00080917C0190917D018730910510F087E024
:104BB00090E030E040E051E012C02091E80023FD99
:104BC000B2CD2091E80022FD0EC020916D09222374
:104BD00009F4A9CD2091E800FA0120FD11C0009749
:104BE00061F73111EACF8091E80082FD9CCD809180
:104BF0006D098111F8CF97CD21912093F100019794
:104C0000AF01009739F02091F2003091F300283085
:104C1000310590F36091F2007091F30031E068305B
:104C2000710509F030E02091E800622F6E7F6093FB
:104C3000E8002F772093E800D2CF2091E80023FDF1
:104C40003ACE20916D09222309F435CE2091E80057
:104C500022FF92CF2091F2003091F300232B49F0F4
:104C60009F012F5F3F4F4091F10040830197F90171
:104C700089F72091E800322F3B7F3093E8002F77AF
:104C80002093E80079CF813209F05BCD8091E80074
:104C9000877F8093E8008091760187FF0EC0809126
:104CA000E80082FD40CD80916D098111F8CF49CD9A
:104CB00080916D09882309F444CD8091E80080FF3C
:104CC000F7CFF9CD8FE193E00E94DF037894E09174
:104CD000BF018A3011F08D3071F4EE2309F44ACD12
:104CE000F0E0E258FE4F10828EE791E00E94440A05
:104CF0001092BF013FCDE03408F03CCD91E09E0F13
:104D00009093BF01F0E0E258FE4F808333CD80E006
:104D10005BCD8FE059CD1D8287E08E835801B4E0D2
:104D2000AB0EB11CBA82A982F8018081853009F0EE
:104D300058C08181F8E08F9FC0011124D8011396DB
:104D40004C9127E030E0241B3109820F931F8039FA
:104D5000910509F046C085E5C82E87E0D82E94E677
:104D6000892E97E0992E29E8622E3FE0E32E30EF5E
:104D7000F32E41E068E0CE0101960E949304E80E14
:104D8000F11C6826F60161926F01B4E26B2E680E89
:104D90008E169F0671F741E068E0CE0101960E94F1
:104DA0009304E80EF11C80958093640780E12296BD
:104DB0008FAF229741E068E0CE0101960E949304F4
:104DC00090E0982F8827E81AF90A41E068E0CE01C0
:104DD00001960E949304F3E5DF2E8E151F0409F45B
:104DE00027CDD8018C91843009F021CD1D8287E038
:104DF0008E83BA82A98211968C91B8E08B9FC001F4
:104E00001124F801438127E030E0241B3109820F8F
:104E1000931F853491050CF40ACD75E5E72E77E0F4
:104E2000F72EEBE5CE2EE7E0DE2EA12C40E068E089
:104E3000CE0101960E949304D7018D937D01B82E77
:104E40000B2CB294B0240B2CB694B694B024CE01A3
:104E500001960E947804B394B1FABB24B0F824966A
:104E6000BFAE249725961FAE25972596EEADFFADD4
:104E700025978E171F0609F0DACCCE0101960E9405
:104E800078048111D4CCF70131978081A826CE1403
:104E9000DF0461F686E022968FAF229740E068E05B
:104EA000CE0101960E949304E82EF82E0F2CF29466
:104EB000F0240F2CF694F694F024CE0101960E9473
:104EC0007804F394F1FAFF24F0F82696FFAE2697C3
:104ED00027961FAE279727962EAD3FAD27978217AF
:104EE000130609F0A4CCAE10A2CC68E4D62EA0CC58
:104EF0002150E22FF0E0EB5AF84F3081930FB2CC03
:104F00009150E92FF0E0EB5AF84F4081240F9111B6
:104F1000F7CF321304C0843010F00C94C431B2E0E7
:104F20007B1209C0AE014F5B5F4F65E4C8010E9470
:104F3000590681116EC01D8287E08E83C8010496D8
:104F40009A838983F8018181843009F083C0838149
:104F5000813009F07FC055E5E52E57E0F52E41E0A0
:104F6000D11072C067E0CE0101960E949304806860
:104F7000F70181937F01D394F4E0DF12F0CF41E099
:104F800067E0CE0101960E949304880F8093590731
:104F900085E022968FAF229744E7D42E9091E008C7
:104FA00090FFAAC08091F7018E7F8B7F8093F701DD
:104FB00091FDD0C1CE0101960E94F70822968FADD7
:104FC00022979091F60198135EC1E4ECF1E0A5E51B
:104FD000B7E090E089134CC149815A816B817C8193
:104FE0008090C0019090C101A090C201B090C30117
:104FF000481959096A097B0946325105610571054D
:1050000008F041C19091F70191603BC1982F2CE0CD
:105010007ECF22968FAD2297815022968FAF229716
:10502000893009F088CFEEE5F7E025E537E080E04C
:10503000929189272E173F07D9F790915E07981311
:105040007ACF25E4D22EAACF68E0CE0101960E9445
:1050500093048ECFD801DA964C9160918B07C801EA
:10506000C9960E94E802682FC8010E94D504AE01CB
:105070004F5B5F4F6BE4C8010E945906882311F40F
:105080000C94AB312296EFAD2297FF24FA94FE0EDA
:105090002296FFAE2297E0908707FE1410F40C943E
:1050A000AB316F2D85E597E00E9420072F2D2E193B
:1050B000330BF901EB5AF84F908189130C94AB3103
:1050C0003BE4D32E6BCFD80113961C921397119605
:1050D0008C911197815011968C93F2E07F120BC046
:1050E00005C0B2E07B12C0C0D11058CFF801818159
:1050F000843009F48AC0D12C8091E00882FF63C11A
:1051000080E70E949409D8018C9162E090E00E94AF
:10511000440BF80187A965E0F0E18F9FC0011124DD
:105120000E94440BD801D8968C9165E0B0E18B9F2A
:10513000C00111240E94440BF80181AD65E0F0E14B
:105140008F9FC00111240E94440BD801DA968C91E4
:1051500065E0B0E18B9FC00111240E94440BF8016F
:1051600083AD65E0F0E18F9FC00111240E94440BE4
:10517000D801DC968C9165E0B0E18B9FC0011124D1
:105180000E94440BF80186A964E090E00E94440B61
:10519000D80112968C9163E090E00E94440BF801D4
:1051A000818163E090E00E94440BD80113969C91AA
:1051B00062E027E030E0F901E91BF109CF010E942C
:1051C000440BD801DD968D919C9165E024E0880F19
:1051D000991F2A95E1F70E94440B80E20E949409EE
:1051E0008091E00885FF08C084E30E94890C0E943A
:1051F000F10A80E20E949409F8018381873019F056
:1052000081818F5F8183F12CD7C08381843009F045
:1052100072CF4EE16CE3C801C7960E94E802882372
:1052200009F469CF4EE160918B07C801C9960E94CD
:10523000E802682FC8010E94D504F8018481809398
:10524000550785818093560786818093570787810C
:105250008093580780858093590785E022968FAF09
:10526000229732E5D32E9ACEDD2009F444CF96CE94
:1052700031912D919F5F321709F4ACCE9091F701D7
:105280009D7F9093F701E5E5F7E0A4ECB1E090E0B5
:1052900089135CC08093F60189819A81AB81BC81BE
:1052A0008093C0019093C101A093C201B093C30148
:1052B000F4E5DF1220C08091E00886FD1CC0229634
:1052C0008FAD22978530B8F0809157078B3471F0FD
:1052D000893661F09DEA980F923040F08D57823008
:1052E00028F0809158078077803729F48091F70162
:1052F00081608093F7018091F70180FD03C0846095
:105300008093F70124E5D2120DC080918B08882389
:1053100049F080911C04811105C08091F7018B7FB9
:105320008093F7018091F70182FFE6CE8D2D0E94D8
:10533000940980918707882339F022968FAD2297B0
:10534000815022968FAF2297F12C11C021912D937D
:105350009F5F9ECF8D7F81608093F701A9CFEF2D56
:10536000F0E0EB5AF84F80810E94F10AF394229604
:10537000EFAD2297FE1698F380918707882349F0B6
:10538000F0E0EB5AF84F80818F7061E090E00E946E
:10539000B50A8091E00885FF05C084E30E94890C6E
:1053A0000E94F10A0E94720AA7CEF801EF0DF11DCA
:1053B00084810E94F10AF394D80111968C91F81619
:1053C000A0F30E94720AF801108216AA8091880741
:1053D0008150809388078091F8018F5F843009F4B1
:1053E000BEC08093F801769880918C07823009F0D6
:1053F00048C0F4E5DF1245C0C0905507009156073C
:1054000010915707E0905807D09059078FE5809387
:10541000340410923504F0901C04F11004C0809103
:105420001B04882371F180916E09C81204C0809119
:105430006F09081731F00E94E308C0926E090093CB
:105440006F09009133040F3FE1F010937009E0926F
:105450007109D0927209112309F493C0011191C00E
:10546000DF1409F47FC024E6D21609F47BC08DEA6C
:10547000810F823018F01D3709F077C08FEF8093CD
:1054800033048091450790914607A0914707B0915A
:1054900048072091FA01281709F4AAC1809145070D
:1054A00090914607A0914707B09148078093FA0171
:1054B000A895B2E2AB2EB4E0BB2ED12CC12C712C3E
:1054C0001AEF612E2FB7F894F601EE0FFF1FEF5081
:1054D000FC4F808191812FBF892B09F0CFC0809133
:1054E000F0038111CBC0D50112968C91877020E812
:1054F00030E0281B3109629EC001639E900D11248B
:105500009595879595958795918380837601B2E0EF
:10551000EB0EF11CEE0CFF1CF701EF50FC4F4F019E
:105520008081918101969183808386010F5F1F4F57
:10553000000F111FF801EF50FC4F80819181892BE2
:1055400009F08BC0D4018D919C91049709F085C01E
:10555000872D0E941117F401118210828FC01092C2
:10556000F80141CF143509F48CCF8E2D807F803621
:1055700009F087CF8E2D8067809371090E940517EF
:1055800080CF0E94C808811103C0002309F479CF9D
:1055900080913204E82F811105C0E02FF0E0E35C38
:1055A000FE4FE491E335D9F41435C9F40E5F00934E
:1055B00033048823F1F0809174098E5F809374091D
:1055C0000E94C808882381F080917009809332047A
:1055D0008436A1F68091EE0380937209CFCF1E1717
:1055E00041F30E94E3084DCF809133048E5F809396
:1055F000330480913304E82FF0E0E25CFE4F149115
:105600001F3F11F31093700997E790937109F0927F
:1056100072098E5F80933304109232048E3099F4B5
:105620008EE699E00E94A408FC01892B51F080814C
:1056300090E024EE34E0281B390BE217F30738F032
:1056400010820E94E308112309F41BCF97CFDF01DA
:10565000A80FB91F4C914193F0CF0F501C4FD801A8
:105660008D919C911197019709F020C1872D0E947F
:10567000111722E030E0F801318320837394F3E0C6
:10568000CF0ED11C24E0A20EB11C34E073121ACF4D
:105690002FB7F8948091090490910A042FBF892BA9
:1056A00009F044C080911B048A831B829091EF0310
:1056B000992309F40DC1933009F007C187E791E000
:1056C00090930A04809309040BE014E0F12C3CE26F
:1056D000E32ED8019C919F3FD1F02091EF03809160
:1056E0001C048F0D8983222309F403C1EC822D83CE
:1056F00021E04CE065E0CE0101960E945F168091AA
:10570000E00886FF04C0CE0101960E94130BF394BB
:105710000E5F1F4FF8E0FF12DCCF8091EF0388236C
:1057200029F0833009F0EAC01092EF03809134042D
:1057300081110FC080913504882309F4E3C00E94D1
:10574000E81689E280933404809135048150809377
:1057500035048091AA03882341F181508093AA03E4
:10576000811123C0E09189082FE3E29FF001112409
:10577000E357F84F808181110AC02091340481E001
:1057800090E02F3F11F490E080E0892B19F083E046
:105790008093A9038091A90381508093A903882352
:1057A00009F4B3C083E08093AA03809165038D3729
:1057B000F8F0109265038091070181FF04C08EB15B
:1057C00090E489278EB98091D6089091D7088438C3
:1057D00033E0930728F401969093D7088093D60876
:1057E0008091F9018F5F8C3309F493C08093F901A4
:1057F00080918907882309F4B0C0C0904507D090F4
:105800004607E0904707F09048078091890783306A
:1058100009F02FC28FE30E94890C182F803408F002
:1058200085C000E0863090F0109228091092260979
:105830001092270928988FEF0E94F60B80E00E94B3
:10584000F60B082F115009F073C0289A0E94C2105D
:1058500010928907053709F080C041E0BE016F5FF3
:105860007F4F89E299E00E94AF03019709F0FAC1E6
:1058700080918A0899819813F5C180912D09853509
:1058800009F465C08091280984508093280984E038
:10589000809327096AE086E299E00E94F703E0918D
:1058A0006203F091630388E0099557C08D919C9144
:1058B000029709F0E3CE872D0E941117F80111829B
:1058C0001082F701EF50FC4F47CE8DE790E0F8CE05
:1058D000877090E08A519F4F4DE7489F9001499F04
:1058E000300D11243595279530930A04209309042F
:1058F000EBCE9C83F80181818D83FACE8250809318
:10590000EF0314CF0E94E30824CF81E00E94231309
:105910004CCF1092F9018091EE038F5F8C3318F415
:105920008093EE0365CF1092EE0362CF1FE37CCF2E
:1059300080E00E94F60B682F86E299E00E94F70350
:1059400081CF86E299E00E94DF030E949409809152
:1059500028098111F6CF0E94720A8091E208811114
:1059600004C08091E904882311F189B190E020916D
:10597000DD08222309F49EC121E030E08223932335
:10598000892B09F4C6C18FE30E94890C8F77898324
:10599000803408F492C18AE30E942A0C86E30E94B4
:1059A0002A0C8DE30E942A0C84E30E942A0C809129
:1059B000DE08882309F47CC089B190E02091DD08DD
:1059C000222309F445C221E030E082239323892B6E
:1059D00009F476C28FE30E94890C8F778E3108F02C
:1059E0003AC2898328988FEF0E94F60B10E08981D4
:1059F000181708F432C280E00E94F60B082F80E0EE
:105A00000E94F60B289A90915007911108C080913E
:105A10005107811104C0809152078823D1F08981F8
:105A20008A30B8F08C81803319F08F7E803489F40D
:105A3000888598130EC0998580915107981309C0E5
:105A40009A8580915207981304C0CE0101960E9456
:105A50008B1880914D07811108C090914E079111CC
:105A600004C090914F079923B9F099819B30A1F41C
:105A70009C81903489F4988589130EC09985809112
:105A80004E07981309C09A8580914F07981304C058
:105A9000CE0101960E948B188091E00884FFF4C12A
:105AA0008AE70E94940910E08981811708F0E1C11A
:105AB0008091D5088823E1F189B190E02091DD083B
:105AC000222309F40DC221E030E082239323892BA5
:105AD00009F43EC28FE30E94890C8F778E3108F063
