:1000000036C4000051C400004FC400000C94AC2161
:100010004BC4000049C4000047C4000045C40000B0
:1000200043C4000041C400000C94EB203DC4000018
:100030003BC4000039C4000037C4000035C40000D0
:1000400033C400000C9425232FC400002DC40000ED
:100050002BC400000C94792327C4000025C40000A1
:1000600023C4000021C400001FC400001DC4000000
:100070001BC4000019C4000017C4000015C4000010
:1000800013C4000011C400000FC400000DC4000020
:100090000BC4000009C4000007C4000005C4000030
:1000A00003C4000001C40000FFC3000009024300B4
:1000B000020100803209040000010202010005244F
:1000C0000001100524010301042402060524060092
:1000D00001070582030800FF09040100020A00006D
:1000E00000070504024000000705830240000012DB
:1000F00001100102000008EB034B20000001020088
:10010000012A03430055004C003400330033000043
:10011000002A03430055004C003800360038000028
:1001200000160362007500730077006100720065BD
:10013000002E00640065000000040309040053530E
:1001400000547D7DFFFF4B4B7E7E00504C4C310DAB
:100150000A00504C4C300D0A000D0A00204368651F
:10016000636B73756D204572726F722C2043616CE6
:1001700063756C6174656420436B733A20006B7225
:10018000000D0A002020526563656976656420448D
:100190006174613A2000427974657320696E20466B
:1001A00069666F3A200000030F1E26270000000337
:1001B0000F1E2536386700030F2567406050000387
:1001C0000F275188838100030F2750C8C3C200271F
:1001D0000000000000000067000000000000005068
:1001E000000000000000008100000000000000C2CC
:1001F000000000000000202F2000203D20004E2F96
:100200004100454F420D0A004E2F41004E2F410044
:10021000202F2000203D2000072E050DD391FF0840
:100220000500000C0021656A2D3B1322F862073F90
:10023000181D1CC700B0876BF8B611EA2A001F41D1
:10024000000D2E2D07D3913D0432000006002165DC
:100250006A57C43023B900070018146C0700908750
:100260006BF85611E92A001F41002028462D4261F3
:100270006E643A203836384D487A29002028462DB9
:1002800042616E643A203433334D487A2900435535
:100290004C3836380043554C343333005620312E19
:1002A00032382E323120612D63756C6677204275AD
:1002B000696C643A2032312028323032362D3038A1
:1002C0002D32322031333A32303A30352920004352
:1002D000554C5F5633000D2E2D07D3913D0432004F
:1002E00000060010B07155E43023B900070018145F
:1002F0006C070090876BF85611E92A001F41000136
:100300002E4604AA540FE0000000060021656A97FB
:10031000831663B947070C29366C074091876BF841
:100320005611E92A001F410054585F494E49545F55
:100330004552525F004B6F707020436F6D6D616E60
:100340006420556E6B6E6F776E0D0A004B6F707088
:10035000205265636569766520537562436F6D6DE4
:10036000616E6420556E6B6E6F776E0D0A00525889
:100370005F494E49545F4552525F4D415243535479
:100380004154455F5258006B72532D526563656945
:10039000766553746172740D0A006B72452D526557
:1003A0006365697665456E640D0A0020427974655F
:1003B00073206F72204B6579636F646520697320C9
:1003C0006E6F206865782076616C75650D0A004B4C
:1003D0006F7070205472616E736D69747420436F16
:1003E0006D6D616E64206E6F7420657175616C2037
:1003F000746F2000426C6F636B330D0A00426C6FA8
:10040000636B320D0A005B6865785D0D0A007469E4
:10041000636B732D426C6F636B53746172745469B8
:100420006D653A20005B6865785D0D0A004B657963
:100430004F666654696D653A2020202020202020D8
:10044000202020005B6865785D0D0A00426C6F63B8
:100450006B2053746172742054696D653A202020BA
:100460002020005B6865785D0D0A005469636B208D
:1004700054696D65723A2020202020202020202001
:1004800020005B6865785D0D0A004B65794F6666F4
:1004900054696D6520696E207469636B733A20201E
:1004A000006D7365630D0A004B65794F666654698C
:1004B0006D653A2020202020202020202020000DC3
:1004C0000A005469636B2054696D65723A202020DC
:1004D0002020202020202020000D0A000D0A416D40
:1004E0006F756E74206F662042797465732028489A
:1004F00065782920666F756E6420696E736964651E
:1005000020636F6D6D616E64206C696E6520706133
:1005100072616D657465723A2020202020202020B1
:10052000202020000D0A4E657874204368617261B6
:10053000637465722028696E74292061667465721F
:1005400020706172616D65746572202873686F75C3
:100550006C64206265206C696E6520656E64206342
:100560006861726163746572293A20000D0A5374E0
:1005700072696E676C656E6774683A20202020206F
:1005800000636F6D6D616E646C696E657061726140
:100590006D657465723A20005472616E736D697492
:1005A000740D0A000B08105B11F81547191D1A1C71
:1005B0001BC71C001DB221B623EA0007022E030D43
:1005C00004E905CA070C0B060D210E650F6A10C859
:1005D0001193120315341733181819161B4321569B
:1005E0002500261129592C812D353EC34552523AFA
:1005F0004343410D0A000454053D17000006020064
:100600000B080C000D210E6B0FD0105C11041206AC
:10061000132214F80A00154421B622101818192EB6
:100620001ABF1B431C091DB523EA242A2500261FD7
:1006300029592C812D352E0907040800090006FFD1
:100640003EC2FF047605961700000602000B080C58
:10065000000D210E650F6A106A114A12061322144A
:10066000F80A00154721B622101818192E1A6D1B0A
:10067000041C091DB223EA242A2500261F29592C0F
:10068000812D352E0907040800090006FF3EC2FF30
:100690004F4646004F464600544D4F444500534D8B
:1006A0004F4445006E6F7420636F6D70696C6564B4
:1006B00020696E0D0A000007024604C605260B06D7
:1006C00010C81193120313221534173F1828191656
:1006D0001B432156250026110D210E650F6A070CBC
:1006E000160720F81E871F6B29592C812D353EC314
:1006F000FF004C4F56460D0A004C454E4552520DD8
:100700000A000302FF0000000000000000000000DB
:10071000000000000000030210881182FF000000AA
:100720000000000000000000000003071088110B0B
:100730000D210E6B0FD01553FF00000000000B06BB
:100740000D210E650F6A1700181819161B431C6837
:10075000250026110001024605D4042D03020700DE
:1007600008021089115C12061556FF00737065634C
:100770006966792076616C6964206D6F6465206EAE
:10078000756D6265720D0A00424F56460D0A0000F3
:10079000070246030D049A057D0642070C0B060D61
:1007A000210E650F6A10C811931203153417001833
:1007B0001819161B431C6825002611FF00000000B5
:1007C00000000000000000000000004C4F56460DE5
:1007D0000A000D2E2D07D3913D04320000060010B3
:1007E000ABA5550A3023B900070018146C07009018
:1007F000876BF85611E92A001F4100415C1A427CC0
:100800001D622D0D43030C45960E656620465D184E
:1008100047AC17684016693D1B4BB0166B37106C20
:10082000B81D4D34176DAE0A4ED30E50F30B52C5A2
:100830000D54121E74640A557C1675291D56C30981
:1008400057CA1D585C1578D22059C0125AD31900C6
:10085000000020697320756E6B6E6F776E292055CE
:100860007365206F6E65206F66003F20280011249D
:100870001FBECFEFDAE0DEBFCDBF11E0A0E0B1E0F8
:10088000E4E3FAE602C005900D92A63AB107D9F763
:1008900029E0A6EAB1E001C01D92AA3FB207E1F744
:1008A0000E94E0230C941835ABCBFC01218130E091
:1008B00050E08081F901E41BF50B3B967797A0F49B
:1008C00090E070E0FC01E61BF70B3B96779760F435
:1008D000280F391F460F571F241B350B255F3F4F2D
:1008E00081E02731310508F080E008958091D8003B
:1008F0008E7F8093D8001092E2001092DA0010925E
:10090000E1001092EC091092EB091092EA091092A2
:10091000E9098AE482BF19BC89B5826089BD09B43E
:1009200000FEFDCF8091D800982F9F779093D8003C
:1009300080688093D8008091D70081608093D70031
:100940008091D8008F7D8093D8008091E0008B7FCC
:100950008093E0008091E0008E7F8093E0008091A2
:10096000E1008E7F8093E1008091E20081608093BE
:10097000E2008091E100877F8093E1008091E200B6
:1009800088608093E2008091D80081608093D800D5
:1009900008958093E900EBEEF0E080818160808330
:1009A000EDEEF0E010826093EC0040838091EE0069
:1009B000881F8827881F0895982F92959F709A30D6
:1009C00050F4905DFB0190838F708A3030F4805D2D
:1009D000FB0181830895995CF5CF895CF9CFFC0117
:1009E00020E08AE09191911103C0FB0120830895DA
:1009F00030ED390F3A30B0F7289F900D112420EDDB
:100A0000290FF0CFFC0130E020E08AE091919111B4
:100A100004C0FB0131832083089540ED490F4A3023
:100A2000A8F7829FA001839F500D11249A012053A3
:100A30003109290F311DEACFDC01FB0130E020E054
:100A40009D919923D9F0913608F0905280ED890F4D
:100A50008A3050F4982F922B3323A1F0442371F065
:100A6000908341503196EACF8FEB890F863010F496
:100A70009753F1CF903221F39A3311F3CF01861BB4
:100A8000970B0895292F2295207F31E0D9CF880F29
:100A9000991F0197F1F70895FC012FB7F89482810F
:100AA000811102C02FBF08959FEF980F9283A181FB
:100AB00091E09A0F9183AE0FBF2FB11D13968C91C9
:100AC000903881F71182EECFFC019FB7F8948281B4
:100AD00087FF02C09FBF08958F5F8283A08181E05E
:100AE0008A0F8083AE0FBF2FB11D13966C93803891
:100AF00089F71082EFCFCF93DF93DA01EC9188234F
:100B000069F0EB01CE0FD11DA1E0B0E0022E01C0D3
:100B1000AA0F0A94EAF788818A2B8883222331F06E
:100B20002150822F90E0DF91CF910895EF5FEC305C
:100B300030F4DA01EC93E60FF72FF11D108227E075
:100B4000F0CFCF93C82F5B9A8091D908C11102C012
:100B50008091DB0820E1829FC001112498DF5B981F
:100B60008091D808C11102C08091DA0820E1829FEB
:100B7000C00111248CDFCF9108955B9A88CFFC01CE
:100B800084819581A081B181A80FB11D2C9130E0A5
:100B9000092E02C0359527950A94E2F721703FEFA0
:100BA000390F3583911104C08F5F848387E085837B
:100BB000822F0895B0E0A0E0E0EEF5E00C948A34D6
:100BC0007C01062FA42ED0E0C0E010E0BB24B3943B
:100BD000862F8150990B6C01C701D1DF882361F00A
:100BE000AA2099F0C6018C1B9D0B2B2D01C0220F52
:100BF0008A95EAF7822F182B2196C01768F3812F68
:100C0000CDB7DEB7EAE00C94A6348B2D0C2E01C0D4
:100C1000880F0A94EAF7EFCF10926F00E09148082E
:100C20008FE3E89FF0011124E45BF84F10821092EB
:100C30008900109288000895CF93DF93FC01A18171
:100C4000A23320F0E9DFDF91CF91089583816623FD
:100C500069F0EF01CA0FD11D21E030E0082E01C07C
:100C6000220F0A94EAF79C81922B9C83882331F00F
:100C70008150838386A98F5F86ABE5CF87E083832E
:100C8000AF5FA183A233B1F3AE0FBF2FB11D149696
:100C90001C92F0CFB0E0A0E0E0E5F6E00C948634E2
:100CA000DC017A011092470711969C901197990CDC
:100CB000990C990C13968C911397981A892D97E09B
:100CC000892E890C1092150728E0922E980E41E08B
:100CD00070E057E0E7E0F0E090E037E0C32ED12C81
:100CE00001E010E094120DC070934707891408F0DA
:100CF0005EC0653409F089C05F3F09F086C09F5F20
:100D000086C09D012F0F311DE9012C8130E00E2E90
:100D100002C0359527950A94E2F7822F8170EE2361
:100D200089F0E1506B3441F5533009F076C0711110
:100D30000CC0811168C010924707CDB7DEB7EEE056
:100D40000C94A234FF5FE7E0EDCF70E0882309F454
:100D500058C0292F30E02B5E384F5601A51AB10834
:100D600057FDB394E80102C0CC0FDD1FAA94E2F74F
:100D70005E01E90188813FC05F3F61F56634C9F4D7
:100D8000292F30E02B5E384FE9012881022E229571
:100D90002025022E2695269520252F5F21FB6624EF
:100DA00060F8712C8615170459F07093470780E09E
:100DB000C4CF653429F4811103C070934707BDCFB8
:100DC0009F5F292F30E02B5E384FE901188257E0F2
:100DD0004F5F88CF8823A9F0663481F4292F30E053
:100DE0002B5E384FE90188815801052E02C0AA0CFC
:100DF000BB1C0A94E2F7A82AA88203C0653409F450
:100E0000A8CF5150E5CF71E0E3CF711178CFF70152
:100E1000908381E0911191CFCACF5F3F09F096CFC7
:100E2000CACFFC015091470795E020E08FEF860F75
:100E3000611107C0920F30E1939FC0011124822BF2
:100E400008956150DF01A60FB11D3C91432F4295DB
:100E50004F702427940F552311F0681749F33F7002
:100E60002327930FE5CF282F30E08A3180F0C90186
:100E70004A9754E0959587955A95E1F78D5F2F5FD6
:100E80003F4F90E0880F991F820F931F089582E0D3
:100E9000F6CFCF93DF93EC01A881E981CA2FC295E9
:100EA000CF70D0E0C957DE4F8881AF70B0E0A9574E
:100EB000BE4F4C91AE2FA295AF70B0E0A957BE4F78
:100EC0002C91EF70F0E0E957FE4F308191E08F3FB9
:100ED00009F090E051E04F3F09F050E0952B51E0D0
:100EE0002F3F09F050E0952BB9F43F3FA9F0D0E433
:100EF0008D9FC0011124E0E14E9FA0011124842B9D
:100F0000832BF4E02F9F90011124822BEB01888327
:100F100080E0DF91CF91089581E0FBCF28E0492F59
:100F200055274627880F991F47FF04C035E68327BA
:100F30003DE39327660F215091F70895DC01119648
:100F40008C91119730E020E0411117C012969C91CE
:100F50001297E92FEF73F0E0E95BFE4F208134E058
:100F6000839FF0011124EC73FF2792959695969537
:100F70009370E92BE95BFE4F3081EC9150E1E59FE6
:100F8000D0011124A073BB2782958F70A82BA95B79
:100F9000BE4F8C91E695E695F0E0E95BFE4FE0816F
:100FA00091E08F3F09F090E051E0EF3F09F050E011
:100FB000952B51E02F3F09F050E0952BA1F43F3FD6
:100FC00091F090E1E99FF00111248E2BFB018083C9
:100FD00041110BC0F0E13F9FC0011124282BFB0100
:100FE0002183842F089541E0FCCF40E0FACF5B9A43
:100FF000813079F483E191E04ADD5B988CE994E0FB
:1010000046DD5B9A83E191E042DD5B9883E191E00C
:1010100010C081110FC083E191E039DD5B9883E15D
:1010200091E035DD5B9A83E191E031DD5B988CE9FD
:1010300094E02DCD823039F483E191E028DD5B9896
:101040008CE994E0EECF83E191E021DD5B9883E1D0
:1010500091E0D6CFEEEEF3E02081222391F00097CD
:1010600051F04181DC013C91431305C0428111964E
:101070003C91431789F0E20FF11DB4E0EC39FB0716
:1010800058F324E0EC39F20719F010F0ECE9F4E041
:10109000892B11F0F0E0E0E0CF0108958DEE99E0AA
:1010A000D9DF0097A1F0E091F309DC012C91E21760
:1010B00070F4E80FF92FF11D80818093EF0989E723
:1010C0008093F00981818093F10981E0089580E0A7
:1010D00008951092EB031092EA0383E08093F309E2
:1010E0008FEF8093EC03089520ED37E0815008F4F2
:1010F0000895F9013197F1F7F9CFFC019FB7F89402
:101100004091050750910607609107077091080705
:1011100040835183628373839FBF0895CF938091EF
:10112000EC09843009F046C08093E90080911F03E8
:10113000811104C08091E80085FD43C083E0809365
:10114000E900809125038823A9F18091E80085FFBB
:1011500031C0CFB7F89480912503882341F0809166
:10116000F2009091F3008034910508F444C0CFBFA1
:101170002091F2003091F3008091E800982F9E7F3B
:101180009093E8008F778093E8002034310591F444
:1011900085E69091EC0090FF34C09091E80090FFBC
:1011A00034C08091E800982F9E7F9093E8008F775D
:1011B0008093E800CF9108956091F10085E699E071
:1011C00083DC8091F2009091F300892BA9F7809144
:1011D000E800982F9B7F9093E8008F778093E8003A
:1011E00081E080931F03E0911D03F0911E03099598
:1011F00010921F03A3CF83E293E04EDC8093F100B3
:10120000AACF9091E80092FDCCCF9091EC09992360
:1012100041F29091EB0095FDC4CF9091E10092FFD7
:10122000B8CF9091E1009B7F9093E100815009F04D
:10123000B0CFB7CFCF93C82F8091EC09843079F429
:101240008091E80980FF0BC08091250387FD66DF50
:101250006C2F83E293E038DCCA3009F45FDF8091C1
:101260004B08882309F476C08091E80983FF72C097
:10127000CA3009F46FC06BE3CD3009F06C2F82E502
:1012800098E022DCCD3009F05FC0809155088435AC
:1012900009F05AC0E0915208A2E6B8E08DE08E173E
:1012A00008F45AC0F0E09F012F503109821713064D
:1012B00009F04AC0DF01A95BB74F8C91843509F072
:1012C00043C09091560811968C91119798133CC089
:1012D0009091570812968C911297981335C090915F
:1012E000580813968C91139798132EC09091590813
:1012F00014968C911497981327C0EC5BF74F1596B2
:101300008C911597808316968C91169781831996E8
:101310008C91199782831A968C911A9783831B96C6
:101320008C911B9784831C968C911C9785831D96AA
:101330008C918683809152088A50809352088091C4
:1013400054088A508093540883E08093220382E0FB
:1013500080932103CF9108959D919B3309F4A2CFEF
:101360008F5F9DCF8DE066DF8AE064CFCF93DF9300
:10137000EC01FE018491811103C0DF91CF910895AA
:1013800059DF2196F6CFFC018181883421F48FEC5E
:1013900092E0ECDFE7CF8CE992E0E8DF1E990AC02B
:1013A00085E992E0E3DF80914B07813031F48CE7EF
:1013B00092E0EFCF8EE892E0F5CF8AE692E0E9CFB7
:1013C000CF93DF93EC018991811103C0DF91CF911D
:1013D000089530DFF8CFA5E0B0E0E1EFF9E00C943C
:1013E0009234AC011D8294E0242F2F702A3020F516
:1013F000205D9150E1E0F0E0EC0FFD1FE90FF11DE1
:10140000208384E0569547958A95E1F76150411510
:10141000510551F780E3615067FD02C091110EC084
:1014200021E030E02C0F3D1F290F311DC901C8DF1D
:101430002596E2E00C94AE34295CDBCF9150E1E0DC
:10144000F0E0EC0FFD1FE90FF11D8083E4CF62E0B7
:1014500090E0C1CF0F931F93CF93DF938B01D42FD5
:10146000E9DEC0E0F80180818C1760F48091DF082C
:1014700085FF02C08D2FEBDF75DFDF91CF911F91CC
:101480000F910895F801EC0FF11D8081E0DFCF5F2F
:10149000E9CF0F931F93CF93DF938C0184E5CADECE
:1014A000E8010B5F1F4F8991D2DFC017D107D9F731
:1014B0008091DF0885FF02C08AEFC9DF53DFDF912B
:1014C000CF911F910F910895A4E0B0E0EAE6FAE011
:1014D0000C949234CE01019610DE8C81B8DF8B81A2
:1014E000B6DF8A81B4DF8981B2DF3CDF2496E2E097
:1014F0000C94AE34A6E0B0E0E0E8FAE00C9490344E
:10150000362F1E82FE01369625E00AE010E02150BB
:10151000B8010E94C834805D8293CB01315000979E
:1015200089F480E2315037FD02C021110EC081E004
:1015300090E08C0F9D1F820F911D42DF2696E4E004
:101540000C94AC342111E3CFECCF2150E1E0F0E07A
:10155000EC0FFD1FE20FF11D8083E4CFCF93DF93EB
:1015600082E468DEC091F409D091F50965E0CE010E
:10157000C1DFF8DE83E55EDE65E0809134019091A5
:101580003501B8DFEFDE85E455DE65E0809132019C
:1015900090913301AFDFE6DE86E44CDE209721F444
:1015A000C0913401D0913501809132019091330185
:1015B000009741F48DB79EB72091360130913701E5
:1015C000821B930BC817D90740F48C1B9D0B65E059
:1015D00091DFC8DEDF91CF91089590E080E0F7CFF2
:1015E0008EBD0DB407FEFDCF8EB50895B0E0A0E02E
:1015F000ECEFFAE00C948B34B82E192F062F6A0109
:10160000790128988FEFECDFCB2DD12F0C0F1D2FF8
:10161000111DC017D107A1F4C114D10459F080E005
:10162000DFDFF6018083E114F10421F080E0D8DFF0
:10163000F7018083289ACDB7DEB7E9E00C94A73490
:1016400080E0CEDF8993E5CF2898CADF289A0895F5
:101650000F931F93CF93CFEF04E110E084E3F4DF07
:10166000C1508077803129F0C8010197F1F7C1118D
:10167000F5CFEA9ACF911F910F9108950F931F9381
:10168000CF93EA9886E3E0DFCFEF04E110E085E353
:10169000DBDFC1508077803229F0C8010197F1F774
:1016A000C111F5CFCF911F910F910895CF93C62F00
:1016B0002898806495DF8C2F93DF289ACF91089526
:1016C0002898806C8DDF80E08BDF289A0895CF9377
:1016D000C82F882309F437C01092030786E3B4DFCC
:1016E00085E3EEDFC82F8130D9F78BE3ADDF8AE3E6
:1016F000ABDF1092F8061092FA061092F9061092DB
:10170000FC061092FB068AEA94E09093FE06809312
:10171000FD061092FF06C09300071092010780910A
:1017200014078093020760E083E0C0DF62E088E096
:10173000BDDF84E389DF85E3C3DF8D30E1F781E03E
:101740008093030705C085E3BBDF8D3009F0C4CF6C
:101750008C2FCF9108950F931F93CF93DF93EA9827
:10176000209A289A8CE390E0FC013197F1F72898B1
:101770000197F1F7289A8AE590E00197F1F780E365
:1017800063DF88EC90E00197F1F7CAEBD5E0FE014A
:1017900031966491FE01849189DF2296F5E0CC3E7A
:1017A000DF07A9F78091A804882371F0C4EAD5E087
:1017B0000AEB15E0FE0131966491FE01849176DF1B
:1017C00022960C171D07B1F783E33EDF84E08CDC23
:1017D00084E33ADF85E374DF8D30D1F7DF91CF9179
:1017E0001F910F910895FC018181823749F4809106
:1017F000E108811101C0AFDF81E08093A904089561
:101800001092A9040895A2E0B0E0E9E0FCE00C9495
:1018100090348C01FC0181818737F1F441E0BE01F5
:101820006E5F7F4FC801029607D9892BA9F041E06E
:10183000BE016F5F7F4FC8010496FED8892B61F00F
:1018400069818A8133DF83E3FFDE02DF8A81FFDD86
:101850008981FDDD87DD18C041E0BE016F5F7F4FEC
:10186000C8010196E9D8892B79F08981893981F4F9
:1018700010E0812F25DFEBDD812F8770873009F4A1
:1018800071DD1F5F1033A9F72296E4E00C94AC34AD
:1018900017DF182F83E4CEDC8981D9DD8AEF91E050
:1018A00065DD812FD4DD86EF91E060DD62E0812F80
:1018B00090E020DECFCF0F931F93CF93DF93D09193
:1018C000E8098093E809C3E080916709811107C0A6
:1018D000D093E809DF91CF911F910F91089585E68C
:1018E00099E0DAD8E09164098A3019F08D3009F076
:1018F00041C0EE2349F3F0E0ED51F74F10823091F3
:10190000E30820E02C9FC0011124FC01E550F84FB2
:101910001491FC01E450F84F45915491112359F072
:10192000131307C083EE98E0FA0109951092640939
:10193000CBCF2F5FE7CF8AE698E018DD83EE98E003
:101940003FDD82E598E012DD1C9F90011124F90132
:10195000E550F84F0491F901E450F84F85919491C6
:10196000002331F080E266DC802F64DC1F5FECCF67
:10197000F9DCDCCFE7FDA8CF91E09E0F90936409DE
:10198000F0E0ED51F74F80839FCFEF92FF920F93DE
:101990001F93CF93DF93182F062F109214071092E6
:1019A000040753985298EA98209A289A8CE390E07A
:1019B000FC013197F1F728980197F1F7289A8AE509
:1019C00090E00197F1F780E33FDE88EC90E001972B
:1019D000F1F7113039F0123061F1CDB7DEB7E6E042
:1019E0000C94AA34C3E4D6E0FE018491813450F40F
:1019F00031966491FE01849159DE2296F7E0CB3056
:101A0000DF0791F7109314070093040783E31CDEAC
:101A1000E8EFF6E08CE0DF011D928A95E9F7E2EF4E
:101A2000F6E086E0DF011D928A95E9F784E05CDB51
:101A3000D4CFC6EFD5E08EEBE82E86E0F82EFE017F
:101A400084918134F8F631966491FE0184912EDE02
:101A50002296EC16FD0699F7D5CFFC0191819237BD
:101A6000E9F48281882329F0833781F462E081E000
:101A70008CDF809104078230E9F480911407813073
:101A800091F08230A1F084E996E00FC0843719F418
:101A900062E082E0EDCF60E080E0EACF933749F783
:101AA00084EA96E063CC8EE996E060DC5BCC88E962
:101AB00096E0FBCF80E996E0F8CF0C943134CF93D9
:101AC000DF93EA98209A289A8CE390E0FC01319702
:101AD000F1F728980197F1F7289A8AE590E00197A5
:101AE000F1F780E3B1DD88EC90E00197F1F72898F9
:101AF00080E476DDC6EDD2E0FE01849171DD2196B1
:101B0000F2E0C33EDF07C1F78091080169DD8091F3
:101B1000090166DD80910A0163DDD0E0C0E0FE01CD
:101B2000EA51FD4F84915CDD2196C931D105B9F7A9
:101B3000289A28988EE754DD8BE290E0EC012196FC
:101B4000BCDF4EDDCE01E397C9F7289A83E37CDD45
:101B500081E0CADA81E08093DC08DF91CF910895BB
:101B60000F931F93CF93C62FC15020F4CF911F9195
:101B70000F9108958C010F5F1F4F9FDF68DCCC230E
:101B800011F08AE357DBC801EFCFA2E0B0E0EBEC45
:101B9000FDE00C948F34FC0121812D3449F466E082
:101BA0008AEF93E0DDDFDEDB2296E5E00C94AB34D8
:101BB000203521F460E18AED93E0F4CF1A82198296
:101BC00042E0BE016F5F7F4F01960E941C050981B4
:101BD00010E0823029F409811A811027012710278B
:101BE000C8016BDFF82E82E525DB64E0C801F3DB7A
:101BF00084E192E0BBDB8F2D2ADC80E192E0B6DB52
:101C000062E08F2D90E076DCCECFCF9385E390E03D
:101C100054DF8093D40386E390E04FDF8093D303B7
:101C2000E3ECF3E0CFEFC083C283C483C683C087F5
:101C3000C287C487C6874DDA1092EE0381E0809395
:101C4000A803AAEDB3E0CC93E9EAF3E08FEF9FEFAE
:101C50009183808313821282158214821496CC930E
:101C6000149797838683118610861386128618969A
:101C7000CC9318979587848717861686118A108AC1
:101C80001C96CC93938B828B158A148A178A168A9A
:101C9000CF910895A2E0B0E0E0E5FEE00C9492342C
:101CA0001A82198242E0BE016F5F7F4F0E941C05BD
:101CB000823051F489819A81982789279827FDDEFF
:101CC0002296E2E00C94AE34898190E0F8CFCF9375
:101CD000DF9387E991E0DEDFC82F8AE991E0DADF60
:101CE000D82F8DE991E0D6DF2C2F30E050E040E096
:101CF000A90133272227280F311D411D511D8D2F8A
:101D000090E0982F8827280F391F411D511DAAE107
:101D1000B0E00E947834853F914030F082E08093BB
:101D20004B07DF91CF91089581E0F9CFCF93DF93F7
:101D3000FC018181823709F031C0EA98209A289A03
:101D40008CE390E0FC013197F1F728980197F1F7C7
:101D5000289A8AE590E00197F1F780E375DC88EC3A
:101D600090E00197F1F7CFE8D7E0FE01849181344C
:101D700050F431966491FE01849198DC2296F7E04C
:101D8000CB3CDF0791F783E35FDC81E0ADD99FDFD8
:101D900081E08093D508DF91CF9108958337D9F3FF
:101DA0001092D508F8CFA1E0B0E0E9EDFEE00C9488
:101DB0008E341982FC012181223709F066C022810C
:101DC000222331F0BE016F5F7F4F02960E94EF0425
:101DD000F9808FEF8F0D833038F08CE697E0C6DA0C
:101DE0002196E6E00C94AA34EA98209A1092130700
:101DF000289A8CE390E0FC013197F1F7289801973D
:101E0000F1F7289A8AE590E00197F1F780E31CDC6E
:101E100088EC90E00197F1F70EE317E0F801849168
:101E2000813458F431966491F80184913FDC0E5F5F
:101E30001F4FF7E00C361F0789F72F2D2150330B6A
:101E4000C90124E1289F8001299F100D11240E5FF4
:101E5000184F8AE0E82EF8018491813450F43196CD
:101E60006491F801849122DCEA940E5F1F4FE11027
:101E7000F2CF83E3E9DBF092130729DF81E034D965
:101E800080911307E4DA6EDAABCF2837C9F7809177
:101E90001307882311F086E3D7DB10921307F0CFE6
:101EA0000F931F93CF93DF93EA98209A289A8CE39D
:101EB00090E0FC013197F1F728980197F1F7289A03
:101EC0008AE590E00197F1F780E3BEDB88EC90E0D3
:101ED0000197F1F7C6EBD6E0FE018491813450F40E
:101EE00031966491FE018491E1DB2296F6E0C23FD7
:101EF000DF0791F783E3A8DB84E0F6D8CFEF04E1B6
:101F000010E084E3A1DBC8010197F1F7C150C9F7E4
:101F100081E08093DD08DBDEDF91CF911F910F918F
:101F200008950F931F93CF93DF93EA98209A289AEE
:101F30008CE390E0FC013197F1F728980197F1F7D5
:101F4000289A8AE590E00197F1F780E37DDB88EC41
:101F500090E00197F1F7289880E442DBCFEFD2E0E0
:101F600008E213E0FE0184913BDB21960C171D076C
:101F7000C9F7289A28988EE733DB8BE290E0EC01D2
:101F800021969BDD2DDBCE01E397C9F7289A83E3E9
:101F90005BDB81E0A9D881E08093DC0898DEDF91EB
:101FA000CF911F910F910895B0E0A0E0EAEDFFE01E
:101FB0000C948B348C018091A004F801838364839A
:101FC0009DE0C92ED12C5ADB85E37ADB833169F0A1
:101FD00088E293E0CBD985E373DB39DAC3D9A1DF9B
:101FE000CDB7DEB7E9E00C94A73480910507909156
:101FF0000607A0910707B09108078093A304909368
:10200000A404A093A504B093A60428988FE7E8DA67
:102010007801D0E0C0E08AEAB82EF7018081E0DAEA
:10202000C930D10544F4F7018081B826C730D10505
:1020300011F4F801B0862196FFEFEF1AFF0ACF30B6
:10204000D10559F7289AC8EC85E33ADB833121F4AE
:1020500081E04AD8C150C1F781E0C81AD10809F01F
:10206000B2CF8091A0048F5F8093A004B9CFABE37F
:10207000B0E0EDE3F0E10C9482348C017C0182E06D
:10208000E80EF11C4EE0BE01625D7F4FC7010E9469
:102090001C05D82E60EA71E08FE091E00E940235C5
:1020A000F80131808DE8830D823008F0C2C181E0F3
:1020B0008093A70401900020E9F73197E01BF10B12
:1020C000709708F4A7C1F80187858A3409F0A2C186
:1020D00089E580930E01A89540900507509006076A
:1020E0006090070770900807809105079091060798
:1020F000A0910707B09108078093A3049093A404CC
:10210000A093A504B093A60480910E01893509F02F
:102110003DC088E995E02AD981E895E027D9C80132
:102120004FD98CE695E022D9F80101900020E9F71B
:10213000CF01019760E0801B910BDCD984E295E030
:1021400015D9F80101900020E9F73197808160E00E
:1021500090E0D0D98CED94E009D960E08D2D90E02D
:10216000C9D989ED94E002D982EC94E0FFD864E00B
:102170008091A5049091A6042ED964E08091A304D7
:102180009091A40428D98FEB94E0F0D8F801019045
:102190000020E9F7CF0141978017910709F03CC172
:1021A00042E0BE01625D7F4FC7010E941C0502979D
:1021B00009F032C1B6DE2EA4B801665F7F4F45E05C
:1021C00050E0CE0101960E9409351E824AE050E09F
:1021D00070E060E0CE0101960E9414336B017C0137
:1021E0004B015C0143E0B694A794979487944A9579
:1021F000D1F780910E018935E9F488EA94E0B6D8E8
:10220000CE010196DDD881EA94E0B0D88AE894E066
:10221000ADD864E0D701C60133E1B695A79597958F
:1022200087953A95D1F7D7D864E0C401D4D882E82D
:1022300094E09CD88FE0E8E3F1E0DE015F96019046
:102240000D928A95E1F78FA588A388A989A389A90A
:102250008EA3622DCE014F96A7DEF3E73F1609F459
:10226000CEC027FECCC08091050790910607A091B3
:102270000707B091080784199509A609B7098E3791
:102280009105A105B10548F4409005075090060757
:102290006090070770900807A895809105079091B6
:1022A0000607A0910707B09108074091A304509139
:1022B000A4046091A5047091A604841B950BA60B41
:1022C000B70B88169906AA06BB0668F64090050764
:1022D00050900607609007077090080780910E01E4
:1022E000893509F064C08BE694E040D864E0C3010E
:1022F00072D864E0C2016FD883E694E037D88CE4EA
:1023000094E034D864E08091A5049091A60463D849
:1023100064E08091A3049091A4045DD884E494E0E7
:1023200025D88DE294E022D8D701C60123E1B695E5
:10233000A795979587952A95D1F764E04CD864E0E6
:10234000C40149D885E294E011D88EE094E00ED81B
:102350008091050790910607A0910707B0910807A3
:102360004091A3045091A4046091A5047091A60427
:10237000841B950BA60BB70B64E0CD012CD8809184
:10238000050790910607A0910707B09108072091D3
:10239000A3043091A404821B930B64E01CD886E054
:1023A00094E00E94B6098DEF93E00E94B60967EFB2
:1023B000CE014F96F9DD4091A3045091A4046091A1
:1023C000A5047091A6048091050790910607A0913D
:1023D0000707B0910807841B950BA60BB70B459711
:1023E000A105B10580F380910E01893521F484EFB8
:1023F00093E00E94B60967EFCE014F96D5DD80913C
:10240000A204813009F424D91092A704EB96E2E1EA
:102410000C949E348EE45DCE8FEC93E00E94B6095E
:1024200060E08EE090E066D88BEA93E00E94B60907
:10243000E6CF82E738123BC08281853459F410928E
:10244000A20486E301D91092A1048AE993E00E94D4
:10245000B609DCCF833541F583818133F1F481E026
:102460008093A10481E08093A2045BDD87E893E080
:102470000E94B609EDD885E323D98D3039F28EE676
:1024800093E00E94B60985E31BD90E94270A0E94A7
:10249000B20947DD1092A204B9CF823311F482E071
:1024A000DFCF1092A104DECF8CE493E0D0CF85E3A0
:1024B00093E0CDCFEF92FF920F931F93CF93DF93D3
:1024C000EC011092DD08EA98209A289A8CE390E0BB
:1024D000FC013197F1F728980197F1F7289A8AE5DE
:1024E00090E00197F1F780E3AFD888EC90E0019796
:1024F000F1F7289880E474D88E01075D1F4F7E01A4
:102500008FEFE81AF80ACE01D8DA6AD8E7010E157B
:102510001F05A9F7289A28988EE762D88BE290E0E9
:10252000EC012196CADA5CD8CE01E397C9F7289A64
:1025300083E38AD881E00E947408CDB7DEB7E6E075
:102540000C94AA3482E090E0B5DF81E08093DC084F
:102550001092E1081092DD0808958091140781110E
:102560000EC08091DF08882311F0ECDF71C886E38C
:102570006BD81092DC081092E1081092DD080895E3
:10258000AFE0B0E0E6ECF2E10C9482348C01FC01A7
:102590008181833709F08BC11F866E01FFE0CF0E6A
:1025A000D11C41E0B601C80102960E941C058F852E
:1025B000888741E0B601C80104960E941C058F85FA
:1025C000807FB82E898741E0B601C80106960E9437
:1025D0001C058F858A8741E0B601C80108960E94D4
:1025E0001C058F858B8741E0B601C8010A960E94C1
:1025F0001C058F858E8741E0B601C8010C960E94AC
:102600001C058F858D8741E0B601C8010E960E949A
:102610001C058F858C878E01085F1F4F780180E035
:10262000F70121917F01922F92959F709227892720
:10263000EC15FD05A9F78F708B29898787E0FE01CE
:102640003896DE01119601900D928A95E1F7980176
:102650002A5F3F4FF801DF01319611968C91119757
:102660009C9189278083E217F307A9F7769A8091D6
:10267000DE0881115FC08091E108882329F081E0A4
:102680008093E2081092E1088091DD08882329F008
:1026900081E08093E0081092DD08EA98209A289A59
:1026A0008CE390E0FC013197F1F728980197F1F75E
:1026B000289A8AE590E00197F1F780E30E94240BC5
:1026C00088EC90E00197F1F7289880E40E94F00AE6
:1026D000E2EDCE2EE7E0DE2EFBEFAF2EF7E0BF2ED1
:1026E000F60184910E94F00AFFEFCF1ADF0AAC14C2
:1026F000BD04B1F7289A28988EE70E94F00A8BE271
:1027000090E06C012FEFC21AD20AD7D90E94F00ACA
:10271000C60183339105A9F7289A83E30E94240B0D
:1027200081E00E94740881E08093DC08D0DA83E0C5
:102730000E94740886E30E94240B8AE30E94240B03
:102740008BE30E94240B0E943E0B5B9A8EE899E477
:102750000197F1F75B9889E50E9474088AE694E096
:102760000197F1F7312C6CEE662E63E1762E78EF4F
:10277000472E75E2572E80913101381668F080910E
:10278000DE08882309F47DC08091DF08882309F4DE
:102790005DC00E94280B5DC097E0311001C092E03F
:1027A00080E05B9AF3013197F1F75B98F301319781
:1027B000F1F78F5F9813F5CF5B9AC2010197F1F79C
:1027C0005B9880912D0190912E010E944705680130
:1027D000F60181906F0148E0242E50E8A52EB12C1F
:1027E000912CC4018A219B21892B21F55B9A809130
:1027F0002D0190912E010E9447055B9880912D013B
:1028000090912E010E944705B694A7942A94211016
:10281000E8CFEC14FD04E1F65B988E8587FD13C0CC
:1028200080912D0190912E01815399480E94470576
:102830003394A1CF5B9880912D0190912E010E943D
:1028400047055B9ADBCF8FEC96E7F0CF86E30E94DB
:10285000240B769889E50E941A0983E70E941A09D9
:10286000CE0101967C01F70181917F010E94270A28
:102870000E151F05C1F70E94B2092F96E2E10C94D4
:102880009E348091E208882341F01092E2080E9471
:10289000AB0B81E08093E1087CCF8091E008882336
:1028A00021F01092E008FCDAD4CF57DED2CF823785
:1028B000B1F461E371E0C80102960E94EF0489E57A
:1028C0000E941A0982E70E941A098AE30E941A09E3
:1028D0008091310160E090E00E947A0ACCCF843789
:1028E00049F582818033F9F488ED94E090933001CA
:1028F00080932F0180912F019091300196958795BB
:1029000090932E0180932D0189E50E941A0984E796
:102910000E941A098AE30E941A0966E080912F0139
:1029200090913001D9CF6FE271E0C80102960E9408
:102930000205E0CF883709F0A0CF8091E208882314
:1029400051F01092E2080E94AB0B81E08093E10805
:102950000E94280B07C08091E008882331F0109274
:10296000E0089EDA1092DE0888CF82E090E0A2DDD7
:102970008091DF088111ECCF86E30E94240BF2CF17
:10298000A7E0B0E0E6ECF4E10C948C34309155080B
:1029900090E0E92FF0E0E45BF74F208121110CC0BB
:1029A000992371F010925408109252081092530813
:1029B0002796E8E00C94A834321711F09F5FE9CF16
:1029C00095E7998301E0882389F0BE016E5F7F4F10
:1029D00080914B080E94DC0480914A08BE016C5F24
:1029E0007F4F0E94DC0485E58E8306E0ABDD0E940C
:1029F0003E0B16E0E12C86E0F82E80E891E00E9484
:102A0000BD055B98C7010197F1F71150B1F780E060
:102A100093E00E94BD055B9880E093E00197F1F799
:102A200080E891E00E94BD055B9887E390E042DD7D
:102A300083E00E94740828988FE70E94F00A1091A2
:102A400054088FE390E0801B91091817190619F0BC
:102A500014F01FE3101B802F810F0E94F00ACE019B
:102A600001966C017C01F70181917F010E94F00ABF
:102A70008E2D8C198017B8F3115098F4289A0E9463
:102A80003E0B10925408109252081092530815E110
:102A90008AE30E94600B8F7711F0115049F45DDDDD
:102AA00087CF82E598E00E944C050E94F00AE4CFAF
:102AB00081E00E947408ECCFFC01218121110DC03E
:102AC0008091DF080E94270A65E08091D6089091E6
:102AD000D7080E947A0A0C94B20941E06FED78E0C1
:102AE00001960E941C0539CDAAE0B0E0EAE7F5E1C5
:102AF0000C9482344C01D62E4887422EED8200235E
:102B0000A9F08C2D8A0D942F9E5F909F800D11242B
:102B1000082E000C990B2091D6083091D708281761
:102B2000390740F48BEC97E00E94B6092A96E2E15F
:102B30000C949E34281B390B3093D7082093D60869
:102B4000769AB090DD08BB2039F01092DD0883EA58
:102B500091E0B2DFBB24B3948091DC08811101C005
:102B6000F1DC0E943E0B80E1C89E900111243A8363
:102B7000298320E1A29EF0011124FC83EB838D2D9B
:102B800090E09F838E839885E92EF12C66246394D0
:102B9000712C512CC11002C0AA2051F05B9A89817E
:102BA0009A810E9447055B988B819C810E94470512
:102BB0001886F8858F2FFF0F990B2E813F81821782
:102BC000930754F1DD2019F081E00E94A10510E087
:102BD000812F012E000C990B9A8789878E159F05EE
:102BE00014F117E0880D991D9A878987812F012E8E
:102BF000000C990B481659068CF18D810E947408BF
:102C0000015041F68091DF088823B1F10E94280B22
:102C1000B11046D976988ACF80E00E94A105E88558
:102C2000EF5FE887C6CF87E0282E312C89859A850B
:102C3000880D991D9A878987C301022C01C0880FCE
:102C40000A94EAF7E985FA85908189230E94A10513
:102C5000F1E02F1A310880F71F5FBACFC301012EB0
:102C600001C0880F0A94EAF7E985FA8590818923E3
:102C70000E94A1051150BACF86E30E94240BC8CF51
:102C8000AF92CF92EF920F93CF93DF93CDB7DEB792
:102C90002C970FB6F894DEBF0FBECDBF4BE0BE0140
:102CA0006F5F7F4F02960E941C058530C1F48EE352
:102CB0008093DB088CE18093DA0881E28093D90865
:102CC0008AE38093D80885E2A82E9AEFC92EE12CDA
:102CD00005E024E044E068E0CE01019605DF2C9693
:102CE0000FB6F894DEBF0FBECDBFDF91CF910F912D
:102CF000EF90CF90AF900895AF92CF92EF920F9355
:102D0000CF93DF9300D000D0CDB7DEB743E0BE0154
:102D10006F5F7F4F01960E941C058AE68093DB0857
:102D200094E29093DA0891E29093D9088093D808BE
:102D300080E88C83A12CC12C8FE0E82E03E026E0F4
:102D400043E060E0CE010196CFDE0F900F900F9030
:102D50000F90DF91CF910F91EF90CF90AF900895AA
:102D6000A9E1B0E0E6EBF6E10C9489347E012DE0B8
:102D7000E20EF11C4BE0B70101960E941C05982E53
:102D800085E38093DB0896E19093DA089093D90865
:102D90008093D808692DC7010E941107F701E90D3A
:102DA000F11D80839394198E1982670127E0AA246C
:102DB000A394B12C8C2D8E19891570F0A12CC12CE7
:102DC0008AE0E82E03E0498D6AE0CE0101968CDEB0
:102DD0006996EBE00C94A53410E000E0C501002EEC
:102DE00001C0880F0A94EAF7F6019081AE01475EB0
:102DF0005F4FBE016F5F7F4F89230E947B05282FA5
:102E00000F5F1F4F0430110549F7AE01475E5F4F5A
:102E1000BE016F5F7F4F81E00E947B05282FC501B7
:102E2000002E01C0880F0A94EAF7F6019081AE01E6
:102E3000475E5F4FBE016F5F7F4F89230E947B0516
:102E4000282F0F5F1F4F0830110549F7AE01475E6D
:102E50005F4FBE016F5F7F4F81E00E947B05282F8F
:102E6000FFEFCF1ADF0AA6CFA9E1B0E0EAE3F7E16E
:102E70000C948A347E012DE0E20EF11C4BE0B70188
:102E800001960E941C058930B1F529E12093DA08EA
:102E90002093DB082093D90822E32093D8089927B0
:102EA0006E01E6E1CE0ED11C40E0F60152918F0199
:102EB0004527EE15FF0519F5F701E80FF91F4083C7
:102EC000198E1982F9E0CF0ED11C27E0AA24A39411
:102ED000B12CF12CE12C0C151D0599F42223B9F12C
:102EE0002150A12CC12C8AE0E82E03E0498D6CE032
:102EF000CE010196F9DD6996EAE00C94A6346801EA
:102F0000D4CFC5010E2C01C0880F0A94EAF7F8014E
:102F10009081AE01475E5F4FBE016F5F7F4F892397
:102F20000E947B05282FFFEFEF1AFF0A88E0E816C2
:102F3000F10489F6AE01475E5F4FBE016F5F7F4FC0
:102F400081E00E947B05282F0F5F1F4FC2CF898D24
:102F50008F5F898F27E0C5CFAF92CF92EF920F930B
:102F6000CF93DF93CDB7DEB760970FB6F894DEBF8F
:102F70000FBECDBF40E1BE016F5F7F4F01960E9443
:102F80001C0569814A810B818C818093DB088D81CE
:102F90008093DA088E818093D9088F818093D80836
:102FA000E02EE2948FE0E8220F70242F2F704295DC
:102FB0004F70A12CC12CCE01089696DD60960FB6FD
:102FC000F894DEBF0FBECDBFDF91CF910F91EF9090
:102FD000CF90AF900895ADE0B0E0E1EFF7E10C9451
:102FE0008934022FFC01E60FF11D162F11112BC0A1
:102FF000408399249394960E1D8619827C0127E0C4
:10300000CC24C394D12C97E0A92EB12C191510F122
:10301000222309F44DC0215089E18093DA0880937E
:10302000DB0885E28093D8088093D908A12CC12CB5
:103030008AE0E82E4D856CE0CE01019655DD2D9697
:10304000EBE00C94A5341150DC01A10FB11D2C91C3
:10305000420FCCCFC6010A2C01C0880F0A94EAF7B0
:10306000F7019081AE01435F5F4FBE016F5F7F4FFD
:1030700089230E947B05282FF1E0AF1AB10830F6B2
:10308000F70181917F01082E82958025082E869573
:10309000869580258F5F86958170AE01435F5F4F77
:1030A000BE016F5F7F4F0E947B05282F1F5FABCF54
:1030B0008D858F5F8D8727E0AFCFACE0B0E0E3E692
:1030C000F8E10C9492344BE0BE016F5F7F4F0196A4
:1030D0000E941C0523E046E0682FCE0101967BDFAD
:1030E0002C96E2E00C94AE3486E30E94240B80918F
:1030F000EF098335A1F08BE40E94740821E04CE0D5
:1031000065E08DEE99E067DF0E94280B8091DF0873
:1031100086FF04C08DEE99E00C94490A08958BE96E
:10312000EBCFE2DF8091EF09893631F081E08093C7
:10313000ED0389E28093EC03089594E0899FF00108
:103140001124E652FC4F80818F3F89F08093D50394
:1031500081818093D60382818093D703838180937A
:10316000D80321E04CE064E085ED93E034CF08958E
:103170004F925F926F927F928F929F92AF92BF9287
:10318000EF92FF921F93CF93DF937C01EB01FC0141
:1031900010811F5F24E630E0209711F430E020E03A
:1031A000F8E01F9FC00111246AE070E00E94DC3447
:1031B000620F731F4B01072E000CAA08BB088091F9
:1031C000D6089091D7082C01712C612C4814590411
:1031D0006A047B0490F482EF96E00E94B609DF91C6
:1031E000CF911F91FF90EF90BF90AF909F908F90E5
:1031F0007F906F905F904F900895861B970B9093F0
:10320000D7088093D6088091DD08811102C00E9402
:10321000500F85E30E94600B8D30C9F08AE50E9453
:103220001A0985E40E941A0982E50E941A0982E5BA
:103230000E941A0981E30E941A0985E30E94600B2B
:103240000E94270A0E94B2090E94500FC8CF8090A6
:10325000090790900A07A0900B07B0900C07240173
:1032600035014FEF441A540A640A740A8114910418
:10327000A104B104C1F40E943E0B85E30E94600BDF
:10328000833161F18AE50E941A0985E40E941A09D6
:1032900082E50E941A0982E50E941A0982E3CBCFD7
:1032A00081E00E9474088091050790910607A09123
:1032B0000707B091080788169906AA06BB0681F38E
:1032C0008091050790910607A0910707B091080724
:1032D00084159505A605B70519F3CDCFCD2B39F08B
:1032E000CAE0D0E084E60E9474082197D9F72898B4
:1032F0008FE70E94F00ABE2CCE2DDF2D8C2F8B196C
:10330000811708F44CC0289AC0E085E30E94600B46
:10331000D82F85E30E94600BD81305C0DD3031F053
:1033200081E00E947408CF5FCA3F79F785E30E946D
:10333000600B8D30F1F08AE50E941A0985E40E9445
:103340001A0982E50E941A0982E50E941A0983E39C
:103350000E941A0985E30E94600B0E94270A8D2FA4
:103360000E94270A8C2F0E94270A0E94B2090E94FD
:10337000500F8091DD08811101C0EFD880910507C1
:1033800090910607A0910707B0910807809309075D
:1033900090930A07A0930B07B0930C0720CF899155
:1033A0000E94F00AABCFAEE1B0E0E9EDF9E10C9498
:1033B00090348C01FC018181823731F40E94500FDE
:1033C0006E96E4E00C94AC34833711F08636F9F451
:1033D0004DE1BE016F5F7F4FC80102960E941C0540
:1033E0008150990B29812817190629F089EF96E059
:1033F0000E94B609E5CF61E070E0F8018181833772
:1034000011F070E060E0CE010196B2DED9CF43E06A
:1034100060E177E0813629F0873741F443E06DE0E1
:1034200077E0C80102960E941C05CACF1092DD0801
:10343000C7CFACE0B0E0EFE1FAE10C949134FC01CD
:103440008BE0898381818A831B8282E08C838781E0
:103450008D8380858E8381858F8384818887858114
:10346000898786818A871B861C8684E10E9474086E
:1034700070E060E0CE0101967BDE8AE50E941A09C9
:1034800010E08981811768F48091DF0885FF03C00F
:1034900080E00E94270A0E94B2092C96E3E00C9477
:1034A000AD34E1E0F0E0EC0FFD1FE10FF11D808194
:1034B0000E94270A1F5FE5CFA8E4B0E0E2E6FAE148
:1034C0000C948834FC019181923779F0923581F423
:1034D00081E08093A8040E94AB0B81E08093E10817
:1034E000C85BDF4FECE00C94A4341092A804F3CF37
:1034F000933709F0BFC04FE38E010F5F1F4FB80134
:10350000CF0102960E941C05F82E282F2150330B64
:10351000C90129812817190619F78091E10881113D
:1035200005C00E94AB0B83E00E947408EB808A8187
:1035300096E789278A8322E0422F50E0F801E40FC2
:10354000F51F90818981281708F460C08E2D892786
:103550008083CE018B5B9F4F0E947D0885E30E9494
:10356000240B85E30E94600B833109F458C0CE011F
:103570008F5B9F4F0E947D0825964CAD5DAD6EAD73
:103580007FAD259729968CAD9DADAEADBFAD29978A
:1035900084179507A607B70760F44A015B01881AEC
:1035A000990AAA0ABB0AEDEB8E169104A104B10494
:1035B00070F4481759076A077B0788F584549F4FB2
:1035C000AF4FBF4F84179507A607B70740F58CEE9E
:1035D00095E00E94B60985E30E94600B863149F4AC
:1035E0008BE30E94240B86E30E94240B8DE30E9450
:1035F000240B8091E1088823D1F184E30E94240BFD
:1036000085E30E94600B8D30C1F76ACF4C0F5D1FC0
:10361000DA018C918452892780832F5F8DCF85E3D7
:103620000E94600B833109F099CF8AE0E4FE07C065
:1036300088E70E94740888E70E94740888E70E945F
:10364000740828988FE70E94F00A68018C2D801B6F
:103650008F1538F0289A85E30E94600B8331D9F3E7
:10366000BACFD6018D916D010E94F00AEFCF0E9472
:10367000AD1236CF1092E10833CFB0E0A0E0E3E422
:10368000FBE10C948D34EC0189818437A1F46CE06A
:1036900071E0CE0102960E94020560E080910C016B
:1036A00090910D010E947A0A0E94B209CDB7DEB74F
:1036B000E7E00C94A934833709F04FC18A8182373F
:1036C00059F46BE071E0CE0103960E94EF04809103
:1036D0000B0160E090E0E6CF769A80919D04811125
:1036E00017C08091E108882329F081E080939F042E
:1036F0001092E1088091DD08882329F081E0809311
:103700009E041092DD080E945F0D83E00E94740801
:1037100086E30E94240B8AE30E94240B8BE30E9421
:10372000240B0E943E0BFE0101900020E9F7319727
:10373000EC1BFD0BEE24EA94EE0EEB7F11E0E2327F
:1037400009F010E000E00E2C000CFF0880910B0146
:10375000081768F080919D04882309F4DAC08091ED
:10376000DF08882309F4BAC00E94280BBAC05B9A0C
:103770001130E1F48BEE90E00E9447055B9880E108
:1037800097E20E9447055B9A83E191E00E9447051A
:103790005B988AE59AE00E944705DD24D3948D2D3D
:1037A00090E08E159F0564F00F5FD0CF80910C01E3
:1037B00090910D010E9447055B9880E197E2EBCF65
:1037C0008C0F9D1FFC018181803359F580E0113001
:1037D00009F454C05B9A80910C0190910D010E94F4
:1037E00047055B9880910C0190910D019C01220F7F
:1037F000331F820F931F0E9447055B9A80910C0133
:1038000090910D010E9447055B9880910C01909169
:103810000D019C01220F331F820F931F0E94470549
:103820002FC0813341F581E0113041F15B9A8091E5
:103830000C0190910D019C01220F331F820F931FE9
:103840000E9447055B9880910C0190910D010E94A8
:1038500047055B9A80910C0190910D019C01220F0C
:10386000331F820F931F0E9447055B9880910C01C4
:1038700090910D01D3CF823329F482E00E94F707A3
:10388000D3948DCF8434B1F4113011F483E0F6CFAA
:103890005B9A80910C0190910D019C01220F331FC6
:1038A000820F931F0E9447055B9880910C019091B5
:1038B0000D01A1CF113051F35B9A80910C019091D1
:1038C0000D010E9447055B9880910C0190910D01BC
:1038D0009C01220F331F820F931FB9CF86E30E94F2
:1038E000240B769889E60E941A0983E70E941A0938
:1038F00001E0802F90E08E159F050CF0D5CE8C0F47
:103900009D1FFC0181818033E1F40E941A090F5F41
:10391000F0CF80919F04882341F010929F040E9471
:10392000AB0B81E08093E1081FCF80919E04882338
:1039300029F010929E040E94500FD3CF0E94AD1226
:10394000D0CF813311F3823301F3843411F484E452
:10395000DCCF1130E1F386E4D8CF8237C1F4809117
:10396000E108882329F081E080939F041092E10808
:103970008091DD08882329F081E080939E041092D5
:10398000DD080E945F0D81E080939D048FCE863616
:1039900051F58A818033F9F480E18093080180EB4E
:1039A0008093090181E780930A0189E60E941A0940
:1039B00086E60E941A098AE30E941A09809108018A
:1039C0000E94270A809109010E94270A80910A011A
:1039D0000E94270A69CE43E068E071E0CE010296BA
:1039E0000E941C05E2CF883729F580919F04882327
:1039F00051F010929F040E94AB0B81E08093E1088C
:103A00000E94280B08C080919E04882339F01092F0
:103A10009E040E94500F10929D0448CE82E090E0D8
:103A20000E945A128091DF088111EACF86E30E943A
:103A3000240BF1CF833609F039CE6CE071E0CE0172
:103A400001960E94020532CE0E943934F999FECFC8
:103A50000895CF93DF93EC01898181110DC080918E
:103A60004A080E94270A80914B080E94270A0E9458
:103A7000B209DF91CF910895863681F42296ACE4A5
:103A8000B8E0E0E08991882321F08D93EF5FE53085
:103A9000C9F7F0E0E45BF74F1082EBCF8936C9F449
:103AA00041E06AE478E0CE0102960E941C05609134
:103AB0004A0880E690E0C8DF41E06BE478E0CE01A0
:103AC00004960E941C0560914B0881E690E0BCDFE3
:103AD000D0CF109254081092520810925308219699
:103AE0006991611104C080E00E94C014C2CF82E5D8
:103AF00098E00E946405F4CFA1E0B0E0E2E8FDE1C7
:103B00000C9492341982009739F041E0BE016F5F46
:103B10007F4F01960E941C0589818F3F09F4FFCFDA
:103B2000882321F061E083E390E08EDF0E94760439
:103B30008091E00081608093E0008091D8008F77D1
:103B40008093D80019BC8091D8008F7E8093D800D4
:103B500010929C0410926E00F89488E198E00FB6E1
:103B6000F894A895809360000FBE90936000FFCFFB
:103B700041E067E071E001960E941C058091070119
:103B800080FF06C0769A6091070184E390E05CCFE5
:103B90007698F9CFA6E0B0E0E0EDFDE10C948C342E
:103BA0006C0143E0BE016F5F7F4F01960E941C05D0
:103BB000823010F1098110E0823029F009811A81E8
:103BC0001027012710277C01FF24FE01EE0DFF1DA9
:103BD0006081C80139DFC8010F97039710F40E9474
:103BE000670EEE0CFF1C8FEFE81AF80AEC0CFD1CB8
:103BF000F7018081811104C02696E8E00C94A83476
:103C000041E0BE016F5F7F4FC7010E941C05892BF9
:103C100099F30F5F1F4F6981C80116DFE2E0EE0ED6
:103C2000F11CE6CFA7E1B0E0E8E1FEE10C948834B6
:103C30007C018C010F5F1F4F45E0BE01635F7F4F2A
:103C4000C8010E941C05843008F0E4C09D859130B5
:103C5000C9F4833071F46E8585E390E0F5DE6F85FD
:103C600086E390E0F1DE0E94050E6796ECE00C948E
:103C7000A4348091D4030E94270A8091D3030E9428
:103C8000270A34C0923009F050C0EE24E39481300A
:103C900031F081E09E85913009F080E0E82E80913E
:103CA000EE03811104C08EEF91E00E94B6090EEE82
:103CB00013E0F80180818823C9F023E00E3E12074B
:103CC00019F080E20E941A09F80181810E94270AF6
:103CD000F80182810E94270AE1100BC0F80180815F
:103CE000080F111DF4E00C391F0718F30E94B209E8
:103CF000BCCF8AE30E941A0983E0F82EF801808184
:103D0000F81660F723E02F1528F4F0FE03C08CE2CC
:103D10000E941A09DD24D394DF0CF801EF0DF11D88
:103D200080810E94270AFD2CE9CF933051F490E066
:103D300080E00E942A088E5E93409EEA981B892F9D
:103D40009ECF903149F503EC13E0E12CF12CF80102
:103D500080818F3FA1F0FF2019F080E20E941A09B4
:103D60008E2D0E94270A8AE30E941A09F801808199
:103D70000E94270AF80181810E94270AF3940E5FAE
:103D80001F4FE394F8E0EF12E2CF8CE092E0F110E5
:103D9000ADCF0E94B609AACF913151F48091C103F1
:103DA0009091C2036DE770E00E94C834862F67CF00
:103DB000923109F09BCF0AED13E0E12CF12CF801D0
:103DC00080818F3FE1F0FF2019F080E20E941A0904
:103DD0008E2D0E94270A8AE30E941A09F801808129
:103DE0000E94270AF80181810E94270AF801828136
:103DF0000E94270AF80183810E94270AF3940C5F2E
:103E00001F4FE394F4E0EF12DACFF1106FCF88E0A8
:103E100092E0BFCF44E0BE016D5E7F4FC8010E94BB
:103E20001C054B89493608F498C02E896C895D8938
:103E3000AAEDB3E090E080E02C3009F06DC030E0F6
:103E400020E0FD01EA5DF3408C91481338C01196E3
:103E50009C911197961333C012969C9112979513CB
:103E60002EC0E652FC4F8CE08383C901880F991F56
:103E7000820F931FFC01EE0FFF1FE755FC4F1182CD
:103E80001082880F991FFC01E555FC4F11821082AA
:103E900022E04CE064E0CE0143969DD88FE08E8B0B
:103EA00022E04CE064E0CE01439695D882E08E8B10
:103EB00022E04CE064E0CE0143968DD8D6CE8F3F11
:103EC000E9F4E652FC4F4083618352838CE08383A4
:103ED000C901880F991F820F931FFC01EE0FFF1F6E
:103EE000E755FC4F11821082880F991FFC01E555A0
:103EF000FC4F118210821092A803CACF2F5F3F4F50
:103F000014962430310509F09CCFAFCE019614965B
:103F10008430910509F4A9CEFD01EA5DF3403C919E
:103F20004313F4CF11963C9111973613EFCF1296AD
:103F30003C9112973513EACFE652FC4F2383FC01E4
:103F4000EE0FFF1FE80FF91FEE0FFF1FE555FC4FA7
:103F500081E090E09183808388CEED852091D40329
:103F6000E217F0F1822F90E00796E817190609F0A2
:103F7000BCF59E858091D303981332C098899F32F7
:103F800069F44BE0BE016F5F7F4FC8010E941C05C2
:103F900022E04CE0682FCE0101968FCF89899C32B8
:103FA000B9F48093A70321E030E03093C20320935B
:103FB000C10324E0829FC00111242091D6083091D2
:103FC000D708820F931F9093D7088093D6084DCEC1
:103FD000E21BEE0FF0E0ED53FC4F9083818345CE62
:103FE00090E080E00E942A086C01F8010190002016
:103FF000E9F73197E01BF10BF695E79501E00E0F1D
:10400000C601800F911D8E5E93408E3A91052CF073
:1040100082E092E00E94B60928CEF60100835601A4
:1040200011E0812F880F8150101758F0FCE9CF164E
:10403000F4E0DF0608F019CEF601E10FF11D108261
:1040400014CE4501FFEF8F1A9F0A41E0B4018E0D97
:104050009F2D911D0E941C05133048F010FD07C0D4
:10406000F5018081843619F481818093A6031F5F56
:104070005401D7CFEF92FF920F931F93CF93C82F86
:104080008A3008F0C8E028E0C29F800111248BE24A
:1040900090E005581E4FFC01E00FF11F64917C0178
:1040A0002FEFE21AF20AD0DCC7018333910599F7AA
:1040B000C55067E1C53008F461E184E290E0C4DCFA
:1040C000CF911F910F91FF90EF9008950F931F9341
:1040D000CF93DF93EC0161E090E080E0B5DC6AE132
:1040E00081E090E0B1DC82E090E0FC01E15CFD4F1A
:1040F00064918C010F5F1F4FA7DCC8010B321105C3
:10410000A1F787E390E0FC01EF51FE4F64918C0131
:104110000F5F1F4F99DCC80100361105A1F71E99EA
:1041200018C060E18FE090E08FDC60EB80E190E010
:104130008BDC61E781E190E087DC60E184E490E082
:1041400083DC60EB85E490E07FDC61E786E490E06F
:104150007BDC88E08FDF0E94670E60E080E690E005
:1041600073DC60E081E690E06FDC60E083E390E088
:104170006BDC62E084E390E067DC60E080E690E086
:1041800063DC60E081E690E05FDC209719F08981D4
:10419000883719F090E080E0AFDCDF91CF911F917C
:1041A0000F910895A1E0B0E0E8EDF0E20C949234B4
:1041B00022E0298341E0BE016F5F7F4F01960E949C
:1041C0001C05898157DF82E090E00E945A122196F7
:1041D000E2E00C94AE341F920F920FB60F921124AE
:1041E0002F933F934F935F936F937F938F939F93FF
:1041F000AF93BF93EF93FF938091DA0080FF10C0DD
:104200008091D80080FF0CC08091DA008E7F80936F
:10421000DA008091D90080FF9AC081E08093EC0998
:104220008091E10080FF1CC08091E20080FF18C0F7
:104230008091E1008E7F8093E1008091E2008E7F8B
:104240008093E2008091E20080618093E20080919F
:10425000D80080628093D80019BC85E08093EC0977
:104260008091E10084FF26C08091E20084FF22C09B
:1042700019BC89B5826089BD09B400FEFDCF80916B
:10428000D8008F7D8093D8008091E1008F7E80934D
:10429000E1008091E2008F7E8093E2008091E20055
:1042A00081608093E2008091EB09811153C083E02B
:1042B0008093EC098091E10083FF38C08091E20097
:1042C00083FF34C08091E100877F8093E10082E02A
:1042D0008093EC091092EB098091E1008E7F80932E
:1042E000E1008091E2008E7F8093E2008091E20005
:1042F00080618093E2001092F40080E08093E900F6
:104300001092F0001092E8009091ED009D7F909344
:10431000ED009091EB009E7F9093EB008F5F8730D4
:1043200069F742E060E080E00E94C904FF91EF91EC
:10433000BF91AF919F918F917F916F915F914F91BD
:104340003F912F910F900FBE0F901F9018951092D4
:10435000EC0966CF84E0ACCF1F920F920FB60F929C
:1043600011240F931F932F933F934F935F936F935A
:104370007F938F939F93AF93BF93CF93DF93EF93ED
:10438000FF93809149088230C1F483E0809349080B
:10439000FF91EF91DF91CF91BF91AF919F918F915D
:1043A0007F916F915F914F913F912F911F910F914D
:1043B0000F900FBE0F901F901895009184001091E0
:1043C0008500B4E016950795BA95E1F7C0914808C5
:1043D0009FE3C99FE0011124C45BD84F90914B0724
:1043E000923081F42881243039F40E3288F20F346F
:1043F00048F00E940C06CCCF253021F4073140F262
:104400000832B8F74A9911C0923061F4888184501B
:10441000823040F461E0CE010E941C0610928500BB
:104420001092840000934A07B3CF80914A07081B7B
:10443000009349071092850010928400923049F44D
:1044400088818450823028F460E0CE010E941C06EE
:104450009FCF82E086BB888100914A07882309F4B8
:10446000B1C010914907823039F1412F602FCE0140
:10447000C9960E945504882309F4C0C061E0CE01AA
:104480000E941C0639AD23E0802F90E0329F800D02
:10449000911D1124959587959595879589AF8AAD3E
:1044A000412F50E0829F400D511D11245595479595
:1044B000559547954AAF6CCF412F602FCE01C796D7
:1044C0000E9455042A818823F1F04FA933E0802F00
:1044D00090E0439F800D911D1124959587959595AA
:1044E00087958FAB88AD412F50E0839F400D511DC4
:1044F0001124559547955595479548AF1EAE1DAE6D
:104500002F5F2A8345CF243008F45BC080EA9FE008
:1045100090938900809388008A818C3058F08FA90D
:1045200098AD890F9927991F853691052CF084E065
:10453000888311C08A30C8F08FA998AD890F992758
:10454000991F859794F485E0888388EE93E0909393
:1045500089008093880009AF1AAF198287E08B83A6
:104560001C8282E080936F0013CF80914A088823D9
:1045700031F18BED800F873110F586EF810F8D3192
:10458000F0F481E090E0101710F090E080E0892BCB
:10459000B1F03FA928AD8BED820F873180F486EF13
:1045A000830F8D3160F481E090E0321710F090E0DD
:1045B00080E0892B21F081E0809349081ACF83E0C5
:1045C000B7CF18821FAA18AE19AE1AAE1BAE1CAE1A
:1045D0001EAE1DAE1EAA198287E08B831C82053693
:1045E00008F0D6CE80914907853608F0D1CE0FABC2
:1045F00088AF81E08A8382E08883CACE412F602F12
:10460000CE01C7960E945504882309F4F2CE60E0DB
:10461000CE010E941C063FA923E0802F90E0329F2C
:10462000800D911D112495958795959587958FAB54
:1046300088AD412F50E0829F400D511D11245595AA
:1046400047955595479548AFA3CE1F920F920FB649
:104650000F9211242F933F934F935F936F937F9308
:104660008F939F93AF93BF93EF93FF9310926F003D
:104670008091DF0883FF03C08EE20E941A098091B7
:1046800048089FE3899FF0011124E45BF84F908173
:10469000933018F09181923098F40E940C06FF91AB
:1046A000EF91BF91AF919F918F917F916F915F91AA
:1046B0004F913F912F910F900FBE0F901F90189523
:1046C00090914807933049F48091DF0882FFE5CF4D
:1046D00088E897E00E94B609E0CF9F5F9093480773
:1046E0008F5F843019F080934808D9CF1092480822
:1046F000D6CF1F920F920FB60F9211242F933F9394
:104700004F938F939F93AF93BF93EF93FF938091BA
:10471000050790910607A0910707B0910807019639
:10472000A11DB11D8093050790930607A09307076D
:10473000B0930807809120038F5F8093200390E05F
:1047400080E0FC01EE0FFF1FE755FC4F2081318117
:104750002F3F3F4F59F0208131811216130634F458
:1047600020813181215031093183208303968C309F
:10477000910539F78091C1039091C203892B49F0CB
:104780008091C1039091C20301979093C2038093DB
:10479000C1038091EC038F3F29F08091EC0381509D
:1047A0008093EC03FF91EF91BF91AF919F918F9117
:1047B0004F913F912F910F900FBE0F901F90189522
:1047C000A6E4B0E0E6EEF3E20C94823488E19FE0E8
:1047D0000FB6F894A895809360000FBE9093600088
:1047E00080E890E00FB6F8948093610090936100A8
:1047F0000FBE2E9A2D9A04B603FE12C083E390E0FA
:104800000E945D0D882361F060E083E390E01CD995
:10481000F89481E085BF82E085BFE0E0F8E3099588
:1048200089EF87BD84E085BD82E084BD80936E0002
:10483000109280008AE08093810084B7877F84BFD4
:104840006E9A809164008B7F80936400299A84B172
:10485000876084B9239880E58CBD8DB581608DBD5E
:1048600090E080E00E945D0D813031F481E090E0C5
:104870000E945D0D8A3119F090E080E027DC84E32E
:1048800090E00E945D0D809307010E947604809164
:10489000D80080618093D80081E080939C04789454
:1048A0000E94050E539A5B9852988091690080612E
:1048B0008093690082EC91E09093D7088093D608AA
:1048C00010928B071092CA07109209081092DC0808
:1048D0008BE59CE090931E0380931D0380E690E09F
:1048E0000E945D0D80934A0881E690E00E945D0D74
:1048F00080934B08882329F081E28093DF080E948F
:10490000AD1210924C0889E08093E8090E94670E6E
:10491000769852E1252E312C8091EC09882309F4F8
:1049200073C01091E90017701092E9008091E800BF
:1049300083FF68C0E6EAF1E08091F100819321E015
:10494000EE3AF207C9F78091A6019091A7019A303B
:1049500008F03CC2E92FF0E0E055FB4D0C94EF3439
:10496000BA248A25E6268A25E626D325FA25E626D0
:104970009026AE26803871F08238B1F58091AA0178
:104980008093E9008091EB0085FB882780F91092E5
:10499000E90006C08091E9099091EA0991118260CD
:1049A0009091E800977F9093E8008093F100109237
:1049B000F1008091E800982F9E7F9093E8008F7718
:1049C0008093E8008091E80082FF0AC08091E800AF
:1049D000982F9B7F9093E8008F778093E80004C026
:1049E0008091EC098111EECF8091E80083FF0AC02D
:1049F0008091EB0080628093EB008091E800877FDC
:104A00008093E8001093E9000E948E0822961FAE62
:104A10002297809149078823A1F18091DF0887FFC1
:104A200014C084E30E94600B8058803408F488C26C
:104A3000803C08F087C28055990B33E095958795A7
:104A40003A95E1F78F590E941A098091DF0883FF98
:104A500016C082E70E941A098091DF0884FF04C013
:104A600080914A070E941A0986E60E941A098091DD
:104A7000DF0884FF04C0809149070E941A09109240
:104A8000490780914807882309F412C6769A009155
:104A9000E6013FE3039F80011124045B184F7090EF
:104AA0004B0742E0741609F44FC2D12CD8018C9107
:104AB000833009F02DC4D11088C3AE014F5B5F4F26
:104AC00066E4C8010E944A06882309F43FC322967F
:104AD0008FAD2297815022968FAF2297282F96E094
:104AE00021111DC3E82FF0E0EB5EF84F3081391340
:104AF00002C0843060F4492F50E04F5F5F4F34179D
:104B0000150609F09AC3843008F497C3908396E49D
:104B1000D92E5BC3282F2D7F09F066CF882371F033
:104B20008230B9F01092E9008091E800877F80938D
:104B3000E8008091E800982F9E7F4CCF8091A801DB
:104B4000813009F051CF933009F080E08093EA0979
:104B5000E9CF8091A8018111E5CF8091AA018770EA
:104B600009F442CF8093E9002091EB0020FFDACFD7
:104B70009130A9F49091EB0090619093EB0021E0CB
:104B800030E001C0220F8A95EAF72093EA001092E4
:104B9000EA008091EB0088608093EB00C3CF8091A6
:104BA000EB008062F9CF81111FCF8091A801909115
:104BB000E800977F9093E8009091E800292F2E7FDE
:104BC0002093E8009F779093E8009091E80090FF91
:104BD0000CC08F77982F90689093E300882309F496
:104BE00003CF83E08093EC09FFCE9091EC09911103
:104BF000ECCFFACE8058823008F0F6CE8091A80132
:104C00009091A901292F33272230310509F44CC096
:104C10002330310521F1E2E1F0E08FEE90E0213028
:104C2000310509F0E1CE2091E800277F2093E800CC
:104C30002091AC013091AD01E217F30708F49F0118
:104C400050E021153105A9F5511133C08091E800DC
:104C500082FDBCCE8091EC098111F8CFB7CE9927A7
:104C600081309105B9F060F0029709F0BDCE1E9930
:104C700018C081E091E0E1E1F1E0E491F0E006C0EC
:104C8000E9E3F1E0E491F0E089E391E0309709F4A1
:104C9000ABCEC9CFE1E2F1E0E491F0E081E291E056
:104CA000F5CF81E191E0E7CFE3E4F0E08CEA90E03A
:104CB000BACF4091E80043FD89CE4091E80042FD23
:104CC000C5CF4091EC09442309F480CE4091E8001F
:104CD000FC0140FFB6CFCF012115310539F04091DD
:104CE000F2005091F3004830510598F06091F200C5
:104CF0007091F30051E06830710509F050E0409187
:104D0000E800642F6E7F6093E8004F774093E800DF
:104D100098CF84918093F100215031093196DBCFF7
:104D2000803809F061CE8091E800877F8093E800A9
:104D30008091EB098093F1008091E800982F9E7F8D
:104D40009093E8008F778093E8008091E80082FDDF
:104D50003DCE8091EC098111F8CF46CE811144CE31
:104D60009091A801923008F03FCE8091E800877FB3
:104D70008093E8009093EB098091E800982F9E7F44
:104D80009093E8008F778093E8008091EB09882367
:104D9000D9F084E08093EC0942E061EC82E00E946B
:104DA000C90442E361E883E00E94C90442E360E889
:104DB00084E00E94C9041092000110920101109237
:104DC00002011092030110CE83E0E4CF9132F1F0A2
:104DD000923209F496C0903209F006CE813209F081
:104DE00003CE8091E800877F8093E800E0E0F1E067
:104DF00087E090E0009709F05EC08091E80080FDB8
:104E000098CE8091EC098111F8CF93CE813A09F0C8
:104E1000EBCD8091E800877F8093E8008091AC0122
:104E20009091AD018730910510F087E090E030E07F
:104E300040E051E012C02091E80023FDC7CD209151
:104E4000E80022FD0EC02091EC09222309F4BECD1A
:104E50002091E800FA0120FD11C0009761F731119F
:104E6000EACF8091E80082FDB1CD8091EC098111FB
:104E7000F8CFACCD21912093F1000197AF010097BD
:104E800039F02091F2003091F3002830310590F391
:104E90006091F2007091F30031E06830710509F023
:104EA00030E02091E800622F6E7F6093E8002F775A
:104EB0002093E800D2CF2091E80023FD3ACE209144
:104EC000EC09222309F435CE2091E80022FF92CF8D
:104ED0002091F2003091F300232B49F09F012F5FC6
:104EE0003F4F4091F10040830197F90189F72091EC
:104EF000E800322F3B7F3093E8002F772093E800C3
:104F000079CF813209F070CD8091E800877F80935E
:104F1000E8008091A60187FF0EC08091E80082FD25
:104F200055CD8091EC098111F8CF5ECD8091EC09CF
:104F3000882309F459CD8091E80080FFF7CFF9CD9F
:104F400080E080CD8FE07ECD1D8287E08E8358018A
:104F500054E0A50EB11CBA82A982D8018C9185308B
:104F600009F058C011968C91B8E08B9FC0011124B4
:104F7000F801438127E030E0241B3109820F931FA1
:104F80008039910509F046C0B5E1CB2EB7E0DB2EA4
:104F900084E2882E87E0982E99E8692E2FE0E22E91
:104FA00020EFF22E41E068E0CE0101960E94DA0582
:104FB000E80EF11C6826D6016D926D01A4E26A2EFE
:104FC000680E8C149D0471F741E068E0CE010196F3
:104FD0000E94DA05E80EF11C80958093240780E199
:104FE00022968FAF229741E068E0CE0101960E94A1
:104FF000DA0590E0982F8827E81AF90A41E068E07E
:10500000CE0101960E94DA05E3E5DE2E8E151F041F
:1050100009F44CCDF8018081843009F046CD1D8221
:1050200087E08E83BA82A9828181F8E08F9FC001D8
:105030001124D80113964C9127E030E0241B31094C
:10504000820F931F853491050CF42FCD75E1E72E67
:1050500077E0F72EC12C40E068E0CE0101960E9477
:10506000DA05F70181937F01D82E0D2CD294D0243C
:105070000D2CD694D694D024CE0101960E94BF0563
:10508000D394D1FADD24D0F82496DFAE2497259668
:105090001FAE259725962EAD3FAD25978217130697
:1050A00009F003CDCE0101960E94BF058111FDCC10
:1050B000F70131978081C8263BE1E31637E0F3061C
:1050C00051F686E022968FAF229740E068E0CE014D
:1050D00001960E94DA05E82EF82E0F2CF294F024A7
:1050E0000F2CF694F694F024CE0101960E94BF0591
:1050F000F394F1FAFF24F0F82696FFAE2697279650
:105100001FAE279727964EAD5FAD279784171506DC
:1051100009F0CBCCCE10C9CC68E4D62EC7CC215038
:10512000E22FF0E0EB5EF84F3081930FD9CC915035
:10513000E92FF0E0EB5EF84F4081240F9111F7CF9B
:10514000321304C0843010F00C941033B2E07B12A0
:1051500009C0AE014F5B5F4F65E4C8010E944A067B
:1051600081116EC01D8287E08E83C80104969A83E8
:105170008983F8018181843009F083C08381813083
:1051800009F07FC055E1E52E57E0F52E41E0D11042
:1051900072C067E0CE0101960E94DA058068F701CF
:1051A00081937F01D394F4E0DF12F0CF41E067E018
:1051B000CE0101960E94DA05880F8093190785E0D9
:1051C00022968FAF229744E7D42E9091DF0890FF6C
:1051D000AAC08091E5018E7F8B7F8093E50191FDD0
:1051E000D0C1CE0101960E947D0822968FAD2297F4
:1051F0009091E40198135EC1E2EBF1E0A5E1B7E024
:1052000090E089134CC149815A816B817C818090E7
:10521000AE019090AF01A090B001B090B1014819DB
:1052200059096A097B09463251056105710508F083
:1052300041C19091E50191603BC1982F2CE07ECF58
:1052400022968FAD2297815022968FAF2297893078
:1052500009F088CFEEE1F7E025E137E080E09291B8
:1052600089272E173F07D9F790911E0798137ACFF9
:1052700025E4D22EAACF68E0CE0101960E94DA057D
:105280008ECFD801DA964C9160914A07C801C99631
:105290000E945504682FC8010E941C06AE014F5B96
:1052A0005F4F6BE4C8010E944A06882311F40C94F6
:1052B000F8322296EFAD2297FF24FA94FE0E229642
:1052C000FFAE2297E0904707FE1410F40C94F832DA
:1052D0006F2D85E197E00E9411072F2D2E19330BBA
:1052E000F901EB5EF84F908189130C94F8323BE49E
:1052F000D32E6BCFD80113961C92139711968C91D5
:105300001197815011968C93F2E07F120BC005C06B
:10531000B2E07B12C0C0D11058CFF8018181843037
:1053200009F48AC0D12C8091DF0882FF63C180E735
:105330000E941A09D8018C9162E090E00E947A0ADA
:10534000F80187A965E0F0E18F9FC00111240E9458
:105350007A0AD801D8968C9165E0B0E18B9FC001A4
:1053600011240E947A0AF80181AD65E0F0E18F9F77
:10537000C00111240E947A0AD801DA968C9165E066
:10538000B0E18B9FC00111240E947A0AF80183AD1D
:1053900065E0F0E18F9FC00111240E947A0AD801D4
:1053A000DC968C9165E0B0E18B9FC00111240E94D6
:1053B0007A0AF80186A964E090E00E947A0AD8018E
:1053C00012968C9163E090E00E947A0AF801818144
:1053D00063E090E00E947A0AD80113969C9162E003
:1053E00027E030E0F901E91BF109CF010E947A0AB8
:1053F000D801DD968D919C9165E024E0880F991F7E
:105400002A95E1F70E947A0A80E20E941A098091A7
:10541000DF0885FF08C084E30E94600B0E94270A12
:1054200080E20E941A09F8018381873019F0818196
:105430008F5F8183F12CD7C08381843009F072CFD4
:105440004EE16CE3C801C7960E945504882309F415
:1054500069CF4EE160914A07C801C9960E94550480
:10546000682FC8010E941C06F801848180931507EB
:1054700085818093160786818093170787818093A3
:10548000180780858093190785E022968FAF2297B1
:1054900032E5D32E9ACEDD2009F444CF96CE319159
:1054A0002D919F5F321709F4ACCE9091E5019D7F5D
:1054B0009093E501E5E1F7E0A2EBB1E090E089131C
:1054C0005CC08093E40189819A81AB81BC81809327
:1054D000AE019093AF01A093B001B093B101F4E598
:1054E000DF1220C08091DF0886FD1CC022968FADA0
:1054F00022978530B8F0809117078B3471F0893688
:1055000061F09DEA980F923040F08D57823028F07C
:10551000809118078077803729F48091E5018160B8
:105520008093E5018091E50180FD03C08460809354
:10553000E50124E5D2120DC080914B08882349F083
:105540008091D403811105C08091E5018B7F809308
:10555000E5018091E50182FFE6CE8D2D0E941A09BA
:1055600080914707882339F022968FAD229781508A
:1055700022968FAF2297F12C11C021912D939F5F1E
:105580009ECF8D7F81608093E501A9CFEF2DF0E064
:10559000EB5EF84F80810E94270AF3942296EFADCC
:1055A0002297FE1698F380914707882349F0F0E090
:1055B000EB5EF84F80818F7061E090E00E94EB0914
:1055C0008091DF0885FF05C084E30E94600B0E9484
:1055D000270A0E94B209A7CEF801EF0DF11D8481C0
:1055E0000E94270AF394D80111968C91F816A0F323
:1055F0000E94B209F801108216AA809148078150D2
:10560000809348078091E6018F5F843009F4BEC023
:105610008093E601769880914B07823009F048C06C
:10562000F4E5DF1245C0C0901507009116071091F0
:105630001707E0901807D09019078FE58093EC03C7
:105640001092ED03F090D403F11004C08091D303C5
:10565000882371F18091ED09C81204C08091EE0990
:10566000081731F00E946908C092ED090093EE0915
:105670000091EB030F3FE1F01093EF09E092F00986
:10568000D092F109112309F493C0011191C0DF14E4
:1056900009F47FC024E6D21609F47BC08DEA810F9D
:1056A000823018F01D3709F077C08FEF8093EB033D
:1056B0008091050790910607A0910707B091080710
:1056C0002091E801281709F4A9C18091050790915C
:1056D0000607A0910707B09108078093E801A895F5
:1056E000BAEDAB2EB3E0BB2ED12CC12C712C1AEF2E
:1056F000612E2FB7F894F601EE0FFF1FE755FC4F10
:10570000808191812FBF892B09F0CEC08091A803A1
:105710008111CAC0D50112968C91877020E830E0C3
:10572000281B3109629EC001639E900D112495953E
:10573000879595958795918380837601B2E0EB0EEE
:10574000F11CEE0CFF1CF701E755FC4F4F01808167
:10575000918101969183808386010F5F1F4F000F17
:10576000111FF801E755FC4F80819181892B09F0C9
:105770008AC0D4018D919C91049709F084C0872D33
:105780000E949D18F401118210828EC01092E601D1
:1057900041CF143509F48CCF8E2D807F803609F0EF
:1057A00087CF8E2D80678093F0090E94911880CF5B
:1057B0000E944E08811103C0002309F479CF809123
:1057C000EA03E82F811105C0E02FF0E0E35CFE4F13
:1057D000E491E335D9F41435C9F40E5F0093EB037B
:1057E0008823F1F08091F3098E5F8093F3090E9482
:1057F0004E08882381F08091EF098093EA03843674
:10580000A1F68091A6038093F109CFCF1E1741F333
:105810000E9469084DCF8091EB038E5F8093EB036C
:105820008091EB03E82FF0E0E25CFE4F14911F3F04
:1058300011F31093EF0997E79093F009F092F109B3
:105840008E5F8093EB031092EA038E30A9F48DEE05
:1058500099E00E942A08FC01892B61F0A081B0E048
:105860008CE994E08A1B9B0BAE0FBF1FE817F9076A
:1058700038F010820E946908112309F419CF95CFDE
:105880002D912193F3CF07551C4FD8018D919C91F9
:105890001197019709F020C1872D0E949D1822E0E1
:1058A00030E0F801318320837394F3E0CF0ED11CF4
:1058B00024E0A20EB11C34E073121BCF2FB7F89472
:1058C0008091C1039091C2032FBF892B09F044C07E
:1058D0008091D3038A831B829091A703992309F4B3
:1058E0000DC1933009F007C187E791E09093C2039F
:1058F0008093C10303EC13E0F12C4CE2E42ED801B9
:105900009C919F3FD1F02091A7038091D4038F0DEC
:105910008983222309F403C1EC822D8321E04CE02A
:1059200065E0CE0101960E94EB178091DF0886FFAB
:1059300004C0CE0101960E94490AF3940E5F1F4FE6
:10594000F8E0FF12DCCF8091A703882329F0833091
:1059500009F0EAC01092A7038091EC0381110FC0F7
:105960008091ED03882309F4E3C00E94741889E252
:105970008093EC038091ED0381508093ED0380913F
:105980002203882341F1815080932203811123C097
:10599000E09148082FE3E29FF0011124E45BF84F07
:1059A000808181110AC02091EC0381E090E02F3FBB
:1059B00011F490E080E0892B19F083E080932103BB
:1059C00080912103815080932103882309F4B3C07F
:1059D00083E080932203809120038D37F8F01092AA
:1059E00020038091070181FF04C08EB190E48927D4
:1059F0008EB98091D6089091D708843833E0930708
:105A000028F401969093D7088093D6088091E701F7
:105A10008F5F8C3309F493C08093E701809149082C
:105A2000882309F4B0C0C0900507D0900607E09025
:105A30000707F090080780914908833009F050C2A9
:105A40008FE30E94600B182F803408F085C000E0BF
:105A5000863090F0109267091092650910926609DD
:105A600028988FEF0E94F00A80E00E94F00A082F29
:105A7000115009F073C0289A0E94AD121092490883
:105A8000053709F080C041E0BE016F5F7F4F88E6B7
:105A900099E00E941C05019709F01BC280914A08F9
:105AA0009981981316C280916C09853509F465C0F7
:105AB0008091670984508093670984E08093660928
:105AC0006AE085E699E00E946405E0911D03F0918B
:105AD0001E0388E0099557C08D919C91029709F0AB
