:1000000040C400005BC4000059C400000C945217A7
:1000100055C4000053C4000051C400004FC4000088
:100020004DC400004BC400000C940E2247C40000D5
:1000300045C4000043C4000041C400003FC40000A8
:100040003DC400000C94D31839C4000037C400002C
:1000500035C400000C94CF1431C400002FC400003C
:100060002DC400002BC4000029C4000027C40000D8
:1000700025C4000023C4000021C400001FC40000E8
:100080001DC400001BC4000019C4000017C40000F8
:1000900015C4000013C4000011C400000FC4000008
:1000A0000DC400000BC4000009C400003025622507
:1000B000B9266225B926A925D025B92661267F262D
:1000C000090243000201008032090400000102021B
:1000D0000100052400011005240103010424020687
:1000E0000524060001070582030800FF090401003A
:1000F000020A000000070504024000000705830211
:100100004000001201100102000008EB034B200028
:1001100000010200012A03430055004C0034003363
:1001200000330000002A03430055004C003800361D
:10013000003800000016036200750073007700614C
:1001400000720065002E00640065000000040309D1
:100150000400535300547D7DFFFF4B4B7E7E0050C7
:100160004C4C310D0A00504C4C300D0A000D0A0069
:1001700020436865636B73756D204572726F722CD6
:100180002043616C63756C6174656420436B733AE2
:1001900020006B72000D0A002020526563656976AD
:1001A000656420446174613A20004279746573206B
:1001B000696E204669666F3A20004B6F707020436D
:1001C0006F6D6D616E6420556E6B6E6F776E0D0A8C
:1001D000004B6F70702052656365697665205375BA
:1001E00062436F6D6D616E6420556E6B6E6F776EDE
:1001F0000D0A0052585F494E49545F4552525F4DB7
:1002000041524353544154455F5258006B72532D31
:100210005265636569766553746172740D0A006B8B
:1002200072452D52656365697665456E640D0A00F9
:10023000204279746573206F72204B6579636F6417
:1002400065206973206E6F206865782076616C7513
:10025000650D0A004B6F7070205472616E736D698A
:10026000747420436F6D6D616E64206E6F742065D1
:100270007175616C20746F2000426C6F636B330D7D
:100280000A00426C6F636B320D0A005B6865785D33
:100290000D0A007469636B732D426C6F636B53744A
:1002A00061727454696D653A20005B6865785D0D14
:1002B0000A004B65794F666654696D653A202020C7
:1002C0002020202020202020005B6865785D0D0A1A
:1002D00000426C6F636B2053746172742054696DBB
:1002E000653A2020202020005B6865785D0D0A00BB
:1002F0005469636B2054696D65723A202020202078
:10030000202020202020005B6865785D0D0A004BCE
:1003100065794F666654696D6520696E20746963FE
:100320006B733A2020006D7365630D0A004B65798D
:100330004F666654696D653A2020202020202020D9
:10034000202020000D0A005469636B2054696D65FC
:10035000723A2020202020202020202020000D0A7A
:10036000000D0A416D6F756E74206F6620427974BE
:10037000657320284865782920666F756E6420694A
:100380006E7369646520636F6D6D616E64206C6966
:100390006E6520706172616D657465723A2020200F
:1003A0002020202020202020000D0A4E6578742077
:1003B0004368617261637465722028696E742920D4
:1003C000616674657220706172616D65746572201A
:1003D0002873686F756C64206265206C696E652097
:1003E000656E6420636861726163746572293A2086
:1003F000000D0A537472696E676C656E6774683AB3
:10040000202020202000636F6D6D616E646C696E2A
:1004100065706172616D657465723A200054726135
:100420006E736D6974740D0A000B08105B11F8157A
:1004300047191D1A1C1BC71C001DB221B623EA0058
:1004400007022E030D04E905CA070C0B060D210E49
:10045000650F6A10C8119312031534173318181951
:10046000161B4321562500261129592C812D353E76
:10047000C34552523A4343410D0A000454053D1707
:1004800000000602000B080C000D210E6B0FD010AF
:100490005C11041206132214F80A00154421B62236
:1004A000101818192E1ABF1B431C091DB523EA2466
:1004B0002A2500261F29592C812D352E09070408CD
:1004C00000090006FF3EC2FF0476059617000006ED
:1004D00002000B080C000D210E650F6A106A114A0C
:1004E0001206132214F80A00154721B62210181814
:1004F000192E1A6D1B041C091DB223EA242A25009B
:10050000261F29592C812D352E09070408000900C2
:1005100006FF3EC2FF4F4646004F464600544D4F31
:10052000444500534D4F4445006E6F7420636F6D1A
:1005300070696C656420696E0D0A0000070246044C
:10054000C605260B0610C811931203132215341783
:100550003F182819161B432156250026110D210E80
:10056000650F6A070C160720F81E871F6B29592C88
:10057000812D353EC3FF004C4F56460D0A00202802
:10058000462D42616E643A203836384D487A29004B
:100590002028462D42616E643A203433334D487A28
:1005A000290043554C3836380043554C343333001A
:1005B0005620312E32362E31303320612D63756C4A
:1005C0006677204275696C643A20313033202832D6
:1005D0003032362D30312D32362031353A31303A05
:1005E000313529200043554C5F5633000D2E2D0721
:1005F000D3913D04320000060010B07155E4302361
:10060000B900070018146C070090876BF85611E9C1
:100610002A001F4100012E4604AA540FE0000000EA
:10062000060021656A97831663B947070C29366C63
:10063000074091876BF85611E92A001F4100545872
:100640005F494E49545F4552525F004E2F4100456D
:100650004F420D0A004E2F41004E2F4100202F2007
:1006600000203D2000072E050DD391FF0805000056
:100670000C0021656A2D3B1322F862073F181D1CF0
:10068000C700B0876BF8B611EA2A001F41000D2E93
:100690002D07D3913D04320000060021656A57C43E
:1006A0003023B900070018146C070090876BF856C8
:1006B00011E92A001F41004C454E4552520D0A00D7
:1006C0000302FF0000000000000000000000000026
:1006D00000000000030210881182FF0000000000EB
:1006E000000000000000000003071088110B0D211E
:1006F0000E6B0FD01553FF00000000000B060D21FC
:100700000E650F6A1700181819161B431C68250080
:1007100026110001024605D4042D03020700080239
:100720001089115C12061556FF00737065636966C7
:10073000792076616C6964206D6F6465206E756DDB
:100740006265720D0A00424F56460D0A000007020C
:1007500046030D049A057D0642070C0B060D210E7B
:10076000650F6A10C8119312031534170018181971
:10077000161B431C6825002611FF00000000000026
:100780000000000000000000004C4F56460D0A001B
:100790000D2E2D07D3913D04320000060010ABA5AD
:1007A000550A3023B900070018146C070090876BB6
:1007B000F85611E92A001F410041180A42460E620C
:1007C0000205434223457D1565A41046882047A9AC
:1007D0001F68481E696E0C4BB61E6B84056C340E88
:1007E0004D371F6D36054EBC15523812547B1274AE
:1007F000B91455831E75A71A56F50B570E1158FAE2
:100800001A784524597A1B5A45160000002069734E
:1008100020756E6B6E6F776E2920557365206F6E35
:1008200065206F66003F20280000030F1E2627006A
:100830000000030F1E2536386700030F2567406050
:100840005000030F275188838100030F2750C8C32E
:10085000C200270000000000000067000000000048
:1008600000005000000000000000810000000000B7
:100870000000C2000000000000202F2000203D20CA
:10088000000011241FBECFEFDAE0DEBFCDBF11E0C4
:10089000A0E0B1E0E6EFFBE602C005900D92A63ABB
:1008A000B107D9F729E0A6EAB1E001C01D92AC3F3B
:1008B000B207E1F70E945C240C94F935A1CB0F93A9
:1008C0001F93CF93DF93182F062F109214071092C7
:1008D000790553985298EA98209A289A8CE390E0E8
:1008E000FC013197F1F728980197F1F7289A8AE5EA
:1008F00090E00197F1F780E30E942A1588EC90E0E0
:100900000197F1F7113031F0123009F076C0CBE7E2
:10091000D4E01DC0C8ECD4E0FE0184918134E0F441
:1009200031966491FE0184910E9456152296F5E05D
:10093000C039DF0789F710C031966491FE018491B8
:100940000E9456152296F5E0C334DF0779F1FE01C7
:100950008491813488F32AC00130C9F010931407C0
:100960000093790583E30E942A158CE0EDE6F5E01B
:10097000DF011D928A95E9F786E0EFE7F5E0DF01F8
:100980001D928A95E9F784E00E949A1436C060E0CF
:1009900087E10E94561567E083E00E94561564E5E2
:1009A00084E00E94561566E785E01CC00130B1F670
:1009B00060E087E10E94561567E083E00E945615CB
:1009C00064E584E00E9456156DE385E00E945615AB
:1009D00060E585E10E9456156BE580E10E945615A1
:1009E00068EF81E10E94561562E082E00E94561590
:1009F0006EE280E00E945615B1CFDF91CF911F913A
:100A00000F910895FC019181923789F482818823A6
:100A1000A1F0833719F462E081E004C0843721F447
:100A200062E082E04CDF09C060E080E0FBCF9337FA
:100A300021F489E295E00C942B12809179058230A3
:100A400079F480911407813029F0823031F48DE1FE
:100A500095E008C083E295E005C089E195E002C019
:100A600085E195E00E942B120C940C12CF93DF933A
:100A700082E40E945A11C091F609D091F70965E00D
:100A8000CE010E9453210E940C1283E50E945A114C
:100A900065E080913401909135010E9453210E94BC
:100AA0000C1285E40E945A1165E080913201909108
:100AB00033010E9453210E940C1286E40E945A11B5
:100AC000209721F4C0913401D091350180913201F9
:100AD00090913301009741F48DB79EB72091360174
:100AE00030913701821B930BC817D90718F48C1B60
:100AF0009D0B02C080E090E065E00E9453210E94BF
:100B00000C12DF91CF9108954F925F926F927F9276
:100B1000AF92BF92CF92DF92EF92FF920F931F930B
:100B2000CF93DF93CDB7DEB7EB970FB6F894DEBF68
:100B30000FBECDBF8C01FC0101900020E9F7319779
:100B4000AF01481B590B7C0182E0E80EF11CBE018D
:100B5000625D7F4FC7010E94FB22D82E67E971E0DA
:100B600088E091E00E94E335F801B1808DE88B0DBB
:100B7000823008F0CAC181E08093240387858A34DB
:100B800011F489E501C08EE480930701A895409097
:100B90007A0550907B0560907C0570907D05809172
:100BA0007A0590917B05A0917C05B0917D0580939D
:100BB000200390932103A0932203B09323038091F9
:100BC0000701893509F04BC08DE194E00E942B129A
:100BD00086E094E00E942B12C8010E948F1481EFDE
:100BE00093E00E942B12F80101900020E9F7CF0159
:100BF000019760E0801B910B0E94532189EA93E0EA
:100C00000E942B12F80101900020E9F731978081B2
:100C100060E090E00E94532181E693E00E942B1255
:100C200060E08D2D90E00E9453218EE593E00E94BC
:100C30002B1287E493E00E942B1264E08091220340
:100C4000909123030E94142164E0809120039091ED
:100C500021030E94142184E493E00E942B12F801E6
:100C600001900020E9F7CF0141978017910709F023
:100C700036C142E0BE01625D7F4FC7010E94FB2288
:100C8000029709F02CC10E94820EAEA4B801665FE3
:100C90007F4F45E050E0CE0101960E94EA351E826A
:100CA0004AE050E060E070E0CE0101960E94F63329
:100CB0006B017C0183E0F694E794D794C7948A95FE
:100CC000D1F7809107018935E1F48DE293E00E942C
:100CD0002B12CE0101960E948F1486E293E00E94AF
:100CE0002B128FE093E00E942B1264E0C7010E9458
:100CF000142164E0C6010E94142187E093E00E9461
:100D00002B128FE0E8E3F1E0DE015F9601900D9297
:100D10008A95E1F78FA588A388A989A389A98EA3BD
:100D20006A2DCE014F960E94C90EF3E7BF1609F453
:100D3000E3C0A7FEE1C040912003509121036091E0
:100D400022037091230380917A0590917B05A091F5
:100D50007C05B0917D0584199509A609B7098E37E0
:100D60009105A105B10548F440907A0550907B05A6
:100D700060907C0570907D05A89580917A05909192
:100D80007B05A0917C05B0917D05841B950BA60B7E
:100D9000B70BC816D906EA06FB06A8F640907A05F6
:100DA00050907B0560907C0570907D0580910701D7
:100DB000893509F06BC080EF92E00E942B1264E04D
:100DC000C3010E94142164E0C2010E94142188EE34
:100DD00092E00E942B1281ED92E00E942B1264E0BF
:100DE00080912203909123030E94142164E080915A
:100DF0002003909121030E94142189EC92E00E942B
:100E00002B1282EB92E00E942B1264E0C7010E9439
:100E1000142164E0C6010E9414218AEA92E00E9433
:100E20002B1283E992E00E942B1280917A05909117
:100E30007B05A0917C05B0917D05409120035091E8
:100E400021036091220370912303841B950BA60B51
:100E5000B70B64E0CD010E94142180917A05909136
:100E60007B05A0917C05B0917D05209120033091F8
:100E70002103821B930B64E00E9414218BE892E013
:100E80000E942B1282E892E00E942B1267EFCE01A3
:100E90004F967FD740912003509121036091220308
:100EA0007091230380917A0590917B05A0917C0538
:100EB000B0917D05841B950BA60BB70B4597A1053B
:100EC000B10580F380910701893521F489E792E02B
:100ED0000E942B1267EFCE014F965BD70DC084E5C1
:100EE00092E00E942B1260E08EE090E00E9453217D
:100EF00080E392E00E942B1280911E03813011F456
:100F00000E942B231092240346C082E7B8123FC0F0
:100F1000F8018281853451F410921E0386E30E9409
:100F20002A1510921D038FE192E033C0833561F5DD
:100F3000F8018381813311F481E003C0823321F40D
:100F400082E080931D0302C010921D0381E0809314
:100F50001E03D8D68CE092E00E942B120E942B2315
:100F600085E30E9462158D30B1F083EF91E00E941D
:100F70002B1285E30E9462150E9456110E940C12EA
:100F8000C1D610921E0307C081ED91E002C08AEB2A
:100F900091E00E942B12EB960FB6F894DEBF0FBEC5
:100FA000CDBFDF91CF911F910F91FF90EF90DF9018
:100FB000CF90BF90AF907F906F905F904F900895CB
:100FC0000F931F93CF93DF93EA98209A289A8CE38C
:100FD00090E0FC013197F1F728980197F1F7289AF2
:100FE0008AE590E00197F1F780E30E942A1588ECEA
:100FF00090E00197F1F7CBE3D5E0FE0184918134D5
:1010000050F083E30E942A1584E00E949A14CFEFE7
:1010100004E110E00DC0FE0131966491FE0184915F
:101020000E9456152296F5E0C737DF0731F7E9CF62
:1010300084E30E942A15C8010197F1F7C150C1F756
:1010400081E08093DF080E947310DF91CF911F91A0
:101050000F9108954F925F926F927F928F929F921D
:10106000AF92BF92EF92FF921F93CF93DF937C01D9
:10107000EB01FC0110811F5F209719F420E030E0A4
:1010800002C024E630E0F8E01F9FC00111246AE0AE
:1010900070E00E94BD35260F371F4901032E000C5A
:1010A000AA08BB088091D8089091D908AC0160E0EB
:1010B00070E0481559056A057B0528F487E795E037
:1010C0000E942B12D7C0821B930B9093D908809358
:1010D000D8088091DF08811101C072DF85E30E948A
:1010E00062158D3071F08AE50E945A1185E40E94E4
:1010F0005A1182E50E945A1182E50E945A1181E339
:1011000049C08090850590908605A0908705B09095
:10111000880581149104A104B104B1F40E94A823AC
:1011200085E30E946215833109F43FC08AE50E947D
:101130005A1185E40E945A1182E50E945A1182E5F3
:101140000E945A1182E326C0240135014FEF441A50
:10115000540A640A740A80917A0590917B05A091E3
:101160007C05B0917D0588169906AA06BB0621F478
:1011700081E00E949A14EFCF80917A0590917B05CF
:10118000A0917C05B0917D05481659066A067B063C
:1011900079F3C4CF0E945A1185E30E9462150E9420
:1011A00056110E940C120CDF65C0CD2B41F428981B
:1011B0008FE70E94F323BE2CCE2DDF2D08C0CAE09E
:1011C000D0E084E60E949A142197D9F7F0CF8C2FB3
:1011D0008B19811720F489910E94F323F8CF289A64
:1011E000C0E085E30E946215D82F85E30E94621556
:1011F000D81305C0DD3031F081E00E949A14CF5F32
:10120000CA3F79F785E30E9462158D30E9F08AE5DF
:101210000E945A1185E40E945A1182E50E945A11D7
:1012200082E50E945A1183E30E945A1185E30E94CD
:1012300062150E9456118D2F0E9456118C2F0E940C
:1012400056110E940C12BCDE8091DF08811102C091
:101250000E94031A80917A0590917B05A0917C05EC
:10126000B0917D058093850590938605A0938705B1
:10127000B0938805DF91CF911F91FF90EF90BF90C1
:10128000AF909F908F907F906F905F904F90089558
:10129000CF93882331F01092780586E30E942A15B7
:1012A00007C085E30E9462158D30A9F7C0E039C000
:1012B00085E30E946215C82F8130D1F78BE30E942D
:1012C0002A158AE30E942A1510926D0510926F0567
:1012D00010926E05109271051092700585E293E0F0
:1012E000909373058093720510927405C0937505F1
:1012F00010927605809114078093770560E083E073
:101300000E94561562E088E00E94561584E30E9410
:101310002A1585E30E9462158D30D9F781E080930C
:1013200078058C2FCF910895A0E0B0E0EAE9F9E0CC
:101330000C946C35B82EC92ED62E7A0189012898C6
:101340008FEF0E94F323CB2DDC2DCE018D0D911D4F
:101350006C01CC15DD0529F080E00E94F323899310
:10136000F8CFE114F10469F080E00E94F323F70163
:1013700080830115110529F080E00E94F323F80114
:101380008083289ACDB7DEB7E9E00C9488350F93B7
:101390001F93CF93DF93EA98209A289A8CE390E0EA
:1013A000FC013197F1F728980197F1F7289A8AE51F
:1013B00090E00197F1F780E30E942A1588EC90E015
:1013C0000197F1F7CFE3D4E0FE0131966491FE017D
:1013D00084910E9456152296F4E0C137DF07A1F7E9
:1013E00080917E05811107C083E30E942A1584E065
:1013F0000E949A1410C0C9E2D4E00FE314E0FE0189
:1014000031966491FE0184910E94561522960C1724
:101410001D07A9F7E9CF84E30E942A1585E30E94FE
:1014200062158D30C1F7DF91CF911F910F91089513
:10143000AAE3B0E0EEE1FAE00C946935FC01918199
:10144000923731F0923559F481E080937E0502C0E5
:1014500010927E059CDF81E08093E108BCC0933749
:1014600009F0B7C041E38E010F5F1F4FB801CF01F4
:1014700002960E94FB227C019C01332721503109F6
:10148000898190E02817390709F0A5C08091E1080B
:10149000811104C07CDF83E00E949A14DB809A8172
:1014A00086E789278A8322E03981822F90E0F8013C
:1014B000E80FF91F231750F4DE01A80FB91F8C9114
:1014C00084529081892780832F5FEECF80818D2584
:1014D0008083CE01C7960E94A81485E30E942A1536
:1014E00085E30E946215833179F1CE01C3960E9493
:1014F000A8144BA95CA96DA97EA98FA998ADA9AD27
:10150000BAAD84179507A607B70760F44A015B01D7
:10151000881A990AAA0ABB0A2DEB82169104A10423
:10152000B10470F4481759076A077B0768F48454BC
:101530009F4FAF4FBF4F84179507A607B70720F4FB
:1015400081E794E088D727C085E30E946215833144
:1015500021F6D4FE08C088E70E949A1488E70E940A
:101560009A1488E701C08AE00E949A1428988FE7AD
:101570000E94F32368018C2D801B8E1530F4F60138
:1015800081916F010E94F323F6CF289A85E30E9490
:1015900062158331D9F385E30E946215863149F4DF
:1015A0008BE30E942A1586E30E942A158DE30E9490
:1015B0002A158091E108882349F084E30E942A15C6
:1015C00085E30E9462158D30C1F705C00E94031AA1
:1015D00002C01092E108EA96ECE00C948535482FA1
:1015E00050E08A3150F09A012A51310984E0359552
:1015F00027958A95E1F72D5F01C022E0CA01019687
:10160000820F911D820F911D0895CF93DF93EC01FE
:10161000A881E981CA2FC295CF70D0E0C957DE4FAB
:101620002881AF70B0E0A957BE4F3C91AE2FA29574
:10163000AF70B0E0A957BE4F9C91EF70F0E0E95752
:10164000FE4F808151E02F3F09F050E041E03F3FE5
:1016500009F040E0542B41E09F3F09F040E0452B6A
:10166000A9F48F3F99F0D0E42D9FA0011124E0E16F
:101670003E9F90011124242B282BF4E09F9FC00152
:101680001124822BEB01888380E001C081E0DF918F
:10169000CF91089528E0FC01EE27F078EF2FFF2787
:1016A000462F407850E0880F991FE417F50721F086
:1016B00035E683273DE39327660F215061F70895B0
:1016C000DC0111968C911197411118C012969C91D2
:1016D0001297E92FEF73F0E0E95BFE4F5081E82F9E
:1016E000EF7024E0E29FF001112492959695969573
:1016F0009370E92BE95BFE4F908102C090E050E0CF
:10170000EC9182958F70AE2FA370F0E1AF9FD00166
:101710001124A82BA95BBE4FAC91E695E695F0E0AD
:10172000E95BFE4F3081E1E0AF3F09F0E0E081E0AE
:101730003F3F09F080E0E82B81E05F3F09F080E067
:101740008E2B99F49F3F89F080E1389F90011124FE
:101750002A2BFB01208341110AC0F0E19F9FC001A9
:101760001124852BFB01818302C081E0089580E074
:1017700008955B9A813041F483E191E00E94A314C3
:101780005B988CE994E025C0811108C083E191E069
:101790000E94A3145B9883E191E009C0823091F428
:1017A00083E191E00E94A3145B988CE994E00E948D
:1017B000A3145B9A83E191E00E94A3145B988CE9E7
:1017C00094E011C083E191E00E94A3145B9883E14F
:1017D00091E00E94A3145B9A83E191E00E94A3141C
:1017E0005B9883E191E00C94A314FC01818188341F
:1017F00019F485EE95E014C080EB95E02CD61E9987
:1018000003C089EA95E002C082EA95E024D680917F
:101810004D07813019F480E995E002C08EE795E02C
:101820001AD6FAC5CF93DF93EA98209A289A8CE3C8
:1018300090E0FC013197F1F728980197F1F7289A89
:101840008AE590E00197F1F780E30E942A1588EC81
:1018500090E00197F1F7289880E40E94F323CCEE02
:10186000D5E0FE0184910E94F3232196F5E0C93F63
:10187000DF07B9F7809127010E94F32380912801A7
:101880000E94F323809129010E94F323C0E0D0E05D
:10189000FE01E450FA4F84910E94F3232196C9314E
:1018A000D105B1F7289A28988EE70E94F3238BE29E
:1018B00090E0EC01219660D30E94F323CE01E397E0
:1018C000C1F7289A83E30E942A1581E00E949A14A6
:1018D00081E08093DE08DF91CF910895A0E0B0E031
:1018E000E4E7FCE00C946D35EC018981843761F408
:1018F0006BE271E0CE0102960E94E12260E08091ED
:101900002B0190912C0110C0833709F03CC18A81D2
:10191000823771F46AE271E0CE0103960E94E122FF
:1019200080912A0160E090E00E94532175D597C113
:10193000769A80918A05811115C08091E1088823EB
:1019400029F081E080938C051092E1088091DF08F6
:10195000882329F081E080938B051092DF0862DFF5
:1019600083E0E8D786E30E942A158AE30E942A15BD
:101970008BE30E942A150E94A823FE0101900020FB
:10198000E9F73197EC1BFD0BEE24EA94EE0EEB7FAA
:1019900011E0E23209F010E000E080912A0190E0CD
:1019A000202F002E000C330B281739070CF0AAC08B
:1019B0005B9A113079F48BEE90E0C5D75B9880E1AB
:1019C00097E2C1D75B9A83E191E0BDD75B988AE546
:1019D0009AE008C080912B0190912C01B4D75B98BC
:1019E00080E197E2B0D76E0182E0C80ED11CFF24DF
:1019F000F394FE140CF084C0F60181916F018033E2
:101A0000A9F4113011F480E031C05B9A80912B0170
:101A100090912C0198D75B9880912B0190912C018B
:101A20009C01220F331F820F931F32C08133A9F410
:101A3000113011F481E01AC05B9A80912B019091D2
:101A40002C019C01220F331F820F931F7CD75B98C0
:101A500080912B0190912C013FC0823311F482E0E0
:101A600005C0843439F5113019F483E082DE46C0B4
:101A70005B9A80912B0190912C019C01220F331FC6
:101A8000820F931F60D75B9880912B0190912C015E
:101A90005AD75B9A80912B0190912C0154D75B9877
:101AA00080912B0190912C019C01220F331F820FFA
:101AB000931F23C01130C9F25B9A80912B01909142
:101AC0002C0141D75B9880912B0190912C019C01B6
:101AD000220F331F820F931F36D75B9A80912B0101
:101AE00090912C019C01220F331F820F931F2BD743
:101AF0005B9880912B0190912C0125D7F39479CF9D
:101B00000F5F4BCF80918A05882339F08091E008E0
:101B100081110DC086E39ED717C080918C05882364
:101B200049F010928C0533DC81E08093E1080E943B
:101B30002B230AC080918B05882321F010928B05FE
:101B40003FDA02C00E94031A769889E6B3D383E78E
:101B5000B1D301E00E150CF0E9CEFE01E00FF11D4E
:101B600007FDFA958181803359F0813349F0823342
:101B700039F0843411F484E403C01130E1F386E4D5
:101B800099D30F5FE7CF8237B9F48091E1088823BA
:101B900029F081E080938C051092E1088091DF08A4
:101BA000882329F081E080938B051092DF083ADECC
:101BB00081E080938A0553C0863621F58A8180337F
:101BC00051F480E18093270180EB8093280181E725
:101BD0008093290107C043E067E271E0CE010296DD
:101BE0000E94FB2289E666D386E664D38AE362D349
:101BF000809127015BD38091280158D380912901DE
:101C000055D394CE883719F580918C05882339F007
:101C100010928C05BCDB81E08093E10810C08091BC
:101C20008B05882321F010928B05CAD90DC082E064
:101C300090E00E94F9238091E008882319F00E9427
:101C40002B2302C086E306D710928A0508C083368C
:101C500031F46BE271E0CE0101960E94E122CDB732
:101C6000DEB7E8E00C94893541E066E271E0019668
:101C70000E94FB228091260180FF02C0769A01C05B
:101C800076986091260184E390E095C1A1E0B0E0F0
:101C9000ECE4FEE00C9473351982009739F041E0D2
:101CA000BE016F5F7F4F01960E94FB2289818F3FAB
:101CB00009F4FFCF882321F061E083E390E07BD13A
:101CC0000E94A8218091E00081608093E0008091D3
:101CD000D8008F778093D80019BC8091D8008F7E70
:101CE0008093D8001092890510926E00F89498E0C5
:101CF00088E10FB6F894A895809360000FBE90938A
:101D00006000FFCF0F931F93CF93DF93EA98209A41
:101D1000289A8CE390E0FC013197F1F7289801971D
:101D2000F1F7289A8AE590E00197F1F780E392D6DF
:101D300088EC90E00197F1F7289880E40E94F32363
:101D4000C5E1D6E00EE316E0FE0184910E94F32384
:101D500021960C171D07C1F7289A28988EE70E9434
:101D6000F3238BE290E0EC01219606D10E94F3234D
:101D7000CE01E397C1F7289A83E36CD681E0DAD5E8
:101D800081E08093DE08AFD1DF91CF911F910F9159
:101D90000895A0E0B0E0EFECFEE00C946C358C010F
:101DA00080918D05F801838364839DE0C92ED12C39
:101DB0000E94A82385E386D6833149F08EE396E01E
:101DC0004AD385E37FD672D227D39CDF45C080916A
:101DD0007A0590917B05A0917C05B0917D0580935B
:101DE000200390932103A0932203B0932303289808
:101DF0008FE70E94F3237801C0E0D0E08AEAB82E92
:101E0000F70180810E94F323C930D10544F4F70122
:101E10008081B826C730D10511F4F801B08621962B
:101E2000FFEFEF1AFF0ACF30D10551F7289AC8EC1F
:101E300085E348D6833159F081E0C81AD10809F00A
:101E4000B7CF80918D058F5F80938D0505C081E0B0
:101E500071D5C15069F7F0CFCDB7DEB7E9E00C948A
:101E6000883580916C09843009F085C08093E90041
:101E700080918406811124C08091E80085FF20C0F4
:101E80008091F2009091F300892B39F06091F1007C
:101E900085EE98E00E940120F3CF8091E800982F12
:101EA0009B7F9093E8008F778093E80081E0809398
:101EB0008406E0918E05F0918F05099510928406B5
:101EC00083E08093E90080918706882309F453C05A
:101ED0008091E80085FF4FC0F894809187068823A1
:101EE00071F08091F2009091F3008034910538F404
:101EF00085E896E00E94E71F8093F100EECF78948A
:101F00002091F2003091F3008091E800982F9E7F9D
:101F10009093E8008F778093E8002034310559F5DD
:101F200085E69091EC0090FF0EC09091E80090FF44
:101F30000EC08091E800982F9E7F9093E8008F77E5
:101F40008093E80008959091E80092FDF2CF90917F
:101F50006C09992371F39091EB0095FDEACF909174
:101F6000E10092FFDECF9091E1009B7F9093E10032
:101F70008150B9F6DECF08950C941235A2E0B0E09E
:101F8000E4ECFFE00C9473351A82198242E0BE0142
:101F90006F5F7F4F0E94FB22823031F489819A81EA
:101FA00098278927982702C0898190E0E5DF22964B
:101FB000E2E00C948F350E941A35F999FECF08950E
:101FC000E6EDF5E02081211105C0892BB1F080E01C
:101FD00090E00895B6E0E438FB07B8F7009751F0B9
:101FE0004181DC013C91431305C0428111963C9133
:101FF000431751F0E20FF11DE5CF36E0E438F30767
:1020000019F010F0E4E8F6E0CF0108951092D3053E
:102010001092D20583E0809373098FEF8093D405EB
:10202000089524E0829FC0011124FC01EE53FA4F71
:1020300080818F3F91F08093080781818093090709
:10204000828180930A07838180930B0721E04CE013
:1020500064E088E097E00C9417200895CF9385E31F
:1020600090E08ADF8093C10586E390E085DF80936E
:10207000C005E0EBF5E0CFEFC083C283C483C68325
:10208000C087C287C487C687C1DF1092D60581E0AA
:1020900080939505A2ECB5E0CC93E6E9F5E08FEFEF
:1020A0009FEF91838083138212821582148214968B
:1020B000CC93149797838683118610861386128695
:1020C0001896CC9318979587848717861686118A59
:1020D000108A1C96CC93938B828B158A148A178A4C
:1020E000168ACF910895CF93DF938AE991E046DF76
:1020F000C82F8DE991E042DFD82F80EA91E03EDFE2
:102100004C2F50E060E070E0BA0155274427480F9B
:10211000511D611D711D8D2F90E0982F88279A0108
:10212000AB01280F391F411D511DAAE1B0E00E94EB
:102130005935853F914010F082E001C081E08093E5
:102140004D07DF91CF9108950F931F93CF93DF93A6
:10215000EC0161E080E090E02EDF6AE181E090E058
:102160002ADF82E090E0FC01E457F94F64918C0192
:102170000F5F1F4F20DFC8010B321105A1F787E366
:1021800090E0FC01E25DF94F64918C010F5F1F4FFD
:1021900012DFC80100361105A1F71E9918C060E1D1
:1021A0008FE090E008DF60EB80E190E004DF61E722
:1021B00081E190E000DF60E184E490E0FCDE60EB30
:1021C00085E490E0F8DE61E786E490E0F4DE88E004
:1021D0000E94C22388DF60E080E690E0ECDE60E0F1
:1021E00081E690E0E8DE60E083E390E0E4DE62E038
:1021F00084E390E0E0DE60E080E690E0DCDE60E03A
:1022000081E690E0D8DE8981883719F080E090E09F
:102210003DDDDF91CF911F910F910895A6E0B0E0D1
:10222000E4E1F1E10C946D358C0143E0BE016F5F98
:102230007F4F01960E94FB228230A0F1823019F478
:10224000C980D12C05C0C980DA80DC24CD24DC24EF
:102250007C01FF24FE01EE0DFF1D6081C601ABDE97
:10226000C6010F97039708F43EDFEE0CFF1C8FEFBB
:10227000E81AF80A0E0D1F1DF8018081882391F0DD
:1022800041E0BE016F5F7F4FC8010E94FB22892B96
:1022900049F0EFEFCE1ADE0A6981C6018CDE0E5FCF
:1022A0001F4FEACF2696E8E00C94893562E090E073
:1022B0000C941421CF93C82F80916C09843081F441
:1022C0008091680980FF0CC08091870687FDC9DD79
:1022D0006C2F85E896E00E940120CA3009F4C1DD28
:1022E00080914D08882309F47EC08091680983FF9E
:1022F0007AC0CA3009F477C0CD3011F06C2F01C01C
:102300006BE384E598E00E940120CD3009F065C0C0
:1023100080915708843509F060C0E0915408A4E624
:10232000B8E08DE08E1750F090E0F0E09F012F5064
:1023300031098217930709F050C005C09D919B3366
:1023400099F38F5FEFCFDF01A75BB74F8C91843597
:1023500009F043C09091580811968C9111979813E9
:102360003CC09091590812968C911297981335C0E1
:1023700090915A0813968C91139798132EC09091B0
:102380005B0814968C911497981327C0EA5BF74F5B
:1023900015968C911597808316968C91169781834C
:1023A00019968C91199782831A968C911A97838328
:1023B0001B968C911B9784831C968C911C9785830C
:1023C0001D968C918683809154088A50809354087E
:1023D000809156088A508093560883E08093920536
:1023E00082E080939105CF9108950F931F93CF932F
:1023F000CFEFC60FCF3F61F08C010F5F1F4FBCDDE9
:1024000055DFCC2311F08AE355DFC150C801F2CF6C
:10241000CF911F910F9108958DE04CDF8AE04ACF54
:102420000F931F93CF93DF938C0184E543DFE80183
:102430000B5F1F4F89913ADFC017D107D9F7809101
:10244000E00885FF02C08AEF31DFE6DFDF91CF9140
:102450001F910F910895CF93DF93EC01FE018491BA
:10246000882319F027DF2196F9CFDF91CF910895C6
:10247000A2E0B0E0EEE3F2E10C947035FC012181C2
:102480002D3421F466E08AEF93E005C0203529F46D
:1024900060E18AED93E0A9DF29C01A82198242E047
:1024A000BE016F5F7F4F01960E94FB22823031F4A4
:1024B00009811A8110270127102702C0098110E025
:1024C000C8015ADDF82E82E5F5DE64E0C8010E94FD
:1024D000142181E696E0BFDF8F2DE8DE8DE596E0E2
:1024E000BADF62E08F2D90E00E94532195DF2296A3
:1024F000E5E00C948C35A7E1B0E0E1E8F2E10C9462
:1025000069357C018C010F5F1F4F45E0BE01635FA1
:102510007F4FC8010E94FB22843008F0CAC09D850D
:10252000913091F4833051F46E8585E390E043DD82
:102530006F8586E390E03FDD91DDEDC18091C105BF
:10254000B5DE8091C00587C0923009F04AC0813065
:1025500039F081E09E85913009F080E0E82E02C0DC
:10256000EE24E3948091D605811103C08BE496E0BC
:1025700072DF06ED15E0F8018081882309F497C029
:10258000F6E004381F0708F092C025E0063D120768
:1025900011F080E28FDEF801818188DEF80182810E
:1025A00085DEE11005C0F8018081080F111DE3CF21
:1025B0008AE380DE83E0F82EF8018081F81698F730
:1025C000F3E0FF1520F4F0FE02C08CE273DEDD24A0
:1025D000D394DF0CF801EF0DF11D808167DEFD2C37
:1025E000EBCF933049F480E090E0EADC865D9540E3
:1025F0009EEA981B892F2FC0903111F500EB15E052
:10260000E12CF12CF80180818F3F79F0FF2011F04F
:1026100080E250DE8E2D4ADE8AE34CDEF8018081B6
:1026200045DEF801818142DEF3940E5F1F4FE39493
:10263000F8E0EF12E7CFF1103AC089E596E036C036
:10264000913159F48091AE059091AF056DE770E03E
:102650000E94A935862F2ADE2AC0923141F502EC6C
:1026600015E0E12CF12CF80180818F3FA9F0FF20CB
:1026700011F080E21FDE8E2D19DE8AE31BDEF801E9
:10268000808114DEF801818111DEF80182810EDE85
:10269000F80183810BDEF3940C5F1F4FE394F4E0A9
:1026A000EF12E1CFF11003C085E596E0D4DEB4DE91
:1026B00032C144E0BE016D5E7F4FC8010E94FB2223
:1026C0002B89293608F480C05E893C894D895C30AD
:1026D00009F052C0A2ECB5E080E090E0FD01E25CC0
:1026E000F5405C91251322C011966C9111976313EC
:1026F0001DC012966C911297641318C0EE53FA4FD6
:102700002CE023839C01220F331F820F931FFC01B7
:10271000EE0FFF1FEA56FA4F11821082880F991FA1
:10272000FC01E856FA4F11821082D8C05F3FE9F4ED
:10273000EE53FA4F2083318342832CE023839C01A4
:10274000220F331F820F931FFC01EE0FFF1FEA566B
:10275000FA4F11821082880F991FFC01E856FA4F38
:102760001182108210929505B9C00196149684309A
:10277000910509F0B3CFCFC0E2ECF5E080E090E046
:10278000BF01625C7540A0812A1318C0A181A31308
:1027900015C0A281A41312C0FB01EE53FA4F53835C
:1027A000FC01EE0FFF1FE80FF91FEE0FFF1FE856A9
:1027B000FA4F81E090E091838083ADC0019634961A
:1027C00084309105E9F6A7C0ED852091C105E21797
:1027D00008F43FC0822F90E007964E2F50E08417F8
:1027E0009507BCF19E858091C005981332C09889E9
:1027F0009F3269F44BE0BE016F5F7F4FC8010E94BA
:10280000FB2222E04CE0682FCE0101967EC0898930
:102810009C32B9F48093940521E030E03093AF0509
:102820002093AE052091D8083091D908A90164E021
:10283000869F400D511D11245093D9084093D8080C
:102840006AC0E21BEE0FF0E0E055FA4F90838183FF
:1028500062C080E090E0B4DB6C01F80101900020E0
:10286000E9F73197E01BF10BF695E79501E00E0FC4
:10287000C601800F911D865D95408F3A91050CF041
:1028800047C0F6010083560111E0812F880F815067
:102890001017D0F44501FFEF8F1A9F0A41E0B401F1
:1028A0009701280F311DC9010E94FB22133048F007
:1028B00010FD07C0F5018081843619F48181809371
:1028C00093051F5F5401E1CFF4E8CF16F6E0DF0671
:1028D00010F5F601E10FF11D10821DC022E04CE061
:1028E00064E0CE0143960E9417208FE08E8B22E099
:1028F0004CE064E0CE0143960E94172082E08E8B6C
:1029000022E04CE064E0CE0143960E94172003C011
:102910008FE496E0A0DD6796ECE00C948535CF93CC
:10292000DF93EC018991882311F0C4DCFBCFDF91A8
:10293000CF91089520ED37E0815020F0F9013197D3
:10294000F1F7FACF0895880F991F0197F1F70895CD
:10295000FC019FB7F89440917A0550917B056091F6
:102960007C0570917D0540835183628373839FBF93
:102970000895A4E0B0E0EFEBF4E10C947335CE01E0
:102980000196E6DF8C8192DC8B8190DC8A818EDC83
:1029900089818CDC41DD2496E2E00C948F351F9216
:1029A0000F920FB60F9211248F939F93AF93BF9303
:1029B000EF93FF9380917A0590917B05A0917C0520
:1029C000B0917D050196A11DB11D80937A0590936C
:1029D0007B05A0937C05B0937D05809190058F5F6A
:1029E00080939005E6E9F5E080819181181619063B
:1029F0001CF4019791838083369685E0EE3AF807C0
:102A000099F78091AE059091AF05009729F0019755
:102A10009093AF058093AE058091D4058F3F19F058
:102A200081508093D405FF91EF91BF91AF919F9119
:102A30008F910F900FBE0F901F90189582E090E03D
:102A40000E94F92381E08093DE081092E108109241
:102A5000DF08089528980E94F323289A089586E3B2
:102A6000F9DF80916F09833511F08BE401C08BE9A8
:102A700061DF21E04CE065E08DE699E00E941720DF
:102A80000E942B238091E00886FF03C08DE699E029
:102A9000C7CC0895E4DF80916F09893631F081E079
:102AA0008093D50589E28093D4050895CF93C62FEE
:102AB000289880640E94F3238C2F0E94F323289A85
:102AC000CF9108952898806C0E94F32380E00E94A3
:102AD000F323289A08955B9A36CF10926F00E09105
:102AE0004A088FE3E89FF0011124E25BF84F10825F
:102AF00010928900109288000895CF93DF93FC0113
:102B00008181823709F031C0EA98209A289A8CE3B3
:102B100090E0FC013197F1F728980197F1F7289A96
:102B20008AE590E00197F1F780E394DF88EC90E08C
:102B30000197F1F7CDE4D7E0FE018491813448F0AC
:102B400083E388DF81E0F6DECEDA81E08093D70888
:102B500010C0FE0131966491FE018491A7DF229698
:102B6000F7E0C938DF0741F7EBCF833711F0109258
:102B7000D708DF91CF910895A1E0B0E0E2ECF5E154
:102B80000C946C351982FC012181223709F06BC04D
:102B90002281222331F0BE016F5F7F4F02960E9497
:102BA000E122B9808FEF8B0D833020F08AE297E02D
:102BB00052DC67C0EA98209A10921307289A8CE397
:102BC00090E0FC013197F1F728980197F1F7289AE6
:102BD0008AE590E00197F1F780E33CDF88EC90E034
:102BE0000197F1F70CEF16E0F8018491813468F059
:102BF000F4E1BF9E80011124C12CD12C780184E125
:102C0000E81AF108035111091DC0F80131966491C9
:102C1000F80184914BDF0E5F1F4FF7E008331F0769
:102C200019F7E6CFF801EC0DFD1DE054F94F649162
:102C3000FC0184913BDFF2E0CF0ED11C84E1C81689
:102C4000D10449F0C7018C0D9D1D8054994FFC01A2
:102C50002491213438F383E3FDDEB092130743DA85
:102C600081E068DE0AC0283741F480911307882389
:102C700011F086E3EFDE109213078091130716DB45
:102C8000CBDB2196E9E00C948835AEE1B0E0EBE4D3
:102C9000F6E10C9471358C01FC018181823719F4C5
:102CA0000E94E00736C0833711F0863601F54DE10A
:102CB000BE016F5F7F4FC80102960E94FB229927D9
:102CC0000197298130E08217930721F087EB96E086
:102CD000C2DB1FC061E070E0F8018181833711F031
:102CE00060E070E0CE0101960E942A0812C0813691
:102CF00021F443E060E177E005C0873741F443E029
:102D00006DE077E0C80102960E94FB2202C010929B
:102D1000DF086E96E4E00C948D35CF93C82F5B9A54
:102D2000882319F08091DB0802C08091DD0820E142
:102D3000829FC001112407DE5B98CC2319F080919B
:102D4000DA0802C08091DC0820E1829FC0011124D2
:102D5000FADDCF910895FC0184819581A081B18134
:102D6000A80FB11D2C9130E0092E02C03595279592
:102D70000A94E2F721703FEF390F3583911104C0B7
:102D80008F5F848387E08583822F0895A0E0B0E081
:102D9000ECECF6E10C946A358C01942EC62ED12C05
:102DA000C0E0D0E0B12CAA24A394760121E0E21A7D
:102DB000F108CC15DD05C9F0C801CDDF882399F0F5
:102DC000992051F0C7018C1B9D0B2A2D01C0220FA9
:102DD0008A95EAF7822F06C08A2D0C2E01C0880F33
:102DE0000A94EAF7B82A2196E4CF8B2DCDB7DEB747
:102DF000EBE00C948635FC018181823308F06DCEC6
:102E0000662389F0DF01A80FB11D21E030E00380C7
:102E100002C0220F331F0A94E2F714969C91149774
:102E2000292B14962C939381992319F09150938315
:102E300009C097E093838F5F8183DF01A80FB11DE5
:102E400014961C9286A98F5F86AB0895DC01362FFD
:102E500011962C911197E22FF0E050E09C91BF0168
:102E6000641B750B655F7F4F67317105C8F4892F4F
:102E700090E0632F70E09C01261B370B255F3F4FCE
:102E80002731310568F49F01280F391F640F751F22
:102E9000261B370B255F3F4F81E02731310508F0B6
:102EA00080E008951F920F920FB60F921124FF92A7
:102EB0000F931F932F933F934F935F936F937F9342
:102EC0008F939F93AF93BF93CF93DF93EF93FF9332
:102ED00080914B08823021F483E080934B084DC1F0
:102EE0000091840010918500E4E016950795EA951D
:102EF000E1F7C0914A089FE3C99FE0011124C25B3A
:102F0000D84F90914D07923089F42881243031F4C4
:102F10000E3208F432C10F3448F0D1C0253031F4FC
:102F2000073108F42AC1083208F0C9C04A9910C014
:102F3000923059F488818450823038F461E0CE01B7
:102F40005ADF109285001092840000934C0715C13F
:102F500080914C07081B00934B071092850010923C
:102F60008400923041F488818450823020F460E003
:102F7000CE0141DF02C182E086BBF88010914C0790
:102F8000FF2049F000914B07F81609F1A6C0243044
:102F900008F047C018821FAA18AE19AE1AAE1BAEB1
:102FA0001CAE1EAE1DAE1EAA198287E08B831C824A
:102FB000153608F0E2C080914B07853608F0DDC079
:102FC0001FAB88AF81E08A8382E08883D6C022E08D
:102FD000402F612FCE01C79639DF2A818823B9F2AD
:102FE0008FA990E0AC01440F551F840F951F810FEE
:102FF000911D95958795959587958FAB88AD90E0B8
:10300000AC01440F551F840F951F800F911D95959E
:1030100087959595879588AF1EAE1DAE2F5F2A8345
:10302000ACC080EA9FE090938900809388008A81F9
:103030008C3050F02FA988AD90E0820F911D85361D
:10304000910524F084E03EC08A3080F02FA988AD3D
:1030500090E0820F911D85974CF485E0888388EE7F
:1030600093E090938900809388002DC080914C0854
:10307000882339F18BED810F873118F586EF800FAA
:103080008D31F8F481E090E0011710F080E090E0DD
:10309000892BB9F03FA928AD8BED820F873188F4D9
:1030A00086EF830F8D3168F481E090E0321710F0E5
:1030B00080E090E0892B29F081E080934B080DDDC2
:1030C0005CC083E0888319AF0AAF198287E08B83E5
:1030D0001C8282E080936F0050C02F2D402F612F03
:1030E000CE01C996B3DE882301F161E0CE0183DE13
:1030F00089AD90E09C01220F331F820F931F810F37
:10310000911D959587959595879589AF8AAD90E0A6
:103110009C01220F331F820F931F800F911D9595E5
:103120008795959587958AAF28C02F2D402F612FC1
:10313000CE01C7968BDE882309F4C1CF60E0CE01B3
:103140005ADE8FA990E09C01220F331F820F931F3C
:10315000810F911D95958795959587958FAB88AD36
:1031600090E09C01220F331F820F931F800F911D4F
:10317000959587959595879588AFFF91EF91DF910C
:10318000CF91BF91AF919F918F917F916F915F91FF
:103190004F913F912F911F910F91FF900F900FBE74
:1031A0000F901F9018951F920F920FB60F92112437
:1031B0002F933F934F935F936F937F938F939F933F
:1031C000AF93BF93EF93FF9310926F008091E0084D
:1031D00083FF02C08EE26ED880914A089FE3899FE8
:1031E000F0011124E25BF84F9081933018F0918147
:1031F000923010F472DC17C090914A07933041F47A
:103200008091E00882FFF6CF86E497E024D9F2CFE0
:103210009F5F90934A078F5F843019F080934A082C
:1032200002C010924A08FF91EF91BF91AF919F9118
:103230008F917F916F915F914F913F912F910F905F
:103240000FBE0F901F901895A0E0B0E0EAE2F9E100
:103250000C946735FC018A0110924707A180AA0CE3
:10326000AA0CAA0C8381A81A8A2D97E0992E9A0C91
:103270001092150728E0A22EA80E41E070E057E05A
:1032800087E0B12C90E037E0E32EF12CC1E0D0E0F4
:10329000A41609F481C09F012B0D311DD90114968C
:1032A0002C9130E0082E02C0359527950A94E2F75C
:1032B00021703327882311F0815002C0B39487E036
:1032C0006B3469F4533009F04AC0711106C0232BE6
:1032D00009F05FC0109247076EC070E042C05F3FC8
:1032E00041F56634B1F4C92ED12CD601AB5EB84F8E
:1032F0005C91052E52955025052E569556955025D4
:103300005F5F51FB662460F8712C2615370541F08C
:1033100004C0653429F4232B19F4709347074BC07C
:103320009F5F292F30E02B5E384FD9011C9257E068
:1033300031C0232B61F1663479F4292F30E0D901B3
:10334000AB5EB84F8C909E01052E01C0220F0A94EF
:10335000EAF728292C931BC0653429F018C05F3F79
:10336000D1F2232BA1F0292F30E02B5E384F6701DB
:10337000C51AD10857FDD394DE0102C0AA0FBB1FA6
:10338000CA94E2F76D01D901DC90CD28CC9251505E
:1033900001C071E04F5F7CCF709347079A1458F4D7
:1033A000653411F45F3F09F071119F5FF80190835C
:1033B00081E0911101C080E0CDB7DEB7EEE00C9462
:1033C0008335FC017091470740E095E020E06623DB
:1033D00099F06150DF01A60FB11D3C91532F52951A
:1033E0005F702527950F772311F0442319F03F7064
:1033F0002327930F4F5FEBCF920F30E1939FC001D4
:103400001124822B08958091140781110FC080919F
:10341000E008882319F012DB0C942B2386E31ADBD7
:103420001092DE081092E1081092DF080895A7E0DC
:10343000B0E0EDE1FAE10C946D353091570890E081
:10344000E92FF0E0E25BF74F2081222309F472C0FC
:10345000231711F09F5FF4CF95E79983882391F0AC
:10346000BE016E5F7F4F80914D080E94CE22BE014B
:103470006C5F7F4F80914C080E94CE2285E58E8341
:1034800016E001C011E0DADA0E94A82306E0E12C80
:1034900086E0F82E80E891E01EDB5B98C70101977B
:1034A000F1F70150B9F780E093E015DB5B9880E01D
:1034B00093E00197F1F780E891E00DDB5B9887E3FB
:1034C00090E00E94F92383E035DA28988FE70E9484
:1034D000F32380915608810F0E94F323CE010196B9
:1034E0006C017C01F70181917F010E94F3238E2DF5
:1034F0008C198117B8F380915608882331F084E540
:1035000098E065D50E94F323F6CF289A0E94A8235D
:1035100010925608109254081092550815E18AE34B
:10352000D1DA8F7729F0115019F081E003DAF7CF63
:103530006ADF09C0992309F48FCF109256081092C0
:103540005408109255082796E8E00C948935CF93DB
:10355000DF93EC01898181110BC080914C080E949E
:10356000561180914D080E9456110E940C123FC0C6
:10357000863681F42296AEE4B8E0E0E089918823B3
:1035800021F08D93EF5FE530C9F7F0E0E25BF74F94
:1035900010822DC08936D9F441E06CE478E0CE0188
:1035A00002960E94FB2260914C0880E690E00E9407
:1035B000DB0F41E06DE478E0CE0104960E94FB222F
:1035C00060914D0881E690E00E94DB0F10C01092E0
:1035D0005608109254081092550821966991662356
:1035E00021F084E598E00DD5F9CF80E020DFDF9170
:1035F000CF910895FC01218121110CC08091E00838
:103600000E94561165E08091D8089091D9084BD658
:103610000C940C1241E060EE78E00196ECD7F3CE0A
:10362000ACE0B0E0E6E1FBE10C947235FC018BE02C
:10363000898381818A831B8282E08C8387818D8349
:1036400080858E8381858F83848188878581898722
:1036500086818A871B861C8684E16CD960E070E0D5
:10366000CE0101960E942A088AE50E945A1110E0B4
:10367000812F90E0298130E0281739075CF0E1E0E4
:10368000F0E0EC0FFD1FE80FF91F80810E9456113A
:103690001F5FEECF8091E00885FF03C080E00E94AD
:1036A00056110E940C122C96E3E00C948E35FA0110
:1036B0009081882369F0DB01A90FB11DE1E0F0E002
:1036C000022E01C0EE0F0A94EAF78C91E82BEC93DE
:1036D000222319F08FEF820F0BC081E0890F8C300D
:1036E00010F4FA018083FB01E80FF11D108287E0DE
:1036F00090E00895A1E0B0E0E0E8FBE10C946335D0
:103700007C01FC018181833709F08DC1198287E03A
:1037100090E00E94D5328C0141E0BE016F5F7F4F87
:10372000C701029668D78981F801808341E0BE0114
:103730006F5F7F4FC70104965ED78981807FD82E47
:10374000F801818341E0BE016F5F7F4FC70106969C
:1037500052D78981F801828341E0BE016F5F7F4FBC
:10376000C701089648D78981F801838341E0BE01EB
:103770006F5F7F4FC7010A963ED78981F801868324
:1037800041E0BE016F5F7F4FC7010C9634D789813E
:10379000F801858341E0BE016F5F7F4FC7010E9640
:1037A0002AD78981F80184832801F7E04F0E511C44
:1037B000F80180E09191292F22952F709227892777
:1037C000E415F505B9F78F708D29F801818387E03D
:1037D00090E00E94D5327C0187E0F801D70101908A
:1037E0000D928A95E1F798012A5F3F4FF801DF01BA
:1037F000319611969C9111978C9189278083E217BD
:10380000F307A9F7769A8091E208811159C0809157
:10381000E108882329F081E08093E4081092E10810
:103820008091DF08882329F081E08093E3081092DB
:10383000DF08EA98209A289A8CE390E0FC013197FF
:10384000F1F728980197F1F7289A8AE590E0019717
:10385000F1F780E3FFD888EC90E00197F1F7289822
:1038600080E4C1D770E9C72E77E0D72EE9EBAE2E02
:10387000E7E0BE2EF6018491B6D7FFEFCF1ADF0A3C
:10388000AC14BD04B9F7289A28988EE7ACD78BE220
:1038900090E06C012FEFC21AD20A0E94BC0FA3D78E
:1038A000C60183339105A9F7289A83E3D3D881E031
:1038B00041D881E08093DE080E94731083E03AD8FB
:1038C00086E3C8D88AE3C6D88BE3C4D841D75B9ACD
:1038D0008EE899E40197F1F75B9889E52BD88AE6A1
:1038E00094E00197F1F7312C6CEE662E63E1762EB1
:1038F0008091310190E0232D032C000C330B28170D
:1039000039070CF051C0332011F097E001C092E06C
:1039100080E05B9AF3013197F1F75B98F3013197FF
:10392000F1F78F5F9813F5CF5B9A88EF95E20197D7
:10393000F1F75B9880912D0190912E0104D86801D8
:10394000F60181906F0148E0242E50E8A52EB12C9D
:10395000912CC4018A219B21892B49F45B9A809187
:103960002D0190912E010E94A3145B9808C05B98D2
:1039700080912D0190912E010E94A3145B9A809159
:103980002D0190912E010E94A314B694A7942A941D
:103990002110DFCFC414D50499F65B9880E090E045
:1039A0000197F1F73394A4CF8091E208882339F08E
:1039B0008091E00881110EC086E34CD817C0809139
:1039C000E408882349F01092E4080E94C70981E0C6
:1039D0008093E10840D60AC08091E308882329F04B
:1039E0001092E3080E94E00701C00DDD769889E59A
:1039F0000E945A1183E70E945A1167015701F7E0AC
:103A0000AF0EB11CF60181916F010E945611AC14EA
:103A1000BD04C1F70E940C12C7010E946D33C8019A
:103A20000E946D3368C0823799F461E371E0C70189
:103A30000296C7D589E50E945A1182E70E945A1161
:103A40008AE30E945A118091310160E090E02AC01F
:103A5000843761F5F7018281803339F488ED94E091
:103A60009093300180932F0105C06FE271E0C70190
:103A70000296A7D580912F01909130019695879558
:103A800090932E0180932D0189E50E945A1184E7BD
:103A90000E945A118AE30E945A1166E080912F0118
:103AA0009091300100D40E940C1225C0883719F57E
:103AB0008091E408882341F01092E4080E94C7092D
:103AC00081E08093E10810C08091E308882329F009
:103AD0001092E3080E94E0070CC082E090E089D6D3
:103AE0008091E008882311F0B6D503C086E30E94D8
:103AF0002A151092E2082196E2E10C947F35AAE0A3
:103B0000B0E0E5E8FDE10C9463354C01B62E422EA1
:103B1000DE2CE42EF12C97012E5F3F4F8C2D8A0D69
:103B2000029F800D1124082E000C990B2091D808BB
:103B30003091D9082817390728F489E897E00E94BE
:103B40002B12A2C0281B390B3093D9082093D80818
:103B5000769A8091DF08882341F01092DF0883EA8B
:103B600091E048DD21E0298301C019828091DE08BF
:103B7000811102C00E941E15EBD5E0E1CE9EC0016E
:103B800011249B838A8380E1A89E900111243D83A8
:103B90002C83EB2DF0E0FF83EE8366246394712C7D
:103BA000512CC11002C0AA2051F05B9A8A819B81DE
:103BB0000E94A3145B988C819D810E94A314188697
:103BC0002885822F220F990BEE81FF818E179F0788
:103BD00034F480E0A2D8F885FF5FF887F1CFBB20EE
:103BE00011F081E09AD810E0812F012E000C990B82
:103BF0009A8789878E159F05D4F487E0282E312C6B
:103C000029853A85280D391D3A872987C301022C59
:103C100001C0880F0A94EAF7E985FA859081892323
:103C20007CD8F1E02F1A310888F71F5FDDCF17E04D
:103C3000880D991D9A878987812F012E000C990B79
:103C4000481659066CF4C301012E01C0880F0A946E
:103C5000EAF7E985FA85908189235FD81150ECCF86
:103C60008D2D0E949A14015009F09BCF8091E0089D
:103C7000882311F0F0D403C086E30E942A15F9814D
:103C8000F1110E94E00776982A96E2E10C947F35C4
:103C9000AF92CF92EF920F93CF93DF93CDB7DEB772
:103CA0002C970FB6F894DEBF0FBECDBF4BE0BE0120
:103CB0006F5F7F4F02969FD48530C1F48EE380936F
:103CC000DD088CE18093DC0881E28093DB088AE3E5
:103CD0008093DA0885E2A82E9AEFC92EE12C05E040
:103CE00024E044E068E0CE01019609DF2C960FB68F
:103CF000F894DEBF0FBECDBFDF91CF910F91EF9053
:103D0000CF90AF900895AF92CF92EF920F93CF9351
:103D1000DF9300D000D0CDB7DEB743E0BE016F5FC8
:103D20007F4F019668D48AE68093DD0894E29093F1
:103D3000DC0891E29093DB088093DA0880E88C83BA
:103D4000A12CC12C8FE0E82E03E026E043E060E0E8
:103D5000CE010196D4DE0F900F900F900F90DF915F
:103D6000CF910F91EF90CF90AF900895A9E1B0E07F
:103D7000ECEBFEE10C946A357E012DE0E20EF11CC5
:103D80004BE0B701019637D4182F85E38093DD0807
:103D900096E19093DC089093DB088093DA08612F1A
:103DA000C7010FDBF701E10FF11D80839924939484
:103DB000910E198E1982670127E0AA24A394B12CD1
:103DC0008C2D8E19891508F044C000E010E0C50163
:103DD000002E01C0880F0A94EAF7F6019081AE0127
:103DE000475E5F4FBE016F5F7F4F892360DC282FE6
:103DF0000F5F1F4F0430110551F7AE01475E5F4F53
:103E0000BE016F5F7F4F81E052DC282FC501002E7D
:103E100001C0880F0A94EAF7F6019081AE01475E6F
:103E20005F4FBE016F5F7F4F892341DC282F0F5FFB
:103E30001F4F0830110551F7AE01475E5F4FBE01BD
:103E40006F5F7F4F81E033DC282FFFEFCF1ADF0A4F
:103E5000B7CFA12CC12C8AE0E82E03E0498D6AE09F
:103E6000CE0101964CDE6996EBE00C948635A9E113
:103E7000B0E0EDE3FFE10C9469358E01035F1F4F65
:103E80004BE0B8010196B7D3282F893009F05DC007
:103E900039E13093DC083093DD083093DB0832E3FE
:103EA0003093DA08992730E02150F801E20FF11D34
:103EB000408134272111F8CFF801E80FF91F308332
:103EC000198E1982780127E088248394912CC12CC3
:103ED000D12CBE2CB01AF9E0FB1528F1C4010C2C32
:103EE00001C0880F0A94EAF7F7019081AE01475E9E
:103EF0005F4FBE016F5F7F4F8923D9DB282FFFEF14
:103F0000CF1ADF0A88E0C816D10429F7AE01475E50
:103F10005F4FBE016F5F7F4F81E0C9DB282FEFEF5E
:103F2000EE1AFE0AD4CF222311F0215004C0898D4D
:103F30008F5F898F27E0A12CC12C8AE0E82E03E057
:103F4000498D6CE0CE010196DADD6996ECE00C94C7
:103F50008535AF92CF92EF920F93CF93DF93CDB78A
:103F6000DEB760970FB6F894DEBF0FBECDBF40E15D
:103F7000BE016F5F7F4F01963ED369814A810B81FD
:103F80008C818093DD088D818093DC088E81809305
:103F9000DB088F818093DA08E02EE2948FE0E8223C
:103FA0000F70242F2F7042954F70A12CC12CCE0181
:103FB0000896A5DD60960FB6F894DEBF0FBECDBFA4
:103FC000DF91CF910F91EF90CF90AF900895FC01CA
:103FD0002FB7F8948281811102C02FBF08959FEFFF
:103FE000980F9283918181E0890F8183DF01A90F6E
:103FF000B11D13969C91803809F411822FBF892F2F
:104000000895FC019FB7F894828187FD0EC08F5FF1
:104010008283208181E0820F8083DF01A20FB11DA6
:1040200013966C93803809F410829FBF0895ADE019
:10403000B0E0EDE1F0E20C9468357C01022FFC0168
:10404000E60FF11D862F882339F08150D701A80F84
:10405000B11D9C91490FF7CF408311E0160F1D86CB
:10406000198227E0712CCC24C394D12C97E0A92E7F
:10407000B12C4701870C911C711658F5C6010A2C0A
:1040800001C0880F0A94EAF7F4019081AE01435F02
:104090005F4FBE016F5F7F4F892309DB282FF1E05F
:1040A000AF1AB10848F7F4018081082E8295802567
:1040B000082E8695869580258F5F86958170AE0146
:1040C000435F5F4FBE016F5F7F4FF1DA282F73941C
:1040D000CDCF222311F0215004C08D858F5F8D87B5
:1040E00027E089E18093DC088093DD0885E28093F6
:1040F000DA088093DB08A12CC12C8AE0E82E4D85DC
:104100006CE0CE010196FBDC2D96EDE00C9484353D
:10411000ACE0B0E0EEE8F0E20C9473354BE0BE01A9
:104120006F5F7F4F019667D223E046E0682FCE0194
:1041300001967DDF2C96E2E00C948F351F93CF9390
:10414000DF93C0916809809368098091E70888230C
:1041500009F43DC085EE98E03ADFE091F5098A3038
:1041600011F08D3049F5EE2381F3F0E0EC58F64F75
:1041700010824091740930E0832F90E0FC01EE0F33
:10418000FF1F8E0F9F1FFC01E754F84F2491FC0185
:10419000E654F84F659174912223F9F0241305C079
:1041A00084E799E0FB01099504C03F5FE5CF0E94D9
:1041B0000C121092F509C9CFE7FDC7CF91E09E0F11
:1041C0009093F509F0E0EC58F64F8083BECFC09392
:1041D0006809DF91CF911F91089585E298E00E94D0
:1041E0002B1284E799E00E948F148DE098E00E94E2
:1041F0002B1210E0812F90E09C01220F331F280F1B
:10420000391FF901E754F84FD491F901E654F84FFA
:1042100085919491DD2359F280E20E945A118D2FED
:104220000E945A111F5FE6CFA5E0B0E0EAE1F1E29B
:104230000C947335AC011D8294E0242F2F709150A3
:10424000E92FF0E02A3010F4205D01C0295CA1E0E4
:10425000B0E0AC0FBD1FEA0FFB1F208384E0569532
:1042600047958A95E1F761504115510531F780E393
:10427000615067FD0BC0992349F09150E1E0F0E0F7
:10428000EC0FFD1FE90FF11D8083F2CF21E030E03C
:104290002C0F3D1F290F311DC9010E948F14259637
:1042A000E2E00C948F35A6E0B0E0E9E5F1E20C9491
:1042B0007135362F1E8225E0EAE0F0E0215001E062
:1042C00010E00C0F1D1F020F111DBF010E94A93528
:1042D000805DD8018C93CB013150009711F480E2BE
:1042E0000DC02111EBCFFBCF222359F02150E1E08B
:1042F000F0E0EC0FFD1FE20FF11D8083315037FF1E
:10430000F3CF81E090E08C0F9D1F820F911D0E94E2
:104310008F142696E4E00C948D358DE699E00E948A
:10432000E00F009799F020917309FC013081231769
:1043300068F4E20FF11D808180936F0989E7809313
:10434000700981818093710981E0089580E008956A
:104350008091D8008E7F8093D8001092E200109256
:10436000DA001092E10010926C0910926B09109221
:104370006A09109269098AE482BF19BC89B5826012
:1043800089BD09B400FEFDCF8091D800982F9F779A
:104390009093D80080688093D8008091D700816086
:1043A0008093D7008091D8008F7D8093D800809132
:1043B000E0008B7F8093E0008091E0008E7F80930F
:1043C000E0008091E1008E7F8093E1008091E20027
:1043D00081608093E2008091E100877F8093E1001B
:1043E0008091E20088608093E2008091D800816033
:1043F0008093D80008958093E900EBEEF0E080818F
:1044000081608083EDEEF0E010826093EC004083E9
:104410008091EE00881F8827881F08951F920F92B1
:104420000FB60F9211242F933F934F935F936F9387
:104430007F938F939F93AF93BF93EF93FF9380915D
:10444000DA0080FF13C08091D80080FF0FC08091F8
:10445000DA008E7F8093DA008091D90080FF04C05B
:1044600081E080936C0902C010926C098091E10098
:1044700080FF1CC08091E20080FF18C08091E100A5
:104480008E7F8093E1008091E2008E7F8093E20036
:104490008091E20080618093E2008091D800806288
:1044A0008093D80019BC85E080936C098091E1006D
:1044B00084FF28C08091E20084FF24C019BC89B524
:1044C000826089BD09B400FEFDCF8091D8008F7D48
:1044D0008093D8008091E1008F7E8093E1008091ED
:1044E000E2008F7E8093E2008091E2008160809301
:1044F000E20080916B09811102C083E001C084E079
:1045000080936C098091E10083FF37C08091E200C5
:1045100083FF33C08091E100877F8093E10082E0D8
:1045200080936C0910926B098091E1008E7F8093DB
:10453000E1008091E2008E7F8093E2008091E200B2
:1045400080618093E2001092F40080E08093E900A3
:104550001092F0001092E8009091ED009D7F9093F2
:10456000ED009091EB009E7F9093EB008F5F873082
:1045700069F742E060E080E03EDFFF91EF91BF919C
:10458000AF919F918F917F916F915F914F913F91EB
:104590002F910F900FBE0F901F901895982F929506
:1045A0009F709A3010F4905D01C0995CFB0190837C
:1045B0008F708A3010F4805D01C0895CFB018183BB
:1045C0000895FC0120E030E08AE09191992379F090
:1045D00040ED490F4A30C8F7829FA001839F500DDC
:1045E00011249A0120533109290F311DEECFFB010F
:1045F000318320830895DC01FB0130E020E09D91B0
:104600009923B1F0913608F0905280ED890F8A30ED
:1046100010F4982F05C08FEB890F863028F497533C
:10462000922B332389F006C0903249F39A3339F341
:10463000CF0107C09F012F5F3F4F9083415049F446
:10464000C901861B970B0895292F2295207F31E001
:10465000D6CFF901D2CF0F931F93CF93CFEF04E1C1
:1046600010E084E30E942A15C1508077803129F040
:10467000C8010197F1F7C111F4CFEA9ACF911F91C8
:104680000F910895A2E0B0E0E8E4F3E20C947135F4
:104690008C01FC018181873709F541E0BE016E5F25
:1046A0007F4FC8010296A7DF892BC1F041E0BE0110
:1046B0006F5F7F4FC80104969EDF892B79F0698177
:1046C0008A810E94561583E30E942A15C4DF8A81DD
:1046D0000E94561189810E94561134C041E0BE01EA
:1046E0006F5F7F4FC801019686DF892B69F1898151
:1046F000893981F410E0812F0E9462150E945611C1
:10470000812F8770873011F40E940C121F5F1033C5
:1047100091F71AC00E946215182F83E40E945A1163
:1047200089810E9456118DE798E00E942B12812FFB
:104730000E94561189E798E00E942B1262E0812FB7
:1047400090E0B1DD0E940C122296E4E00C948D35CD
:104750000F931F93CF93EA9886E30E942A15CFEF19
:1047600004E110E085E30E942A15C1508077803271
:1047700029F0C8010197F1F7C111F4CFCF911F9132
:104780000F910895EF92FF920F931F93CF93C82F2D
:104790008A3008F0C8E028E0C29F800111248BE233
:1047A00090E00B521109FC01E00FF11FE75DF74F9C
:1047B00064917C012FEFE21AF20A0E94DB0FC7011D
:1047C0008333910581F7C550C53010F067E101C012
:1047D00061E184E290E00E94DB0FCF911F910F9185
:1047E000FF90EF9008958EBD0DB407FEFDCF8EB5FE
:1047F0000895EF92FF920F931F93CF93DF93EC01F5
:104800001092DF08EA98209A289A8CE390E0FC0145
:104810003197F1F728980197F1F7289A8AE590E007
:104820000197F1F780E30E942A1588EC90E0019748
:10483000F1F7289880E4D7DF8E01075D1F4F7E01D6
:104840008FEFE81AF80ACE010E94BC0FCCDFE70117
:10485000E016F106A1F7289A28988EE7C4DF8BE2CC
:1048600090E0EC0121960E94BC0FBDDFCE01E397E2
:10487000C1F7289A83E30E942A1581E00E949A14C6
:10488000CDB7DEB7E6E00C948B35A1E0B0E0EBE409
:10489000F4E20C94733522E0298341E0BE016F5F9E
:1048A0007F4F0196A8DE89816DDF82E090E0A1DF75
:1048B0002196E2E00C948F35A8E3B0E0E2E6F4E262
:1048C0000C9463359FE088E10FB6F894A895809327
:1048D00060000FBE9093600090E080E80FB6F894FF
:1048E00080936100909361000FBE2E9A2D9A04B6BA
:1048F00003FE13C083E390E00E94BC0F882369F09D
:1049000060E083E390E00E94DB0FF89481E085BFD4
:1049100082E085BFE0E0F8E3099589EF87BD84E098
:1049200085BD82E084BD80936E00109280008AE095
:104930008093810084B7877F84BF6E9A80916400E2
:104940008B7F80936400299A84B1876084B923980F
:1049500080E58CBD8DB581608DBD80E090E00E94CA
:10496000BC0F813031F481E090E00E94BC0F8A31AD
:1049700021F080E090E00E94A41084E390E00E9487
:10498000BC0F80932601E4DC8091D8008061809385
:10499000D80081E08093890578940E942E10539A64
:1049A0005B9852988091690080618093690082ECE5
:1049B00091E09093D9088093D80810928D071092B7
:1049C000CC0710920B081092DE088EE990E29093CB
:1049D0008F0580938E0580E690E00E94BC0F809347
:1049E0004C0881E690E00E94BC0F80934D0888231C
:1049F00029F081E28093E0080E94031A10924E0889
:104A000089E0809368090E94731076989E012F5F59
:104A10003F4F290180916C09882309F481C21091CC
:104A2000E90017701092E9008091E80083FF76C2D8
:104A3000E6EAF1E08091F100819331E0EE3AF3078C
:104A4000C9F78091A6019091A701492F50E04A3003
:104A5000510508F08EC1FA01EA5AFF4F0C94D03587
:104A6000803879F0823809F04BC28091AA01809396
:104A7000E9008091EB0085FB882780F91092E9001E
:104A800006C08091690990916A09911182609091A4
:104A9000E800977F9093E8008093F1001092F10076
:104AA0008091E800982F9E7F9093E8008F77809305
:104AB000E8008091E80082FD0DC280916C098111AF
:104AC000F8CF1EC2282F2D7F09F053C1882319F07B
:104AD000823061F036C08091A801813009F010C2A7
:104AE000933009F080E080936A092BC08091A8017F
:104AF000811127C08091AA01877009F401C28093B7
:104B0000E9002091EB0020FF1CC09130A9F49091A6
:104B1000EB0090619093EB0021E030E0A90102C02E
:104B2000440F551F8A95E2F74093EA001092EA007D
:104B30008091EB00886003C08091EB0080628093DD
:104B4000EB001092E9008091E800877F8093E800F5
:104B5000CEC18111D5C18091A8019091E800977FC5
:104B60009093E8009091E800292F2E7F2093E80091
:104B70009F779093E8009091E80090FD05C0909198
:104B80006C099111F8CFBCC18F77982F90689093E2
:104B9000E300882309F4B4C183E080936C09B0C1B9
:104BA0008058823008F0ACC18091A8019091A90191
:104BB000292F33272230310511F40C94543223303D
:104BC000310531F02130310509F09AC10C944E3293
:104BD00099278130910559F018F0029779F090C12A
:104BE000EDE4F1E0E491F0E08DE491E012C0E5E362
:104BF000F1E0E491F0E085E391E00BC01E9903C081
:104C000085E191E002C085E291E0E5E2F1E0E49126
:104C1000F0E0309709F474C12091E800277F2093D9
:104C2000E8002091AC013091AD01E217F30708F4E0
:104C30009F0150E021153105B9F14091E80043FD95
:104C400049C14091E80042FD37C040916C094423BE
:104C500009F440C14091E80040FFECCFFC01CF01D6
:104C60002115310571F04091F2005091F300483068
:104C7000510538F484918093F10021503109319627
:104C8000EECF6091F2007091F30051E06830710551
:104C900009F050E04091E800642F6E7F6093E800D7
:104CA0004F774093E800C6CF5111C7CF05C0809120
:104CB0006C09882309F40EC18091E80082FFF7CFC8
:104CC00009C1803809F01CC18091E800877F80937A
:104CD000E80080916B098093F1008091E800982FA3
:104CE0009E7F9093E8008F778093E8008091E800A2
:104CF00082FDF0C080916C098111F8CF01C1811152
:104D0000FFC08091A8019091A901992702970CF00A
:104D1000F7C08091E800877F8093E8008091A80128
:104D200080936B098091E800982F9E7F9093E80014
:104D30008F778093E80080916B09882311F084E0DD
:104D400001C083E080936C0942E061EC82E053DBB8
:104D500042E361E883E04FDB42E360E884E04BDB61
:104D600010920001109201011092020110920301B1
:104D7000C7C0913239F0923209F498C0903209F4E8
:104D800058C0BEC0813A09F0BBC08091E800877F5F
:104D90008093E8008091AC019091AD01873091053E
:104DA00010F087E090E030E040E051E00097A1F1A2
:104DB0002091E80023FD8EC02091E80022FD34C040
:104DC00020916C09222309F485C02091E80020FF7E
:104DD000EDCFFA01AF01009761F02091F200309120
:104DE000F3002830310528F421912093F100019738
:104DF000F1CF6091F2007091F30031E068307105FD
:104E000009F030E02091E800622F6E7F6093E800A7
:104E10002F772093E800CACF3111CACF05C0809107
:104E20006C09882309F456C08091E80082FFF7CF0F
:104E300051C0813209F064C08091E800877F80937F
:104E4000E80040E051E087E090E0009751F12091C8
:104E5000E80023FD4CC020916C09222309F447C0CF
:104E60002091E80022FFF1CF2091F2003091F30071
:104E7000232B49F04F5F5F4F2091F100FA013197EA
:104E80002083019789F72091E800322F3B7F3093F0
:104E9000E8002F772093E800D8CF80916C09882311
:104EA00031F18091E80080FFF8CF21C0813241F5D7
:104EB0008091E800877F8093E8008091A60187FFBA
:104EC00012C08091E80082FD05C080916C098111BB
:104ED000F8CF16C08091E800982F9B7F0CC080917E
:104EE0006C09882369F08091E80080FFF8CF8091F9
:104EF000E800982F9E7F9093E8008F778093E800DA
:104F00008091E80083FF0AC08091EB00806280936B
:104F1000EB008091E800877F8093E8001093E90020
:104F20000E94310F1BAA80914B078823B9F1809111
:104F3000E00887FF17C084E30E9462158058803420
:104F400058F0803C58F490E08055910913E0959515
:104F500087951A95E1F703C080E001C08FE08F5973
:104F60000E945A118091E00883FF16C082E70E94D8
:104F70005A118091E00884FF04C080914C070E9480
:104F80005A1186E60E945A118091E00884FF04C0FD
:104F900080914B070E945A1110924B0780914A074B
:104FA000882309F400C4769A0091E6015FE3059F27
:104FB00080011124025B184F80914D07823009F067
:104FC0005CC01D8287E08E83C80104969A83898322
:104FD000F8018081853009F050C02181338187E05C
:104FE00090E0831B9109F8E02F9F800D911D112403
:104FF0008039910509F041C0E5E1CE2EE7E0DE2ED3
:10500000F4E2AF2EF7E0BF2EA9E89A2EBFE0EB2E18
:10501000B0EFFB2E41E068E0C2010E94C616E80E28
:10502000F11C9826F60191926F0174E2972E980E6A
:10503000AE16BF0679F741E068E0C2010E94C616CD
:10504000E80EF11C80958093240780E18BAB41E052
:1050500068E0C2010E94C61690E0982F8827E81ADF
:10506000F90A41E068E0C2010E94C61690E0E81625
:10507000F90619F453E5952E01C0912C80914D0746
:10508000823009F076C0911074C0F80180818430BC
:1050900009F06FC01D8287E08E83C80104969A8351
:1050A00089832181338187E090E0831B9109F8E0B7
:1050B0002F9F800D911D1124853491050CF459C04A
:1050C00035E1E32E37E0F32E4BE1C42E47E0D42E3A
:1050D000712C40E068E0C2010E94C6165701F7013A
:1050E0008083882E082C82948024082C86948694B1
:1050F0008024C2010E94AB16839481FA882480F830
:105100008DAA1EAA90E02DA93EA92817390789F576
:10511000C2010E94AB1681112CC03FEFE31AF30AC3
:10512000F50180817826CE14DF0499F686E08BABFA
:1051300040E068E0C2010E94C616E82EF82E0F2C4F
:10514000F294F0240F2CF694F694F024C2010E94FD
:10515000AB16F394F1FAFF24F0F8FFAA18AE90E032
:105160002FA938AD2817390721F47E1002C028E492
:10517000922EF8018081833009F0A0C0911044C0C4
:10518000AE014D5C5F4F66E4C8010E94241988237C
:10519000D9F18BA981508BAB282F96E0222341F0C7
:1051A0002150E22FF0E0EB5EF84F3081930FF6CF05
:1051B000E82FF0E0EB5EF84F6081691302C08430A5
:1051C00008F5292F30E02F5F3F4F462F50E024177E
:1051D000350711F4843018F4982F2CE002C0908326
:1051E00011C0992341F09150E92FF0E0EB5EF84FA8
:1051F0003081230FF6CF621307C0843028F084E596
:10520000982E02C096E4992E80914D07823001F5C8
:10521000911054C0AE014D5C5F4F65E4C8010E941F
:1052200024198823B9F08BA981508BAB893091F474
:1052300090E08150E82FF0E0EB5EF84F208192275C
:105240008111F7CF80911E07891304C00C9490320E
:10525000911070C01D8287E08E83C80104969A83E6
:105260008983F8018181843011F00C946032F80157
:105270008381813011F00C946032B5E1EB2EB7E000
:10528000FB2ED12C41E0D1100C945A3267E0C201C0
:105290000E94C6168068F70181937F01D394F4E0E1
:1052A000DF12F0CF41E067E0C2010E94C616880F0E
:1052B0008093190785E08BABA4E79A2E80914D0768
:1052C0008230A9F5911036C0F8018181843009F04F
:1052D00011C18381843009F00DC1F0802F2D4EE182
:1052E0006CE3C801C7960E942617882309F402C1FF
:1052F0002F2D4EE160914C07C801C9960E942617D8
:10530000682FC8010E94FB1680E0282F30E0F901C9
:10531000EB5EF84FD801A20FB31F14969C919083B7
:105320008F5F853091F78BABE2E59E2E03C099200D
:1053300009F4E0C04091E00840FFDCC08091E50145
:105340008E7F8B7F8093E501F42FF270BF2E41FD9D
:1053500064C05091E4016BA956133EC080E08517EC
:10536000C0F4282F30E071E0780FF901EE54FE4FC1
:10537000D901AB5EB84FE0812C91E21741F08093E8
:10538000E4012091E5012D7F2093E50104C0872FE2
:10539000E6CF8093E40158131FC0C0907A05D090E7
:1053A0007B05E0907C05F0907D058091AE019091A9
:1053B000AF01A091B001B091B101C81AD90AEA0AAF
:1053C000FB0A26E2C216D104E104F10428F480911C
:1053D000E50181608093E501B61660F42B2D30E085
:1053E000F901EE54FE4FD901AB5EB84F8C9180832A
:1053F000B394F2CFB092E40180917A0590917B054D
:10540000A0917C05B0917D058093AE019093AF0192
:10541000A093B001B093B10104C08D7F81608093EF
:10542000E50134E593121CC046FD1AC08BA98530F6
:10543000B8F0809117078B3471F0893661F09DEADE
:10544000980F923040F08D57823028F080911807E5
:105450008077803729F48091E50181608093E501B0
:105460008091E50180FD03C084608093E50144E5FF
:1054700094120DC080914D08882349F08091C10598
:10548000811105C08091E5018B7F8093E5018091BA
:10549000E50182FF2FC0892D0E945A118091470794
:1054A000882319F08BA981508BABF12CEBA9FE1648
:1054B00048F4EF2DF0E0EB5EF84F80810E9456112A
:1054C000F394F4CF80914707882349F0F0E0EB5E36
:1054D000F84F80818F7061E090E00E9414218091EC
:1054E000E00885FF05C084E30E9462150E94561102
:1054F0000E940C128091E00882FF8CC080E70E941D
:105500005A11F801808162E090E00E945321F80175
:1055100087A965E0F0E18F9FC00111240E9453210B
:10552000F80180AD65E0F0E18F9FC00111240E9479
:105530005321F80181AD65E0F0E18F9FC001112496
:105540000E945321F80182AD65E0F0E18F9FC00118
:1055500011240E945321F80183AD65E0F0E18F9F93
:10556000C00111240E945321F80184AD65E0F0E1EF
:105570008F9FC00111240E945321F80186A964E085
:1055800090E00E945321F801828163E090E00E9444
:105590005321F801818163E090E00E945321F801DA
:1055A000938162E027E030E0A901491B5109CA015B
:1055B0000E945321F80185AD96AD65E074E0880F37
:1055C000991F7A95E1F70E94532180E20E945A11B7
:1055D0008091E00885FF08C084E30E9462150E9464
:1055E000561180E20E945A11F8018381873019F028
:1055F00081818F5F8183F12CF8018181F81640F45D
:10560000F801EF0DF11D84810E945611F394F4CF3F
:105610000E940C12F801108216AA80914A0781504C
:1056200080934A078091E6018F5F843019F0809360
:10563000E60102C01092E601769880914D07823013
:1056400009F0B1C0F4E59F12AEC0D0901507E0900C
:1056500016071091170700911807F09019078FE5AA
:105660008093D4051092D5058091C105811105C0A4
:105670008091C005882309F496C080916D09D812E5
:1056800004C080916E09E81631F00E940610D09295
:105690006D09E0926E098091D3058F3F09F483C0B4
:1056A00010936F0900937009F09271091123F9F0BA
:1056B00081111DC08091C105F81669F024E6F2162B
:1056C00051F08DEA810F823010F01D3739F48FEFE1
:1056D0008093D30568C0143509F465C0802F807F9E
:1056E000803609F060C000670093700945C70E94CA
:1056F0008D21811105C08091D305882309F453C001
:105700008091D205811107C0E091D305F0E0EF5AF6
:10571000FE4FE49101C0E82FE33541F4143531F434
:105720009091D3059E5F9093D30505C01E1719F085
:105730000E94061038C0882371F0809173098E5F33
:10574000809373090E948D2181110EC08091D30531
:105750008E5F8093D3058091D305E82FF0E0EE5A59
:10576000FE4F14911F3F61F480916F098093D20521
:10577000843609F001C78091930580937109FCC6B6
:1057800010936F0997E7909370099091C1059093DA
:1057900071098E5F8093D3051092D2058E3009F483
:1057A000D2C61111E9C680917A0590917B05A0912E
:1057B0007C05B0917D052091E801281709F435C1D9
:1057C00080917A0590917B05A0917C05B0917D0533
:1057D0008093E801A89506E915E052ECE52E55E026
:1057E000F52ED12C6AEFC62EF80180819181892B8C
:1057F00009F03FC08091950581113BC0F70182817E
:10580000877020E830E0281B3109C29EC001C39E8A
:10581000900D11249595879595958795F80191831D
:10582000808384819581019695838483228133814D
:105830002115310539F40497E1F48D2D0E941110E2
:10584000F80115C02130310549F48D2D0E94111049
:1058500022E030E0F801338322830BC0223031058F
:1058600041F48D2D0E941110F801138212821582CD
:105870001482D3940A5F1F4FF4E0EF0EF11C24E072
:10588000D212B2CF8091AE059091AF05892B09F06D
:1058900059C08091C0058A831B82909194059923F9
:1058A00089F0933019F487E791E002C08DE790E02A
:1058B0009093AF058093AE0500EB15E0F12C3CE230
:1058C000E32E2BC0877090E08A519F4F4DE7489F91
:1058D0009001499F300D1124C90195958795E8CF16
:1058E0008091C1058F0D8983809194058823D1F023
:1058F000EC828D8321E04CE065E0C2010E9417201C
:105900008091E00886FF03C0C2010E941012F39448
:105910000E5F1F4FF8E0FF1649F0F80190819F3F9E
:10592000F9F6F5CF9C83F8018181E3CF809194054E
:10593000882341F0833019F41092940503C08250FB
:10594000809394058091D405811111C08091D50573
:10595000882359F00E942F1589E28093D405809105
:10596000D50581508093D50502C00E940610809114
:105970009205882359F1815080939205811126C0A8
:10598000E0914A082FE3E29FF0011124E25BF84F17
:10599000808181110AC081E090E02091D4052F3FE1
:1059A00011F480E090E0892B19F083E08093910559
:1059B00080919105815080939105882321F083E0A7
:1059C0008093920503C081E00E94171A8091900590
:1059D0008D3758F1109290058091260181FF04C007
:1059E0009EB180E489278EB98091D8089091D9081A
:1059F000843833E0930728F401969093D908809374
:105A0000D8088091E7018F5F8C3319F08093E7010C
:105A10000CC01092E701809193058F5F8C3318F4CE
:105A20008093930502C01092930580914B088823C0
:105A300009F488C0C0907A05D0907B05E0907C0581
:105A4000F0907D05833009F063C08FE30E946215FA
:105A5000182F8630D8F01092E7081092E5081092BF
:105A6000E60828988FEF0E94F32380E00E94F3233A
:105A7000082F115049F080E00E94F323682F85EE33
:105A800098E00E940120F5CF289A01C000E00E9412
:105A9000031A10924B08053709F054C041E0B201D7
:105AA00088EE98E00E94FB22019759F59981809138
:105AB0004C08981326C08091EC08853571F48091CC
:105AC000E708882339F085EE98E00E94E71F0E94DE
:105AD0005A11F5CF0E940C1235C08091E70884500E
