:1000000040C400005BC4000059C400000C941C11E3
:1000100055C4000053C4000051C400004FC4000088
:100020004DC400004BC400000C946A2347C4000078
:1000300045C4000043C4000041C400003FC40000A8
:100040003DC400000C949D1239C4000037C4000068
:1000500035C400000C944B2031C400002FC40000B4
:100060002DC400002BC4000029C4000027C40000D8
:1000700025C4000023C4000021C400001FC40000E8
:100080001DC400001BC4000019C4000017C40000F8
:1000900015C4000013C4000011C400000FC4000008
:1000A0000DC400000BC4000009C400006C259E258F
:1000B000F5269E25F526E5250C26F5269D26BB264C
:1000C000090243000201008032090400000102021B
:1000D0000100052400011005240103010424020687
:1000E0000524060001070582030800FF090401003A
:1000F000020A000000070504024000000705830211
:100100004000001201100102000008EB034B200028
:1001100000010200012A03430055004C0034003363
:1001200000330000002A03430055004C003800361D
:10013000003800000016036200750073007700614C
:1001400000720065002E00640065000000040309D1
:100150000400535300547D7DFFFF4B4B7E7E0050C7
:100160004C4C310D0A00504C4C300D0A000D0A0069
:1001700020436865636B73756D204572726F722CD6
:100180002043616C63756C6174656420436B733AE2
:1001900020006B72000D0A002020526563656976AD
:1001A000656420446174613A20004279746573206B
:1001B000696E204669666F3A2000012E4604AA54F3
:1001C0000FE0000000060021656A97831663B947B7
:1001D000070C29366C074091876BF85611E92A0005
:1001E0001F410054585F494E49545F4552525F00C9
:1001F0004B6F707020436F6D6D616E6420556E6B38
:100200006E6F776E0D0A004B6F70702052656365DC
:1002100069766520537562436F6D6D616E6420551C
:100220006E6B6E6F776E0D0A0052585F494E4954DF
:100230005F4552525F4D41524353544154455F52C2
:1002400058006B72532D526563656976655374610E
:1002500072740D0A006B72452D526563656976658F
:10026000456E640D0A00204279746573206F722018
:100270004B6579636F6465206973206E6F206865D4
:10028000782076616C75650D0A004B6F7070205494
:1002900072616E736D69747420436F6D6D616E640D
:1002A000206E6F7420657175616C20746F20004240
:1002B0006C6F636B330D0A00426C6F636B320D0A17
:1002C000005B6865785D0D0A007469636B732D428D
:1002D0006C6F636B537461727454696D653A20007E
:1002E0005B6865785D0D0A004B65794F66665469F9
:1002F0006D653A2020202020202020202020005B37
:100300006865785D0D0A00426C6F636B2053746101
:1003100072742054696D653A2020202020005B68AB
:1003200065785D0D0A005469636B2054696D6572D0
:100330003A2020202020202020202020005B6865FB
:10034000785D0D0A004B65794F666654696D6520CE
:10035000696E207469636B733A2020006D73656366
:100360000D0A004B65794F666654696D653A202029
:10037000202020202020202020000D0A0054696326
:100380006B2054696D65723A2020202020202020A7
:10039000202020000D0A000D0A416D6F756E74203B
:1003A0006F66204279746573202848657829206635
:1003B0006F756E6420696E7369646520636F6D6D1F
:1003C000616E64206C696E6520706172616D657428
:1003D00065723A2020202020202020202020000D9F
:1003E0000A4E657874204368617261637465722097
:1003F00028696E742920616674657220706172616B
:100400006D65746572202873686F756C6420626511
:10041000206C696E6520656E64206368617261633B
:10042000746572293A20000D0A537472696E676C04
:10043000656E6774683A202020202000636F6D6D20
:10044000616E646C696E65706172616D6574657210
:100450003A20005472616E736D6974740D0A004E17
:100460002F4100454F420D0A004E2F41004E2F41B3
:1004700000202F2000203D2000072E050DD391FFE6
:10048000080500000C0021656A2D3B1322F8620765
:100490003F181D1CC700B0876BF8B611EA2A001F71
:1004A00041000D2E2D07D3913D043200000600219E
:1004B000656A57C43023B900070018146C07009010
:1004C000876BF85611E92A001F41002028462D426B
:1004D000616E643A203836384D487A290020284623
:1004E0002D42616E643A203433334D487A290043FB
:1004F000554C3836380043554C3433330056203190
:100500002E32372E313820612D63756C667720428C
:1005100075696C643A2031382028323032362D30FB
:10052000372D30342030313A32333A3537292000F4
:1005300043554C5F5633000D2E2D07D3913D0432A9
:100540000000060010B07155E43023B90007001810
:10055000146C070090876BF85611E92A001F4100C0
:100560004C454E4552520D0A000302FF00000000A8
:100570000000000000000000000000000003021066
:10058000881182FF00000000000000000000000051
:100590000003071088110B0D210E6B0FD01553FFB0
:1005A00000000000000B060D210E650F6A170018F1
:1005B0001819161B431C6825002611000102460568
:1005C000D4042D0302070008021089115C120615DD
:1005D00056FF00737065636966792076616C6964A3
:1005E000206D6F6465206E756D6265720D0A004244
:1005F0004F56460D0A0000070246030D049A057D7A
:100600000642070C0B060D210E650F6A10C81193E8
:10061000120315341700181819161B431C682500FF
:100620002611FF0000000000000000000000000094
:1006300000000B08105B11F81547191D1A1C1BC789
:100640001C001DB221B623EA0007022E030D04E9A7
:1006500005CA070C0B060D210E650F6A10C8119311
:10066000120315341733181819161B432156250089
:10067000261129592C812D353EC34552523A434308
:10068000410D0A000454053D1700000602000B0846
:100690000C000D210E6B0FD0105C110412061322FA
:1006A00014F80A00154421B622101818192E1ABF82
:1006B0001B431C091DB523EA242A2500261F29599E
:1006C0002C812D352E0907040800090006FF3EC2C3
:1006D000FF047605961700000602000B080C000DBB
:1006E000210E650F6A106A114A1206132214F80AC5
:1006F00000154721B622101818192E1A6D1B041C5C
:10070000091DB223EA242A2500261F29592C812DF0
:10071000352E0907040800090006FF3EC2FF4F46B8
:1007200046004F464600544D4F444500534D4F44FC
:1007300045006E6F7420636F6D70696C656420692D
:100740006E0D0A000007024604C605260B0610C8F7
:100750001193120313221534173F182819161B433F
:100760002156250026110D210E650F6A070C16076C
:1007700020F81E871F6B29592C812D353EC3FF00A1
:100780004C4F56460D0A004C4F56460D0A000D2E92
:100790002D07D3913D04320000060010ABA5550A89
:1007A0003023B900070018146C070090876BF856C7
:1007B00011E92A001F410000030F1E262700000038
:1007C000030F1E2536386700030F25674060500071
:1007D000030F275188838100030F2750C8C3C2002D
:1007E000270000000000000067000000000000007B
:1007F0005000000000000000810000000000000028
:10080000C2000000000000202F2000203D200041F9
:100810009D18427A0962D515432C21453F0F658BFF
:100820000A467D1F479E1E683C1D6954074BAA1D42
:100830006B15056CB6094D2C1E6D09164E810F50B7
:100840008D1852400C54830C74302055771D7581DF
:100850001456230C57F70A58D51478E321597F1AF8
:100860005A0F1000000020697320756E6B6E6F7751
:100870006E2920557365206F6E65206F66003F20DE
:10088000280011241FBECFEFDAE0DEBFCDBF11E09C
:10089000A0E0B1E0EEEAFBE602C005900D92A83AB6
:1008A000B107D9F729E0A8EAB1E001C01D92AE3F37
:1008B000B207E1F70E9498240C94D535A1CB0F9391
:1008C0001F93CF93DF93EA98209A289A8CE390E0C5
:1008D000FC013197F1F728980197F1F7289A8AE5FA
:1008E00090E00197F1F780E30E94E92088EC90E026
:1008F0000197F1F7289880E40E94E320CAEBD1E049
:1009000003EE11E0FE0184910E94E32021960C1772
:100910001D07C1F7289A28988EE70E94E3208BE2F2
:1009200090E0EC012196C2D40E94E320CE01E3972F
:10093000C1F7289A83E30E94E92081E00E94A10E7A
:1009400081E08093DC08B6D5DF91CF911F910F91A4
:100950000895A0E0B0E0EFEAF4E00C9448358C0193
:1009600080912503F801838364839DE0C92ED12CF7
:100970000E94032185E30E942521833151F083EEFB
:1009800091E054D785E30E94252179D630D797DFAF
:1009900047C08091C7089091C808A091C908B0913C
:1009A000CA088093260390932703A0932803B0934B
:1009B000290328988FE70E94E3207801C0E0D0E067
:1009C0008AEAB82EF70180810E94E320C930D10560
:1009D00044F4F7018081B826C730D10511F4F8013D
:1009E000B0862196FFEFEF1AFF0ACF30D10551F7FD
:1009F000289AC8EC85E30E942521833159F081E0D3
:100A0000C81AD10809F0B4CF809125038F5F809375
:100A1000250306C081E00E94A10EC15059F7EFCF17
:100A2000CDB7DEB7E9E00C9464354F925F926F92D8
:100A30007F92AF92BF92CF92DF92EF92FF920F938D
:100A40001F93CF93DF93CDB7DEB7EB970FB6F89434
:100A5000DEBF0FBECDBF8C017C0182E0E80EF11C31
:100A60004EE0BE01625D7F4FC7010E946B24D82E0D
:100A700069E971E08EE091E00E94BF35F801B18034
:100A80008DE88B0D823008F0B9C181E0809321039D
:100A900001900020E9F73197E01BF10B709730F0DF
:100AA000F80187858A3411F489E501C08EE48093CA
:100AB0000D01A8954090C7085090C8086090C908DB
:100AC0007090CA088091C7089091C808A091C90881
:100AD000B091CA088093260390932703A09328031C
:100AE000B093290380910D01893509F043C083E556
:100AF00094E09CD68CE394E099D6C8010E94960EAF
:100B000087E294E093D6F80101900020E9F7CF0145
:100B1000019760E0801B910B0E94AF228FED93E064
:100B200085D6F80101900020E9F73197808160E0D7
:100B300090E00E94AF2287E993E078D660E08D2DA7
:100B400090E00E94AF2284E993E070D68DE793E0B5
:100B50006DD664E080912803909129030E94702251
:100B600064E080912603909127030E9470228AE717
:100B700093E05CD6F80101900020E9F7CF0141979E
:100B80008017910709F026C142E0BE01625D7F4FE8
:100B9000C7010E946B24029709F01CC190DEAEA42D
:100BA000B801665F7F4F45E050E0CE0101960E949C
:100BB000C6351E824AE050E060E070E0CE0101964A
:100BC0000E94D2336B017C0183E0F694E794D794C2
:100BD000C7948A95D1F780910D018935C1F483E6D8
:100BE00093E024D6CE0101960E94960E8CE593E008
:100BF0001DD685E493E01AD664E0C7010E947022F6
:100C000064E0C6010E9470228DE393E00FD68FE06E
:100C1000E8E3F1E0DE015F9601900D928A95E1F73D
:100C20008FA588A388A989A389A98EA36A2DCE013F
:100C30004F968FDEF3E7BF1609F4D7C0A7FED5C0E5
:100C40004091260350912703609128037091290356
:100C50008091C7089091C808A091C908B091CA08AE
:100C600084199509A609B7098E379105A105B10523
:100C700048F44090C7085090C8086090C908709028
:100C8000CA08A8958091C7089091C808A091C90882
:100C9000B091CA08841B950BA60BB70BC816D906D2
:100CA000EA06FB06A8F64090C7085090C808609076
:100CB000C9087090CA0880910D01893509F062C099
:100CC00086E293E0B3D564E0C3010E94702264E041
:100CD000C2010E9470228EE193E0A8D587E093E0E4
:100CE000A5D564E080912803909129030E94702289
:100CF00064E080912603909127030E9470228FEF79
:100D000092E094D588EE92E091D564E0C7010E940C
:100D1000702264E0C6010E94702280EE92E086D5C7
:100D200089EC92E083D58091C7089091C808A09182
:100D3000C908B091CA0840912603509127036091D9
:100D4000280370912903841B950BA60BB70B64E055
:100D5000CD010E9470228091C7089091C808A0918F
:100D6000C908B091CA082091260330912703821B3D
:100D7000930B64E00E94702281EC92E057D588EBDF
:100D800092E054D567EFCE014F96E3DD4091260304
:100D90005091270360912803709129038091C7081F
:100DA0009091C808A091C908B091CA08841B950BFE
:100DB000A60BB70B4597A105B10580F380910D01F6
:100DC000893519F48FEA92E031D567EFCE014F965D
:100DD000C0DD0BC08AE892E029D560E08EE090E0AB
:100DE0000E94AF2286E692E021D5809120038130D7
:100DF00011F40E94ED201092210341C082E7B81245
:100E00003BC0F8018281853451F41092200386E3BF
:100E10000E94E92010921F0385E592E02FC08335E0
:100E200041F5F8018381813311F481E003C08233FD
:100E300021F482E080931F0302C010921F0381E01F
:100E4000809320033CDD82E492E0F0D40E94ED2008
:100E500085E30E9425218D3091F089E292E0E6D46D
:100E600085E30E9425210BD4C2D429DD10922003F2
:100E700006C087E092E002C080EF91E0D7D4EB9605
:100E80000FB6F894DEBF0FBECDBFDF91CF911F919B
:100E90000F91FF90EF90DF90CF90BF90AF907F9039
:100EA0006F905F904F900895A0E0B0E0EAE5F7E022
:100EB0000C944A35EC018981843761F46BE071E070
:100EC000CE0102960E94512460E080910B01909126
:100ED0000C0110C0833709F03DC18A81823771F45B
:100EE0006AE071E0CE0103960E943D2480910A01E0
:100EF00060E090E00E94AF227AD49BC1769A809104
:100F00002203811115C08091DF08882329F081E038
:100F1000809324031092DF088091DD08882329F054
:100F200081E0809323031092DD0814D783E009D772
:100F300086E30E94E9208AE30E94E9208BE30E9475
:100F4000E9200E940321FE0101900020E9F731977A
:100F5000EC1BFD0BEE24EA94EE0EEB7F11E0E23287
:100F600009F010E000E00E2C000CFF0880910A014F
:100F7000081708F0AAC05B9A113079F48BEE90E064
:100F80005DD15B9880E197E259D15B9A83E191E072
:100F900055D15B988AE59AE008C080910B01909149
:100FA0000C014CD15B9880E197E248D1DD24D394C9
:100FB0008D2D90E08E159F050CF085C0FE01E80F89
:100FC000F91F81818033A9F4113011F480E031C020
:100FD0005B9A80910B0190910C0130D15B988091CC
:100FE0000B0190910C019C01220F331F820F931F64
:100FF00032C08133A9F4113011F481E01AC05B9A38
:1010000080910B0190910C019C01220F331F820FE4
:10101000931F14D15B9880910B0190910C013FC0FC
:10102000823311F482E005C0843439F5113019F4AB
:1010300083E009D146C05B9A80910B0190910C012D
:101040009C01220F331F820F931FF8D05B98809171
:101050000B0190910C01F2D05B9A80910B01909161
:101060000C01ECD05B9880910B0190910C019C01DC
:10107000220F331F820F931F23C01130C9F25B9AD6
:1010800080910B0190910C01D9D05B9880910B015C
:1010900090910C019C01220F331F820F931FCED021
:1010A0005B9A80910B0190910C019C01220F331FE0
:1010B000820F931FC3D05B9880910B0190910C011C
:1010C000BDD0D39475CF0F5F51CF80912203882379
:1010D00041F08091DE0881110FC086E30E94E92073
:1010E00019C080912403882351F0109224030E9498
:1010F0003C1881E08093DF080E94ED200BC08091B6
:101100002303882329F0109223030E94571602C05C
:101110000E94CD13769889E6B6D283E7B4D201E077
:10112000802F90E08E159F050CF0E6CEFE01E80FB3
:10113000F91F8181803359F0813349F0823339F0CE
:10114000843411F484E403C01130E1F386E49BD2CB
:101150000F5FE6CF8237B9F48091DF08882329F04A
:1011600081E0809324031092DF088091DD088823BA
:1011700029F081E0809323031092DD08EBD581E014
:101180008093220356C0863621F58A81803351F43C
:1011900080E18093070180EB8093080181E78093D1
:1011A000090107C043E067E071E0CE0102960E94AA
:1011B0006B2489E668D286E666D28AE364D280919F
:1011C00007015DD2809108015AD28091090157D25E
:1011D00093CE883731F580912403882341F0109213
:1011E00024030E943C1881E08093DF0811C08091A5
:1011F0002303882329F0109223030E9457160EC060
:1012000082E090E00E948E218091DE08882319F010
:101210000E94ED2003C086E30E94E9201092220381
:1012200008C0833631F46BE071E0CE0101960E9474
:101230005124CDB7DEB7E7E00C946635880F991FCF
:101240000197F1F708955B9A813039F483E191E0D9
:10125000F5DF5B988CE994E020C0811107C083E141
:1012600091E0ECDF5B9883E191E008C0823079F493
:1012700083E191E0E3DF5B988CE994E0DFDF5B9A48
:1012800083E191E0DBDF5B988CE994E00EC083E1C1
:1012900091E0D4DF5B9883E191E0D0DF5B9A83E15A
:1012A00091E0CCDF5B9883E191E0C8CF0C94EE3401
:1012B000A2E0B0E0EEE5F9E00C944F351A82198215
:1012C00042E0BE016F5F7F4F0E946B24823031F499
:1012D00089819A8198278927982702C0898190E07F
:1012E000E5DF2296E2E00C946B350E94F634F99922
:1012F000FECF0895A1E0B0E0E0E8F9E00C944F35AE
:101300001982009739F041E0BE016F5F7F4F01966F
:101310000E946B2489818F3F09F4FFCF882321F03D
:1013200061E083E390E0E1DF0E9404238091E0002C
:1013300081608093E0008091D8008F778093D800FF
:1013400019BC8091D8008F7E8093D8001092A004A1
:1013500010926E00F89498E088E10FB6F894A89582
:10136000809360000FBE90936000FFCF41E06CE27D
:1013700071E001960E946B2480912C0180FF02C0D5
:10138000769A01C0769860912C0184E390E0ADCF0D
:10139000E2EFF3E02081222391F0009751F04181A8
:1013A000DC013C91431305C0428111963C914317E7
:1013B00079F0E20FF11DB4E0E03AFB0758F3892B16
:1013C00049F424E0E03AF20719F010F0E0EAF4E022
:1013D000CF01089580E090E008951092EF031092FD
:1013E000EE0383E0809375098FEF8093F0030895F7
:1013F00024E0829FC0011124FC01E252FC4F808155
:101400008F3F91F08093A10481818093A204828117
:101410008093A30483818093A40421E04CE064E0E2
:1014200081EA94E00C940C1F0895CF9385E390E03B
:101430003DDF8093DD0386E390E038DF8093DC03BB
:10144000ECECF3E0CFEFC083C283C483C683C087D4
:10145000C287C487C687C1DF1092F20381E0809300
:10146000B103AEEDB3E0CC93E2EBF3E08FEF9FEF8F
:101470009183808313821282158214821496CC93F6
:101480001497978386831186108613861286189682
:10149000CC9318979587848717861686118A108AA9
:1014A0001C96CC93938B828B158A148A178A168A82
:1014B000CF910895CF93DF938CE991E0F9DEC82FA7
:1014C0008FE991E0F5DED82F82EA91E0F1DE4C2F32
:1014D00050E060E070E0BA0155274427480F511DE5
:1014E000611D711D8D2F90E0982F88279A01AB0107
:1014F000280F391F411D511DAAE1B0E00E9435356A
:10150000853F914010F082E001C081E08093E604C5
:10151000DF91CF9108950F931F93CF93DF93EC0149
:1015200061E080E090E0E1DE6AE181E090E0DDDE14
:1015300082E090E0FC01E056FB4F64918C010F5F6C
:101540001F4FD3DEC8010B321105A1F787E390E0EE
:10155000FC01EE5BFB4F64918C010F5F1F4FC5DEFA
:10156000C80100361105A1F71E9918C060E18FE08F
:1015700090E0BBDE60EB80E190E0B7DE61E781E107
:1015800090E0B3DE60E184E490E0AFDE60EB85E400
:1015900090E0ABDE61E786E490E0A7DE88E00E94A1
:1015A000B22088DF60E080E690E09FDE60E081E6C8
:1015B00090E09BDE60E083E390E097DE62E084E30E
:1015C00090E093DE60E080E690E08FDE60E081E610
:1015D00090E08BDE209719F08981883719F080E040
:1015E00090E088DEDF91CF911F910F910895A6E0E2
:1015F000B0E0EDEFFAE00C9449358C0143E0BE0118
:101600006F5F7F4F01960E946B248230A0F1823081
:1016100019F4C980D12C05C0C980DA80DC24CD241E
:10162000DC247C01FF24FE01EE0DFF1D6081C6015C
:101630005CDEC6010F97039708F43CDFEE0CFF1C3D
:101640008FEFE81AF80A0E0D1F1DF801808188231C
:1016500091F041E0BE016F5F7F4FC8010E946B2493
:10166000892B49F0EFEFCE1ADE0A6981C6013DDE13
:101670000E5F1F4FEACF2696E8E00C94653562E0D6
:1016800090E00C947022CF93C82F80916E09843023
:1016900091F480916A0980FF0EC080912E0387FD2E
:1016A0000E94931F6C2F8CE293E00E94F61ECA30BA
:1016B00011F40E94931F8091E605882309F47EC0EF
:1016C00080916A0983FF7AC0CA3009F477C0CD30AF
:1016D00011F06C2F01C06BE38DEE95E00E94F61EB9
:1016E000CD3009F065C08091F005843509F060C007
:1016F000E091ED05ADEFB5E08DE08E1750F090E094
:10170000F0E09F012F5031098217930709F050C074
:1017100005C09D919B3399F38F5FEFCFDF01AE51F1
:10172000BA4F8C91843509F043C09091F105119620
:101730008C91119798133CC09091F20512968C9160
:101740001297981335C09091F30513968C911397C7
:1017500098132EC09091F40514968C9114979813B9
:1017600027C0E152FA4F15968C91159780831696F3
:101770008C911697818319968C91199782831A966A
:101780008C911A9783831B968C911B9784831C964C
:101790008C911C9785831D968C9186838091ED0595
:1017A0008A508093ED058091EF058A508093EF0574
:1017B00083E080932B0382E080932A03CF910895E6
:1017C0000F931F93CF93CFEFC60FCF3F61F08C01E4
:1017D0000F5F1F4F6BDD53DFCC2311F08AE353DF24
:1017E000C150C801F2CFCF911F910F9108958DE0A4
:1017F0004ADF8AE048CF0F931F93CF93DF938C018A
:1018000084E541DFE8010B5F1F4F899138DFC01786
:10181000D107D9F78091DE0885FF02C08AEF2FDF5C
:10182000E6DFDF91CF911F910F910895CF93DF9362
:10183000EC01FE018491882319F025DF2196F9CF70
:10184000DF91CF910895FC018181883419F480E300
:1018500095E014C08DEF94E0E9DF1E9903C086EF98
:1018600094E002C08FEE94E0E1DF8091E6048130E5
:1018700019F48DED94E002C08BEC94E0D7DFB7CF84
:10188000A2E0B0E0E6E4FCE00C944C35FC012181E0
:101890002D3421F466E08AEF93E005C0203529F469
:1018A00060E18AED93E08CDF29C01A82198242E060
:1018B000BE016F5F7F4F01960E946B24823031F42E
:1018C00009811A8110270127102702C0098110E021
:1018D000C801ECDCF82E82E5D6DE64E0C8010E9487
:1018E000702285E794E0A2DF8F2DC9DE81E794E0C6
:1018F0009DDF62E08F2D90E00E94AF2278DF22967C
:10190000E5E00C946835A7E1B0E0E9E8FCE00C9470
:1019100045357C018C010F5F1F4F45E0BE01635FC1
:101920007F4FC8010E946B24843008F0C9C09D8598
:10193000913091F4833051F46E8585E390E0D5DCED
:101940006F8586E390E0D1DC70DDECC18091DD0332
:1019500096DE8091DC0386C0923009F049C0813068
:1019600039F081E09E85913009F080E0E82E02C0D8
:10197000EE24E3948091F203811103C08FE594E09B
:1019800055DF02EF13E0F8018081882309F496C047
:1019900023E0023F120711F080E275DEF801818139
:1019A0006EDEF80182816BDEE11009C0F8018081F2
:1019B000080F111DF4E0003A1F0728F37FC08AE3E7
:1019C00062DE83E0F82EF8018081F81678F723E0D4
:1019D0002F1520F4F0FE02C08CE255DEDD24D394F6
:1019E000DF0CF801EF0DF11D808149DEFD2CEBCFFE
:1019F000933049F480E090E0CBDC825F93409EEA34
:101A0000981B892F2FC0903111F50CEC13E0E12CBD
:101A1000F12CF80180818F3F79F0FF2011F080E2F6
:101A200032DE8E2D2CDE8AE32EDEF801808127DE69
:101A3000F801818124DEF3940E5F1F4FE394F8E0F8
:101A4000EF12E7CFF1103AC08DE694E036C0913145
:101A500059F48091CA039091CB036DE770E00E9426
:101A60008535862F0CDE2AC0923141F50EED13E04C
:101A7000E12CF12CF80180818F3FA9F0FF2011F0BB
:101A800080E201DE8E2DFBDD8AE3FDDDF801808141
:101A9000F6DDF8018181F3DDF8018281F0DDF801E6
:101AA0008381EDDDF3940C5F1F4FE394F4E0EF12BC
:101AB000E1CFF11003C089E694E0B8DE98DE32C1D0
:101AC00044E0BE016D5E7F4FC8010E946B242B89EC
:101AD000293608F480C05E893C894D895C3009F064
:101AE00052C0AEEDB3E080E090E0FD01EE5DF3406A
:101AF0005C91251322C011966C91119763131DC040
:101B000012966C911297641318C0E252FC4F2CE0AD
:101B100023839C01220F331F820F931FFC01EE0FC2
:101B2000FF1FEE54FC4F11821082880F991FFC0199
:101B3000EC54FC4F11821082D8C05F3FE9F4E252AE
:101B4000FC4F2083318342832CE023839C01220FAE
:101B5000331F820F931FFC01EE0FFF1FEE54FC4F4B
:101B600011821082880F991FFC01EC54FC4F1182E6
:101B700010821092B103B9C0019614968430910579
:101B800009F0B3CFCFC0EEEDF3E080E090E0BF010D
:101B90006E5D7340A0812A1318C0A181A31315C0E4
:101BA000A281A41312C0FB01E252FC4F5383FC013B
:101BB000EE0FFF1FE80FF91FEE0FFF1FEC54FC4F55
:101BC00081E090E091838083ADC0019634968430AB
:101BD0009105E9F6A7C0ED852091DD03E21708F431
:101BE0003FC0822F90E007964E2F50E08417950754
:101BF000BCF19E858091DC03981332C098899F3296
:101C000069F44BE0BE016F5F7F4FC8010E946B24F7
:101C100022E04CE0682FCE0101967EC089899C327B
:101C2000B9F48093B00321E030E03093CB032093EC
:101C3000CA032091D6083091D708A90164E0869F95
:101C4000400D511D11245093D7084093D6086AC007
:101C5000E21BEE0FF0E0E453FC4F9083818362C0FF
:101C600080E090E095DB6C01F80101900020E9F73D
:101C70003197E01BF10BF695E79501E00E0FC601D9
:101C8000800F911D825F93408E3A91050CF047C002
:101C9000F6010083560111E0812F880F8150101743
:101CA000D0F44501FFEF8F1A9F0A41E0B40197017C
:101CB000280F311DC9010E946B24133048F010FD1C
:101CC00007C0F5018081843619F481818093AF03C8
:101CD0001F5F5401E1CFF0EACF16F4E0DF0610F504
:101CE000F601E10FF11D10821DC022E04CE064E01E
:101CF000CE0143960E940C1F8FE08E8B22E04CE0B9
:101D000064E0CE0143960E940C1F82E08E8B22E09D
:101D10004CE064E0CE0143960E940C1F03C083E6B2
:101D200094E084DD6796ECE00C946135CF93DF930B
:101D3000EC018991882311F0A6DCFBCFDF91CF91D4
:101D4000089520ED37E0815020F0F9013197F1F747
:101D5000FACF0895CF93DF93EA98209A289A8CE3DC
:101D600090E0FC013197F1F728980197F1F7289A54
:101D70008AE590E00197F1F780E30E94E92088EC82
:101D800090E00197F1F7289880E40E94E320C7E3F0
:101D9000D5E0FE0184910E94E3202196F5E0C43451
:101DA000DF07B9F7809107010E94E32080910801C5
:101DB0000E94E320809109010E94E320C0E0D0E06E
:101DC000FE01E95BFA4F84910E94E3202196C9311C
:101DD000D105B1F7289A28988EE70E94E3208BE27C
:101DE00090E0EC01219662DA0E94E320CE01E397B5
:101DF000C1F7289A83E30E94E92081E0A2DF81E015
:101E00008093DC08DF91CF91089586E30E94E9205A
:101E100080917109833511F08BE401C08BE991DF6A
:101E200021E04CE065E08FE699E00E940C1F0E94E3
:101E3000ED208091DE0886FF03C08FE699E0DBCCC1
:101E40000895E3DF80917109893631F081E0809354
:101E5000F10389E28093F00308955B9AEFC9109231
:101E60006F00E091E3058FE3E89FF0011124E95151
:101E7000FB4F108210928900109288000895CF9332
:101E8000DF93FC018181823709F034C0EA98209AFF
:101E9000289A8CE390E0FC013197F1F7289801979C
:101EA000F1F7289A8AE590E00197F1F780E30E9424
:101EB000E92088EC90E00197F1F7C6EFD5E0FE014C
:101EC0008491813450F083E30E94E92081E039DF7E
:101ED000F1DA81E08093700611C0FE0131966491C1
:101EE000FE0184910E941B212296F6E0C233DF0797
:101EF00031F7E9CF833711F010927006DF91CF915F
:101F00000895A1E0B0E0E7E8FFE00C9448351982BD
:101F1000FC012181223709F06FC02281222331F098
:101F2000BE016F5F7F4F02960E943D24B9808FEF04
:101F30008B0D833020F083ED95E078DC6CC0EA985F
:101F4000209A1092AC04289A8CE390E0FC0131971F
:101F5000F1F728980197F1F7289A8AE590E0019720
:101F6000F1F780E30E94E92088EC90E00197F1F717
:101F700005EA15E0F8018491813468F0F4E1BF9E30
:101F800080011124C12CD12C780184E1E81AF108D8
:101F9000035111091FC0F80131966491F801849131
:101FA0000E941B210E5F1F4FF5E0033D1F0711F735
:101FB000E5CFF801EC0DFD1DE759FA4F6491FC01E6
:101FC00084910E941B21F2E0CF0ED11C84E1C8163F
:101FD000D10449F0C7018C0D9D1D87599A4FFC0112
:101FE0002491213430F383E30E94E920B092AC04C1
:101FF00061DA81E0A6DE0BC0283749F48091AC0499
:10200000882319F086E30E94E9201092AC048091A5
:10201000AC0435DBECDB2196E9E00C946435AEE1F1
:10202000B0E0E5E1F0E10C944D358C01FC018181DB
:10203000823711F43CD635C0833711F08636F9F477
:102040004DE1BE016F5F7F4FC80102960E946B2475
:1020500099270197298130E08217930721F080E6C4
:1020600095E0E4DB1EC061E070E0F8018181833718
:1020700011F060E070E0CE01019662D612C08136A8
:1020800021F443E069EA74E005C0873741F443E096
:1020900066EA74E0C80102960E946B2402C01092A6
:1020A000DD086E96E4E00C946935CF93C82F5B9AF7
:1020B000882319F08091D90802C08091DB0820E1C3
:1020C000829FC0011124BAD85B98CC2319F080916B
:1020D000D80802C08091DA0820E1829FC001112453
:1020E000ADD8CF910895FC0184819581A081B18103
:1020F000A80FB11D2C9130E0092E02C0359527950F
:102100000A94E2F721703FEF390F3583911104C033
:102110008F5F848387E08583822F0895A0E0B0E0FD
:10212000E4E9F0E10C9446358C01942EC62ED12CB6
:10213000C0E0D0E0B12CAA24A394760121E0E21AF9
:10214000F108CC15DD05C9F0C801CDDF882399F071
:10215000992051F0C7018C1B9D0B2A2D01C0220F25
:102160008A95EAF7822F06C08A2D0C2E01C0880FAF
:102170000A94EAF7B82A2196E4CF8B2DCDB7DEB7C3
:10218000EBE00C946235FC018181823308F067CE6C
:10219000662389F0DF01A80FB11D21E030E0038044
:1021A00002C0220F331F0A94E2F714969C911497F1
:1021B000292B14962C939381992319F09150938392
:1021C0000BC097E093838F5F8183823329F0DF0117
:1021D000A80FB11D14961C9286A98F5F86AB089537
:1021E000DC01362F11962C911197E22FF0E050E090
:1021F0009C91BF01641B750B655F7F4F6731710553
:10220000C8F4892F90E0632F70E09C01261B370BE8
:10221000255F3F4F2731310568F49F01280F391F93
:10222000640F751F261B370B255F3F4F81E0273159
:10223000310508F080E008951F920F920FB60F92BB
:102240001124FF920F931F932F933F934F935F930C
:102250006F937F938F939F93AF93BF93CF93DF93AE
:10226000EF93FF938091E405823021F483E0809323
:10227000E4054DC10091840010918500E4E01695BD
:102280000795EA95E1F7C091E3059FE3C99FE00157
:102290001124C951DB4F9091E604923089F42881D2
:1022A000243031F40E3208F432C10F3448F0D1C07A
:1022B000253031F4073108F42AC1083208F0C9C0CA
:1022C0004A9910C0923059F488818450823038F491
:1022D00061E0CE0158DF10928500109284000093D7
:1022E000E50415C18091E504081B0093E4041092F5
:1022F000850010928400923041F4888184508230AD
:1023000020F460E0CE013FDF02C182E086BBF880AE
:102310001091E504FF2049F00091E404F81609F15A
:10232000A6C0243008F047C018821FAA18AE19AE04
:102330001AAE1BAE1CAE1EAE1DAE1EAA198287E0E1
:102340008B831C82153608F0E2C08091E404853648
:1023500008F0DDC01FAB88AF81E08A8382E088830C
:10236000D6C022E0402F612FCE01C79639DF2A81E7
:102370008823B9F28FA990E0AC01440F551F840F58
:10238000951F810F911D95958795959587958FAB95
:1023900088AD90E0AC01440F551F840F951F800F4E
:1023A000911D959587959595879588AF1EAE1DAE25
:1023B0002F5F2A83ACC080EA9FE0909389008093CE
:1023C00088008A818C3050F02FA988AD90E0820F70
:1023D000911D8536910524F084E03EC08A3080F05E
:1023E0002FA988AD90E0820F911D85974CF485E070
:1023F000888388EE93E090938900809388002DC0B5
:102400008091E505882339F18BED810F873118F52F
:1024100086EF800F8D31F8F481E090E0011710F025
:1024200080E090E0892BB9F03FA928AD8BED820FB9
:10243000873188F486EF830F8D3168F481E090E076
:10244000321710F080E090E0892B29F081E0809332
:10245000E40505DD5CC083E0888319AF0AAF19820B
:1024600087E08B831C8282E080936F0050C02F2D09
:10247000402F612FCE01C996B3DE882301F161E0C0
:10248000CE0181DE89AD90E09C01220F331F820FC7
:10249000931F810F911D959587959595879589AF88
:1024A0008AAD90E09C01220F331F820F931F800F93
:1024B000911D95958795959587958AAF28C02F2D65
:1024C000402F612FCE01C7968BDE882309F4C1CF40
:1024D00060E0CE0158DE8FA990E09C01220F331FEF
:1024E000820F931F810F911D9595879595958795DF
:1024F0008FAB88AD90E09C01220F331F820F931F9A
:10250000800F911D959587959595879588AFFF913B
:10251000EF91DF91CF91BF91AF919F918F917F917B
:102520006F915F914F913F912F911F910F91FF906C
:102530000F900FBE0F901F9018951F920F920FB61D
:102540000F9211242F933F934F935F936F937F9339
:102550008F939F93AF93BF93EF93FF9310926F006E
:102560008091DE0883FF02C08EE28DD88091E30562
:102570009FE3899FF0011124E951FB4F9081933033
:1025800018F09181923010F46ADC17C09091E30446
:10259000933041F48091DE0882FFF6CF8FEE95E014
:1025A00045D9F2CF9F5F9093E3048F5F843019F099
:1025B0008093E30502C01092E305FF91EF91BF9174
:1025C000AF919F918F917F916F915F914F913F91CB
:1025D0002F910F900FBE0F901F901895A0E0B0E0C4
:1025E000E4EFF2E10C944335FC018A011092E0041F
:1025F000A180AA0CAA0CAA0C8381A81A8A2D97E0A4
:10260000992E9A0C1092AE0428E0A22EA80E41E05A
:1026100070E057E087E0B12C90E037E0E32EF12C3A
:10262000C1E0D0E0A41609F481C09F012B0D311D3B
:10263000D90114962C9130E0082E02C035952795CB
:102640000A94E2F721703327882311F0815002C0E9
:10265000B39487E06B3469F4533009F04AC07111C8
:1026600006C0232B09F05FC01092E0046EC070E03A
:1026700042C05F3F41F56634B1F4C92ED12CD6017A
:10268000A255BB4F5C91052E52955025052E5695AF
:10269000569550255F5F51FB662460F8712C261516
:1026A000370541F004C0653429F4232B19F47093E5
:1026B000E0044BC09F5F292F30E022553B4FD901EA
:1026C0001C9257E031C0232B61F1663479F4292F35
:1026D00030E0D901A255BB4F8C909E01052E01C060
:1026E000220F0A94EAF728292C931BC0653429F09D
:1026F00018C05F3FD1F2232BA1F0292F30E02255E3
:102700003B4F6701C51AD10857FDD394DE0102C0C3
:10271000AA0FBB1FCA94E2F76D01D901DC90CD2846
:10272000CC92515001C071E04F5F7CCF7093E004B8
:102730009A1458F4653411F45F3F09F071119F5FEA
:10274000F801908381E0911101C080E0CDB7DEB740
:10275000EEE00C945F35FC017091E00440E095E000
:1027600020E0662399F06150DF01A60FB11D3C9176
:10277000532F52955F702527950F772311F044232F
:1027800019F03F702327930F4F5FEBCF920F30E18B
:10279000939FC0011124822B08958091AD04811173
:1027A00011C08091DE08882321F00E94D8210C946A
:1027B000ED2086E30E94E9201092DC081092DF08E9
:1027C0001092DD080895A7E0B0E0E9EEF3E10C9483
:1027D00049353091F00590E0E92FF0E0E951FA4FEA
:1027E0002081222309F480C0231711F09F5FF4CFCA
:1027F00095E79983882391F0BE016E5F7F4F8091AA
:10280000E6050E942A248091E505BE016C5F7F4F9A
:102810000E942A2485E58E8306E001C001E00E9423
:10282000D8210E94032116E0E12C86E0F82E80E8F2
:1028300091E013DB5B98C7010197F1F71150B9F7ED
:1028400080E093E00ADB5B9880E093E00197F1F78A
:1028500080E891E002DB5B9887E390E00E948E21A4
:1028600083E06FDA28988FE70E94E3201091EF054C
:10287000212F30E08FE390E0801B910982179307AE
:1028800014F41FE3101B802F810F0E94E320CE0160
:1028900001966C017C01F70181917F010E94E32088
:1028A0008E2D8C198017B8F3112341F08DEE95E031
:1028B0000E94DC1E0E94E3201150F6CF289A0E944D
:1028C00003211092EF051092ED051092EE0515E12F
:1028D0008AE30E9425218F7729F0115019F081E0B9
:1028E00030DAF6CF5ADF09C0992309F481CF10926C
:1028F000EF051092ED051092EE052796E8E00C9496
:102900006535CF93DF93EC01898181110BC08091F4
:10291000E5050E943F0B8091E6050E943F0B0E9457
:10292000F70B40C0863681F42296A7EEB5E0E0E0D2
:102930008991882321F08D93EF5FE530C9F7F0E0AE
:10294000E951FA4F10822EC08936D9F441E065EE84
:1029500075E0CE0102960E946B246091E50580E649
:1029600090E00E94750941E066EE75E0CE010496A4
:102970000E946B246091E60581E690E00E94750953
:1029800011C01092EF051092ED051092EE05219600
:102990006991662329F08DEE95E00E94F61EF8CF2E
:1029A00080E011DFDF91CF910895FC012181211199
:1029B0000DC08091DE080E943F0B65E08091D60833
:1029C0009091D7080E94AF220C94F70B41E06EED76
:1029D00078E001960E946B24E0CEACE0B0E0E3EF3B
:1029E000F4E10C944E35FC018BE0898381818A836C
:1029F0001B8282E08C8387818D8380858E83818595
:102A00008F83848188878581898786818A871B86D1
:102A10001C8684E196D960E070E0CE01019690D1E9
:102A20008AE50E94430B10E0812F90E0298130E07D
:102A3000281739075CF0E1E0F0E0EC0FFD1FE80F2C
:102A4000F91F80810E943F0B1F5FEECF8091DE084F
:102A500085FF03C080E00E943F0B0E94F70B2C967D
:102A6000E3E00C946A350F931F93CF93DF93182FF5
:102A7000062F1092AD041092C60853985298EA9807
:102A8000209A289A8CE390E0FC013197F1F728987E
:102A90000197F1F7289A8AE590E00197F1F780E332
:102AA0000E94E92088EC90E00197F1F7113031F0B5
:102AB000123009F075C0C4E8D6E01DC0C1EDD6E003
:102AC000FE0184918134E0F431966491FE01849199
:102AD0000E941B212296F7E0C939DF0789F710C051
:102AE00031966491FE0184910E941B212296F7E0A9
:102AF000CC34DF0771F1FE018491813488F329C061
:102B00000130C1F01093AD040093C60883E30E9426
:102B1000E9208CE0EAEBF8E0DF011D928A95E9F705
:102B200086E0ECECF8E0DF011D928A95E9F784E09D
:102B300008D936C060E087E10E941B2167E083E08E
:102B40000E941B2164E584E00E941B2166E785E06A
:102B50001CC00130B9F660E087E10E941B2167E0EC
:102B600083E00E941B2164E584E00E941B216DE349
:102B700085E00E941B2160E585E10E941B216BE539
:102B800080E10E941B2168EF81E10E941B2162E02D
:102B900082E00E941B216EE280E00E941B21B2CFE6
:102BA000DF91CF911F910F910895FC019181923790
:102BB00089F482818823A1F0833719F462E081E0EF
:102BC00004C0843721F462E082E04DDF09C060E098
:102BD00080E0FBCF933721F482E397E00C94160C4E
:102BE0008091C608823079F48091AD04813029F05B
:102BF000823031F486E297E008C08CE297E005C0AD
:102C000082E297E002C08EE197E00E94160C0C94DD
:102C1000F70BCF93DF9382E40E94430BC091F80936
:102C2000D091F90965E0CE010E94AF220E94F70B16
:102C300083E50E94430B65E080913401909135015A
:102C40000E94AF220E94F70B85E40E94430B65E0CF
:102C500080913201909133010E94AF220E94F70BC4
:102C600086E40E94430B209721F4C0913401D09157
:102C700035018091320190913301009741F48DB775
:102C80009EB72091360130913701821B930BC817F4
:102C9000D90718F48C1B9D0B02C080E090E065E022
:102CA0000E94AF220E94F70BDF91CF9108950F93FE
:102CB0001F93CF93DF93EA98209A289A8CE390E0B1
:102CC000FC013197F1F728980197F1F7289A8AE5E6
:102CD00090E00197F1F780E30E94E92088EC90E012
:102CE0000197F1F7C4E4D7E0FE018491813448F004
:102CF00083E30E94E92084E024D8CFEF04E110E0D0
:102D00000DC0FE0131966491FE0184910E941B2149
:102D10002296F7E0C038DF0739F7EACF84E30E9454
:102D2000E920C8010197F1F7C150C1F781E0809314
:102D3000DD080E945A0ADF91CF911F910F910895EB
:102D40004F925F926F927F928F929F92AF92BF92BB
:102D5000EF92FF921F93CF93DF937C01EB01FC0175
:102D600010811F5F209719F420E030E002C024E6B4
:102D700030E0F8E01F9FC00111246AE070E00E947B
:102D80009935260F371F4901032E000CAA08BB08EE
:102D90008091D6089091D708AC0160E070E04815AA
:102DA00059056A057B0528F480E897E00E94160C17
:102DB000D6C0821B930B9093D7088093D60880913E
:102DC000DD08811101C073DF85E30E9425218D306C
:102DD00071F08AE50E94430B85E40E94430B82E573
:102DE0000E94430B82E50E94430B81E349C080901F
:102DF000D2089090D308A090D408B090D508811440
:102E00009104A104B104B1F40E94032185E30E945E
:102E10002521833109F43FC08AE50E94430B85E4F4
:102E20000E94430B82E50E94430B82E50E94430B04
:102E300082E326C0240135014FEF441A540A640A84
:102E4000740A8091C7089091C808A091C908B091F0
:102E5000CA0888169906AA06BB0621F481E00E94DA
:102E6000A10EEFCF8091C7089091C808A091C90822
:102E7000B091CA08481659066A067B0679F3C4CF92
:102E80000E94430B85E30E9425210E943F0B0E9474
:102E9000F70B0DDF64C0CD2B41F428988FE70E941B
:102EA000E320BE2CCE2DDF2D08C0CAE0D0E084E6A2
:102EB0000E94A10E2197D9F7F0CF8C2F8B19811783
:102EC00020F489910E94E320F8CF289AC0E085E39E
:102ED0000E942521D82F85E30E942521D81305C003
:102EE000DD3031F081E00E94A10ECF5FCA3F79F75B
:102EF00085E30E9425218D30E9F08AE50E94430B8D
:102F000085E40E94430B82E50E94430B82E50E9408
:102F1000430B83E30E94430B85E30E9425210E941B
:102F20003F0B8D2F0E943F0B8C2F0E943F0B0E9466
:102F3000F70BBDDE8091DD08811101C02EDC809190
:102F4000C7089091C808A091C908B091CA08809399
:102F5000D2089093D308A093D408B093D508DF91FA
:102F6000CF911F91FF90EF90BF90AF909F908F9067
:102F70007F906F905F904F900895CF93882331F0AA
:102F80001092C50886E30E94E92007C085E30E94ED
:102F900025218D30A9F7C0E039C085E30E942521A5
:102FA000C82F8130D1F78BE30E94E9208AE30E9489
:102FB000E9201092BA081092BC081092BB08109237
:102FC000BE081092BD0882E796E09093C0088093F7
:102FD000BF081092C108C093C2081092C308809124
:102FE000AD048093C40860E083E00E941B2162E08E
:102FF00088E00E941B2184E30E94E92085E30E946F
:1030000025218D30D9F781E08093C5088C2FCF9191
:103010000895A0E0B0E0EFE0F8E10C944835B82E58
:10302000C92ED62E7A01890128988FEF0E94E320BD
:10303000CB2DDC2DCE018D0D911D6C01CC15DD0548
:1030400029F080E00E94E3208993F8CFE114F10495
:1030500069F080E00E94E320F701808301151105EB
:1030600029F080E00E94E320F8018083289ACDB700
:10307000DEB7E9E00C9464350F931F93CF93DF9391
:10308000EA98209A289A8CE390E0FC013197F1F7B6
:1030900028980197F1F7289A8AE590E00197F1F7CF
:1030A00080E30E94E92088EC90E00197F1F7C8E402
:1030B000D6E0FE0131966491FE0184910E941B21AD
:1030C0002296F6E0CA37DF07A1F78091CB0881117D
:1030D00007C083E30E94E92084E00E94A10E10C093
:1030E000C2E3D6E008E416E0FE0131966491FE01E9
:1030F00084910E941B2122960C171D07A9F7E9CF86
:1031000084E30E94E92085E30E9425218D30C1F7E8
:10311000DF91CF911F910F910895FC01818182373A
:1031200049F48091DF08811101C0A6DF81E080931E
:1031300071060895109271060895A8E4B0E0E3EADC
:10314000F8E10C944535FC019181923731F09235CC
:1031500059F481E08093CB0802C01092CB088CDF39
:1031600081E08093DF08B6C0933709F0B1C04FE328
:103170008E010F5F1F4FB801CF0102960E946B2492
:103180007C019C01332721503109898190E0281767
:10319000390709F09FC08091DF08811104C06CDFFE
:1031A00083E00E94A10EDB809A8186E789278A83CB
:1031B00022E03981822F90E0F801E80FF91F2317F0
:1031C00050F4DE01A80FB91F8C9184529081892799
:1031D00080832F5FEECF80818D258083CE018B5B36
:1031E0009F4F2DD785E3F5D785E30E9425218331B5
:1031F000A1F1CE018F5B9F4F22D725964CAD5DADDF
:103200006EAD7FAD259729968CAD9DADAEADBFADB2
:10321000299784179507A607B70760F44A015B0151
:10322000881A990AAA0ABB0A2DEB82169104A104F6
:10323000B10470F4481759076A077B0770F4845487
:103240009F4FAF4FBF4F84179507A607B70728F4C6
:103250008AE796E00E94160C24C085E3F6D78331F6
:1032600009F0C0CFD4FE08C088E70E94A10E88E70D
:103270000E94A10E88E701C08AE00E94A10E289852
:103280008FE7A1D768018C2D801B8E1528F4F601DD
:1032900081916F0198D7F7CF289A85E3D6D78331EC
:1032A000E1F385E3D2D7863131F48BE392D786E31D
:1032B00090D78DE38ED78091DF08882339F084E39F
:1032C00088D785E3C2D78D30D1F704C066DA02C053
:1032D0001092DF08C85BDF4FECE00C9461350F9370
:1032E0001F93CF93DF938B01D42F0E94430BC0E039
:1032F000F80180818C1740F0F801EC0FF11D8081FE
:103300000E943F0BCF5FF4CF8091DE0885FF03C0A2
:103310008D2F0E943F0B0E94F70BDF91CF911F91E1
:103320000F910895482F50E08A3150F09A012A51A8
:10333000310984E0359527958A95E1F72D5F01C025
:1033400022E0CA010196820F911D820F911D0895FE
:10335000CF93DF93EC01A881E981CA2FC295CF708A
:10336000D0E0C757DE4F2881AF70B0E0A757BE4FFF
:103370003C91AE2FA295AF70B0E0A757BE4F9C9185
:10338000EF70F0E0E757FE4F808151E02F3F09F0EA
:1033900050E041E03F3F09F040E0542B41E09F3FC7
:1033A00009F040E0452BA9F48F3F99F0D0E42D9F20
:1033B000A0011124E0E13E9F90011124242B282B31
:1033C000F4E09F9FC0011124822BEB01888380E0F1
:1033D00001C081E0DF91CF91089528E0FC01EE2744
:1033E000F078EF2FFF27462F407850E0880F991F85
:1033F000E417F50721F035E683273DE39327660FB1
:10340000215061F70895DC0111968C9111974111BB
:1034100018C012969C911297E92FEF73F0E0E75BCA
:10342000FE4F5081E82FEF7024E0E29FF00111245D
:103430009295969596959370E92BE75BFE4F908158
:1034400002C090E050E0EC9182958F70AE2FA37097
:10345000F0E1AF9FD0011124A82BA75BBE4FAC9128
:10346000E695E695F0E0E75BFE4F3081E1E0AF3FA7
:1034700009F0E0E081E03F3F09F080E0E82B81E0E7
:103480005F3F09F080E08E2B99F49F3F89F080E147
:10349000389F900111242A2BFB01208341110AC07F
:1034A000F0E19F9FC0011124852BFB01818302C0A5
:1034B00081E0089580E00895FA019081882369F001
:1034C000DB01A90FB11DE1E0F0E0022E01C0EE0F1B
:1034D0000A94EAF78C91E82BEC93222319F08FEFF2
:1034E000820F0BC081E0890F8C3030F4FA018083A9
:1034F000FB01E80FF11D108287E090E00895AFE036
:10350000B0E0E5E8FAE10C943F357C01FC018181F3
:10351000833709F079C11F868E01015F1F4F41E09B
:10352000B801C70102960E946B248F85888741E00D
:10353000B801C70104960E946B248F85807FD82E26
:10354000898741E0B801C70106960E946B248F85E8
:103550008A8741E0B801C70108960E946B248F85D5
:103560008B8741E0B801C7010A960E946B248F85C2
:103570008E8741E0B801C7010C960E946B248F85AD
:103580008D8741E0B801C7010E960E946B248F859C
:103590008C877E01F8E0EF0EF11CF70180E091913D
:1035A000292F22952F7092278927E017F107B9F765
:1035B0008F708D29898787E0FE013896DE0111968C
:1035C00001900D928A95E1F79E01225F3F4FF7012E
:1035D000DF01319611969C9111978C9189278083F8
:1035E000E217F307A9F7769A8091E00881115BC092
:1035F0008091DF08882329F081E08093E20810920F
:10360000DF088091DD08882329F081E08093E108BC
:103610001092DD08EA98209A289A8CE390E0FC0149
:103620003197F1F728980197F1F7289A8AE590E009
:103630000197F1F780E3CDD588EC90E00197F1F7A1
:10364000289880E4C0D5EEE8CE2EE7E0DE2EF7EB3A
:10365000AF2EF7E0BF2EF6018491B5D5FFEFCF1A5C
:10366000DF0AAC14BD04B9F7289A28988EE7ABD5C9
:103670008BE290E06C012FEFC21AD20A0E94560929
:10368000A2D5C60183339105A9F7289A83E3A1D572
:1036900081E00E94A10E81E08093DC080E945A0A1A
:1036A00083E00E94A10E86E394D58AE392D58BE352
:1036B00090D5A9D55B9A8EE899E40197F1F75B98CC
:1036C00089E50E94A10E8AE694E00197F1F7312C7A
:1036D0006CEE662E63E1762E78EF472E75E2572E5C
:1036E00080913101381608F05BC0332011F097E06B
:1036F00001C092E080E05B9AF3013197F1F75B98AB
:10370000F3013197F1F78F5F9813F5CF5B9AC20100
:103710000197F1F75B9880912D0190912E010E9405
:103720001E096701F60181906F0148E0242E50E8E0
:10373000A52EB12C912CC4018A219B21892B49F4FF
:103740005B9A80912D0190912E010E941E095B9839
:1037500008C05B9880912D0190912E010E941E0956
:103760005B9A80912D0190912E010E941E09B694C2
:10377000A7942A942110DFCF0C151D0599F65B98AC
:103780008E8587FD07C080912D0190912E01815378
:10379000994802C08FEC96E70E941E093394A0CF8F
:1037A0008091E008882339F08091DE0881110DC0F6
:1037B00086E30FD516C08091E208882341F010926D
:1037C000E2085ADC81E08093DF0807D50AC08091C7
:1037D000E108882321F01092E10869DA02C00E9412
:1037E000CD13769889E50E94430B83E70E94430B33
:1037F0008E010F5F1F4FF80181918F010E943F0BD7
:10380000E016F106C1F716C08237B9F461E371E042
:10381000C70102960E943D2489E50E94430B82E77E
:103820000E94430B8AE30E94430B8091310160E0C8
:1038300090E095D60E94F70B4EC0843751F5F70102
:103840008281803339F488ED94E090933001809345
:103850002F0106C06FE271E0C70102960E94512459
:1038600080912F01909130019695879590932E012C
:1038700080932D0189E50E94430B84E70E94430B4E
:103880008AE30E94430B66E080912F019091300102
:10389000D0CF883701F58091E208882339F0109263
:1038A000E208EADB81E08093DF080FC08091E10845
:1038B000882321F01092E108FAD90BC082E090E051
:1038C0002DD58091DE08882311F087D402C086E3CD
:1038D00080D41092E0082F96E2E10C945B35AAE0C8
:1038E000B0E0E5E7FCE10C943F354C01B62E422EEA
:1038F000DE2C002309F4BCC0E42EF12C97012E5FCE
:103900003F4F8C2D8A0D029F800D1124082E000C34
:10391000990B2091D6083091D7082817390728F439
:1039200087E897E00E94160CA3C0281B390B309340
:10393000D7082093D608769A8091DD08882341F035
:103940001092DD0885EA91E030D821E0298301C09A
:1039500019828091DC08811101C02AD554D4E0E19C
:10396000CE9EC00111249B838A8380E1A89E900192
:1039700011243D832C83EB2DF0E0FF83EE8366243E
:103980006394712C512CC11002C0AA2051F05B9A93
:103990008A819B810E941E095B988C819D810E9477
:1039A0001E0918862885822F220F990BEE81FF8130
:1039B0008E179F073CF480E00E945510F885FF5F4A
:1039C000F887F0CFBB2019F081E00E94551010E07D
:1039D000812F012E000C990B9A8789878E159F05E0
:1039E000DCF487E0282E312C29853A85280D391DF5
:1039F0003A872987C301022C01C0880F0A94EAF78D
:103A0000E985FA85908189230E945510F1E02F1AEB
:103A1000310880F71F5FDCCF17E0880D991D9A876A
:103A20008987812F012E000C990B4816590674F4D2
:103A3000C301012E01C0880F0A94EAF7E985FA85CF
:103A4000908189230E9455101150EBCF8D2D0E943B
:103A5000A10E015009F097CF8091DE08882311F064
:103A6000BCD302C086E3B5D3F981F11120D9769891
:103A70002A96E2E10C945B35AF92CF92EF920F93CE
:103A8000CF93DF93CDB7DEB72C970FB6F894DEBF98
:103A90000FBECDBF4BE0BE016F5F7F4F02961BD7BD
:103AA0008530C1F48EE38093DB088CE18093DA08E3
:103AB00081E28093D9088AE38093D80885E2A82E12
:103AC0009AEFC92EE12C05E024E044E068E0CE0145
:103AD000019605DF2C960FB6F894DEBF0FBECDBF62
:103AE000DF91CF910F91EF90CF90AF900895AF926B
:103AF000CF92EF920F93CF93DF9300D000D0CDB74A
:103B0000DEB743E0BE016F5F7F4F0196E4D68AE6E1
:103B10008093DB0894E29093DA0891E29093D908BD
:103B20008093D80880E88C83A12CC12C8FE0E82EEC
:103B300003E026E043E060E0CE010196D0DE0F9086
:103B40000F900F900F90DF91CF910F91EF90CF904A
:103B5000AF900895A9E1B0E0E0EBFDE10C944635AB
:103B60007E012DE0E20EF11C4BE0B7010196B3D6C9
:103B7000182F85E38093DB0896E19093DA08909301
:103B8000D9088093D808612FC7010E94AB13F701B1
:103B9000E10FF11D808399249394910E198E19825F
:103BA000670127E0AA24A394B12C8C2D8E198915C6
:103BB00008F044C000E010E0C501002E01C0880FED
:103BC0000A94EAF7F6019081AE01475E5F4FBE01AD
:103BD0006F5F7F4F892370DC282F0F5F1F4F0430EA
:103BE000110551F7AE01475E5F4FBE016F5F7F4F1A
:103BF00081E062DC282FC501002E01C0880F0A94E5
:103C0000EAF7F6019081AE01475E5F4FBE016F5F3C
:103C10007F4F892351DC282F0F5F1F4F083011057C
:103C200051F7AE01475E5F4FBE016F5F7F4F81E08E
:103C300043DC282FFFEFCF1ADF0AB7CFA12CC12C0E
:103C40008AE0E82E03E0498D6AE0CE01019647DE66
:103C50006996EBE00C946235A9E1B0E0E2E3FEE1A5
:103C60000C9445358E01035F1F4F4BE0B801019660
:103C700032D6282F893009F05DC039E13093DA0857
:103C80003093DB083093D90832E33093D808992772
:103C900030E02150F801E20FF11D4081342721115D
:103CA000F8CFF801E80FF91F3083198E19827801D7
:103CB00027E088248394912CC12CD12CBE2CB01ADF
:103CC000F9E0FB1528F1C4010C2C01C0880F0A94FF
:103CD000EAF7F7019081AE01475E5F4FBE016F5F6B
:103CE0007F4F8923E9DB282FFFEFCF1ADF0A88E017
:103CF000C816D10429F7AE01475E5F4FBE016F5F62
:103D00007F4F81E0D9DB282FEFEFEE1AFE0AD4CFE8
:103D1000222311F0215004C0898D8F5F898F27E005
:103D2000A12CC12C8AE0E82E03E0498D6CE0CE0185
:103D30000196D5DD6996ECE00C946135AF92CF9297
:103D4000EF920F93CF93DF93CDB7DEB760970FB6A7
:103D5000F894DEBF0FBECDBF40E1BE016F5F7F4F65
:103D60000196B9D569814A810B818C818093DB08EA
:103D70008D818093DA088E818093D9088F8180931A
:103D8000D808E02EE2948FE0E8220F70242F2F70E5
:103D900042954F70A12CC12CCE010896A0DD6096F3
:103DA0000FB6F894DEBF0FBECDBFDF91CF910F915C
:103DB000EF90CF90AF900895FC012FB7F8948281D7
:103DC000811102C02FBF08959FEF980F92839181B8
:103DD00081E0890F8183DF01A90FB11D13969C91AA
:103DE000803809F411822FBF892F0895FC019FB7F5
:103DF000F894828187FD0EC08F5F8283208181E0ED
:103E0000820F8083DF01A20FB11D13966C9380385F
:103E100009F410829FBF0895ADE0B0E0E2E1FFE158
:103E20000C9444357C01022FFC01E60FF11D862F16
:103E3000882339F08150D701A80FB11D9C91490FFB
:103E4000F7CF408311E0160F1D86198227E0712CF1
:103E5000CC24C394D12C97E0A92EB12C4701870C18
:103E6000911C711658F5C6010A2C01C0880F0A94DE
:103E7000EAF7F4019081AE01435F5F4FBE016F5FCF
:103E80007F4F892319DB282FF1E0AF1AB10848F7DB
:103E9000F4018081082E82958025082E86958695CE
:103EA00080258F5F86958170AE01435F5F4FBE01B5
:103EB0006F5F7F4F01DB282F7394CDCF222311F04A
:103EC000215004C08D858F5F8D8727E089E1809325
:103ED000DA088093DB0885E28093D8088093D908BC
:103EE000A12CC12C8AE0E82E4D856CE0CE01019614
:103EF000F6DC2D96EDE00C946035ACE0B0E0E3E844
:103F0000FFE10C944F354BE0BE016F5F7F4F019690
:103F1000E2D423E046E0682FCE0101967DDF2C96A7
:103F2000E2E00C946B35CF9380916E09843009F0F8
:103F300084C08093E9008091E608811123C08091BC
:103F4000E80085FF1FC08091F2009091F300892B5B
:103F500031F06091F10087EE98E048DFF4CF809176
:103F6000E800982F9B7F9093E8008F778093E8007C
:103F700081E08093E608E091E308F091E408099578
:103F80001092E60883E08093E90080912E03882355
:103F900009F453C08091E80085FF4FC0CFB7F89473
:103FA00080912E03882369F08091F2009091F300B4
:103FB0008034910530F48CE293E0FEDE8093F100D2
:103FC000EFCFCFBF2091F2003091F3008091E80055
:103FD000982F9E7F9093E8008F778093E80020349D
:103FE000310559F585E69091EC0090FF0EC0909157
:103FF000E80090FF0EC08091E800982F9E7F90937C
:10400000E8008F778093E80018C09091E80092FD57
:10401000F2CF90916E09992371F39091EB0095FD89
:10402000EACF9091E10092FFDECF9091E1009B7F7B
:104030009093E1008150B9F6DECFCF910895FC0155
:104040009FB7F8944091C7085091C8086091C9087B
:104050007091CA0840835183628373839FBF089520
:10406000A4E0B0E0E6E3F0E20C944F35CE01019617
:10407000E6DF8C810E943F0B8B810E943F0B8A817F
:104080000E943F0B89810E943F0B0E94F70B2496F0
:10409000E2E00C946B351F920F920FB60F92112431
:1040A0002F933F934F938F939F93AF93BF93EF9330
:1040B000FF938091C7089091C808A091C908B0915A
:1040C000CA080196A11DB11D8093C7089093C80826
:1040D000A093C908B093CA088091E5088F5F8093C8
:1040E000E50880E090E0FC01EE0FFF1FEE54FC4F6E
:1040F000208131812F3F3F4F59F0208131811216AD
:10410000130634F420813181215031093183208319
:1041100003968C30910539F78091CA039091CB03B7
:10412000892B49F08091CA039091CB03019790931A
:10413000CB038093CA038091F0038F3F29F08091D5
:10414000F00381508093F003FF91EF91BF91AF9105
:104150009F918F914F913F912F910F900FBE0F9094
:104160001F901895EF92FF920F931F93CF93C82F34
:104170008A3008F0C8E028E0C29F800111248BE259
:1041800090E00B521109FC01E00FF11FE954F84FC8
:1041900064917C012FEFE21AF20A0E947509C701AF
:1041A0008333910581F7C550C53010F067E101C038
:1041B00061E184E290E00E947509CF911F910F9117
:1041C000FF90EF9008958EBD0DB407FEFDCF8EB524
:1041D00008952898F8DF289A08950F931F93CF9396
:1041E000CFEF04E110E084E3F4DFC1508077803149
:1041F00029F0C8010197F1F7C111F5CFEA9ACF91E3
:104200001F910F9108950F931F93CF93EA9886E320
:10421000E0DFCFEF04E110E085E3DBDFC150807722
:10422000803229F0C8010197F1F7C111F5CFCF9184
:104230001F910F910895CF93C62F28988064C3DFF4
:104240008C2FC1DF289ACF9108952898806CBBDF0E
:1042500080E0B9DF289A0895A2E0B0E0E2E3F1E25D
:104260000C944D358C01FC0181818737F9F441E0D4
:10427000BE016E5F7F4FC80102962DD3892BB1F02E
:1042800041E0BE016F5F7F4FC801049624D3892BA4
:1042900069F069818A81CFDF83E39BDF9EDF8A81BA
:1042A0000E943F0B89810E943F0B32C041E0BE015A
:1042B0006F5F7F4FC80101960ED3892B59F1898119
:1042C000893979F410E0812FC0DF0E943F0B812FE4
:1042D0008770873011F40E94F70B1F5F103399F736
:1042E00019C0B3DF182F83E40E94430B89810E9419
:1042F0003F0B8BE098E00E94160C812F0E943F0B31
:1043000087E098E00E94160C62E0812F90E027D1B0
:104310000E94F70B2296E4E00C946935EF92FF922D
:104320000F931F93CF93DF93EC011092DD08EA986F
:10433000209A289A8CE390E0FC013197F1F72898B5
:104340000197F1F7289A8AE590E00197F1F780E369
:1043500040DF88EC90E00197F1F7289880E433DFA4
:104360008E01075D1F4F7E018FEFE81AF80ACE011C
:104370000E94560928DFE701E016F106A1F7289A06
:1043800028988EE720DF8BE290E0EC0121960E94D6
:10439000560919DFCE01E397C1F7289A83E319DFA5
:1043A00081E00E94A10ECDB7DEB7E6E00C94673540
:1043B00082E090E0B3DF81E08093DC081092DF08B8
:1043C0001092DD080895A1E0B0E0E9EEF1E20C946E
:1043D0004F3522E0298341E0BE016F5F7F4F019698
:1043E0007AD28981BFDE82E090E098DF2196E2E018
:1043F0000C946B351F93CF93DF93C0916A09809320
:104400006A098091E908882309F43DC087EE98E0A5
:10441000D3DCE091F7098A3011F08D3049F5EE23B5
:1044200081F3F0E0EA58F64F10824091760930E0CF
:10443000832F90E0FC01EE0FFF1F8E0F9F1FFC01EA
:10444000E15FF74F2491FC01E05FF74F65917491B4
:104450002223F9F0241305C086E799E0FB010995B2
:1044600004C03F5FE5CF0E94F70B1092F709C9CF58
:10447000E7FDC7CF91E09E0F9093F709F0E0EA586F
:10448000F64F8083BECFC0936A09DF91CF911F9111
:1044900008958EE798E00E94160C86E799E00E9446
:1044A000960E86E698E00E94160C10E0812F90E0B0
:1044B0009C01220F331F280F391FF901E15FF74FCD
:1044C000D491F901E05FF74F85919491DD2359F282
:1044D00080E20E94430B8D2F0E94430B1F5FE6CFAB
:1044E000A5E0B0E0E6E7F2E20C944F35AC011D82A6
:1044F00094E0242F2F709150E92FF0E02A3010F42F
:10450000205D01C0295CA1E0B0E0AC0FBD1FEA0F47
:10451000FB1F208384E0569547958A95E1F761500B
:104520004115510531F780E3615067FD0BC09923B8
:1045300049F09150E1E0F0E0EC0FFD1FE90FF11DB3
:104540008083F2CF21E030E02C0F3D1F290F311D79
:10455000C9010E94960E2596E2E00C946B35A6E008
:10456000B0E0E5EBF2E20C944D35362F1E8225E0EB
:10457000EAE0F0E0215001E010E00C0F1D1F020FF7
:10458000111DBF010E948535805DD8018C93CB0140
:104590003150009711F480E20DC02111EBCFFBCF19
:1045A000222359F02150E1E0F0E0EC0FFD1FE20F73
:1045B000F11D8083315037FFF3CF81E090E08C0F05
:1045C0009D1F820F911D0E94960E2696E4E00C948A
:1045D00069358FE699E00E94C809009799F020910B
:1045E0007509FC013081231768F4E20FF11D808109
:1045F0008093710989E7809372098181809373099F
:1046000081E0089580E008958091D8008E7F8093A6
:10461000D8001092E2001092DA001092E10010929D
:104620006E0910926D0910926C0910926B098AE460
:1046300082BF19BC89B5826089BD09B400FEFDCF77
:104640008091D800982F9F779093D80080688093AE
:10465000D8008091D70081608093D7008091D800E6
:104660008F7D8093D8008091E0008B7F8093E00065
:104670008091E0008E7F8093E0008091E1008E7F4A
:104680008093E1008091E20081608093E20080915C
:10469000E100877F8093E1008091E2008860809351
:1046A000E2008091D80081608093D80008958093C3
:1046B000E900EBEEF0E0808181608083EDEEF0E0D8
:1046C00010826093EC0040838091EE00881F882761
:1046D000881F08951F920F920FB60F9211242F93E7
:1046E0003F934F935F936F937F938F939F93AF937A
:1046F000BF93EF93FF938091DA0080FF13C0809106
:10470000D80080FF0FC08091DA008E7F8093DA009E
:104710008091D90080FF04C081E080936E0902C0BF
:1047200010926E098091E10080FF1CC08091E20030
:1047300080FF18C08091E1008E7F8093E10080911E
:10474000E2008E7F8093E2008091E200806180939E
:10475000E2008091D80080628093D80019BC85E087
:1047600080936E098091E10084FF28C08091E2006F
:1047700084FF24C019BC89B5826089BD09B400FEDC
:10478000FDCF8091D8008F7D8093D8008091E1008B
:104790008F7E8093E1008091E2008F7E8093E20023
:1047A0008091E20081608093E20080916D09811127
:1047B00002C083E001C084E080936E098091E10033
:1047C00083FF37C08091E20083FF33C08091E10016
:1047D000877F8093E10082E080936E0910926D09DB
:1047E0008091E1008E7F8093E1008091E2008E7FD6
:1047F0008093E2008091E20080618093E200109259
:10480000F40080E08093E9001092F0001092E8003C
:104810009091ED009D7F9093ED009091EB009E7F35
:104820009093EB008F5F873069F742E060E080E0B3
:104830003EDFFF91EF91BF91AF919F918F917F915B
:104840006F915F914F913F912F910F900FBE0F90FD
:104850001F901895982F92959F709A3010F4905D44
:1048600001C0995CFB0190838F708A3010F4805DE9
:1048700001C0895CFB0181830895FC0190E03191C6
:10488000332361F080ED830F8A30C8F7990F292F09
:10489000220F220F920F9053930FF1CFFB019083C1
:1048A0000895FC0120E030E08AE09191992379F0AD
:1048B00040ED490F4A30C8F7829FA001839F500DF9
:1048C00011249A0120533109290F311DEECFFB012C
:1048D000318320830895DC01FB0130E020E09D91CD
:1048E0009923C9F0913608F0905280ED890F8A30F3
:1048F00010F4982F05C08FEB890F863028F497535A
:10490000922B332381F005C0903249F39A3319F486
:10491000E6CF411104C0CF01861B970B0895908309
:1049200041503196DACF292F2295207F31E0D7CF21
:10493000A6E4B0E0EEE9F4E20C943F359FE088E1B4
:104940000FB6F894A895809360000FBE9093600016
:1049500090E080E80FB6F894809361009093610036
:104960000FBE2E9A2D9A04B603FE13C083E390E087
:104970000E945609882369F060E083E390E00E947A
:104980007509F89481E085BF82E085BFE0E0F8E337
:10499000099589EF87BD84E085BD82E084BD809361
:1049A0006E00109280008AE08093810084B7877F38
:1049B00084BF6E9A809164008B7F80936400299AF3
:1049C00084B1876084B9239880E58CBD8DB5816002
:1049D0008DBD80E090E00E945609813031F481E085
:1049E00090E00E9456098A3121F080E090E00E9418
:1049F0008B0A84E390E00E94560980932C0104DE28
:104A00008091D80080618093D80081E08093A004D9
:104A100078940E94150A539A5B9852988091690085
:104A200080618093690082EC91E09093D708809335
:104A3000D60810922605109265051092A4051092D2
:104A4000DC088AEF91E29093E4088093E30880E623
:104A500090E00E9456098093E50581E690E00E946F
:104A600056098093E605882329F081E28093DE08C9
:104A70000E94CD131092E70589E080936A090E9495
:104A80005A0A769852E1252E312C80916E0988239E
:104A900009F482C21091E90017701092E900809128
:104AA000E80083FF77C2E8EAF1E080EB91E0209133
:104AB000F10021938E179F07D1F78091A801909163
:104AC000A901492F50E04A30510508F08EC1FA0182
:104AD000EA5AFF4F0C94AC35803879F0823809F0EF
:104AE0004BC28091AC018093E9008091EB0085FB83
:104AF000882780F91092E90006C080916B09909197
:104B00006C09911182609091E800977F9093E80082
:104B10008093F1001092F1008091E800982F9E7F21
:104B20009093E8008F778093E8008091E80082FD01
:104B30000DC280916E098111F8CF1EC2282F2D7FE2
:104B400009F053C1882319F0823061F036C080919A
:104B5000AA01813009F010C2933009F080E08093FF
:104B60006C092BC08091AA01811127C08091AC01F2
:104B7000877009F401C28093E9002091EB0020FFC7
:104B80001CC09130A9F49091EB0090619093EB00E0
:104B900021E030E0A90102C0440F551F8A95E2F7D9
:104BA0004093EA001092EA008091EB00886003C015
:104BB0008091EB0080628093EB001092E90080917D
:104BC000E800877F8093E800CEC18111D5C1809134
:104BD000AA019091E800977F9093E8009091E800F7
:104BE000292F2E7F2093E8009F779093E8009091E3
:104BF000E80090FD05C090916E099111F8CFBCC1FD
:104C00008F77982F90689093E300882309F4B4C1BC
:104C100083E080936E09B0C18058823008F0ACC147
:104C20008091AA019091AB01292F332722303105C1
:104C300011F40C9445332330310531F02130310526
:104C400009F09AC10C943F3399278130910559F0AE
:104C500018F0029779F090C1EDE4F1E0E491F0E012
:104C60008DE491E012C0E5E3F1E0E491F0E085E34A
:104C700091E00BC01E9903C085E191E002C085E27E
:104C800091E0E5E2F1E0E491F0E0309709F474C1DD
:104C90002091E800277F2093E8002091AE01309119
:104CA000AF01E217F30708F49F0150E02115310529
:104CB000B9F14091E80043FD49C14091E80042FD4F
:104CC00037C040916E09442309F440C14091E80087
:104CD00040FFECCFFC01CF012115310571F040916F
:104CE000F2005091F3004830510538F484918093DC
:104CF000F100215031093196EECF6091F2007091B0
:104D0000F30051E06830710509F050E04091E8008F
:104D1000642F6E7F6093E8004F774093E800C6CF22
:104D20005111C7CF05C080916E09882309F40EC1C7
:104D30008091E80082FFF7CF09C1803809F01CC1DB
:104D40008091E800877F8093E80080916D098093CF
:104D5000F1008091E800982F9E7F9093E8008F7774
:104D60008093E8008091E80082FDF0C080916E0998
:104D70008111F8CF01C18111FFC08091AA019091EA
:104D8000AB01992702970CF0F7C08091E800877F6C
:104D90008093E8008091AA0180936D098091E800DA
:104DA000982F9E7F9093E8008F778093E800809102
:104DB0006D09882311F084E001C083E080936E09BF
:104DC00042E061EC82E073DC42E361E883E06FDCA7
:104DD00042E360E884E06BDC109200011092010174
:104DE0001092020110920301C7C0913239F0923241
:104DF00009F498C0903209F458C0BEC0813A09F055
:104E0000BBC08091E800877F8093E8008091AE016D
:104E10009091AF018730910510F087E090E030E08D
:104E200040E051E00097A1F12091E80023FD8EC001
:104E30002091E80022FD34C020916E09222309F45C
:104E400085C02091E80020FFEDCFFA01AF01009767
:104E500061F02091F2003091F3002830310528F400
:104E600021912093F1000197F1CF6091F2007091B0
:104E7000F30031E06830710509F030E02091E8007E
:104E8000622F6E7F6093E8002F772093E800CACFEF
:104E90003111CACF05C080916E09882309F456C02C
:104EA0008091E80082FFF7CF51C0813209F064C0E1
:104EB0008091E800877F8093E80040E051E087E040
:104EC00090E0009751F12091E80023FD4CC0209123
:104ED0006E09222309F447C02091E80022FFF1CF98
:104EE0002091F2003091F300232B49F04F5F5F4F88
:104EF0002091F100FA0131972083019789F72091E1
:104F0000E800322F3B7F3093E8002F772093E800B2
:104F1000D8CF80916E09882331F18091E80080FF1D
:104F2000F8CF21C0813241F58091E800877F8093DE
:104F3000E8008091A80187FF12C08091E80082FDFF
:104F400005C080916E098111F8CF16C08091E800EC
:104F5000982F9B7F0CC080916E09882369F0809107
:104F6000E80080FFF8CF8091E800982F9E7F909313
:104F7000E8008F778093E8008091E80083FF0AC003
:104F80008091EB0080628093EB008091E800877F46
:104F90008093E8001093E9000E94931F22961FAEB1
:104FA00022978091E4048823B1F18091DE0887FF85
:104FB00016C084E34AD98058803458F0803C58F4B5
:104FC00090E08055910933E0959587953A95E1F702
:104FD00003C080E001C08FE08F590E94430B809195
:104FE000DE0883FF16C082E70E94430B8091DE0833
:104FF00084FF04C08091E5040E94430B86E60E9472
:10500000430B8091DE0884FF04C08091E4040E9479
:10501000430B1092E4048091E304882309F43AC41A
:10502000769A0091E8015FE3059F80011124095100
:105030001B4F8091E604823009F065C01D8287E035
:105040008E83C80104969A838983D8018C91853018
:1050500009F059C011962C91119713963C9187E055
:1050600090E0831B9109B8E02B9F800D911D1124C6
:105070008039910509F047C0BEEACB2EB4E0DB2EA3
:105080008DEBA82E84E0B82E99E8992E2FE0E22E21
:1050900020EFF22E41E068E0CE0101960E948E10D2
:1050A000E80EF11C9826F60191926F01A4E29A2E67
:1050B000980EAE16BF0671F741E068E0CE0101968A
:1050C0000E948E10E80EF11C80958093BD0480E153
:1050D00022968FAF229741E068E0CE0101960E94B0
:1050E0008E1090E0982F8827E81AF90A41E068E0CE
:1050F000CE0101960E948E1090E0E816F90619F490
:10510000E3E5BE2E01C0B12C8091E604823009F0A7
:105110008DC0B1108BC0D8018C91843009F086C04D
:105120001D8287E08E83C80104969A838983119635
:105130002C91119713963C9187E090E0831B910985
:10514000B8E02B9F800D911D1124853491050CF43E
:105150006DC06EEAE62E64E0F62E74EBC72E74E0A6
:10516000D72E912C40E068E0CE0101960E948E106F
:105170003701F7018083A82E0A2CA294A0240A2CC0
:10518000A694A694A024CE0101960E947310A39425
:10519000A1FAAA24A0F82496AFAE249725961FAEB4
:1051A000259790E025962EAD3FAD25972817390716
:1051B00009F03CC0CE0101960E947310811136C0E7
:1051C0003FEFE31AF30AD3018C919826CE14DF0443
:1051D00049F686E022968FAF229740E068E0CE0144
:1051E00001960E948E10E82EF82E0F2CF294F024D7
:1051F0000F2CF694F694F024CE0101960E947310C1
:10520000F394F1FAFF24F0F82696FFAE269727963E
:105210001FAE279790E02796EEADFFAD2797E817D2
:10522000F90721F49E1002C058E4B52ED8018C91E4
:10523000833009F0AEC0B11049C0AE014F5B5F4F83
:1052400066E4C8010E94EE12882309F43FC022964A
:105250008FAD2297815022968FAF2297282F96E00C
:10526000222341F02150E22FF0E0E255FB4F308144
:10527000930FF6CFE82FF0E0E255FB4F6081691302
:1052800002C0843008F5292F30E02F5F3F4F462FB2
:1052900050E02417350711F4843018F4982F2CE0CF
:1052A00002C0908311C0992341F09150E92FF0E0A2
:1052B000E255FB4F3081230FF6CF621307C08430D5
:1052C00028F034E5B32E02C046E4B42E8091E60403
:1052D000823021F5B1105DC0AE014F5B5F4F65E4D8
:1052E000C8010E94EE128823D9F022968FAD229732
:1052F000815022968FAF2297893091F490E08150AF
:10530000E82FF0E0E255FB4F208192278111F7CF83
:105310008091B704891304C00C948833B11077C00E
:105320001D8287E08E83C80104969A838983D80101
:1053300011968C91843011F00C945233F8018381D2
:10534000813011F00C9452332EEAE22E24E0F22E3A
:10535000D12C41E0D1100C944B3367E0CE01019683
:105360000E948E108068D7018D937D01D394B4E0A4
:10537000DB12EFCF41E067E0CE0101960E948E1074
:10538000880F8093B20485E022968FAF229794E72E
:10539000B92E8091E6048230B9F5B11038C0F80119
:1053A0008181843009F015C18381843009F011C1F5
:1053B000F0802F2D4EE16CE3C801C7960E94F010DB
:1053C000882309F406C12F2D4EE16091E504C80140
:1053D000C9960E94F010682FC8010E94C31080E097
:1053E000282F30E0F901E255FB4FD801A20FB31F7F
:1053F00014969C9190838F5F853091F722968FAFA2
:105400002297B2E5BB2E03C0BB2009F4E2C0909105
:10541000DE0890FFDEC08091E7018E7F8B7F809356
:10542000E701F92FF270FF2E91FD5CC0CE010196CD
:105430000E941F204091E60122963FAD2297431320
:1054400034C020E02417B0F4822F90E051E0520FD6
:10545000FC01EC54FE4FDC01A255BB4F60818C91E6
:10546000681731F08091E7018D7F8093E70102C0DA
:10547000252FE8CF421319C089819A81AB81BC8165
:105480004091B0015091B1016091B2017091B301AE
:10549000841B950BA60BB70B8697A105B10528F4C5
:1054A0008091E70181608093E701F31660F48F2D0E
:1054B00090E0FC01EC54FE4FDC01A255BB4F8C91F7
:1054C0008083F394F2CFF092E60189819A81AB81D7
:1054D000BC818093B0019093B101A093B201B093CD
:1054E000B30104C08D7F81608093E70124E5B2128F
:1054F00020C08091DE0886FD1CC022968FAD2297C9
:105500008530B8F08091B0048B3471F0893661F049
:105510009DEA980F923040F08D57823028F08091AC
:10552000B1048077803729F48091E701816080930E
:10553000E7018091E70180FD03C084608093E7016B
:1055400034E5B3120DC08091E605882349F08091BF
:10555000DD03811105C08091E7018B7F8093E70116
:105560008091E70182FF35C08B2D0E94430B809113
:10557000E004882339F022968FAD2297815022963D
:105580008FAF2297F12C2296EFAD2297FE1648F4AA
:10559000EF2DF0E0E255FB4F80810E943F0BF3942A
:1055A000F2CF8091E004882349F0F0E0E255FB4F10
:1055B00080818F7061E090E00E9470228091DE080F
:1055C00085FF05C084E30E9425210E943F0B0E94B5
:1055D000F70B8091DE0882FF94C080E70E94430BA6
:1055E000D8018C9162E090E00E94AF22F80187A977
:1055F00065E0F0E18F9FC00111240E94AF22D80125
:10560000D8968C9165E0B0E18B9FC00111240E9477
:10561000AF22F80181AD65E0F0E18F9FC001112458
:105620000E94AF22D801DA968C9165E0B0E18B9FA1
:10563000C00111240E94AF22F80183AD65E0F0E1C2
:105640008F9FC00111240E94AF22D801DC968C915B
:1056500065E0B0E18B9FC00111240E94AF22F801E8
:1056600086A964E090E00E94AF22D80112968C9146
:1056700063E090E00E94AF22F801818163E090E056
:105680000E94AF22D80113969C9162E027E030E09F
:10569000F901E91BF109CF010E94AF22D801DD9683
:1056A0008D919C91DE9765E0A4E0880F991FAA95E3
:1056B000E1F70E94AF2280E20E94430B8091DE0856
:1056C00085FF08C084E30E9425210E943F0B80E2F1
:1056D0000E94430BF8018381873019F081818F5F2D
:1056E0008183F12CD80111968C91F81640F4F801C1
:1056F000EF0DF11D84810E943F0BF394F3CF0E94C4
:10570000F70BF801108216AA8091E3048150809370
:10571000E3048091E8018F5F843019F08093E80101
:1057200002C01092E80176988091E604823009F078
:10573000B1C0F4E5BF12AEC0D090AE04E090AF04AB
:105740001091B0040091B104F090B2048FE5809301
:10575000F0031092F1038091DD03811105C0809167
:10576000DC03882309F496C080916F09D81204C025
:1057700080917009E81631F00E94ED09D0926F090E
:10578000E09270098091EF038F3F09F483C010937A
:10579000710900937209F09273091123F9F08111D4
:1057A0001DC08091DD03F81669F024E6F21651F071
:1057B0008DEA810F823010F01D3739F48FEF80931E
:1057C000EF0368C0143509F465C0802F807F8036F0
:1057D00009F060C0006700937209CBC70E94E922FC
:1057E000811105C08091EF03882309F453C0809193
:1057F000EE03811107C0E091EF03F0E0EF5AFE4F96
:10580000E49101C0E82FE33541F4143531F490916F
:10581000EF039E5F9093EF0305C01E1719F00E94DF
:10582000ED0938C0882371F0809175098E5F8093EF
:1058300075090E94E92281110EC08091EF038E5FED
:105840008093EF038091EF03E82FF0E0EE5AFE4FD4
:1058500014911F3F61F4809171098093EE038436A7
:1058600009F087C78091AF038093730982C71093B3
:10587000710997E7909372099091DD0390937309F2
:105880008E5F8093EF031092EE038E3009F458C7B9
:1058900011116FC78091C7089091C808A091C908DD
:1058A000B091CA082091EA01281709F461C18091DA
:1058B000C7089091C808A091C908B091CA08809300
:1058C000EA01A895EEEDAE2EE3E0BE2EE12CF12C20
:1058D000712CFAEF6F2E2FB7F894F701EE0FFF1F20
:1058E000EE54FC4F808191812FBF892B09F05CC061
:1058F0008091B103811158C0D50112968C918770A7
:1059000020E830E0281B3109629EC001639E900DA3
:105910001124959587959595879591838083670147
:10592000B2E0CB0ED11CCC0CDD1CF601EE54FC4FCA
:105930004F018081918101969183808387010F5F60
:105940001F4F000F111FF801EE54FC4F8081918111
:10595000892B51F4D4018D919C91049729F4872DC2
:105960000E94F809F4011EC00E541C4FD8018D91FD
:105970009C91019749F4872D0E94F80922E030E0BC
:10598000F8013183208310C0D8018D919C9102973A
:1059900059F4872D0E94F809F80111821082F6014E
:1059A000EE54FC4F118210827394F3E0EF0EF11C61
:1059B00024E0A20EB11C3CE0E316F10409F08BCF09
:1059C0002FB7F8948091CA039091CB032FBF892BF6
:1059D00009F05BC08091DC038A831B829091B00345
:1059E000992389F0933019F487E791E002C08DE79D
:1059F00090E09093CB038093CA030CEC13E0F12C5E
:105A00003CE2E32E2DC0877090E08A519F4F4DE716
:105A1000489F9001499F300D1124C90195958795A4
:105A2000E8CF8091DD038F0D89838091B0038823B7
:105A3000E1F0EC828D8321E04CE065E0CE0101963F
:105A40000E940C1F8091DE0886FF04C0CE010196E3
:105A50000E94FB0BF3940E5F1F4FF8E0FF1649F016
:105A6000D8019C919F3FE9F6F5CF9C83F801818195
:105A7000E1CF8091B003882341F0833019F4109274
:105A8000B00303C082508093B0038091F003811172
:105A900011C08091F103882359F00E94050F89E21B
:105AA0008093F0038091F10381508093F10302C051
:105AB0000E94ED0980912B03882359F18150809336
:105AC0002B03811126C0E091E3052FE3E29FF00153
:105AD0001124E951FB4F808181110AC02091F0030C
