:1000000076C100009FC500008FC100008DC10000B7
:100010008BC1000089C1000087C1000085C10000BC
:1000200083C1000081C100007FC100000C946209FF
:100030007BC1000079C10000C5C2000075C100008D
:1000400073C1000071C100000C9445140C94FE13A0
:100050006BC1000069C1000067C1000065C10000FC
:1000600063C1000061C10000504C4C310D0A0050CA
:100070004C4C300D0A0000030F1E26270000000321
:100080000F1E2536386700030F25674060500003B8
:100090000F275188838100030F2750C8C3C2002750
:1000A0000000000000000067000000000000005099
:1000B000000000000000008100000000000000C2FD
:1000C000000000000000202F2000203D2000202FF5
:1000D0002000203D20000007022E030D04E905CA80
:1000E000070C0B060D210E650F6A10C81193120341
:1000F00015341733181819161B43215625002611DD
:1001000029592C812D353EC34552523A4343410D66
:100110000A000302FF0000000000000000000000D1
:10012000000000000000030210881182FF000000A0
:100130000000000000000000000003071088110B01
:100140000D210E6B0FD01553FF00000000000B06B1
:100150000D210E650F6A1700181819161B431C682D
:10016000250026110001024605D4042D03020700D4
:1001700008021089115C12061556FF007370656342
:100180006966792076616C6964206D6F6465206EA4
:10019000756D6265720D0A00424F56460D0A0007E2
:1001A0002E050DD391FF080500000C0021656A2D76
:1001B0003B1322F862073F181D1CC700B0876BF87D
:1001C000B611EA2A001F41000D2E2D07D3913D04E0
:1001D000320000060021656A57C43023B9000700C9
:1001E00018146C070090876BF85611E92A001F411C
:1001F000002028462D42616E643A203836384D483A
:100200007A29002028462D42616E643A2034333327
:100210004D487A29006E616E6F43554C3836380070
:100220006E616E6F43554C343333005620312E329D
:10023000362E31303220612D63756C667720427521
:10024000696C643A203130322028323032362D3019
:10025000312D32362031353A31303A3133292000D0
:100260000D2E2D07D3913D04320000060010B07111
:1002700055E43023B900070018146C070090876B11
:10028000F85611E92A001F410041F60A42A20C4328
:10029000840365250D46801366250447481369C10C
:1002A0000B4B3E124C6A046CCA0C4DBD124ED3046B
:1002B000525F0254290274CC0255111256860C5713
:1002C000DC0C58AD0A78BB0400000020697320756F
:1002D0006E6B6E6F776E2920557365206F6E65208B
:1002E0006F66003F2028004C4F56460D0A0011242F
:1002F0001FBECFEFD8E0DEBFCDBF11E0A0E0B1E080
:10030000E0EFF7E302C005900D92A231B107D9F7F3
:1003100023E0A2E1B1E001C01D92AD3BB207E1F7DD
:100320000E949C140C94F61B6BCE0C947C1B0895BD
:1003300085E390E0FADF8093550186E390E0F5DFF6
:10034000809354010895A2E0B0E0E9EAF1E00C9452
:10035000C01B1A82198242E0BE016F5F7F4F0E946C
:10036000E111823031F489819A8198278927982771
:1003700002C0898190E0D9DF2296E2E00C94DC1B78
:100380000E94841BF999FECF0895CF93DF9388E0F4
:1003900091E0D9DFC82F8BE091E0D5DFD82F8EE038
:1003A00091E0D1DF4C2F50E060E070E0BA015527BA
:1003B0004427480F511D611D711D8D2F90E0982F0E
:1003C00088279A01AB01280F391F411D511DAAE151
:1003D000B0E00E94A61B853F914010F082E001C072
:1003E00081E080935F01DF91CF91089562E090E01A
:1003F0000C94E21090917D0290FF0FC09091FC014F
:100400009E3730F097FD09C08D3011F08A3029F405
:10041000682F8AEF91E00C942F1408950F931F9387
:10042000CF93CFEFC60FCF3F61F08C010F5F1F4F0F
:100430007CDFDCDFCC2311F08AE3DCDFC150C801B4
:10044000F2CFCF911F910F9108958DE0D3DF8AE015
:10045000D1CFA6E0B0E0EFE2F2E00C94C01B45E0A3
:10046000BE016F5F7F4F01960E94E1118430B0F4AE
:100470009981913091F4833051F46A8185E390E061
:100480007FDF6B8186E390E07BDF52DF07C08091E6
:100490005501ACDF80915401A9DFD7DF2696E2E059
:1004A0000C94DC1BCF93DF93EC01FE018491882335
:1004B00019F0A0DF2196F9CFDF91CF910895A2E046
:1004C000B0E0E5E6F2E00C94BD1BFC0121812D3487
:1004D00021F466E08AEF93E005C0203529F460E15D
:1004E0008AED93E09BDF29C01A82198242E0BE01A7
:1004F0006F5F7F4F01960E94E111823031F40981D4
:100500001A8110270127102702C0098110E0C801B5
:100510000CDFF82E82E56EDF64E0C8010E94E21075
:1005200082ED90E0BFDF8F2D61DF8EEC90E0BADFCF
:1005300062E08F2D90E00E94211187DF2296E5E096
:100540000C94D91BCF93DF93EC018991882311F090
:1005500051DFFBCFDF91CF91089520ED37E081503F
:1005600020F0F9013197F1F7FACF0895880F991F1C
:100570000197F1F70895FC019FB7F894409150015D
:100580005091510160915201709153014083518308
:10059000628373839FBF0895A4E0B0E0E2EDF2E0D0
:1005A0000C94C01BCE010196E6DF8C811FDF8B818E
:1005B0001DDF8A811BDF898119DF47DF2496E2E096
:1005C0000C94DC1B1F920F920FB60F9211248F9385
:1005D0009F93AF93BF938091500190915101A0914F
:1005E0005201B09153010196A11DB11D809350019C
:1005F00090935101A0935201B093530180914F0108
:100600008F5F80934F01BF91AF919F918F910F901A
:100610000FBE0F901F901895EF92FF920F931F93AC
:10062000CF93C82F8A3008F0C8E028E0C29F80012D
:1006300011248BE290E00B521109FC01E00FF11F35
:10064000EA58FF4F64917C012FEFE21AF20A98DE1C
:10065000C7018333910589F7C550C53010F067E1B4
:1006600001C061E184E290E08BDECF911F910F9198
:10067000FF90EF9008958EBD0DB407FEFDCF8EB5AF
:1006800008952A98F8DF2A9A08950F931F93CF931D
:10069000CFEF04E110E084E3F4DFC15080778031D4
:1006A00029F0C8010197F1F7C111F5CFE89ACF9170
:1006B0001F910F9108950F931F93CF93E89886E3AE
:1006C000E0DFCFEF04E110E085E3DBDFC1508077AE
:1006D000803229F0C8010197F1F7C111F5CFCF9110
:1006E0001F910F910895CF93C62F2A988064C3DF7E
:1006F0008C2FC1DF2A9ACF9108952A98806CBBDF96
:1007000080E0B9DF2A9A0895A2E0B0E0EAE8F3E0D9
:100710000C94BE1B8C01FC0181818737F9F441E008
:10072000BE016E5F7F4FC80102960E94E111892BC6
:10073000A9F041E0BE016F5F7F4FC80104960E949F
:10074000E111892B59F069818A81CDDF83E399DF3B
:100750009CDF8A814BDE898149DE2DC041E0BE01EC
:100760006F5F7F4FC80101960E94E111892B21F133
:100770008981893969F410E0812FBFDF37DE812F4D
:100780008770873009F461DE1F5F1033A9F714C04A
:10079000B4DF182F83E42EDE898128DE8AEC90E016
:1007A00081DE812F23DE86EC90E07CDE62E0812F0B
:1007B00090E00E94211149DE2296E4E00C94DA1BBD
:1007C000EF92FF920F931F93CF93DF93EC01E89882
:1007D000229A2A9A8CE390E0FC013197F1F72A984B
:1007E0000197F1F72A9A8AE590E00197F1F780E303
:1007F00048DF88EC90E00197F1F72A9880E43BDF2E
:100800008E01075D1F4F7E018FEFE81AF80ACE01B7
:100810008CDD31DFE701E016F106A9F72A9A2A9864
:100820008EE729DF8BE290E0EC0121967EDD23DF6D
:10083000CE01E397C9F72A9A83E323DF81E08DDEB7
:10084000CDB7DEB7E6E00C94D81BFF920F931F9351
:10085000CF93DF93EC01FC0101900020E9F7319781
:100860008F01081B190B8981823741F487E390E0DF
:10087000A7DF0BDF81E08093F6011EC08337D1F440
:10088000F02E2A988FE7F7DE8EEF800FF4DE2296A7
:1008900012E01F1520F48991EEDE1F5FFACF2A9A2D
:1008A0000ADF8AE32ADF8F7719F081E056DEF9CF7D
:1008B000ECDE02C01092F601CDB7DEB7E5E00C9495
:1008C000D91B82E090E07CDF81E080937F02109270
:1008D00059010895A0E0B0E0E0E7F4E00C94B81B03
:1008E0008C016EE070E00E94711B8D3009F03EC0FB
:1008F000299A80917F02811101C0E3DFDCDEC4E030
:1009000080EDC82E87E0D82E58018DE0A80EB11CCE
:100910005B9AC6010197F1F77801EFEFEE1AFE0A34
:10092000F701D1917F015B98D13319F080ED97E009
:1009300002C088EE93E01ADE5B9AD13319F088EE9C
:1009400093E002C080ED97E011DEEA14FB0441F76A
:100950005B9883E202DEC150D9F680917E02882343
:1009600011F093DE02C086E38CDE2998CDB7DEB7A6
:10097000EAE00C94D41BA1E0B0E0E1ECF4E00C94CC
:10098000C01B22E0298341E0BE016F5F7F4F0196CB
:100990000E94E111898140DE82E090E011DF219622
:1009A000E2E00C94DC1BA1E0B0E0E9EDF4E00C9493
:1009B000B91B1982FC012181223709F06BC0228109
:1009C000222331F0BE016F5F7F4F02960E94C71154
:1009D000B9808FEF8B0D833020F08CE791E062DDE2
:1009E00067C0E898229A109258012A9A8CE390E006
:1009F000FC013197F1F72A980197F1F72A9A8AE5D5
:100A000090E00197F1F780E33CDE88EC90E00197FD
:100A1000F1F70EE411E0F8018491813468F0F4E11B
:100A2000BF9E80011124C12CD12C780184E1E81AE9
:100A3000F108035111091DC0F80131966491F801C4
:100A4000849151DE0E5F1F4FF1E00A381F0719F73E
:100A5000E6CFF801EC0DFD1DEE5EFE4F6491FC014A
:100A6000849141DEF2E0CF0ED11C84E1C816D1049E
:100A700049F0C7018C0D9D1D8E5E9E4FFC01249197
:100A8000213438F383E3FDDDB09258017EDC81E050
:100A900064DD0AC0283741F480915801882311F0A1
:100AA00086E3EFDD10925801809158019FDCCDDC88
:100AB0002196E9E00C94D51B362FDC011296ED91BE
:100AC000FC91139750E0BF01641B750B8D919C91B5
:100AD0006C307105E4F4653F7F4FCCF0632F70E01C
:100AE0009C01261B370B2C3031058CF4253F3F4FE2
:100AF00074F09F01280F391F640F751F261B370BD9
:100B00002C30310524F481E0253F3F4F0CF480E088
:100B1000089510925E0110925D0110926F00E091B5
:100B2000F90189E4E89FF0011124EC59FE4F10828D
:100B300080915B018D7F80935B0110928900109200
:100B4000880008951F920F920FB60F921124EF9212
:100B5000FF920F931F932F933F934F935F936F9346
:100B60007F938F939F93AF93BF93CF93DF93EF9335
:100B7000FF938091F601882321F082E08093F601B3
:100B80008AC3809184009091850074E09695879542
:100B90007A95E1F7C091F90129E4C29FE00111249F
:100BA000CC59DE4F4A9969C09093630180936201EA
:100BB00028812D3009F06FC3FE01E95BFF4F0190E2
:100BC000F081E02D9F01369527958217930740F01D
:100BD0009F01220F331F2E0F3F1F2817390718F4CC
:100BE00082E0888358C36FA978AD2BAD3CAD8B01F3
:100BF000020F131F16950795DC01BB274091F701E3
:100C00005091F8017C01EE0EFF1E0E151F05D8F461
:100C10003327B901660F771F260F371F2A0F3B1F97
:100C200035952795359527953CAF2BAF9C012A50DC
:100C300031092E173F0720F40A96E817F90790F0BC
:100C40004E5F5F4F11C0CB0199279C01220F331FCC
:100C5000820F931F8A0F9B1F959587959595879572
:100C600098AF8FAB4F5F5F4F5093F8014093F70100
:100C70008091F70180FF0FC302C220916201309181
:100C80006301821B930B909361018093600110922A
:100C900085001092840082E086BB88818D3009F047
:100CA00068C04091600150916101FE01E95BFF4F16
:100CB00060817181CB01969587954817590740F05F
:100CC000CB01880F991F860F971F8417950718F47B
:100CD00082E088834EC0E9ADFAAD8DAD9EAD8F0147
:100CE000080F191F169507952091F7013091F8010B
:100CF000DA01BB277A01E60EF71E0E151F05D8F4A0
:100D00009927FC01EE0FFF1F8E0F9F1F8A0F9B1F5D
:100D100095958795959587959EAF8DAFCA010A9752
:100D20008617970728F4465F5F4F6417750790F0A2
:100D30002E5F3F4F11C0AF015527CA01880F991F81
:100D4000480F591F4A0F5B1F559547955595479575
:100D50005AAF49AF2F5F3F4F3093F8012093F7010F
:100D60008091F70180FF97C260E0CE010E9470146D
:100D700092C20881023009F489C018F4002329F1D5
:100D800080C1063009F46FC10B3009F07AC180913F
:100D9000600190916101873541E0940708F07BC2C2
:100DA00020916201309163014EA9BC016A50710922
:100DB0006217730708F0BEC06C5E7F4F26173707B7
:100DC00008F0B8C04111B6C0188218AE1FAA1AAEFA
:100DD00019AE1CAE1BAE1EAE1DAEFE01FF961182FB
:100DE00010823296118210821092F8011092F7014F
:100DF0003696118210821EAA198287E08B831C828C
:100E000020915F01BE016D5B7F4F8E010B5B1F4F19
:100E1000213009F09CC180916201909163018D5253
:100E20009240813C910508F092C1809160019091BF
:100E300061010A97479708F08AC189E090E098AF6E
:100E40008FAB8EE090E09AAF89AF40E150E05CAFAD
:100E50004BAF9EAF8DAF2A8386E0888380EA9FE008
:100E6000909389008093880082E080936F00809146
:100E7000620190916301DB018D939C9380916001ED
:100E800090916101F8019183808305C21091600106
:100E9000F090620122E0412F6F2DCE01C7960CDE4B
:100EA000882349F18FA998AD99279C01220F331F00
:100EB000820F931F8F0D911D959587959595879519
:100EC00098AF8FAB89AD9AAD99279C01220F331F44
:100ED000820F931F810F911D959587959595879505
:100EE0009AAF89AFFE01E95BFF4F118210828A81C0
:100EF0008F5F8A83D0C18A81843008F465CF80EA0D
:100F00009FE0909389008093880083E0888380919C
:100F10006201909163019CAF8BAF809160019091D1
:100F200061019EAF8DAF198287E08B831C82009395
:100F30006F00B1C14830A0F560915D0170915E0114
:100F40006217730720F430935E0120935D012091B6
:100F50005D0130915E012817390720F490935E01FE
:100F600080935D014730E1F480915D0190915E01D5
:100F7000009729F1FE01EB5BFF4F20813181281B97
:100F8000390B3695279536952795820F931F04E0E8
:100F9000880F991F0A95E1F7909389008093880044
:100FA0008EA981110CC0809162019091630198AF6C
:100FB0008FAB80916001909161019AAF89AF809170
:100FC00060019091610180379105A8F4FE01EB5B0F
:100FD000FF4F208131812A31314080F02091620120
:100FE00030916301245F3F4F8217930710F460E054
:100FF0002AC061E00DC08C39910520F5FE01EB5B44
:10100000FF4F208131812933B1E03B07A8F060E038
:10101000CE010E947014FE01FF96809162019091B2
:10102000630191838083CF5BDF4F8091600190915A
:101030006101998388832FC18D35910518F4283378
:10104000314029F761E0CE010E9470148091620165
:10105000909163019CAF8BAF809160019091610191
:101060009EAF8DAF18C180915F01813009F013C12F
:1010700080916201909163010B9708F475CE61E055
:1010800074CEF090600110916201202F4F2D612FDE
:10109000CE01CB9611DD882339F161E0CE010E94AB
:1010A00070148BAD9CAD99279C01220F331F820FCA
:1010B000931F20916201820F911D959587959595BB
:1010C00087959CAF8BAF8DAD9EAD99279C01220F6C
:1010D000331F820F931F20916001820F911D959500
:1010E000879595958795BCCF202F4F2D612FCE01E9
:1010F000C796E2DC882349F160E0CE010E947014BB
:101100008FA998AD99279C01220F331F820F931F3F
:1011100020916201820F911D9595879595958795F0
:1011200098AF8FAB89AD9AAD99279C01220F331FE1
:10113000820F931F20916001820F911D95958795D5
:10114000959587959AAF89AFA6C0E3DCA4C040917E
:10115000620150916301DB014D935C9380916001CA
:1011600090916101D8018D939C932130F9F4BA01DB
:101170006A5071096A327105C8F4BC01695C710971
:10118000623A724008F07CC03BE038832A83805189
:10119000904F04E0880F991F0A95E1F7909389001A
:1011A0008093880082E080936F0075C045365105BA
:1011B00008F071C08536910508F06DC058AF4FAB8F
:1011C0009AAF89AF31E03A8332E03883213009F0B9
:1011D00062C09C012A5031092417350728F42C5E7F
:1011E0003F4F42175307D0F09C0125503048220F43
:1011F000331F2417350728F42C5E3F4F421753073F
:1012000068F0969587959C012A5031092417350777
:1012100008F041C00A9648175907E8F58DE0888321
:10122000CA01969587959183808321E030E03093C1
:10123000F8012093F701429710F451834083808195
:1012400091810C97C39710F082E0888380EA9FE039
:10125000909389008093880082E080936F00809152
:101260006001909161019EAF8DAF8091620190917C
:1012700063019CAF8BAF61E0CE010E94701411CD71
:101280008536910540F458AF4FAB9AAF89AF2A83AA
:1012900022E028839ECFFF91EF91DF91CF91BF9104
:1012A000AF919F918F917F916F915F914F913F91FE
:1012B0002F911F910F91FF90EF900F900FBE0F9005
:1012C0001F9018951F920F920FB60F9211242F9313
:1012D0003F934F935F936F937F938F939F93AF93BE
:1012E000BF93EF93FF9310926F00809188009091CD
:1012F000890020E23EE43093890020938800909397
:1013000085008093840080917E0283FF02C08EE27C
:1013100071D88091F90199E4899FF0011124EC5969
:10132000FE4F9081933018F09181923010F4F1DBF0
:1013300017C090915C01913041F480917E0282FF50
:10134000F6CF88E991E0AED8F2CF9F5F90935C0131
:101350008F5F823019F08093F90102C01092F90179
:10136000FF91EF91BF91AF919F918F917F916F917D
:101370005F914F913F912F910F900FBE0F901F9053
:101380001895A0E0B0E0E7ECF9E00C94B41BFC0188
:101390008A0110925A01A180AA0CAA0CAA0C83817E
:1013A000A81A8A2D97E0992E9A0C1092820228E0B2
:1013B000A22EA80E41E070E057E087E0B12C90E04B
:1013C00037E0E32EF12CC1E0D0E0A41609F481C08F
:1013D0009F012B0D311DD90114962C9130E0082E60
:1013E00002C0359527950A94E2F7217033278823A8
:1013F00011F0815002C0B39487E06B3469F453302C
:1014000009F04AC0711106C0232B09F05FC0109289
:101410005A016EC070E042C05F3F41F56634B1F4DE
:10142000C92ED12CD601AE57BD4F5C91052E5295D9
:101430005025052E5695569550255F5F51FB662425
:1014400060F8712C2615370541F004C0653429F485
:10145000232B19F470935A014BC09F5F292F30E062
:101460002E573D4FD9011C9257E031C0232B61F11B
:10147000663479F4292F30E0D901AE57BD4F8C90F6
:101480009E01052E01C0220F0A94EAF728292C9309
:101490001BC0653429F018C05F3FD1F2232BA1F0A7
:1014A000292F30E02E573D4F6701C51AD10857FD4F
:1014B000D394DE0102C0AA0FBB1FCA94E2F76D01EC
:1014C000D901DC90CD28CC92515001C071E04F5F22
:1014D0007CCF70935A019A1458F4653411F45F3F2D
:1014E00009F071119F5FF801908381E0911101C0B3
:1014F00080E0CDB7DEB7EEE00C94D01BFC0170911C
:101500005A0140E095E020E0662399F06150DF0148
:10151000A60FB11D3C91532F52955F702527950F53
:10152000772311F0442319F03F702327930F4F5F67
:10153000EBCF920F30E1939FC0011124822B0895CD
:1015400080917E02882311F0BCD99FC886E399D888
:1015500010927F02109259010895FC0121812111FE
:101560000CC080917E020E94F60165E080918002AD
:101570009091810266D60C94250241E06EE772E0FC
:1015800001961FD7DDCFCF93DF93E898229A2A9A4E
:101590008CE390E0FC013197F1F72A980197F1F77D
:1015A0002A9A8AE590E00197F1F780E36AD888ECFF
:1015B00090E00197F1F7C6EDD0E0FE01319664911D
:1015C000FE01849190D82296F1E0C830DF07A9F798
:1015D00083E357D884E00E94AD0284E352D885E3C8
:1015E0008CD88D30D1F7DF91CF910895A6E2B0E08D
:1015F000ECEFFAE00C94B61BFC012181223729F4B0
:10160000C2DF81E080935901B8C0233709F0B3C02D
:101610004DE18E010F5F1F4FB8010296D2D67C01BB
:101620009C01332721503109898190E0281739071F
:1016300009F0A3C080915901811104C0A4DF83E0A7
:101640000E94AD02DB809A8186E789278A8322E0A7
:101650003981822F90E0F801E80FF91F231750F429
:10166000DE01A80FB91F8C91845290818927808355
:101670002F5FEECF80818D258083CE0183960E94DF
:10168000BB0285E30E94410385E337D8833181F1B2
:10169000CE014F960E94BB024F8D58A169A17AA13D
:1016A0008BA19CA1ADA1BEA184179507A607B70782
:1016B00060F44A015B01881A990AAA0ABB0AFDEB89
:1016C0008F169104A104B10470F4481759076A07F2
:1016D0007B0770F484549F4FAF4FBF4F841795071B
:1016E000A607B70728F488E091E00E94520226C0BE
:1016F00085E303D8833129F6D4FE08C088E70E9429
:10170000AD0288E70E94AD0288E701C08AE00E942E
:10171000AD022A988FE70E943B0368018C2D801B45
:101720008E1530F4F60181916F010E943B03F6CFD4
:101730002A9A85E30E947D038331D9F385E30E94D1
:101740007D03863149F48BE30E94410386E30E94C6
:1017500041038DE30E94410380915901882349F0A0
:1017600084E30E94410385E30E947D038D30C1F72D
:1017700004C0E6DE02C010925901A696ECE00C947B
:10178000D21BFC012181243751F464E071E0029600
:10179000FED560E080910401909105010EC02337D1
:1017A000C9F4FC012281223759F463E071E0039609
:1017B000EED58091030160E090E043D50C942502C2
:1017C000283611F462E003C0253611F463E00DC23F
:1017D00061E0FDCF223771F480915901882329F00F
:1017E00081E08093570110925901A2D181E080934A
:1017F00056010895263649F5FC012281203351F423
:1018000080E18093000180EB8093010181E7809368
:10181000020105C043E060E071E00296D2D589E69E
:101820000E94FA0186E60E94FA018AE30E94FA0108
:10183000809100010E94F601809101010E94F60151
:10184000809102010E94F601B9CF2837E1F480911E
:101850005701882339F01092570195DE81E080937B
:10186000590108C082E090E00E94E00380917E026E
:10187000882319F00E94450303C086E30E944103B8
:10188000109256010895233621F464E071E0019628
:101890007EC508955B9A813041F483E191E00E9416
:1018A000B6025B988CE994E025C0811108C083E101
:1018B00091E00E94B6025B9883E191E009C082301A
:1018C00091F483E191E00E94B6025B988CE994E088
:1018D0000E94B6025B9A83E191E00E94B6025B9897
:1018E0008CE994E011C083E191E00E94B6025B981C
:1018F00083E191E00E94B6025B9A83E191E00E944D
:10190000B6025B9883E191E00C94B6028BE292E020
:101910000E9452028091070180FD03C080E292E0A4
:1019200002C085E192E00E94520280915F01813005
:1019300019F483E092E002C081EF91E00E9452022C
:101940000C942502A1E0B0E0E8EAFCE00C94C01B96
:101950001982009731F041E0BE016F5F7F4F019621
:1019600030D589818F3F09F4FFCF882329F061E0CA
:1019700083E390E00E94C00110926E00F89498E01A
:1019800088E10FB6F894A895809360000FBE9093FD
:101990006000FFCF41E066E071E0019612D58091D2
:1019A000060180FF02C0299A01C0299860910601B2
:1019B00084E390E00C94C001A6E0B0E0E2EEFCE02D
:1019C0000C94BA1B8C0143E0BE016F5F7F4F019600
:1019D000F8D48230B0F1823019F4C980D12C05C01E
:1019E000C980DA80DC24CD24DC247C01FF24FE01C4
:1019F000EE0DFF1D6081C6010E94C001C6010F9758
:101A0000039710F40E94C501EE0CFF1C8FEFE81A3B
:101A1000F80A0E0D1F1DF8018081882391F041E026
:101A2000BE016F5F7F4FC801CCD4892B51F0EFEF1F
:101A3000CE1ADE0A6981C6010E94C0010E5F1F4FE7
:101A4000EACF2696E8E00C94D61B0F931F93CF9312
:101A5000DF93EC0161E080E090E00E94C0016AE168
:101A600081E090E00E94C00182E090E0FC01EA5336
:101A7000FE4F64918C010F5F1F4F0E94C001C8018F
:101A80000B32110599F787E390E0FC01E859FE4F0E
:101A900064918C010F5F1F4F0E94C001C801003686
:101AA000110599F78091070180FD1EC060E18FE06C
:101AB00090E00E94C00160EB80E190E00E94C001D4
:101AC00061E781E190E00E94C00160E184E490E080
:101AD0000E94C00160EB85E490E00E94C00161E7D4
:101AE00086E490E00E94C00188E00E940C030E94FE
:101AF000C50160E080E690E00E94C00160E081E600
:101B000090E00E94C00160E083E390E00E94C00189
:101B100062E084E390E00E94C0018981883719F077
:101B200080E090E00FDFDF91CF911F910F9108953A
:101B3000CF93DF93E898229A2A9A8CE390E0FC01F5
:101B40003197F1F72A980197F1F72A9A8AE590E000
:101B50000197F1F780E30E94410388EC90E0019740
:101B6000F1F72A9880E40E943B03C0E6D2E0FE0130
:101B700084910E943B032196F2E0CD36DF07B9F74E
:101B8000809100010E943B03809101010E943B0370
:101B9000809102010E943B03C0E0D0E0FE01E059C9
:101BA000FD4F84910E943B032196C931D105B1F7C5
:101BB0002A9A2A988EE70E943B038BE290E0EC0180
:101BC00021960E9495010E943B03CE01E397B9F74D
:101BD0002A9A83E30E94410381E00E94AD0281E0E2
:101BE00080937F02DF91CF910895A0E0B0E0EBEF0A
:101BF000FDE00C94BA1B7C01C62F299A80915601F6
:101C000081110DC080915901882329F081E08093D2
:101C10005701109259018CDF83E00E94AD0286E3E8
:101C20000E9441038AE30E9441038BE30E94410327
:101C30000E945B03F70101900020E9F73197EE194C
:101C4000FF09DD24DA94DE0EEB7FD1E0E23209F009
:101C5000D0E08EEF8C0F823018F4A2E0CA2E02C0C2
:101C6000CC24C39400E08091030190E0202F002E4B
:101C7000000C330B281739070CF0F8C0C130F9F409
:101C80005B9AD13091F48BEE90E00E94B6025B98A3
:101C900080E197E20E94B6025B9A83E191E00E94A4
:101CA000B6025B988AE59AE01FC08091040190918A
:101CB00005010E94B6025B9880E197E215C0C23030
:101CC00049F45B9A8AE491E00E94B6025B9888E846
:101CD00093E10AC0C33051F45B9A83E191E00E9422
:101CE000B6025B9888E293E20E94B6021C2D1D1595
:101CF0000CF0BAC0F701E10FF11D17FDFA958181D3
:101D0000803359F5C130B1F4D13011F480E02CC0EA
:101D10005B9A80910401909105010E94B6025B9844
:101D200080910401909105019C01220F331F820FC5
:101D3000931F5CC05B9AC23019F488EE93E002C036
:101D400083E191E00E94B6025B98C23019F48AE404
:101D500091E086C084E195E083C0813361F5C130B4
:101D6000B9F4D13019F481E095DD7CC05B9A8091A3
:101D70000401909105019C01220F331F820F931FD4
:101D80000E94B6025B98809104019091050155C0B4
:101D90005B9AC23019F48AE491E002C083E191E0D9
:101DA0000E94B6025B98C23019F488EE93E058C0E6
:101DB00083E191E055C0823311F482E0D5CF8434C1
:101DC00049F5D13011F483E0CFCF5B9A80910401C3
:101DD000909105019C01220F331F820F931F0E94D7
:101DE000B6025B9880910401909105010E94B602B1
:101DF0005B9A80910401909105010E94B6025B9864
:101E000080910401909105019C01220F331F820FE4
:101E1000931F26C0D130B9F25B9A80910401909152
:101E200005010E94B6025B98809104019091050122
:101E30009C01220F331F820F931F0E94B6025B9AF0
:101E400080910401909105019C01220F331F820FA4
:101E5000931F0E94B6025B98809104019091050146
:101E60000E94B6021F5F43CF0F5FFDCE80915601E7
:101E7000882341F080917E0281110EC086E30E948A
:101E800041030EC080915701882349F010925701F9
:101E90007ADB81E0809359010E94450301C050DB49
:101EA000299889E60E94FA0183E70E94FA01C2306C
:101EB00011F488E603C0C33019F485E60E94FA01E4
:101EC00011E01D15CCF4F701E10FF11D17FDFA9596
:101ED0008181803369F0813359F0823349F0843451
:101EE00011F484E405C0C13029F4D130D1F386E483
:101EF0000E94FA011F5FE5CF0E942502CDB7DEB731
:101F0000E8E00C94D61BFC012FB7F8948281811174
:101F100002C02FBF08959FEF980F9283918181E0B7
:101F2000890F8183DF01A90FB11D13969C91803821
:101F300009F411822FBF892F0895FA019081882317
:101F400069F0DB01A90FB11DE1E0F0E0022E01C054
:101F5000EE0F0A94EAF78C91E82BEC93222319F008
:101F60008FEF820F0BC081E0890F8C3010F4FA01E3
:101F70008083FB01E80FF11D108287E090E0089557
:101F80001F93CF93DF93C0917D0280937D02809158
:101F90003C03882309F43DC08AE393E0B4DFE09179
:101FA00039038A3011F08D3049F5EE2381F3F0E0EA
:101FB000E854FD4F10824091B80230E0832F90E04A
:101FC000FC01EE0FFF1F8E0F9F1FFC01E757FD4F17
:101FD0002491FC01E657FD4F659174912223F9F09D
:101FE000241305C088EB92E0FB01099504C03F5F14
:101FF000E5CF0E94250210923903C9CFE7FDC7CF74
:1020000091E09E0F90933903F0E0E854FD4F8083F8
:10201000BECFC0937D02DF91CF911F91089583EED3
:1020200092E00E94520288EB92E00E94A2028BECA6
:1020300092E00E94520210E0812F90E09C01220F5A
:10204000331F280F391FF901E757FD4FD491F901CC
:10205000E657FD4F85919491DD2359F280E20E946D
:10206000FA018D2F0E94FA011F5FE6CFCF93C82F90
:102070005B9A882319F08091B50202C08091B70263
:1020800020E1829FC00111240E94B6025B98CC23FC
:1020900019F08091B40202C08091B60220E1829FC3
:1020A000C00111240E94B602CF910895A0E0B0E0D3
:1020B000ECE5F0E10C94B01B4C01162FA22EC42EBF
:1020C000D12CC6010296089F802D1124082E000CE9
:1020D000990B20918002309181022817390728F44A
:1020E00087EE92E00E94520268C0281B390B3093A1
:1020F000810220938002299A80917F02811102C07F
:102100000E9461040E945B03212E312C662463949B
:10211000712CB12CC0E08C2F0C2E000C990B821569
:10212000930524F480E0A2DFCF5FF5CF112311F0F7
:1021300081E09CDFF12CCF2D0F2C000CDD0BCC159A
:10214000DD05A4F497E0492E512CC80DD91DC3011B
:10215000042C01C0880F0A94EAF79881892386DF4E
:1021600081E0481A510898F7F394E5CF87E0F82EFC
:10217000C80DD91D8F2D0F2C000C990BA816B90670
:102180005CF4C3010F2C01C0880F0A94EAF7988110
:1021900089236CDFFA94EECF8E2D0E94AD020150A0
:1021A00009F0B8CF80917E02882319F00E94450380
:1021B00003C086E30E9441032998CDB7DEB7E2E170
:1021C0000C94CC1BA5E0B0E0E8EEF0E10C94C01B51
:1021D000AC011D8294E0242F2F709150E92FF0E084
:1021E0002A3010F4205D01C0295CA1E0B0E0AC0F02
:1021F000BD1FEA0FFB1F208384E0569547958A9503
:10220000E1F761504115510531F780E3615067FDF9
:102210000BC0992349F09150E1E0F0E0EC0FFD1F75
:10222000E90FF11D8083F2CF21E030E02C0F3D1F3C
:10223000290F311DC9010E94A2022596E2E00C94EB
:10224000DC1BA6E0B0E0E7E2F1E10C94BE1B362F08
:102250001E8225E0EAE0F0E0215001E010E00C0FE2
:102260001D1F020F111DBF010E94921B805DD8012E
:102270008C93CB013150009711F480E20DC02111F5
:10228000EBCFFBCF222359F02150E1E0F0E0EC0F3F
:10229000FD1FE20FF11D8083315037FFF3CF81E046
:1022A00090E08C0F9D1F820F911D0E94A202269626
:1022B000E4E00C94DA1BCF93DF93FC0170E06150F3
:1022C000710980E057E0C1E0D0E06F3F9FEF7907F0
:1022D00021F194814581A081B181A90FB11D2C917B
:1022E00030E0042E02C0359527950A94E2F721705C
:1022F0003327AFEFA40FA583411103C09F5F9483E1
:102300005583232B39F09E01062E01C0220F0A941B
:10231000EAF7822B61507109D8CFDF91CF910895F0
:102320000F93CF93DF93962F742FA2E8B2E0FA01B8
:102330006E2F671B681740F4002319F060816095C9
:10234000608361916D93F4CF9730D9F0E82FF0E07E
:10235000002379F0EA01CE0FDF1F6881A62FA09538
:102360009F5F6FEF70E001C0660F9A95EAF76A23EE
:102370006883DA01AE0FBF1F9C91EE57FD4F90832B
:102380008F5FF9018083DF91CF910F910895FC0158
:1023900020E030E08AE09191992379F040ED490FF7
:1023A0004A30C8F7829FA001839F500D11249A01E3
:1023B00020533109290F311DEECFFB0131832083DA
:1023C0000895DC01FB0130E020E09D919923B1F0FC
:1023D000913608F0905280ED890F8A3010F4982FD2
:1023E00005C08FEB890F863028F49753922B332347
:1023F00089F006C0903249F39A3339F3CF0107C010
:102400009F012F5F3F4F9083415049F4C901861BC4
:10241000970B0895292F2295207F31E0D6CFF9011F
:10242000D2CFEF920F93CF93DF9300D000D0CDB7F0
:10243000DEB743E0BE016F5F7F4F0196C2DF8AE6E1
:102440008093B70294E29093B60291E29093B50222
:102450008093B40280E88C838FE0E82E03E026E0CE
:1024600043E060E0CE01019621DE0F900F900F90C7
:102470000F90DF91CF910F91EF900895A9E1B0E017
:10248000E4E4F2E10C94B71B7E012DE0E20EF11CB6
:102490004BE0B701019695DF182F85E38093B702D3
:1024A00096E19093B6029093B5028093B402612FA7
:1024B000C70124D8F701E10FF11D8083992493947B
:1024C000910E198E1982670127E0AA24A394B12CDA
:1024D0008C2D8E19891508F044C000E010E0C5016C
:1024E000002E01C0880F0A94EAF7F6019081AE0130
:1024F000475E5F4FBE016F5F7F4F89231EDD282F30
:102500000F5F1F4F0430110551F7AE01475E5F4F5B
:10251000BE016F5F7F4F81E010DD282FC501002EC7
:1025200001C0880F0A94EAF7F6019081AE01475E78
:102530005F4FBE016F5F7F4F8923FFDC282F0F5F46
:102540001F4F0830110551F7AE01475E5F4FBE01C6
:102550006F5F7F4F81E0F1DC282FFFEFCF1ADF0A9A
:10256000B7CF8AE0E82E03E0498D6AE0CE010196FC
:102570009DDD6996EBE00C94D31B8F929F92BF92E6
:10258000CF92DF92EF92FF920F931F93CF93DF933F
:10259000CDB7DEB769970FB6F894DEBF0FBECDBFDB
:1025A0008E01035F1F4F4BE0B80101960ADF282F11
:1025B000893009F05BC039E13093B6023093B7023D
:1025C0003093B50232E33093B402992730E02150C2
:1025D000F801E20FF11D408134272111F8CFF801F5
:1025E000E80FF91F3083198E1982780127E08824BB
:1025F0008394912CC12CD12CBE2CB01AF9E0FB1580
:1026000028F1C4010C2C01C0880F0A94EAF7F701E5
:102610009081AE01475E5F4FBE016F5F7F4F8923A0
:102620008CDC282FFFEFCF1ADF0A88E0C816D10410
:1026300029F7AE01475E5F4FBE016F5F7F4F81E0BC
:102640007CDC282FEFEFEE1AFE0AD4CF222311F004
:10265000215004C0898D8F5F898F27E08AE0E82EA2
:1026600003E0498D6CE0CE01019620DD69960FB63E
:10267000F894DEBF0FBECDBFDF91CF911F910F91B8
:10268000FF90EF90DF90CF90BF909F908F90089534
:10269000EF920F93CF93DF93CDB7DEB760970FB66E
:1026A000F894DEBF0FBECDBF40E1BE016F5F7F4F2C
:1026B000019687DE69814A810B818C818093B70204
:1026C0008D818093B6028E818093B5028F81809335
:1026D000B402E02EE2948FE0E8220F70242F2F70D6
:1026E00042954F70CE010896E1DC60960FB6F894E3
:1026F000DEBF0FBECDBFDF91CF910F91EF90089558
:10270000A9E1B0E0E6E8F3E10C94B81B4BE0BE01B0
:10271000635F7F4F019655DEEDE0F0E0EC0FFD1FAB
:10272000E80FF11D982F26E0992351F09150ADE06C
:10273000B0E0AC0FBD1FA90FB11D3C91230FF4CF2A
:10274000208311E0180F198E198227E000E0EE2493
:10275000E394F12C97E0C92ED12C3DE0A32EB12CAF
:10276000AC0EBD1EA00EB11C011758F5C7010C2CF4
:1027700001C0880F0A94EAF7F5019081AE01475E27
:102780005F4FBE016F5F7F4F8923D7DB282FF1E0BA
:10279000CF1AD10848F7F5018081082E829580254F
:1027A000082E8695869580258F5F86958170AE016F
:1027B000475E5F4FBE016F5F7F4FBFDB282F0F5F0C
:1027C000C9CF222311F0215004C0898D8F5F898FDA
:1027D00027E089E18093B6028093B70285E2809377
:1027E000B4028093B5028AE0E82E03E0498D6CE0E4
:1027F000CE0101965BDC6996EAE0D6C71F920F9284
:102800000FB60F9211242F933F934F935F936F93C3
:102810007F938F939F93AF93BF93EF93FF93809199
:10282000FC01882331F08AEF91E06DDB8093C600D4
:1028300005C08091C1008F7D8093C100FF91EF9111
:10284000BF91AF919F918F917F916F915F914F91C8
:102850003F912F910F900FBE0F901F901895FC0184
:102860009FB7F894828187FD0EC08F5F828320819D
:1028700081E0820F8083DF01A20FB11D13966C935C
:10288000803809F410829FBF08951F920F920FB6EF
:102890000F9211242F933F934F935F936F937F93E6
:1028A0008F939F93AF93BF93EF93FF936091C60075
:1028B0008091C000887119F48AE393E0D0DFFF9122
:1028C000EF91BF91AF919F918F917F916F915F91A8
:1028D0004F913F912F910F900FBE0F901F90189521
:1028E000FC018181823310F00C948905662389F004
:1028F000DF01A80FB11D21E030E0038002C0220FEC
:10290000331F0A94E2F714969C911497292B14967E
:102910002C939381992319F09150938309C097E0E8
:1029200093838F5F8183DF01A80FB11D14961C92E2
:1029300086A98F5F86AB0895A1E8B0E0E1EAF4E1F3
:102940000FC70FB6F894A8958091600088618093B6
:102950006000109260000FBE91E080E80FB6F8941E
:1029600080936100909361000FBE219A299A2D9A5D
:1029700084B18C6284B9249880E58CBD8DB581606A
:102980008DBD80E090E00E949501813031F481E0BE
:1029900090E00E9495018A3119F080E090E055D8CE
:1029A00084E390E00E9495018093060189EF87BD42
:1029B00084E085BD82E084BD80936E00109280002B
:1029C0008AE08093810084B7877F84BF9FE088E19D
:1029D0000FB6F894A895809360000FBE90936000A6
:1029E0008CE090E09093C5008093C40088E98093C8
:1029F000C10086E08093C2000E949801539A5B98C0
:102A000052988091690081608093690082EC91E026
:102A100090938102809380021092AD0110927F0208
:102A200080EC9FE090934E0180934D0181E0809374
:102A30007D020E94C5012998789447E0C42ED12CCC
:102A40002090070137E0332EE0914D01F0914E01C7
:102A500081E009958091C10085FD09C08091FC014C
:102A6000882329F08091C10080628093C100CF57F4
:102A7000DF4F1882C158D040809160019091610170
:102A8000892BC9F180917E0287FF17C084E30E94E1
:102A90007D038058803458F0803C58F490E0805595
:102AA000910923E0959587952A95E1F703C080E089
:102AB00001C08FE08F590E94FA0180917E0283FF4E
:102AC00016C082E70E94FA0180917E0284FF04C052
:102AD000809162010E94FA0186E60E94FA018091CB
:102AE0007E0284FF04C0809160010E94FA0110926E
:102AF00061011092600180915C01882309F470C328
:102B0000299AE090490129E4E29EC0011124DC01E8
:102B1000AC59BE4F7D0180915F01813009F08FC0BB
:102B20008C918B3009F08BC0D6968C91982F9B7F1F
:102B3000983139F0893329F0982F977F913409F033
:102B40007EC0F70125AD36AD2F3A310508F077C0CC
:102B5000EF5BFF4F208131812D37310508F06FC0C9
:102B6000883189F401E09E012F573F4FA7014C5F48
:102B70005F4FD70113966C91139711968C91D0DB10
:102B8000F70130825EC08C3111F0893381F400E0AE
:102B90009E012F573F4FA7014C5F5F4FD701139600
:102BA0006C91139711968C91BBDB8AE045C0877FAF
:102BB000813409F046C0D701D9968D919C91DA975E
:102BC0008E359105F0F111966C91462F50E07E2DD7
:102BD00002E812E0F70121E030E08E2F871B861714
:102BE00028F584814217530791F4880FD8018C93FC
:102BF000D70113969C91973099F09581D801119641
:102C00009C931197991F9927991F890F08C0982F96
:102C1000990F8581881F8827881F890FD8018C9379
:102C200031960F5F1F4F2F5F3F4FD7CFCF57DF4FEB
:102C30006883C158D04089E0F701808302C010E06A
:102C400001C019E680915F018130F1F411111CC0BF
:102C5000D701D6968C91982F9B7F983131F09CEDBF
:102C6000980F923010F08A3279F400E09E012F57CD
:102C70003F4FA7014C5F5F4FF7016381818150DBBC
:102C800088E0D7018C9313E780915F01F701908171
:102C9000813009F0A5C4111124C081818C3009F064
:102CA00054C4963009F051C48381811119C03496FF
:102CB000A2E8B2E0A701415F5F4F2191820F2D93FF
:102CC000E417F507D1F72BE0CF57DF4F2883C15822
:102CD000D040D7011F962C91821302C012E785C005
:102CE00010E0933009F07EC011114BC0AE014F5778
:102CF0005F4F66E4C7010E94C109882309F441C0FF
:102D0000CF57DF4F8881C158D0408150CF57DF4F18
:102D10008883C158D040282F96E0222341F02150CB
:102D2000E22FF0E0EE57FD4F3081930FF6CFE82F02
:102D3000F0E0EE57FD4F3081391302C0843000F5CA
:102D4000492F50E04F5F5F4F632F70E046175707E2
:102D500011F4843018F4982F2CE002C0908310C036
:102D6000992341F09150E92FF0E0EE57FD4F40815B
:102D7000240FF6CF321305C0843018F014E501C0DB
:102D800016E480915F01823049F511112EC0AE0129
:102D90004F575F4F65E4C7010E94C109882309F4BA
:102DA00023C4CF57DF4F8881C158D0408150CF57BF
:102DB000DF4F8883C158D040893009F015C490E0B6
:102DC0008150E82FF0E0EE57FD4F208192278111CE
:102DD000F7CF80918B02891307C472C4112309F4C1
:102DE00003C403C0112309F424C140917E0240FFB3
:102DF00020C180915B018E7F8B7F80935B01942F3C
:102E0000927041FD68C050914801CF57DF4F6881F3
:102E1000C158D04056133EC080E08517C0F4282F1B
:102E200030E071E0780FF901EA5EFE4FD901AE574C
:102E3000BD4FE0812C91E21741F080934801209131
:102E40005B012D7F20935B0104C0872FE6CF809329
:102E5000480185131FC0409050015090510160906F
:102E60005201709053018090120190901301A09034
:102E70001401B0901501481859086A087B08F6E259
:102E80004F1651046104710428F480915B01816044
:102E900080935B01961760F4292F30E0F901EA5E18
:102EA000FE4FD901AE57BD4F8C9180839F5FF2CF0B
:102EB000909348018091500190915101A09152014D
:102EC000B09153018093120190931301A0931401C8
:102ED000B093150104C08D7F816080935B01143530
:102EE00009F546FD31C0CF57DF4F8881C158D0402A
:102EF000853050F1809184028B3471F0893661F015
:102F00009DEA980F923040F08D57823028F08091E2
:102F1000850280778037C1F480915B018160809366
:102F20005B0112C0193611F0133771F480915B0107
:102F3000982F9370913011F482600AC080FF02C014
:102F40008B7F07C08D7F05C080915B0180FD03C032
:102F5000846080935B0180915B0182FF6AC0812F56
:102F60000E94FA01D7018C918A3019F488E60E94F8
:102F7000FA01F70180818D3019F48DE60E94FA0183
:102F800080915A01882359F0CF57DF4F8881C1586B
:102F9000D0408150CF57DF4F8883C158D04010E0D8
:102FA000CF57DF4FE881C158D0401E1748F4E12FBA
:102FB000F0E0EE57FD4F80810E94F6011F5FF0CFD9
:102FC00080915A01882341F0F0E0EE57FD4F808157
:102FD0008F7061E090E0F6D880917E0285FF05C099
:102FE00084E30E947D030E94F601D7018C91883012
:102FF000F1F48BE30E94FA01F701ED5BFF4F808152
:10300000918165E014E0880F991F1A95E1F719D9AD
:103010008AE30E94FA01F701EB5BFF4F8081918107
:1030200065E004E0880F991F0A95E1F70AD90E942C
:10303000250280917E0282FFBBC080E70E94FA01D8
:10304000F701808162E090E0FCD8D701D7968D919E
:103050009C91D89765E024E0880F991F2A95E1F7A5
:10306000F0D8F70181AD92AD65E034E0880F991F8B
:103070003A95E1F7E6D8D701DB968D919C91DC97E4
:1030800065E044E0880F991F4A95E1F7DAD8F70127
:1030900085AD96AD65E054E0880F991F5A95E1F72C
:1030A000D0D8F701FF968081918165E074E0880FA8
:1030B000991F7A95E1F7C5D8F701EF5BFF4F808143
:1030C000918165E0E4E0880F991FEA95E1F7B9D8AE
:1030D000D701D6968C9164E090E0B3D8F701828155
:1030E00063E090E0AED8D70111968C9163E090E058
:1030F000A8D8F701838162E09601281B3109C90134
:10310000A0D880E20E94FA01F701ED5BFF4F8081B9
:10311000918165E0F4E0880F991FFA95E1F791D865
:1031200080E20E94FA01F701EB5BFF4F8081918101
:1031300065E0A4E0880F991FAA95E1F782D880E2A4
:103140000E94FA01F701E95BFF4F8081918165E000
:10315000B4E0880F991FBA95E1F773D880E20E9416
:10316000FA0180917E0285FF08C084E30E947D03FE
:103170000E94F60180E20E94FA01D70113968C9119
:103180001397873031F011968C9111978F5F1196BC
:103190008C9310E0F7018181181740F4F701E10FDB
:1031A000F11D84810E94F6011F5FF4CF0E94250269
:1031B000D7011C92D6961C9210925E0110925D016E
:1031C00080915C01815080935C01809149018F5F07
:1031D000823019F08093490102C010924901299868
:1031E0008091500190915101A0915201B0915301F1
:1031F00020914B01281781F180915001909151014C
:10320000A0915201B091530180934B01A8958091F8
:103210004F018D3708F110924F018091060181FF17
:1032200004C095B182E0892785B980918002909190
:1032300081028438B3E09B0728F4019690938102C1
:103240008093800280914A018F5F8C3319F08093C4
:103250004A0102C010924A018091F601882309F4C4
:1032600054C0813011F58091500190915101A0918D
:103270005201B091530120914C01281709F445C027
:1032800085E30E947D03813129F48AE30E94410392
:103290000E9445038091500190915101A0915201EB
:1032A000B091530180934C0130C08FE30E947D03A5
:1032B000F82E87FD27C02A988FEF0E943B038E01CE
:1032C0000F5F1F4F4801E02E882D801B8F1538F4AB
:1032D00080E00E943B03F40181934F01F5CF2A9ACD
:1032E00081E080937D02802F8E198F1530F4D801F4
:1032F0008D918D010E94FA01F6CF0E9425028FEF79
:1033000080937D0281E08093F601809159018823AA
:1033100009F4DDC04A9B8AC08FE30E947D038F774A
:1033200089838E3168F08AE30E94410386E30E941C
:1033300041038DE30E94410384E30E944103C7C01F
:103340002A988FEF0E943B0310E08981181760F4E0
:1033500080E00E943B03E2E0F0E0EC0FFD1FE10F94
:10336000F11D80831F5FF1CF80E00E943B03082F97
:1033700080E00E943B032A9A84E30E94410385E394
:103380000E947D038D30C1F78A8196E798279A8342
:1033900092E02981E92FF0E0921768F421E030E013
:1033A0002C0F3D1FE20FF31F208184528227808360
:1033B0009F5F822FEECF81E090E08C0F9D1FE80F82
:1033C000F91F90818B818927808380917E0284FF01
:1033D00012C081E60E94FA0110E08981811730F164
:1033E000E1E0F0E0EC0FFD1FE10FF11D80810E9494
:1033F000FA011F5FF2CF81E40E94FA0110E0898197
:10340000811758F0E1E0F0E0EC0FFD1FE10FF11D36
:1034100080810E94F6011F5FF2CF80917E0285FFBE
:1034200003C0802F0E94F6010E94250285E30E94BE
:103430007D03813029F0813161F48AE30E944103E8
:1034400086E30E9441038DE30E94410384E30E94CE
:10345000410385E30E947D038D30C9F585E20E941A
:103460007D038F33A1F585E20E947D038F3349F5FB
:1034700086E30E944103211005C08FE690E00E9480
:10348000520203C08DE30E94410383E30E94410383
:1034900010E085E30E947D03813031F485E20E94D3
:1034A0007D038F3371F407C084E090E00E94B60280
:1034B000115079F7F3CF211004C088E690E00E9404
:1034C000520284E30E94410380778031D1F78091DA
:1034D0005801882309F4B8CA4A9B22C086E30E9497
:1034E00041038BE30E947D03082F0F7709F4AACADA
:1034F0002A988FEF0E943B038EE40E94FA0180918C
:1035000058010E94F60110E080E00E943B030E94F7
:10351000F6011F5F0113F8CF2A9A0E94250292CA72
:1035200085E30E947D03813019F0813109F08ACA58
:103530008AE30E94410386E30E9441038DE30E94D7
:10354000410384E30E9441037DCA9D3039F19B30E1
:1035500009F0C6CBD70111968C9111971496E2E829
:10356000F2E090E0981721F02D9121939F5FFACF20
:10357000F7019381973061F0282F30E0F901EE5781
:10358000FD4FD701A20FB31F14969C9190838F5FBC
:10359000CF57DF4F8883C158D0404BCDD701149609
:1035A000E2E8F2E090E0981721F02D9121939F5FDF
:1035B000FACFF7019381973061F0282F30E0F901BD
:1035C000EE57FD4FD701A20FB31F14969C91908325
:1035D0008F5FCF57DF4F8883C158D0401FE605CC9F
:1035E000112309F4B4CF7DCB1D823E82C70104961E
:1035F0009A838983D70111968C91843071F5D70114
:1036000013968C91813049F582E8882E82E0982EBD
:1036100010E0111107C067E0CE0101960E945B1116
:10362000806805C068E0CE0101960E945B11F4013C
:1036300081934F011F5F143061F767E0CE0101965F
:103640000E945B11880F8093860285E0CF57DF4F81
:103650008883C158D04014E7C8CBD7012C91DD96A0
:103660004C9160916201C701CB960E945C05682F66
:10367000C70136D9AE014F575F4F6BE4C7010E94B7
:10368000C1098823F9F0CF57DF4FE881C158D040F6
:103690001FEF1E0FCF57DF4F1883C158D040612F47
:1036A00082E892E00E947E0AE12FF0E090915A01B8
:1036B000E91BF109EE57FD4F9081891303C00FC03C
:1036C00015E493CBF7018381873031F4F70113823E
:1036D000818181508183ADCC8F5F8383AACC1BE431
:1036E00084CBFC016150704001900110D8F78095A7
:1036F00090958E0F9F1F0895F999FECF92BD81BDC1
:10370000F89A992780B50895262FF999FECF1FBA08
:1037100092BD81BD20BD0FB6F894FA9AF99A0FBEFA
:1037200001960895AA1BBB1B51E107C0AA1FBB1F2E
:10373000A617B70710F0A61BB70B881F991F5A953D
:10374000A9F780959095BC01CD01089540D0A59F23
:10375000900DB49F900DA49F800D911D112408958C
:103760002F923F924F925F926F927F928F929F9291
:10377000AF92BF92CF92DF92EF92FF920F931F937F
:10378000CF93DF93CDB7DEB7CA1BDB0B0FB6F89430
:10379000DEBF0FBECDBF09942A88398848885F8470
:1037A0006E847D848C849B84AA84B984C884DF80E1
:1037B000EE80FD800C811B81AA81B981CE0FD11DC5
:1037C0000FB6F894DEBF0FBECDBFED010895A29FE6
:1037D000B001B39FC001A39F700D811D1124911DE5
:1037E000B29F700D811D1124911D0895F894FFCF93
:1037F00010B07106A40102003046003130003131B2
:023800000000C6
:00000001FF
