:10000000C6C100000C948C0DDFC10000DDC10000F2
:10001000DBC10000D9C10000D7C10000D5C100007C
:10002000D3C10000D1C10000CFC100000C94E20E8A
:10003000CBC10000C9C10000B6C20000C5C10000AC
:10004000C3C10000C1C100000C94BA0C0C94730C25
:10005000BBC10000B9C10000B7C10000B5C10000BC
:10006000B3C10000B1C10000504C4C310D0A00502A
:100070004C4C300D0A0000030F1E26270000000321
:100080000F1E2536386700030F25674060500003B8
:100090000F275188838100030F2750C8C3C2002750
:1000A0000000000000000067000000000000005099
:1000B000000000000000008100000000000000C2FD
:1000C000000000000000202F2000203D2000202FF5
:1000D0002000203D2000072E050DD391FF080500CC
:1000E000000C0021656A2D3B1322F862073F181DA2
:1000F0001CC700B0876BF8B611EA2A001F41000D3B
:100100002E2D07D3913D04320000060021656A5769
:10011000C43023B900070018146C070090876BF8EF
:100120005611E92A001F41002028462D42616E64C5
:100130003A203836384D487A29002028462D426129
:100140006E643A203433334D487A29006E616E6F05
:1001500043554C383638006E616E6F43554C34331E
:1001600033005620312E32362E353520612D637501
:100170006C6677204275696C643A203535202832E8
:100180003032362D30322D31302031313A32343A5E
:1001900031392920000D2E2D07D3913D0432000066
:1001A000060010B07155E43023B900070018146C34
:1001B000070090876BF85611E92A001F4100424F53
:1001C00056460D0A0000070246030D049A057D06F7
:1001D00042070C0B060D210E650F6A10C811931211
:1001E0000315341700181819161B431C6825002620
:1001F00011FF0000000000000000000000000000EF
:1002000000411D1342B2044375034585096530055D
:1002100046F40B66140447BC0B69E8054BB20A6C44
:10022000D9044D310B4EF20F52BD07545E0274BD1E
:100230000255850A569A0457EA0458C110785004AA
:100240005A3E1200000020697320756E6B6E6F7746
:100250006E2920557365206F6E65206F66003F2004
:1002600028004C4F56460D0A000B08105B11F8157C
:1002700047191D1A1C1BC71C001DB221B623EA001A
:1002800007022E030D04E905CA070C0B060D210E0B
:10029000650F6A10C8119312031534173318181913
:1002A000161B4321562500261129592C812D353E38
:1002B000C34552523A4343410D0A00000702460427
:1002C000C605260B0610C811931203132215341706
:1002D0003F182819161B432156250026110D210E03
:1002E000650F6A070C160720F81E871F6B29592C0B
:1002F000812D353EC3FF004C4F56460D0A004C453C
:100300004E4552520D0A000302FF0000000000009B
:10031000000000000000000000000003021088112F
:1003200082FF000000000000000000000000000349
:10033000071088110B0D210E6B0FD01553FF000015
:100340000000000B060D210E650F6A170018181922
:10035000161B431C68250026110001024605D40423
:100360002D0302070008021089115C12061556FFC2
:1003700000737065636966792076616C6964206DCD
:100380006F6465206E756D6265720D0A0000112440
:100390001FBECFEFD8E0DEBFCDBF11E0A0E0B1E0DF
:1003A000E4E8F7E302C005900D92A431B107D9F754
:1003B00023E0A4E1B1E001C01D92A53BB207E1F743
:1003C0000E94F3130C94C01B1BCE85E390E0ADD3C9
:1003D0008093540186E390E0A8D38093530108955D
:1003E000A2E0B0E0E6EFF1E00C948A1B1A821982D9
:1003F00042E0BE016F5F7F4F0E94550A823031F4A8
:1004000089819A8198278927982702C0898190E05D
:100410008CD32296E2E00C94A61B0E943B1BF99918
:10042000FECF0895CF93DF9388E091E0D9DFC82F06
:100430008BE091E0D5DFD82F8EE091E0D1DF4C2F1B
:1004400050E060E070E0BA0155274427480F511D85
:10045000611D711D8D2F90E0982F88279A01AB01A7
:10046000280F391F411D511DAAE1B0E00E94701BE9
:10047000853F914010F082E001C081E080939001BF
:10048000DF91CF91089562E090E07EC79091940251
:1004900090FF0FC0909113029E3730F097FD09C076
:1004A0008D3011F08A3029F4682F81E192E00C94AC
:1004B000A40C08958DE0EADF8AE0E8CFA6E0B0E082
:1004C000E4E6F2E00C948A1B45E0BE016F5F7F4FCB
:1004D0000196EBD78430B0F49981913091F4833058
:1004E00051F46A8185E390E098DF6B8186E390E0C8
:1004F00094DF6BDF07C080915401C5DF8091530109
:10050000C2DFD8DF2696E2E00C94A61BCF93DF93E0
:10051000EC01FE018491882319F0B8DF2196F9CF10
:10052000DF91CF910895CF93DF93EC0189918823D8
:1005300011F0ACDFFBCFDF91CF91089520ED37E0D4
:10054000815020F0F9013197F1F7FACF0895880F23
:10055000991F0197F1F70895FC019FB7F894409116
:10056000A5035091A6036091A7037091A80340834F
:100570005183628373839FBF0895A4E0B0E0E3ECEE
:10058000F2E00C948A1BCE010196E6DF8C817BDFC2
:100590008B8179DF8A8177DF898175DF8BDF249614
:1005A000E2E00C94A61B1F920F920FB60F9211243B
:1005B0008F939F93AF93BF938091A5039091A603D0
:1005C000A091A703B091A8030196A11DB11D80932E
:1005D000A5039093A603A093A703B093A8038091CB
:1005E00052018F5F80935201BF91AF919F918F9184
:1005F0000F900FBE0F901F901895EF92FF920F93E0
:100600001F93CF93C82F8A3008F0C8E028E0C29F1C
:10061000800111248BE290E00B521109FC01E00FE4
:10062000F11FEA58FF4F64917C012FEFE21AF20AA2
:10063000F4DEC7018333910589F7C550C53010F04A
:1006400067E101C061E184E290E0E7DECF911F91B4
:100650000F91FF90EF9008958EBD0DB407FEFDCF72
:100660008EB508952A98F8DF2A9A08950F931F935C
:10067000CF93CFEF04E110E084E3F4DFC150807743
:10068000803129F0C8010197F1F7C111F5CFE89A3F
:10069000CF911F910F9108950F931F93CF93E898D7
:1006A00086E3E0DFCFEF04E110E085E3DBDFC1505C
:1006B0008077803229F0C8010197F1F7C111F5CF99
:1006C000CF911F910F910895CF93C62F2A988064E0
:1006D000C3DF8C2FC1DF2A9ACF9108952A98806CAE
:1006E000BBDF80E0B9DF2A9A0895A2E0B0E0EBE733
:1006F000F3E00C94881B8C01FC0181818737E9F4BD
:1007000041E0BE016E5F7F4FC8010296CED6892BB5
:10071000A1F041E0BE016F5F7F4FC8010496C5D6CE
:10072000892B59F069818A81CFDF83E39BDF9EDFCC
:100730008A81A9DE8981A7DE2BC041E0BE016F5FFF
:100740007F4FC8010196B1D6892B19F1898189396A
:1007500069F410E0812FC2DF96DE812F8770873029
:1007600009F4A8DE1F5F1033A9F713C0B7DF182FF5
:1007700083E48CDE898187DE8AEC90E0C7DE812FFE
:1007800082DE86EC90E0C2DE62E0812F90E03AD615
:1007900091DE2296E4E00C94A41BEF92FF920F935B
:1007A0001F93CF93DF93EC0110929802E898229A5E
:1007B0002A9A8CE390E0FC013197F1F72A9801978F
:1007C000F1F72A9A8AE590E00197F1F780E34ADF92
:1007D00088EC90E00197F1F72A9880E43DDF8E01E4
:1007E000075D1F4F7E018FEFE81AF80ACE019DD1F9
:1007F00033DFE701E016F106A9F72A9A2A988EE777
:100800002BDF8BE290E0EC0121968FD125DFCE012A
:10081000E397C9F72A9A83E325DF81E08FDECDB71E
:10082000DEB7E6E00C94A21BFF920F931F93CF93C9
:10083000DF93EC01FC0101900020E9F731978F0173
:10084000081B190B8981823741F487E390E0A5DF0B
:100850000DDF81E080930F021EC08337D1F4F02EAC
:100860002A988FE7F9DE8EEF800FF6DE229612E0EF
:100870001F1520F48991F0DE1F5FFACF2A9A0CDF52
:100880008AE32CDF8F7719F081E058DEF9CFEEDEB6
:1008900002C010920F02CDB7DEB7E5E00C94A31BA7
:1008A000A1E0B0E0E6E5F4E00C948A1B22E02983A5
:1008B00041E0BE016F5F7F4F0196F7D589819DDED4
:1008C00082E090E06ADF2196E2E00C94A61B5B9A3E
:1008D000813039F483E191E03ADE5B988CE994E071
:1008E00020C0811107C083E191E031DE5B9883E194
:1008F00091E008C0823079F483E191E028DE5B98D2
:100900008CE994E024DE5B9A83E191E020DE5B9841
:100910008CE994E00EC083E191E019DE5B9883E1FD
:1009200091E015DE5B9A83E191E011DE5B9883E153
:1009300091E00DCE82E691E0E9DD8091070180FD36
:1009400003C087E591E002C08CE491E0DFDD809197
:100950009001813019F48AE391E002C088E291E0CD
:10096000D5DDA8CDA1E0B0E0E8EBF4E00C948A1B63
:100970001982009731F041E0BE016F5F7F4F019611
:1009800094D589818F3F09F4FFCF882321F061E05E
:1009900083E390E042DD10926E00F89498E088E1E5
:1009A0000FB6F894A895809360000FBE90936000F6
:1009B000FFCF41E060E071E0019677D580910001C2
:1009C00080FF02C0299A01C029986091000184E348
:1009D00090E023CDA6E0B0E0E0EFF4E00C94841BBF
:1009E0008C0143E0BE016F5F7F4F01965ED5823080
:1009F00098F1823019F4C980D12C05C0C980DA8001
:100A0000DC24CD24DC247C01FF24FE01EE0DFF1D3F
:100A10006081C60102DDC6010F97039708F402DD6D
:100A2000EE0CFF1C8FEFE81AF80A0E0D1F1DF801DF
:100A30008081882389F041E0BE016F5F7F4FC8014C
:100A400034D5892B49F0EFEFCE1ADE0A6981C60151
:100A5000E4DC0E5F1F4FEBCF2696E8E00C94A01B62
:100A60000F931F93CF93DF93EC0161E080E090E060
:100A7000D4DC6AE181E090E0D0DC82E090E0FC012F
:100A8000E350FF4F64918C010F5F1F4FC6DCC8011C
:100A90000B321105A1F787E390E0FC01E156FF4F0F
:100AA00064918C010F5F1F4FB8DCC801003611053F
:100AB000A1F78091070180FD18C060E18FE090E010
:100AC000ACDC60EB80E190E0A8DC61E781E190E0E4
:100AD000A4DC60E184E490E0A0DC60EB85E490E0DD
:100AE0009CDC61E786E490E098DC88E086DD9ADCB7
:100AF00060E080E690E091DC60E081E690E08DDCF3
:100B000060E083E390E089DC62E084E390E085DCF0
:100B1000209731F08981883719F080E090E022DF5A
:100B2000DF91CF911F910F9108950C94331BCF93B8
:100B3000DF93E898229A2A9A8CE390E0FC0131979F
:100B4000F1F72A980197F1F72A9A8AE590E0019740
:100B5000F1F780E387DD88EC90E00197F1F72A98C0
:100B600080E47ADDC5E9D1E0FE01849175DD21964E
:100B7000F1E0C23ADF07C1F7809101016DDD80919C
:100B800002016ADD8091030167DDC0E0D0E0FE0173
:100B9000EB55FE4F849160DD2196C931D105B9F73F
:100BA0002A9A2A988EE758DD8BE290E0EC01219694
:100BB000BCDF52DDCE01E397C9F72A9A83E352DD09
:100BC00081E0BCDC81E080939702DF91CF910895B2
:100BD000A0E0B0E0EEEEF5E00C94841BEC0189811E
:100BE000843759F465E071E0CE01029644D460E0A8
:100BF00080910501909106010FC0833709F037C13C
:100C00008A81823761F464E071E0CE01039633D4C7
:100C10008091040160E090E0F5D34CDC92C1299A08
:100C200080915501811115C080919502882329F08A
:100C300081E0809357011092950280919802882359
:100C400029F081E0809356011092980270DF83E0D2
:100C500075DC86E307DD8AE305DD8BE303DD1CDD60
:100C6000FE0101900020E9F73197EC1BFD0BEE240B
:100C7000EA94EE0EEB7F11E0E23209F010E000E0C2
:100C80008091040190E0202F002E000C330B2817D8
:100C900039070CF0AAC05B9A113079F48BEE90E022
:100CA00056DC5B9880E197E252DC5B9A83E191E04D
:100CB0004EDC5B988AE59AE008C08091050190912E
:100CC000060145DC5B9880E197E241DC6E0182E041
:100CD000C80ED11CFF24F394FE140CF084C0F6015E
:100CE00081916F018033A9F4113011F480E031C09B
:100CF0005B9A809105019091060129DC5B988091B7
:100D00000501909106019C01220F331F820F931F52
:100D100032C08133A9F4113011F481E01AC05B9A1A
:100D200080910501909106019C01220F331F820FD3
:100D3000931F0DDC5B9880910501909106013FC0E7
:100D4000823311F482E005C0843439F5113019F48E
:100D500083E0BDDD46C05B9A80910501909106015C
:100D60009C01220F331F820F931FF1DB5B98809150
:100D7000050190910601EBDB5B9A80910501909152
:100D80000601E5DB5B9880910501909106019C01CD
:100D9000220F331F820F931F23C01130C9F25B9AB9
:100DA0008091050190910601D2DB5B98809105014D
:100DB000909106019C01220F331F820F931FC7DB06
:100DC0005B9A80910501909106019C01220F331FCF
:100DD000820F931FBCDB5B98809105019091060107
:100DE000B6DBF39479CF0F5F4BCF80915501882309
:100DF00039F08091960281110EC086E333DC18C071
:100E000080915701882349F0109257010E94CC121B
:100E100081E0809395022ADC0BC0809156018823E3
:100E200029F0109256010E94D71002C00E94A6100D
:100E3000299889E62BDB83E729DB01E00E150CF00E
:100E4000ECCEFE01E00FF11D07FDFA9581818033A4
:100E500059F0813349F0823339F0843411F484E459
:100E600003C01130E1F386E411DB0F5FE7CF823777
:100E7000B9F480919502882329F081E0809357018D
:100E80001092950280919802882329F081E0809346
:100E90005601109298024BDE81E08093550151C0BB
:100EA000863619F58A81803351F480E180930101FF
:100EB00080EB8093020181E78093030106C043E049
:100EC00061E071E0CE010296F0D289E6DFDA86E6D3
:100ED000DDDA8AE3DBDA80910101D5DA8091020163
:100EE000D2DA80910301CFDA98CE883719F5809154
:100EF0005701882341F0109257010E94CC1281E0E3
:100F00008093950210C080915601882329F0109299
:100F100056010E94D7100BC082E090E03EDC809129
:100F20009602882311F0A2DB02C086E39BDB1092BD
:100F3000550107C0833629F465E071E0CE010196C2
:100F40009AD2CDB7DEB7E8E00C94A01B0F931F93A5
:100F5000CF93CFEFC60FCF3F61F08C010F5F1F4FD4
:100F6000E4DD91DACC2311F08AE390DAC150C801B4
:100F7000F2CFCF911F910F910895A2E0B0E0E3EC82
:100F8000F7E00C94871BFC0121812D3421F466E0ED
:100F90008AEF93E005C0203529F460E18AED93E003
:100FA000D5DF26C01A82198242E0BE016F5F7F4FF3
:100FB00001967BD2823031F409811A8110270127F2
:100FC000102702C0098110E0C801AFDDF82E82E5CC
:100FD0005DDA64E0C801D8D182ED90E097DA8F2D18
:100FE00052DA8EEC90E092DA62E08F2D90E00AD235
:100FF00061DA2296E5E00C94A31BFC012FB7F8946C
:101000008281811102C02FBF08959FEF980F9283B4
:10101000918181E0890F8183DF01A90FB11D1396B2
:101020009C91803809F411822FBF892F0895FA010D
:101030009081882369F0DB01A90FB11DE1E0F0E0A8
:10104000022E01C0EE0F0A94EAF78C91E82BEC9384
:10105000222319F08FEF820F0BC081E0890F8C30B3
:1010600010F4FA018083FB01E80FF11D108287E084
:1010700090E00895CF93C82F5B9A882319F0809150
:101080009D0202C080919F0220E1829FC001112435
:101090005EDA5B98CC2319F080919C0202C08091AB
:1010A0009E0220E1829FC001112451DACF91089560
:1010B00010926F00E0919B028FE3E89FF0011124F2
:1010C000EF56FE4F1082109289001092880008950A
:1010D000A4E0B0E0EEE6F8E00C947A1B4C01162F89
:1010E000A22EC42ED12CC6010296089F802D112459
:1010F000082E000C990B2091990230919A02281722
:10110000390720F482E692E001DA8BC0281B390B04
:1011100030939A0220939902299A80919802882309
:1011200049F01092980281E191E00E94C11021E003
:10113000298301C019828091970281110AC082E03F
:1011400090E02BDB81E08093970210929502109241
:101150009802A2DA212E312C66246394712CB12CD2
:101160001A82EA818E2FEE0F990B8215930534F4C3
:1011700080E080DF8A818F5F8A83F3CF112311F0B3
:1011800081E078DFF12C8F2D0F2C000C990B9C83C4
:101190008B838C159D05D4F437E0432E512C8B8125
:1011A0009C81880D991D9C838B83C301042C01C0F5
:1011B000880F0A94EAF7EB81FC81908189235ADF3A
:1011C000F1E04F1A510888F7F394DDCF27E0F22EB3
:1011D000880D991D9C838B838F2D0F2C000C990BF0
:1011E000A816B9066CF4C3010F2C01C0880F0A942D
:1011F000EAF7EB81FC81908189233CDFFA94ECCF04
:101200008E2D9CD9015009F0ABCF80919602882396
:1012100011F02CDA02C086E325DAF981F111C7D783
:1012200029982496E2E10C94961B1F93CF93DF93A9
:10123000C09194028093940280912403882309F43E
:101240003CC082E293E0D9DEE09121038A3011F0C4
:101250008D3041F5EE2381F3F0E0E056FD4F108232
:101260004091A00230E0832F90E0FC01EE0FFF1FC1
:101270008E0F9F1FFC01EF5FFD4F2491FC01EE5F7D
:10128000FD4F659174912223F1F0241305C080EA8B
:1012900092E0FB01099503C03F5FE5CF0BD91092A7
:1012A0002103CACFE7FDC8CF91E09E0F90932103A1
:1012B000F0E0E056FD4F8083BFCFC0939402DF91F2
:1012C000CF911F9108958EE592E020D980EA92E0B7
:1012D0002AD986E492E01AD910E0812F90E09C018F
:1012E000220F331F280F391FF901EF5FFD4FD491F3
:1012F000F901EE5FFD4F85919491DD2379F280E253
:10130000C5D88D2FC3D81F5FE8CFCF93DF93FC01E3
:101310008181823709F031C0E898229A2A9A8CE3B9
:1013200090E0FC013197F1F72A980197F1F72A9A9A
:101330008AE590E00197F1F780E394D988EC90E09A
:101340000197F1F7C5ECD1E0FE018491813448F0BA
:1013500083E388D981E0F2D865D881E080931002D8
:1013600010C0FE0131966491FE018491ADD92296A0
:10137000F2E0C130DF0741F7EBCF833711F0109275
:101380001002DF91CF910895A5E0B0E0EAECF9E01A
:101390000C948A1BAC011D8294E0242F2F70915075
:1013A000E92FF0E02A3010F4205D01C0295CA1E0B3
:1013B000B0E0AC0FBD1FEA0FFB1F208384E0569501
:1013C00047958A95E1F761504115510531F780E362
:1013D000615067FD0BC0992349F09150E1E0F0E0C6
:1013E000EC0FFD1FE90FF11D8083F2CF21E030E00B
:1013F0002C0F3D1F290F311DC90195D82596E2E01C
:101400000C94A61BA6E0B0E0E8E0FAE00C94881B80
:10141000362F1E8225E0EAE0F0E0215001E010E0E6
:101420000C0F1D1F020F111DBF010E94491B805D83
:10143000D8018C93CB013150009711F480E20DC09C
:101440002111EBCFFBCF222359F02150E1E0F0E056
:10145000EC0FFD1FE20FF11D8083315037FFF3CFFA
:1014600081E090E08C0F9D1F820F911D5CD8269625
:10147000E4E00C94A41BFC0120E030E08AE09191B0
:10148000992379F040ED490F4A30C8F7829FA001B7
:10149000839F500D11249A0120533109290F311DCA
:1014A000EECFFB01318320830895DC01FB0130E0A6
:1014B00020E09D919923B1F0913608F0905280ED93
:1014C000890F8A3010F4982F05C08FEB890F863072
:1014D00028F49753922B332389F006C0903249F3B6
:1014E0009A3339F3CF0107C09F012F5F3F4F90839D
:1014F000415049F4C901861B970B0895292F229565
:10150000207F31E0D6CFF901D2CFEF920F93CF9366
:10151000DF9300D000D0CDB7DEB743E0BE016F5FF0
:101520007F4F0196C2DF8AE680939F0294E29093F8
:101530009E0291E290939D0280939C0280E88C83AE
:101540008FE0E82E03E026E043E060E0CE01019664
:10155000BFDD0F900F900F900F90DF91CF910F9103
:10156000EF900895A9E1B0E0E8EBFAE00C94811B5C
:101570007E012DE0E20EF11C4BE0B701019695DFF4
:10158000182F85E380939F0296E190939E0290939B
:101590009D0280939C02612FC701B6D5F701E10F30
:1015A000F11D808399249394910E198E19826701FD
:1015B00027E0AA24A394B12C8C2D8E19891508F04C
:1015C00044C000E010E0C501002E01C0880F0A945D
:1015D000EAF7F6019081AE01475E5F4FBE016F5F93
:1015E0007F4F892324DD282F0F5F1F4F0430110503
:1015F00051F7AE01475E5F4FBE016F5F7F4F81E0E5
:1016000016DD282FC501002E01C0880F0A94EAF7C5
:10161000F6019081AE01475E5F4FBE016F5F7F4F65
:10162000892305DD282F0F5F1F4F0830110551F763
:10163000AE01475E5F4FBE016F5F7F4F81E0F7DC19
:10164000282FFFEFCF1ADF0AB7CF8AE0E82E03E09A
:10165000498D6AE0CE0101963BDD6996EBE00C9482
:101660009D1B8F929F92BF92CF92DF92EF92FF923B
:101670000F931F93CF93DF93CDB7DEB769970FB664
:10168000F894DEBF0FBECDBF8E01035F1F4F4BE04E
:10169000B80101960ADF282F893009F05BC039E1D3
:1016A00030939E0230939F0230939D0232E3309339
:1016B0009C02992730E02150F801E20FF11D408192
:1016C00034272111F8CFF801E80FF91F3083198E64
:1016D0001982780127E088248394912CC12CD12C85
:1016E000BE2CB01AF9E0FB1528F1C4010C2C01C086
:1016F000880F0A94EAF7F7019081AE01475E5F4FC9
:10170000BE016F5F7F4F892392DC282FFFEFCF1A36
:10171000DF0A88E0C816D10429F7AE01475E5F4FA3
:10172000BE016F5F7F4F81E082DC282FEFEFEE1A62
:10173000FE0AD4CF222311F0215004C0898D8F5F7F
:10174000898F27E08AE0E82E03E0498D6CE0CE0126
:101750000196BEDC69960FB6F894DEBF0FBECDBF12
:10176000DF91CF911F910F91FF90EF90DF90CF907D
:10177000BF909F908F900895EF920F93CF93DF9338
:10178000CDB7DEB760970FB6F894DEBF0FBECDBF02
:1017900040E1BE016F5F7F4F019687DE69814A811C
:1017A0000B818C8180939F028D8180939E028E811C
:1017B00080939D028F8180939C02E02EE2948FE0C3
:1017C000E8220F70242F2F7042954F70CE0108969B
:1017D0007FDC60960FB6F894DEBF0FBECDBFDF9101
:1017E000CF910F91EF900895A9E1B0E0EAEFFBE00F
:1017F0000C94821B4BE0BE01635F7F4F019655DE68
:10180000EDE0F0E0EC0FFD1FE80FF11D982F26E052
:10181000992351F09150ADE0B0E0AC0FBD1FA90F7E
:10182000B11D3C91230FF4CF208311E0180F198EC6
:10183000198227E000E0EE24E394F12C97E0C92E12
:10184000D12C3DE0A32EB12CAC0EBD1EA00EB11CC0
:10185000011758F5C7010C2C01C0880F0A94EAF74C
:10186000F5019081AE01475E5F4FBE016F5F7F4F14
:101870008923DDDB282FF1E0CF1AD10848F7F501E5
:101880008081082E82958025082E86958695802554
:101890008F5F86958170AE01475E5F4FBE016F5FBF
:1018A0007F4FC5DB282F0F5FC9CF222311F02150B6
:1018B00004C0898D8F5F898F27E089E180939E0224
:1018C00080939F0285E280939C0280939D028AE030
:1018D000E82E03E0498D6CE0CE010196F9DB6996B4
:1018E000EAE00C949E1B1F920F920FB60F921124E8
:1018F0002F933F934F935F936F937F938F939F9318
:10190000AF93BF93EF93FF9380911302882331F03D
:1019100081E192E072DB8093C60005C08091C10036
:101920008F7D8093C100FF91EF91BF91AF919F9107
:101930008F917F916F915F914F913F912F910F9078
:101940000FBE0F901F901895FC019FB7F8948281ED
:1019500087FD0EC08F5F8283208181E0820F8083AC
:10196000DF01A20FB11D13966C93803809F4108229
:101970009FBF08951F920F920FB60F9211242F93BD
:101980003F934F935F936F937F938F939F93AF9307
:10199000BF93EF93FF936091C6008091C000887160
:1019A00019F482E293E0D0DFFF91EF91BF91AF9104
:1019B0009F918F917F916F915F914F913F912F9167
:1019C0000F900FBE0F901F901895FC018481958198
:1019D000A081B181A80FB11D2C9130E0092E02C069
:1019E000359527950A94E2F721703FEF390F35833B
:1019F000911104C08F5F848387E08583822F0895CF
:101A0000A0E0B0E0E6E0FDE00C94811B8C01942E98
:101A1000C62ED12CC0E0D0E0B12CAA24A39476012C
:101A200021E0E21AF108CC15DD05C9F0C801CDDFCF
:101A3000882399F0992051F0C7018C1B9D0B2A2D0A
:101A400001C0220F8A95EAF7822F06C08A2D0C2E3C
:101A500001C0880F0A94EAF7B82A2196E4CF8B2DAB
:101A6000CDB7DEB7EBE00C949D1BFC018181823386
:101A700008F01ECB662389F0DF01A80FB11D21E01D
:101A800030E0038002C0220F331F0A94E2F714965D
:101A90009C911497292B14962C939381992319F0D8
:101AA0009150938309C097E093838F5F8183DF0117
:101AB000A80FB11D14961C9286A98F5F86AB08955E
:101AC000DC01362F11962C911197E22FF0E050E0B7
:101AD0009C91BF01641B750B655F7F4F673171057A
:101AE000C8F4892F90E0632F70E09C01261B370B10
:101AF000255F3F4F2731310568F49F01280F391FBB
:101B0000640F751F261B370B255F3F4F81E0273180
:101B1000310508F080E008951F920F920FB60F92E2
:101B20001124FF920F931F932F933F934F935F9333
:101B30006F937F938F939F93AF93BF93CF93DF93D5
:101B4000EF93FF9380910F02882321F082E080932E
:101B50000F0222C10091840010918500E4E01695E7
:101B60000795EA95E1F7C0919B029FE3C99FE001C9
:101B70001124CF56DE4F90919001923089F4288144
:101B8000243039F40E3208F407C10F3448F090DAEB
:101B900003C1253029F4073108F4FEC00832B8F734
:101BA0004A9910C0923059F488818450823038F4B8
:101BB00061E0CE015ADF10928500109284000093FC
:101BC0008F01EAC080918F01081B00938E01109253
:101BD000850010928400923041F4888184508230D4
:101BE00020F460E0CE0141DFD7C082E086BBF88000
:101BF00000918F01FF2049F010918E01F81609F134
:101C00007BC0243008F047C018821FAA18AE19AE56
:101C10001AAE1BAE1CAE1EAE1DAE1EAA198287E008
:101C20008B831C82053608F0B7C080918E01853603
:101C300008F0B2C00FAB88AF81E08A8382E088836E
:101C4000ABC022E0412F602FCE01C79639DF2A8139
:101C50008823B9F28FA990E0AC01440F551F840F7F
:101C6000951F800F911D95958795959587958FABBD
:101C700088AD90E0AC01440F551F840F951F810F74
:101C8000911D959587959595879588AF1EAE1DAE4C
:101C90002F5F2A8381C080EA9FE090938900809320
:101CA00088008A818C3050F02FA988AD90E0820F97
:101CB000911D8536910524F084E013C08A3080F0B0
:101CC0002FA988AD90E0820F911D85974CF485E097
:101CD000888388EE93E0909389008093880002C007
:101CE00083E0888309AF1AAF198287E08B831C8257
:101CF00082E080936F0050C02F2D412F602FCE01C6
:101D0000C996DEDE882301F161E0CE01AEDE89AD49
:101D100090E09C01220F331F820F931F800F911DB3
:101D2000959587959595879589AF8AAD90E09C01AB
:101D3000220F331F820F931F810F911D9595879559
:101D4000959587958AAF28C02F2D412F602FCE0102
:101D5000C796B6DE882309F41ACF60E0CE0185DE8F
:101D60008FA990E09C01220F331F820F931F800FD9
:101D7000911D95958795959587958FAB88AD90E04A
:101D80009C01220F331F820F931F810F911D959588
:101D900087959595879588AFFF91EF91DF91CF91CA
:101DA000BF91AF919F918F917F916F915F914F9173
:101DB0003F912F911F910F91FF900F900FBE0F90A9
:101DC0001F9018951F920F920FB60F9211242F9308
:101DD0003F934F935F936F937F938F939F93AF93B3
:101DE000BF93EF93FF9310926F008091960283FF51
:101DF00003C08EE20E94460280919B029FE3899F6E
:101E0000F0011124EF56FE4F9081933018F091812C
:101E1000923010F44DD918C090918D01913049F451
:101E20008091960282FFF6CF8EEB91E00E948602AF
:101E3000F1CF9F5F90938D018F5F823019F0809377
:101E40009B0202C010929B02FF91EF91BF91AF9154
:101E50009F918F917F916F915F914F913F912F91C2
:101E60000F900FBE0F901F901895A0E0B0E0EBE32D
:101E7000FFE00C947E1BFC018A0110928A01A18074
:101E8000AA0CAA0CAA0C8381A81A8A2D97E0992E75
:101E90009A0C1092580128E0A22EA80E41E070E0A2
:101EA00057E087E0B12C90E037E0E32EF12CC1E061
:101EB000D0E0A41609F481C09F012B0D311DD9017A
:101EC00014962C9130E0082E02C0359527950A947F
:101ED000E2F721703327882311F0815002C0B394B8
:101EE00087E06B3469F4533009F04AC0711106C0C1
:101EF000232B09F05FC010928A016EC070E042C0CF
:101F00005F3F41F56634B1F4C92ED12CD601A85AF1
:101F1000BE4F5C91052E52955025052E569556952F
:101F200050255F5F51FB662460F8712C261537053C
:101F300041F004C0653429F4232B19F470938A010D
:101F40004BC09F5F292F30E0285A3E4FD9011C9289
:101F500057E031C0232B61F1663479F4292F30E04A
:101F6000D901A85ABE4F8C909E01052E01C0220FA8
:101F70000A94EAF728292C931BC0653429F018C06D
:101F80005F3FD1F2232BA1F0292F30E0285A3E4F9A
:101F90006701C51AD10857FDD394DE0102C0AA0F0C
:101FA000BB1FCA94E2F76D01D901DC90CD28CC9219
:101FB000515001C071E04F5F7CCF70938A019A1439
:101FC00058F4653411F45F3F09F071119F5FF80117
:101FD000908381E0911101C080E0CDB7DEB7EEE0E3
:101FE0000C949A1BA1E0B0E0E8EFFFE00C94831B97
:101FF0001982FC012181223709F071C0228122233C
:1020000029F0BE016F5F7F4F029635DAB9808FEFFE
:102010008B0D833028F081E793E00E94860270C028
:10202000E898229A1092AF032A9A8CE390E0FC0180
:102030003197F1F72A980197F1F72A9A8AE590E00B
:102040000197F1F780E30E94320388EC90E001975A
:10205000F1F703E413E0F8018491813468F0F4E1CE
:10206000BF9E80011124C12CD12C780184E1E81A93
:10207000F108035111091FC0F80131966491F8016C
:1020800084910E9464030E5F1F4FF3E00F371F0718
:1020900011F7E5CFF801EC0DFD1DE95FFC4F6491F0
:1020A000FC0184910E946403F2E0CF0ED11C84E114
:1020B000C816D10449F0C7018C0D9D1D895F9C4F46
:1020C000FC012491213430F383E30E943203B09267
:1020D000AF030E94120281E00E949E020BC02837CB
:1020E00049F48091AF03882319F086E30E943203FC
:1020F0001092AF038091AF030E9443020E945A02E4
:102100002196E9E00C949F1BFC0170918A0140E04C
:1021100095E020E0662399F06150DF01A60FB11D24
:102120003C91532F52955F702527950F772311F01F
:10213000442319F03F702327930F4F5FEBCF920F8B
:1021400030E1939FC0011124822B08958091960263
:10215000882369F082E090E00E94CD0381E08093C3
:10216000970210929502109298020C94360386E31F
:102170000E943203109297021092950210929802D8
:102180000895FC01218121110CC0809196020E94CA
:10219000430265E08091990290919A0233D90C94A0
:1021A0005A0241E066E972E001967FD9CFCF0F93E2
:1021B0001F93CF93DF93E898229A2A9A8CE390E0BA
:1021C000FC013197F1F72A980197F1F72A9A8AE5ED
:1021D00090E00197F1F780E30E94320388EC90E0F1
:1021E0000197F1F7CBEBD2E0FE018491813450F0FE
:1021F00083E30E94320384E00E949E02CFEF04E159
:1022000010E00DC0FE0131966491FE0184910E94A0
:1022100064032296F2E0C73FDF0731F7E9CF84E39A
:102220000E943203C8010197F1F7C150C1F781E064
:10223000809398020E941202DF91CF911F910F911B
:1022400008954F925F926F927F928F929F92AF927A
:10225000BF92EF92FF921F93CF93DF937C01EB012C
:10226000FC0110811F5F209719F420E030E002C0CC
:1022700024E630E0F8E01F9FC00111246AE070E01E
:102280000E945D1B260F371F4901032E000CAA0870
:10229000BB088091990290919A02AC0160E070E0D5
:1022A000481559056A057B0528F487EF92E00E94DE
:1022B0008602D6C0821B930B90939A028093990258
:1022C00080919802811101C072DF85E30E946E0344
:1022D0008D3071F08AE50E94460285E40E94460234
:1022E00082E50E94460282E50E94460281E349C0DF
:1022F0008090B1039090B203A090B303B090B40368
:1023000081149104A104B104B1F40E944C0385E34B
:102310000E946E03833109F43FC08AE50E944602A1
:1023200085E40E94460282E50E94460282E50E9400
:10233000460282E326C0240135014FEF441A540AB5
:10234000640A740A8091A5039091A603A091A70343
:10235000B091A80388169906AA06BB0621F481E06D
:102360000E949E02EFCF8091A5039091A603A091B9
:10237000A703B091A803481659066A067B0679F3AD
:10238000C4CF0E94460285E30E946E030E9443026E
:102390000E945A020CDF64C0CD2B41F42A988FE7CB
:1023A0000E942C03BE2CCE2DDF2D08C0CAE0D0E049
:1023B00084E60E949E022197D9F7F0CF8C2F8B19CB
:1023C000811720F489910E942C03F8CF2A9AC0E04B
:1023D00085E30E946E03D82F85E30E946E03D81315
:1023E00005C0DD3031F081E00E949E02CF5FCA3F20
:1023F00079F785E30E946E038D30E9F08AE50E944B
:10240000460285E40E94460282E50E94460282E579
:102410000E94460283E30E94460285E30E946E0307
:102420000E9443028D2F0E9443028C2F0E94430280
:102430000E945A02BCDE80919802811101C086DEA2
:102440008091A5039091A603A091A703B091A80342
:102450008093B1039093B203A093B303B093B403FA
:10246000DF91CF911F91FF90EF90BF90AF909F9021
:102470008F907F906F905F904F900895AEE1B0E0A5
:10248000E4E4F2E10C94881B8C01FC018181823729
:1024900011F48DDE36C0833711F0863601F54DE13B
:1024A000BE016F5F7F4FC80102960E94550A9927AF
:1024B0000197298130E08217930729F08EEF92E08F
:1024C0000E9486021EC061E070E0F80181818337BE
:1024D00011F060E070E0CE010196B3DE12C08136EB
:1024E00021F443E06CEA73E005C0873741F443E030
:1024F00069EA73E0C80102960E94550A02C0109270
:1025000098026E96E4E00C94A41BACE0B0E0EBE81B
:10251000F2E10C94891BFC018BE0898381818A8321
:102520001B8282E08C8387818D8380858E83818569
:102530008F83848188878581898786818A871B86A6
:102540001C8684E10E949E0260E070E0CE0101964C
:1025500078DE8AE50E94460210E0812F90E0298112
:1025600030E0281739075CF0E1E0F0E0EC0FFD1FE8
:10257000E80FF91F80810E9443021F5FEECF809118
:10258000960285FF03C080E00E9443020E945A0227
:102590002C96E3E00C94A51B0F931F93CF93DF932E
:1025A000E898229A2A9A8CE390E0FC013197F1F79F
:1025B0002A980197F1F72A9A8AE590E00197F1F7B6
:1025C00080E30E94320388EC90E00197F1F7CFE7B7
:1025D000D2E0FE0131966491FE0184910E94640371
:1025E0002296F2E0C13BDF07A1F78091B003811191
:1025F00007C083E30E94320384E00E949E0210C061
:10260000C9E6D2E00FE712E0FE0131966491FE01C7
:1026100084910E94640322960C171D07A9F7E9CF45
:1026200084E30E94320385E30E946E038D30C1F77C
:10263000DF91CF911F910F910895AAE3B0E0E3E2FB
:10264000F3E10C94801BFC019181923731F09235BB
:1026500059F481E08093B00302C01092B0039CDF74
:1026600081E080939502BCC0933709F0B7C041E385
:102670008E010F5F1F4FB801CF0102960E94550ACD
:102680007C019C01332721503109898190E0281772
:10269000390709F0A5C080919502811104C07CDF43
:1026A00083E00E949E02DB809A8186E789278A83E5
:1026B00022E03981822F90E0F801E80FF91F2317FB
:1026C00050F4DE01A80FB91F8C91845290818927A4
:1026D00080832F5FEECF80818D258083CE01C796CA
:1026E0000E94AC0285E30E94320385E30E946E03E0
:1026F000833181F1CE01C3960E94AC024BA95CA943
:102700006DA97EA98FA998ADA9ADBAAD841795071B
:10271000A607B70760F44A015B01881A990AAA0A5A
:10272000BB0A2DEB82169104A104B10470F4481782
:1027300059076A077B0770F484549F4FAF4FBF4F10
:1027400084179507A607B70728F481EB92E00E944B
:10275000860227C085E30E946E03833119F6D4FEFA
:1027600008C088E70E949E0288E70E949E0288E7D0
:1027700001C08AE00E949E022A988FE70E942C03E3
:1027800068018C2D801B8E1530F4F60181916F014C
:102790000E942C03F6CF2A9A85E30E946E038331B0
:1027A000D9F385E30E946E03863149F48BE30E94DE
:1027B000320386E30E9432038DE30E94320380914C
:1027C0009502882349F084E30E94320385E30E9446
:1027D0006E038D30C1F704C0B9DC02C010929502BF
:1027E000EA96ECE0A9C7A5E8B0E0E8EFF3E182C71C
:1027F0000FB6F894A895809160008861809360007E
:10280000109260000FBE91E080E80FB6F8948093BC
:102810006100909361000FBE219A299A2D9A84B18C
:102820008C6284B9249880E58CBD8DB581608DBDA6
:1028300080E090E00E949505813031F481E090E0E5
:102840000E9495058A3121F080E090E00E943005D9
:1028500084E390E00E9495058093000189EF87BD95
:1028600084E085BD82E084BD80936E00109280007C
:102870008AE08093810084B7877F84BF9FE088E1EE
:102880000FB6F894A895809360000FBE90936000F7
:102890008CE090E09093C5008093C40088E9809319
:1028A000C10086E08093C2000E94E501539A5B98C4
:1028B00052988091690081608093690082EC91E078
:1028C00090939A02809399021092D00110929702ED
:1028D00085E199E0909351018093500181E08093CC
:1028E00094020E9412022998789447E0C42ED12CB9
:1028F000E0915001F091510181E009958091C10072
:1029000085FD09C080911302882329F08091C100C0
:1029100080628093C100CF57DF4F1882C158D040EA
:1029200080918E018823B9F18091960287FF17C0AC
:1029300084E30E946E038058803458F0803C58F441
:1029400090E08055910933E0959587953A95E1F7A8
:1029500003C080E001C08FE08F590E944602809141
:10296000960283FF16C082E70E944602809196027B
:1029700084FF04C080918F010E94460286E60E9477
:1029800046028091960284FF04C080918E010E94CD
:10299000460210928E0180918D01882309F409C3AB
:1029A000299A00914C012FE3029F800111240F56B8
:1029B0001E4F80919001823009F065C01D8237E082
:1029C0003E83C80104969A838983D8018C9185300F
:1029D00009F059C011962C91119713968C91F6011C
:1029E000E81BF109CF01F8E02F9F800D911D112404
:1029F0008039910509F047C088E5682E81E0782E7E
:102A000099E8892E2FE0E22E20EFF22E41E068E0D7
:102A1000CE0101960E94000DE80EF11C8826D3011C
:102A20008D923D01B4E28B2E880EB7E66B16B1E0B5
:102A30007B0661F741E068E0CE0101960E94000D3F
:102A4000E80EF11C80958093670180E1CF57DF4F3E
:102A50008883C158D04041E068E0CE0101960E94D1
:102A6000000D90E0982F8827E81AF90A41E068E005
:102A7000CE0101960E94000D90E0E816F90619F4C7
:102A8000F3E57F2E01C0712C80919001823009F016
:102A90007BC0711079C0F8018081843009F074C066
:102AA0001D82F7E0FE83C80104969A838983D801CA
:102AB00011962C91119713968C91F601E81BF10950
:102AC000CF01F8E02F9F800D911D112485349105D1
:102AD0000CF45AC0E8E5EE2EE1E0FE2E812C40E039
:102AE00068E0CE0101960E94000D5701D7018C933A
:102AF000682E062C62946024062C669466946024EA
:102B0000CE0101960E94E50C639461FA222420F81C
:102B1000312C90E028163906B9F5CE0101960E94B5
:102B2000E50C811131C0BFEFEB1AFB0AF501808182
:102B300088262EE531E02E153F0589F636E0CF5781
:102B4000DF4F3883C158D04040E068E0CE010196A5
:102B50000E94000DE82EF82E0F2CF294F0240F2C7A
:102B6000F694F694F024CE0101960E94E50CF394BD
:102B7000F1FA442440F8512C90E04816590621F40B
:102B80008E1002C078E4772ED8018C91833009F042
:102B900080C071104CC0AE014F575F4F66E4C80152
:102BA00064D9882309F443C0CF57DF4F8881C158C7
:102BB000D0408150CF57DF4F8883C158D040282F55
:102BC00096E0222341F02150E22FF0E0E85AFE4F38
:102BD0003081930FF6CFE82FF0E0E85AFE4F608186
:102BE000691302C0843008F5292F30E02F5F3F4F72
:102BF000462F50E02417350711F4843018F4982F2D
:102C00002CE002C0908311C0992341F09150E92F2C
:102C1000F0E0E85AFE4F3081230FF6CF621307C071
:102C2000843028F054E5752E02C066E4762E80913B
:102C30009001823051F571102FC0AE014F575F4F98
:102C400065E4C80112D9882309F488C4CF57DF4F3F
:102C50008881C158D0408150CF57DF4F8883C158F9
:102C6000D040893009F07AC490E08150E82FF0E03C
:102C7000E85AFE4F208192278111F7CF80916101A0
:102C800089136CC495E4792E07C0772009F466C4D3
:102C900003C0772009F4E4C04091960240FFE0C0F1
:102CA00080914B018E7F8B7F80934B01B42FB2704C
:102CB000FB2E41FD68C060914A01CF57DF4F58811C
:102CC000C158D04065133EC080E08617C0F4282F5D
:102CD00030E071E0780FF901E85EFE4FD901A85AA3
:102CE000BE4FE0812C91E21741F080934A01209180
:102CF0004B012D7F20934B0104C0872FE6CF80939B
:102D00004A0186131FC08090A5039090A603A0904F
:102D1000A703B090A8038091140190911501A09190
:102D20001601B0911701881A990AAA0ABB0A96E2FD
:102D300089169104A104B10428F480914B018160AB
:102D400080934B01F51660F42F2D30E0F901E85E19
:102D5000FE4FD901A85ABE4F8C918083F394F2CFD5
:102D6000F0924A018091A5039091A603A091A70338
:102D7000B091A8038093140190931501A0931601BC
:102D8000B093170104C08D7F816080934B01A4E54F
:102D90007A1220C046FD1EC0CF57DF4F8881C15830
:102DA000D0408530B8F080915A018B3471F089366B
:102DB00061F09DEA980F923040F08D57823028F0F4
:102DC00080915B018077803729F480914B0181608D
:102DD00080934B0180914B0180FD03C08460809300
:102DE0004B0180914B0182FF3BC0872D0E94460220
:102DF00080918A01882359F0CF57DF4F8881C158CD
:102E0000D0408150CF57DF4F8883C158D040F12C3C
:102E1000CF57DF4FE881C158D040FE1648F4EF2D60
:102E2000F0E0E85AFE4F80810E944302F394F0CF15
:102E300080918A01882349F0F0E0E85AFE4F8081B2
:102E40008F7061E090E00E94C4098091960285FF36
:102E500005C084E30E946E030E9443020E945A024E
:102E60008091960282FF92C080E70E944602F8019C
:102E7000808162E090E00E94020AD801D7968C918E
:102E800065E0B0E18B9FC00111240E94020AF801A5
:102E900080AD65E0F0E18F9FC00111240E94020A1D
:102EA000D801D9968C9165E0B0E18B9FC0011124C7
:102EB0000E94020AF80182AD65E0F0E18F9FC00137
:102EC00011240E94020AD801DB968C9165E0B0E1E2
:102ED0008B9FC00111240E94020AF80184AD65E0B5
:102EE000F0E18F9FC00111240E94020AD801D696FA
:102EF0008C9164E090E00E94020AF801828163E014
:102F000090E00E94020AD80111968C9163E090E053
:102F10000E94020AF801838162E09601281B3109B0
:102F2000C9010E94020AD801DD968D919C91DE971D
:102F300065E024E0880F991F2A95E1F70E94020AB4
:102F400080E20E9446028091960285FF08C084E3D9
:102F50000E946E030E94430280E20E944602F80132
:102F60008381873019F081818F5F8183F12CD801B3
:102F700011968C91F81640F4F801EF0DF11D848143
:102F80000E944302F394F3CF0E945A02F801108288
:102F900016AA80918D01815080938D0180914C0102
:102FA0008F5F823019F080934C0102C010924C0167
:102FB00029988091A5039091A603A091A703B091B1
:102FC000A80320914E01281781F18091A5039091CB
:102FD000A603A091A703B091A80380934E01A895E2
:102FE000809152018D3708F11092520180910001B9
:102FF00081FF04C095B182E0892785B9809199024B
:1030000090919A028438F3E09F0728F401969093F8
:103010009A028093990280914D018F5F8C3319F051
:1030200080934D0102C010924D0180910F028823C0
:1030300009F454C0813011F58091A5039091A60345
:10304000A091A703B091A80320914F01281709F47C
:1030500045C085E30E946E03813129F48AE30E9412
:1030600032030E9436038091A5039091A603A0919C
:10307000A703B091A80380934F0130C08FE30E9453
:103080006E03882E87FD27C02A988FEF0E942C039D
:103090008E010F5F1F4F7801702E8E2D801B8815BB
:1030A00038F480E00E942C03D7018D937D01F5CF89
:1030B0002A9A81E080939402802F8719881530F432
:1030C000F80181918F010E944602F6CF0E945A02B8
:1030D0008FEF8093940281E080930F02809195029C
:1030E000882309F4D5C04A9B8AC08FE30E946E03EF
:1030F0008F778983823368F08AE30E94320386E304
:103100000E9432038DE30E94320384E30E94320363
:10311000BFC02A988FEF0E942C0310E089811817F6
:1031200060F480E00E942C03E2E0F0E0EC0FFD1F71
:10313000E10FF11D80831F5FF1CF80E00E942C031F
:10314000182F80E00E942C032A9A84E30E94320305
:1031500085E30E946E038D30C1F78A8196E7982738
:103160009A8392E02981E92FF0E0921768F421E038
:1031700030E02C0F3D1FE20FF31F20818452822785
:1031800080839F5F822FEECF41E050E04C0F5D1FA8
:10319000E40FF51F90818B818927808380919602AF
:1031A00084FF12C081E60E94460210E089818117E7
:1031B00030F1E1E0F0E0EC0FFD1FE10FF11D808147
:1031C0000E9446021F5FF2CF81E40E94460200E0A7
:1031D0008981801758F0E1E0F0E0EC0FFD1FE00F6F
:1031E000F11D80810E9443020F5FF2CF8091960211
:1031F00085FF03C0812F0E9443020E945A0285E38B
:103200000E946E03813029F0813161F48AE30E94CB
:10321000320386E30E9432038DE30E94320384E38B
:103220000E94320385E30E946E038D3089F585E2AA
:103230000E946E038F3361F585E20E946E038F3327
:1032400009F586E30E9432038FE690E00E94860231
:1032500083E30E94320310E085E30E946E03813015
:1032600051F485E20E946E038F3361F488E690E0AA
:103270000E94860207C084E090E00E94A7021150DD
:1032800059F7EFCF84E30E94320380778031D1F782
:1032900080919802882309F4AAC04A9B9AC08FE3C0
:1032A0000E946E038F778E3108F08DE189832A9812
:1032B0008FEF0E942C0310E08981181760F480E0E2
:1032C0000E942C03E2E0F0E0EC0FFD1FE10FF11D86
:1032D00080831F5FF1CF80E00E942C03082F80E0E5
:1032E0000E942C032A9A9091AC03911108C08091FE
:1032F000AD03811104C08091AE038823B1F08C81AD
:10330000803319F08F7E803481F4888598130DC046
:1033100099858091AD03981308C09A858091AE037A
:10332000981303C0CE010196F0D88091A9038111B2
:1033300008C09091AA03911104C09091AB03992306
:10334000B1F099819B3099F49C81903481F49885F7
:1033500089130DC099858091AA03981308C09A8596
:103360008091AB03981303C0CE010196CED8809113
:10337000960284FF12C08AE70E94460210E089810B
:103380008117A8F1E1E0F0E0EC0FFD1FE10FF11D66
:1033900080810E9446021F5FF2CF8AE50E944602AA
:1033A00010E08981811758F0E1E0F0E0EC0FFD1F9B
:1033B000E10FF11D80810E9443021F5FF2CF8091D7
:1033C000960285FF03C0802F0E9443020E945A028A
:1033D0000EC085E30E946E03813149F48AE30E94A6
:1033E000320386E30E94320384E30E943203809119
:1033F0001002882309F474C04A9B5FC08FE30E94C7
:103400006E038F778E3108F08DE189832A988FEFD4
:103410000E942C0310E08981181760F480E00E945C
:103420002C03E2E0F0E0EC0FFD1FE10FF11D8083C3
:103430001F5FF1CF80E00E942C03082F2A9A8AE3B5
:103440000E94320386E30E9432038DE30E9432031E
:1034500084E30E9432038091960284FF12C087E7C2
:103460000E94460210E089818117D0F1E1E0F0E08E
:10347000EC0FFD1FE10FF11D80810E9446021F5FCE
:10348000F2CF87E50E94460210E08981811758F04B
:10349000E1E0F0E0EC0FFD1FE10FF11D80810E94E3
:1034A00043021F5FF2CF8091960285FF03C0802FF9
:1034B0000E9443020E945A0213C085E30E946E03D9
:1034C000813011F0813161F48AE30E94320386E396
:1034D0000E9432038DE30E94320384E30E94320390
:1034E0008091AF03882309F403CA4A9B22C086E374
:1034F0000E9432038BE30E946E03082F0F7709F4BA
:10350000F7C92A988FEF0E942C038EE40E9446028E
:103510008091AF030E94430210E080E00E942C03E0
:103520000E9443021F5F0113F8CF2A9A0E945A0299
:10353000DFC985E30E946E03813019F0813109F003
:10354000D7C98AE30E94320386E30E9432038DE3E7
:103550000E94320384E30E943203CAC91D8257E0ED
:103560005E83C80104969A838983D80111968C9151
:10357000843089F5F8018381813069F548E5E42ECE
:1035800041E0F42E812C41E0811007C067E0CE01BC
:1035900001960E94000D806805C068E0CE0101968A
:1035A0000E94000DD7018D937D018394B4E08B12AE
:1035B000EACF41E067E0CE0101960E94000D880F3E
:1035C00080935C0185E0CF57DF4F8883C158D0409E
:1035D00034E7732E61CBF801208142AD60918F01F9
:1035E000C801C9960E94600D682FC8010E94350D60
:1035F000AE014F575F4F6BE4C8010E94350F88231F
:10360000E9F0CF57DF4FE881C158D040FF24FA944A
:10361000FE0ECF57DF4FF882C158D0406F2D88E59E
:1036200091E00E948410EF2DF0E090918A01E91B57
:10363000F109E85AFE4F9081891791F0F8018381D2
:10364000873059F4D80113961C92139711968C91D8
:103650001197815011968C9303CC8F5F838300CC9C
:103660008BE4782E19CBF999FECF92BD81BDF89AE3
:10367000992780B50895262FF999FECF1FBA92BDDC
:1036800081BD20BD0FB6F894FA9AF99A0FBE019643
:103690000895AA1BBB1B51E107C0AA1FBB1FA61799
:1036A000B70710F0A61BB70B881F991F5A95A9F7EB
:1036B00080959095BC01CD01089597FB072E16F4D7
:1036C000009406D077FD08D0E4DF07FC05D03EF477
:1036D000909581959F4F0895709561957F4F0895BE
:1036E00040D0A59F900DB49F900DA49F800D911D7B
:1036F000112408952F923F924F925F926F927F9282
:103700008F929F92AF92BF92CF92DF92EF92FF92F1
:103710000F931F93CF93DF93CDB7DEB7CA1BDB0B9D
:103720000FB6F894DEBF0FBECDBF09942A88398842
:1037300048885F846E847D848C849B84AA84B98449
:10374000C884DF80EE80FD800C811B81AA81B98155
:10375000CE0FD11D0FB6F894DEBF0FBECDBFED0169
:103760000895A29FB001B39FC001A39F700D811D5A
:103770001124911DB29F700D811D1124911D08957A
:04378000F894FFCFEB
:103784000210B07106A401FF30460031300031311F
:0437940000323100CE
:00000001FF
