:1000000075C100000C94D90F8EC100008CC1000096
:100010008AC1000088C1000086C1000084C10000C0
:1000200082C1000080C100007EC100000C949313C7
:100030007AC1000078C100000C94F51374C100006F
:1000400072C1000070C100000C947B0F0C94A70FCC
:100050006AC1000068C1000066C1000064C1000000
:1000600062C1000060C10000504C4C310D0A0050CC
:100070004C4C300D0A0000030F1E26270000000321
:100080000F1E2536386700030F25674060500003B8
:100090000F275188838100030F2750C8C3C2002750
:1000A0000000000000000067000000000000005099
:1000B000000000000000008100000000000000C2FD
:1000C000000000000000202F2000203D2000202FF5
:1000D0002000203D2000072E050DD391FF080500CC
:1000E000000C0021656A2D3B1322F862073F181DA2
:1000F0001CC700B0876BF8B611EA2A001F41000D3B
:100100002E2D07D3913D04320000060021656A5769
:10011000C43023B900070018146C070090876BF8EF
:100120005611E92A001F41002028462D42616E64C5
:100130003A203836384D487A29002028462D426129
:100140006E643A203433334D487A29006E616E6F05
:1001500043554C383638006E616E6F43554C34331E
:1001600033005620312E32382E323120612D637506
:100170006C6677204275696C643A203231202832EF
:100180003032362D30382D32342031303A32303A58
:1001900033302920000D2E2D07D3913D043200006D
:1001A000060010B07155E43023B900070018146C34
:1001B000070090876BF85611E92A001F41000007DD
:1001C000022E030D04E905CA070C0B060D210E656E
:1001D0000F6A10C811931203153417331818191623
:1001E0001B4321562500261129592C812D353EC34C
:1001F0004552523A4343410D0A000302FF000000FA
:1002000000000000000000000000000000000302E9
:1002100010881182FF0000000000000000000000B4
:10022000000003071088110B0D210E6B0FD0155322
:10023000FF00000000000B060D210E650F6A17007D
:10024000181819161B431C682500261100010246C8
:1002500005D4042D0302070008021089115C120660
:100260001556FF00737065636966792076616C6965
:1002700064206D6F6465206E756D6265720D0A0095
:10028000424F56460D0A0041090B42D00D43C705A7
:1002900065A90E46670A664708472F0A69460D4B4F
:1002A00040094C260F6CF80D4DBC094E860752F1E3
:1002B0000654510E743605551309568604570A0E16
:1002C00058F40A780E0F00000020697320756E6BD9
:1002D0006E6F776E2920557365206F6E65206F668F
:1002E000003F2028004C4F56460D0A0011241FBE27
:1002F000CFEFD8E0DEBFCDBF11E0A0E0B1E0E8EA8B
:10030000F6E302C005900D92A231B107D9F723E0C0
:10031000A2E1B1E001C01D92AD3BB207E1F70E943E
:100320001F140C94521B6CCEDC0112962D913C9143
:10033000139750E0F901E41BF50B8D919C91EC3083
:10034000F105D4F4E53FFF4FBCF070E0FC01E61B83
:10035000F70BEC30F10584F4E53FFF4F6CF0280F0C
:10036000391F460F571F241B350B2C30310524F441
:1003700081E0253F3F4F0CF480E00895CF92DF925B
:10038000FF920F931F93CF93DF93FC01C080D18026
:1003900050E040E080E097E0F92E262F2150330B0B
:1003A000E90101E010E0948175819601290F311D6A
:1003B000D9012C9130E0072E02C0359527950A947B
:1003C000E2F721703FEF370F3583711103C09F5F54
:1003D0009483F582222351F09E01241B350BD80112
:1003E00002C0AA0FBB1F2A95E2F78A2B4F5F5F4F0F
:1003F0004617C8F2DF91CF911F910F91FF90DF90C8
:10040000CF9008950F93742FABE8B3E0FA019E2FBD
:10041000971B9817E8F06730B9F0A82FB0E0FA0101
:10042000EA0FFB1F002359F0908190956F5F4FEF0B
:1004300050E001C0440F6A95EAF7942390839081BD
:10044000A557BC4F9C938F5FF90180830F9108954E
:10045000002319F090819095908391919D93D7CF2F
:10046000FC0130E020E08AE09191911105C03093C9
:10047000060120930501089540ED490F4A30A0F789
:10048000829FA001839F500D11249A0120533109AE
:10049000290F311DE9CFFC0120E08AE091919111F3
:1004A00003C0FB012083089530ED390F3A30B0F7D7
:1004B000289F900D112420ED290FF0CFDC01FB01C6
:1004C00030E020E09D919923D9F0913608F09052C8
:1004D00080ED890F8A3050F4982F922B3323A1F0AE
:1004E000442371F0908341503196EACF8FEB890F0E
:1004F000863010F49753F1CF903221F39A3311F3F1
:10050000CF01861B970B0895292F2295207F31E07C
:10051000D9CFFC012FB7F8948281811102C02FBF7F
:1005200008959FEF980F9283A18191E09A0F918394
:10053000AE0FBF2FB11D13968C91903881F71182A9
:10054000EECFFC019FB7F894828187FF02C09FBF66
:1005500008958F5F8283A08181E08A0F8083AE0F30
:10056000BF2FB11D13966C93803889F71082EFCF9F
:10057000CF93DF93DA01EC91882369F0EB01CE0F82
:10058000D11DA1E0B0E0022E01C0AA0F0A94EAF743
:1005900088818A2B8883222331F02150822F90E09A
:1005A000DF91CF910895EF5FEC3030F4DA01EC93F6
:1005B000E60FF72FF11D108227E0F0CF10925E01B9
:1005C00010925D0110926F00E091F80189E4E89FBC
:1005D000F0011124EA59FE4F108280915B018D7F5A
:1005E00080935B0110928900109288000895CF9348
:1005F000DF93FC01A181A23320F0E0DFDF91CF91F6
:1006000008958381662369F0EF01CA0FD11D21E0AF
:1006100030E0082E01C0220F0A94EAF79C81922B49
:100620009C83882331F08150838386A98F5F86ABBA
:10063000E5CF87E08383AF5FA183A233B1F3AE0F31
:10064000BF2FB11D14961C92F0CFB0E0A0E0EBE2FA
:10065000F3E00C94101BDC017A0110925A01119600
:100660009C901197990C990C990C13968C91139757
:10067000981A892D97E0892E890C10928B0328E017
:10068000922E980E41E070E057E0E7E0F0E090E055
:1006900037E0C32ED12C01E010E094120DC070930E
:1006A0005A01891408F05EC0653409F089C05F3FC3
:1006B00009F086C09F5F86C09D012F0F311DE901A3
:1006C0002C8130E00E2E02C0359527950A94E2F772
:1006D000822F8170EE2389F0E1506B3441F5533065
:1006E00009F076C071110CC0811168C010925A01D6
:1006F000CDB7DEB7EEE00C942C1BFF5FE7E0EDCF4B
:1007000070E0882309F458C0292F30E025573C4F6A
:100710005601A51AB10857FDB394E80102C0CC0FE9
:10072000DD1FAA94E2F75E01E90188813FC05F3FC7
:1007300061F56634C9F4292F30E025573C4FE901B3
:100740002881022E22952025022E269526952025E9
:100750002F5F21FB662460F8712C8615170459F071
:1007600070935A0180E0C4CF653429F4811103C02D
:1007700070935A01BDCF9F5F292F30E025573C4F22
:10078000E901188257E04F5F88CF8823A9F06634CB
:1007900081F4292F30E025573C4FE9018881580129
:1007A000052E02C0AA0CBB1C0A94E2F7A82AA88254
:1007B00003C0653409F4A8CF5150E5CF71E0E3CF11
:1007C000711178CFF701908381E0911191CFCACF59
:1007D0005F3F09F096CFCACFFC0150915A0195E0D6
:1007E00020E08FEF860F611107C0920F30E1939FD9
:1007F000C0011124822B08956150DF01A60FB11DA5
:100800003C91432F42954F702427940F552311F0AC
:10081000681749F33F702327930FE5CF880F991F7F
:100820000197F1F70895CF93C82F5B9A8091FB0150
:10083000C11102C08091FD0120E1829FC0011124FD
:10084000EDDF5B988091FA01C11102C08091FC013B
:1008500020E1829FC0011124E1DFCF9108955B9ACE
:10086000813079F483E191E0D9DF5B988CE994E001
:10087000D5DF5B9A83E191E0D1DF5B9883E191E082
:1008800010C081110FC083E191E0C8DF5B9883E164
:1008900091E0C4DF5B9A83E191E0C0DF5B988CE973
:1008A00094E0BCCF823039F483E191E0B7DF5B980C
:1008B0008CE994E0EECF83E191E0B0DF5B9883E1D7
:1008C00091E0D6CF9091860390FF0EC090910002E8
:1008D0009E3730F097FD08C08D3011F08A3021F43A
:1008E000682F8EEF91E02DCE08958DE0EBDF8AE04A
:1008F000E9CFCF93DF93EC01FE018491811103C016
:10090000DF91CF910895DEDF2196F6CF82E691E068
:10091000F0DF8091070180FD0BC087E591E0E9DF02
:1009200080915F01813039F48AE391E0E2DFDDCF2D
:100930008CE491E0F4CF88E291E0F8CFCF93DF939D
:10094000EC018991811103C0DF91CF910895BADF45
:10095000F8CFA5E0B0E0EFEAF4E00C941C1BAC018A
:100960001D8294E0242F2F702A3020F5205D9150B5
:10097000E1E0F0E0EC0FFD1FE90FF11D208384E0C2
:10098000569547958A95E1F761504115510551F704
:1009900080E3615067FD02C091110EC021E030E09C
:1009A0002C0F3D1F290F311DC901C8DF2596E2E03C
:1009B0000C94381B295CDBCF9150E1E0F0E0EC0FA8
:1009C000FD1FE90FF11D8083E4CF62E090E0C1CF0D
:1009D000A6E0B0E0EEEEF4E00C941A1B362F1E8277
:1009E000FE01369625E00AE010E02150B8010E9491
:1009F000EE1A805D8293CB013150009789F480E23A
:100A0000315037FD02C021110EC081E090E08C0F03
:100A10009D1F820F911D92DF2696E4E00C94361BF9
:100A20002111E3CFECCF2150E1E0F0E0EC0FFD1F0E
:100A3000E20FF11D8083E4CF20ED37E0815008F410
:100A40000895F9013197F1F7F9CFFC019FB7F894B8
:100A500040915001509151016091520170915301A8
:100A600040835183628373839FBF0895A4E0B0E005
:100A7000ECE3F5E00C941C1BCE010196E6DF8C81C3
:100A8000A4DF8B81A2DF8A81A0DF89819EDF2DDF39
:100A90002496E2E00C94381B8EBD0DB407FEFDCF0A
:100AA0008EB508952A98F8DF2A9A08950F931F9318
:100AB000CF93CFEF04E110E084E3F4DFC1508077FF
:100AC000803129F0C8010197F1F7C111F5CFE89AFB
:100AD000CF911F910F9108950F931F93CF93E89893
:100AE00086E3E0DFCFEF04E110E085E3DBDFC15018
:100AF0008077803229F0C8010197F1F7C111F5CF55
:100B0000CF911F910F910895CF93C62F2A9880649B
:100B1000C3DF8C2FC1DF2A9ACF9108952A98806C69
:100B2000BBDF80E0B9DF2A9A0895CF93DF93E8987E
:100B3000229A2A9A8CE390E0FC013197F1F72A98E7
:100B40000197F1F72A9A8AE590E00197F1F780E39F
:100B5000A9DF88EC90E00197F1F7CEEBD1E0FE0140
:100B600031966491FE018491CFDF2296F1E0C03F7F
:100B7000DF07A9F783E396DF84E05EDF84E392DF9B
:100B800085E3CCDF8D30D1F7DF91CF910895A2E0DE
:100B9000B0E0EDECF5E00C941A1B8C01FC018181B6
:100BA0008737F1F441E0BE016E5F7F4FC8010296C6
:100BB00085DC892BA9F041E0BE016F5F7F4FC80142
:100BC00004967CDC892B61F069818A819DDF83E357
:100BD00069DF6CDF8A81F9DE8981F7DE86DE18C085
:100BE00041E0BE016F5F7F4FC801019667DC892B32
:100BF00079F08981893981F410E0812F8FDFE5DE7A
:100C0000812F8770873009F470DE1F5F1033A9F7DA
:100C10002296E4E00C94361B81DF182F83E452DE29
:100C20008981D3DE8AEC90E064DE812FCEDE86EC13
:100C300090E05FDE62E0812F90E0CADECFCF0F93BD
:100C40001F93CF93DF93D091860380938603C3E0F5
:100C500080910503811107C0D0938603DF91CF9166
:100C60001F910F91089583E093E053DCE09102031C
:100C70008A3019F08D3009F041C0EE2349F3F0E0DD
:100C8000EF57FD4F10823091810220E02C9FC00170
:100C90001124FC01E957FD4F1491FC01E857FD4F69
:100CA00045915491112359F0131307C081E892E044
:100CB000FA01099510920203CBCF2F5FE7CF81EEA7
:100CC00092E017DE81E892E039DE89EC92E011DEF5
:100CD0001C9F90011124F901E957FD4F0491F9017E
:100CE000E857FD4F85919491002331F080E2EADDD1
:100CF000802FE8DD1F5FECCFF8DDDCCFE7FDA8CF6C
:100D000091E09E0F90930203F0E0EF57FD4F808338
:100D10009FCF0C94D81ACF93DF93E898229A2A9AFF
:100D20008CE390E0FC013197F1F72A980197F1F7F5
:100D30002A9A8AE590E00197F1F780E3B3DE88EC28
:100D400090E00197F1F72A9880E4A6DEC5E9D1E0AA
:100D5000FE018491A1DE2196F1E0C23ADF07C1F7DE
:100D60008091010199DE8091020196DE809103015C
:100D700093DED0E0C0E0FE01EB55FE4F84918CDEA7
:100D80002196C931D105B9F72A9A2A988EE784DECF
:100D90008BE290E0EC012196BCDF7EDECE01E39792
:100DA000C9F72A9A83E37EDE81E046DE81E0809304
:100DB0008803DF91CF9108950F931F93CF93C62F90
:100DC000C15020F4CF911F910F9108958C010F5FB6
:100DD0001F4F9FDFFADDCC2311F08AE373DDC801DA
:100DE000EFCFA2E0B0E0E7EFF6E00C94191BFC01B6
:100DF00021812D3449F466E08AEF93E0DDDF75DD73
:100E00002296E5E00C94351B203521F460E18AED53
:100E100093E0F4CF1A82198242E0BE016F5F7F4FE8
:100E200001964CDB098110E0823029F409811A8196
:100E3000102701271027C8016CDFF82E82E542DD5C
:100E400064E0C80186DD82ED90E053DD8F2DBDDDCD
:100E50008EEC90E04EDD62E08F2D90E0B9DDCFCFDB
:100E600085E390E056DF8093550186E390E051DF03
:100E7000809354010895A2E0B0E0E1E4F7E00C941F
:100E80001C1B1A82198242E0BE016F5F7F4F16DB86
:100E9000823051F489819A8198278927982739DFF0
:100EA0002296E2E00C94381B898190E0F8CFCF9332
:100EB000DF9388E091E0DFDFC82F8BE091E0DBDF9C
:100EC000D82F8EE091E0D7DF2C2F30E050E040E0CB
:100ED000A90133272227280F311D411D511D8D2FB8
:100EE00090E0982F8827280F391F411D511DAAE136
:100EF000B0E00E94021B853F914030F082E0809379
:100F00005F01DF91CF91089581E0F9CFA1E0B0E0DA
:100F1000ECE8F7E00C94181B1982FC0121812237C0
:100F200009F065C02281222329F0BE016F5F7F4F47
:100F30000296B1DAF9808FEF8F0D833038F084E6B6
:100F400092E0D7DC2196E6E00C94341BE898229AD4
:100F5000109258012A9A8CE390E0FC013197F1F746
:100F60002A980197F1F72A9A8AE590E00197F1F71C
:100F700080E398DD88EC90E00197F1F706E312E05A
:100F8000F8018491813458F431966491F801849188
:100F9000BBDD0E5F1F4FF2E004361F0789F72F2DD0
:100FA0002150330BC90124E1289F8001299F100D96
:100FB000112406501E4F8AE0E82EF80184918134F6
:100FC00050F431966491F80184919EDDEA940E5FAD
:100FD0001F4FE110F2CF83E365DDF092580167DF28
:100FE00081E02ADD80915801F0DC7FDCABCF28372F
:100FF000C9F780915801882311F086E353DD1092E0
:101000005801F0CFEF92FF920F931F93CF93DF938E
:10101000EC01E898229A2A9A8CE390E0FC0131973F
:10102000F1F72A980197F1F72A9A8AE590E001975B
:10103000F1F780E337DD88EC90E00197F1F72A982B
:1010400080E42ADD8E01075D1F4F7E018FEFE81AD5
:10105000F80ACE015EDE20DDE7010E151F05A9F7B7
:101060002A9A2A988EE718DD8BE290E0EC0121960F
:1010700050DE12DDCE01E397C9F72A9A83E312DD31
:1010800081E0DADCCDB7DEB7E6E00C94341BFF92EA
:101090000F931F93CF93DF93EC01FC01019000208D
:1010A000E9F731978F01081B190B8981823761F4A9
:1010B00087E390E0A7DFFADC81E08093F901CDB708
:1010C000DEB7E5E00C94351B8337D1F4F02E2A9877
:1010D0008FE7E2DC8EEF800FDFDC229612E01F1537
:1010E00040F02A9AF9DC8AE319DD8F7731F4DEDCEF
:1010F000E6CF8991D1DC1F5FF2CF81E09DDCF3CF99
:101100001092F901DCCF82E090E07CDF81E08093F7
:101110008803109259010895B0E0A0E0E2E9F8E0F8
:101120000C940C1B4C01162FC42EA22E002391F000
:1011300082E0840F809F802D1124082E000C990BD3
:101140002091890330918A032817390740F485EEEE
:1011500092E0CFDBCDB7DEB7E2E10C94281B281B71
:10116000390B30938A0320938903299A809188034D
:10117000811101C0C8DFB0DC212E312CD12C6624B6
:101180006394712CB12CC0E08C2F0C2E000C990BA9
:101190008215930514F1112311F081E044DBF12C49
:1011A000CF2D0F2C000CDD0BCC15DD05D4F087E026
:1011B000F82EC80DD91D8F2D0F2C000C990BA816D9
:1011C000B9061CF18E2D38DC0150E9F680918703B9
:1011D000882331F16BDC2998BDCF80E024DBCF5F21
:1011E000D3CF97E0492E512CC80DD91DC301042C33
:1011F00001C0880F0A94EAF79881892314DB81E003
:10120000481A510898F7F394CBCFC3010F2C01C0B3
:10121000880F0A94EAF79881892305DBFA94CBCFEB
:1012200086E340DCD8CFEF920F93CF93DF9300D0CB
:1012300000D0CDB7DEB743E0BE016F5F7F4F0196B0
:101240003DD98AE68093FD0194E29093FC0191E2FE
:101250009093FB018093FA0180E88C838FE0E82E65
:1012600003E026E043E060E0CE01019655DF0F90F9
:101270000F900F900F90DF91CF910F91EF90089505
:10128000A9E1B0E0E6E4F9E00C94131B7E012DE047
:10129000E20EF11C4BE0B701019610D9982E85E3C0
:1012A0008093FD0196E19093FC019093FB01809364
:1012B000FA01692DC70190DAF701E90DF11D80836C
:1012C0009394198E1982670127E0AA24A394B12C64
:1012D0008C2D8E19891560F08AE0E82E03E0498D87
:1012E0006AE0CE01019618DF6996EBE00C942F1BA3
:1012F00010E000E0C501002E01C0880F0A94EAF753
:10130000F6019081AE01475E5F4FBE016F5F7F4F78
:1013100089232ED9282F0F5F1F4F0430110551F755
:10132000AE01475E5F4FBE016F5F7F4F81E020D906
:10133000282FC501002E01C0880F0A94EAF7F60194
:101340009081AE01475E5F4FBE016F5F7F4F892383
:101350000FD9282F0F5F1F4F0830110551F7AE012D
:10136000475E5F4FBE016F5F7F4F81E001D9282F3D
:10137000FFEFCF1ADF0AACCFA9E1B0E0E2ECF9E071
:101380000C94141B7E012DE0E20EF11C4BE0B70122
:10139000019694D88930A1F529E12093FC0120938E
:1013A000FD012093FB0122E32093FA0199276E01AE
:1013B000E6E1CE0ED11C40E0F60152918F014527A7
:1013C000EE15FF0509F5F701E80FF91F4083198EA7
:1013D0001982F9E0CF0ED11C27E0AA24A394B12CE6
:1013E000F12CE12C0C151D0589F4222399F12150D3
:1013F0008AE0E82E03E0498D6CE0CE0101968CDE98
:101400006996EAE00C94301B6801D6CFC5010E2C1A
:1014100001C0880F0A94EAF7F8019081AE01475E97
:101420005F4FBE016F5F7F4F8923A2D8282FFFEF48
:10143000EF1AFF0A88E0E816F104A1F6AE01475E54
:101440005F4FBE016F5F7F4F81E092D8282F0F5F03
:101450001F4FC6CF898D8F5F898F27E0C9CFEF924D
:101460000F93CF93DF93CDB7DEB760970FB6F894A5
:10147000DEBF0FBECDBF40E1BE016F5F7F4F019663
:101480001DD869814A810B818C818093FD018D81FA
:101490008093FC018E818093FB018F818093FA0100
:1014A000E02EE2948FE0E8220F70242F2F704295F7
:1014B0004F70CE01089630DE60960FB6F894DEBF0E
:1014C0000FBECDBFDF91CF910F91EF900895A9E1AD
:1014D000B0E0EDE6FAE00C94141B4BE0BE01635F54
:1014E0007F4F01960E945E02EDE0F0E0EC0FFD1FE1
:1014F000E80FF11DD82E96E0D1102CC09083CC249B
:10150000C394C80E198E19828E01035F1F4F27E006
:10151000EE24E394F12C97E0A92EB12CDC1420F1F9
:10152000222309F44FC0215089E18093FC0180936C
:10153000FD0185E28093FA018093FB018AE0E82EA9
:1015400003E0498D6CE0CE010196E6DD6996EAE0A4
:101550000C94301BDA94ADE0B0E0AC0FBD1FAD0DC4
:10156000B11D2C91920FC8CFC7010A2C01C0880F62
:101570000A94EAF7F8019081AE01475E5F4FBE0121
:101580006F5F7F4F89230E94B802282FF1E0AF1AC6
:10159000B10820F6F80181918F01082E82958025EF
:1015A000082E8695869580258F5F86958170AE0181
:1015B000475E5F4FBE016F5F7F4F0E94B802282FCA
:1015C000D394A9CF898D8F5F898F27E0ADCF80918C
:1015D0008703882311F097DD69CA86E363DA1092E6
:1015E0008803109259010895FC01218121110AC03C
:1015F00080918703EAD965E08091890390918A03FD
:10160000E7D973C941E067E873E001960E945E0282
:10161000DECFA6E2B0E0EFE0FBE00C94121BDC01B1
:1016200011962C91223741F480DA81E080935901A0
:10163000A696ECE00C942E1B233709F0A2C04DE1D6
:101640008E010F5F1F4FB80102960E945E02F82EB6
:10165000E82FE150FF0B29812E171F0649F78091D3
:101660005901811103C061DA83E0E6D9EB808A81F8
:1016700096E789278A8322E0422F50E0F801E40FA1
:10168000F51F90818981281708F44FC08E2D892776
:101690008083CE018396D9D985E304DA85E33EDAE7
:1016A000833109F44BC0CE014F96CFD94F8D58A14D
:1016B00069A17AA18BA19CA1ADA1BEA184179507B8
:1016C000A607B70760F44A015B01881A990AAA0ABB
:1016D000BB0AEDEB8E169104A104B10470F4481717
:1016E00059076A077B0750F584549F4FAF4FBF4F90
:1016F00084179507A607B70708F580EF91E0F9D89A
:1017000085E30CDA863131F48BE3CCD986E3CAD990
:101710008DE3C8D980915901882389F184E3C2D926
:1017200085E3FCD98D30D1F783CF4C0F5D1FDA01F3
:101730008C918452892780832F5F9ECF85E3EED9D9
:10174000833109F0A9CF8AE0E4FE05C088E774D9A7
:1017500088E772D988E770D92A988FE79DD9680100
:101760008C2D801B8F1530F02A9A85E3D7D98331D1
:10177000E1F3C6CFD6018D916D018ED9F1CF27DF70
:1017800057CF1092590154CFB0E0A0E0EAECFBE053
:101790000C94151B8C01C62F299A8091560181113A
:1017A0000CC080915901882329F081E08093570172
:1017B00010925901B0DA83E03FD986E373D98AE306
:1017C00071D98BE36FD988D9F80101900020E9F72E
:1017D0003197E01BF10BEE24EA94EE0EEB7FD1E0A3
:1017E000E23209F0D0E08EEF8C0FA2E0BA2E823008
:1017F00010F0BB24B394D12C0E2C000CFF08809168
:101800000401D81660F080915601882309F40EC1B6
:1018100080918703882309F4F5C048D9F5C05B9A05
:10182000C13039F5D130D9F48BEE90E00E940E042E
:101830005B9880E197E20E940E045B9A83E191E05D
:101840000E940E045B988AE59AE00E940E04CB2C5D
:101850008C2D90E08E159F05F4F0D394D0CF80911D
:101860000501909106010E940E045B9880E197E2C9
:10187000ECCFC23041F48AE491E00E940E045B9800
:1018800088E893E1E2CF83E191E00E940E045B9847
:1018900088E293E2DACF800F911FFC0181818033CF
:1018A000F1F5C13049F580E0D13009F440C05B9AD0
:1018B00080910501909106010E940E045B98809131
:1018C0000501909106019C01220F331F820F931F87
:1018D0000E940E045B9A80910501909106010E947E
:1018E0000E045B9880910501909106019C01220FE6
:1018F000331F820F931F10C05B9A88EE93E0C230B3
:1019000011F083E191E00E940E045B988AE491E07B
:10191000C23011F084E195E00E940E040AC08133C8
:1019200009F040C0C13061F5D13029F481E00E9456
:101930002F04C3948DCF5B9A80910501909106018D
:101940009C01220F331F820F931F0E940E045B988D
:1019500080910501909106010E940E045B9A80918E
:101960000501909106019C01220F331F820F931FE6
:101970000E940E045B988091050190910601CCCFE6
:101980005B9A8AE491E0C23011F083E191E00E9419
:101990000E045B9888EE93E0C23009F4BDCF83E17A
:1019A00091E0BACF823311F482E0C1CF8434B1F434
:1019B000D13011F483E0BBCF5B9A80910501909107
:1019C00006019C01220F331F820F931F0E940E04F9
:1019D0005B9880910501909106017ACFD13051F347
:1019E0005B9A80910501909106010E940E045B981C
:1019F00080910501909106019C01220F331F820FF7
:101A0000931FAACF86E34ED8299889E60E946204E4
:101A100083E70E94620488E6C23019F0C33019F4EB
:101A200085E60E946204DD24D39416C0809157019C
:101A3000882339F01092570178D881E080935901BA
:101A4000ECCEC5DDE1CF800F911FFC018181803399
:101A500079F40E946204D3948D2D90E08E159F0539
:101A600094F30E947504CDB7DEB7E9E00C94311B06
:101A7000813379F3823369F3843411F484E4E9CF58
:101A8000C13049F7D130D1F386E4E3CFFC012181A5
:101A9000243761F402960E94300260E080910501D3
:101AA000909106010E94E8040C9475042337A9F470
:101AB0002281223751F464E071E003960E944B02C8
:101AC0008091040160E090E0EDCF62E0283621F0E3
:101AD00061E0253609F463E057CE223771F4809136
:101AE0005901882329F081E0809357011092590110
:101AF00012D981E0809356010895263649F5228156
:101B00002033F9F480E18093010180EB809302019E
:101B100081E78093030189E60E94620486E60E94C1
:101B200062048AE30E946204809101010E94E5043C
:101B3000809102010E94E504809103010E94E50466
:101B4000B3CF43E061E071E002960E945E02E3CF12
:101B50002837D9F480915701882361F010925701FA
:101B60000E94950581E0809359010E9456051092CC
:101B70005601089582E090E045DA80918703811153
:101B8000F4CF86E30E945205F2CF233619F4019672
:101B90000C94300208950E94E01AF999FECF08953E
:101BA000A1E0B0E0E6EDFDE00C941C1B198200976B
:101BB00039F041E0BE016F5F7F4F01960E945E02E7
:101BC00089818F3F09F4FFCF882321F061E083E30F
:101BD00090E0E1DF10926E00F89488E198E00FB693
:101BE000F894A895809360000FBE90936000FFCF9B
:101BF00041E060E071E001960E945E028091000188
:101C000080FF06C0299A6091000184E390E0C3CF71
:101C10002998F9CFA6E0B0E0E0E1FEE00C94161BB5
:101C20006C0143E0BE016F5F7F4F01960E945E0230
:101C3000823008F1098110E0823029F009811A818F
:101C40001027012710277C01FF24FE01EE0DFF1D48
:101C50006081C801A0DFC8010F97039708F427D956
:101C6000EE0CFF1C8FEFE81AF80AEC0CFD1CF701D4
:101C70008081811104C02696E8E00C94321B41E07B
:101C8000BE016F5F7F4FC7010E945E02892B99F3EF
:101C90000F5F1F4F6981C8017EDFE2E0EE0EF11C8D
:101CA000E6CFA6E0B0E0E7E5FEE00C941C1B45E0C3
:101CB000BE016F5F7F4F01960E945E02843070F418
:101CC00099819130B9F4833069F46A8185E390E0B9
:101CD00062DF6B8186E390E05EDFC2D82696E2E0A9
:101CE0000C94381B809155010E94E50480915401A9
:101CF0000E94E5040E947504F1CFEF92FF920F93CA
:101D00001F93CF93C82F8A3008F0C8E028E0C29F05
:101D1000800111248BE290E0055B1F4FFC01E00F76
:101D2000F11F64917C012FEFE21AF20A34DFC70140
:101D30008333910599F7C55067E1C53008F461E137
:101D400084E290E028DFCF911F910F91FF90EF90F8
:101D500008950F931F93CF93DF93EC0161E090E020
:101D600080E019DF6AE181E090E015DF82E090E039
:101D7000FC01E350FF4F64918C010F5F1F4F0BDF9D
:101D8000C8010B321105A1F787E390E0FC01E15691
:101D9000FF4F64918C010F5F1F4FFDDEC8010036BD
:101DA0001105A1F78091070180FD18C060E18FE067
:101DB00090E0F1DE60EB80E190E0EDDE61E781E153
:101DC00090E0E9DE60E184E490E0E5DE60EB85E44C
:101DD00090E0E1DE61E786E490E0DDDE88E08DDF23
:101DE00066D860E080E690E0D6DE60E081E690E0D4
:101DF000D2DE60E083E390E0CEDE62E084E390E058
:101E0000CADE209719F08981883719F090E080E0C8
:101E1000C7DEDF91CF911F910F910895A1E0B0E04F
:101E2000E4E1FFE00C941C1B22E0298341E0BE01A9
:101E30006F5F7F4F01960E945E0289815EDF82E0C4
:101E400090E0E0D82196E2E00C94381BB0E0A0E0EE
:101E5000ECE2FFE00C94141B8C016EE070E00E9439
:101E6000CD1A8D3009F03EC0299A809188038111E6
:101E700001C049D90E946C05C4E080EDA82E87E01E
:101E8000B82E68018DE0C80ED11C5B9AC501019780
:101E9000F1F77801EFEFEE1AFE0AF701D1917F0119
:101EA0005B9880ED97E0D13311F488EE93E00E94C7
:101EB0000E045B9A88EE93E0D13311F480ED97E045
:101EC0000E940E04EC14FD0441F75B9883E20E942B
:101ED0001C05C150D1F680918703882341F00E94F0
:101EE00056052998CDB7DEB7EAE00C94301B86E39F
:101EF0000E945205F6CF1F920F920FB60F92112437
:101F00002F933F934F935F936F937F938F939F9301
:101F1000AF93BF93EF93FF936091C6008091C00091
:101F2000887121F483E093E00E94A102FF91EF9178
:101F3000BF91AF919F918F917F916F915F914F91E1
:101F40003F912F910F900FBE0F901F9018951F92E9
:101F50000F920FB60F9211242F933F934F935F93DD
:101F60006F937F938F939F93AF93BF93EF93FF9361
:101F7000809100028823B9F08EEF91E00E948902DF
:101F80008093C600FF91EF91BF91AF919F918F9188
:101F90007F916F915F914F913F912F910F900FBE65
:101FA0000F901F9018958091C1008F7D8093C10084
:101FB000E9CF1F920F920FB60F921124EF92FF926A
:101FC0000F931F932F933F934F935F936F937F9341
:101FD0008F939F93AF93BF93CF93DF93EF93FF9331
:101FE0008091F9018823D1F082E08093F901FF917B
:101FF000EF91DF91CF91BF91AF919F918F917F91A1
:102000006F915F914F913F912F911F910F91FF9091
:10201000EF900F900FBE0F901F9018958091840045
:102020009091850064E0969587956A95E1F7C09157
:10203000F80129E4C29FE0011124CA59DE4F4A99F0
:1020400069C0909365018093640128812D3079F6F1
:10205000FE01E95BFF4F608171819B0136952795F9
:102060008217930740F09B01220F331F260F371F63
:102070002817390718F482E08883B9CFAFA9B8AD23
:102080004BAD5CAD2091620130916301FC01FF27F3
:102090008D01040F151F169507957C01E60EF71E9E
:1020A0000E151F0540F5DA01BB27AD01440F551F82
:1020B0004A0F5B1F4E0F5F1F5595479555954795E6
:1020C0005CAF4BAFAC014A5051094617570738F483
:1020D0000A966817790718F42F5F3F4F02C02E5FEA
:1020E0003F4F30936301209362018091620180FF32
:1020F0007ECF61E0B6C0BB27CD01880F991F8A0F44
:102100009B1F8E0F9F1F959587959595879598AFE7
:102110008FABE2CF2091640130916501821B930B5C
:102120009093610180936001109285001092840069
:1021300082E086BB88818D30D1F42091600130919E
:102140006101FE01E95BFF4F60817181CB019695D2
:1021500087952817390748F0CB01880F991F860FFC
:10216000971F8217930708F041C082E08883188187
:10217000123009F4A1C108F087C0112309F4A8C0E6
:102180000091600110916401402F612FCE01CB9628
:102190000E949401882309F484C261E0CE010E9468
:1021A000F7028BAD9CAD99279C01220F331F280F9E
:1021B000391F80916401820F932F911D959587950A
:1021C000959587959CAF8BAF8DAD9EAD99279C0162
:1021D000220F331F280F391F80916001820F932F28
:1021E000911D95958795959587954BC2A9ADBAADEB
:1021F0004DAD5EAD8091620190916301F901FF27C1
:102200008D01040F151F169507957901E60EF71E2F
:102210000E151F0550F5DA01BB27AD01440F551F00
:102220004A0F5B1F4E0F5F1F559547955595479574
:102230005EAF4DAFA9014A5051094617570738F410
:10224000265F3F4F6217730710F4019601C0029694
:1022500090936301809362018091620180FFC7CEF9
:1022600060E0CE010E94F702C2CEBB279D01220F83
:10227000331F2A0F3B1F2E0F3F1F3595279535958E
:1022800027953AAF29AFE1CF163009F4FDC11B30D5
:1022900009F076CF80916001909161018735E1E08E
:1022A0009E0708F0A4CE20916401309165014EA9EB
:1022B000BC016A5071096217730708F050C16C5E67
:1022C0007F4F2617370708F04AC1411148C11882CD
:1022D00018AE1FAA1AAE19AE1CAE1BAE1EAE1DAEB6
:1022E000FE01FF96118210823296118210821092A6
:1022F0006301109262013696118210821EAA198221
:1023000087E08B831C8220915F0140916401509192
:1023100065018091600190916101BE016D5B7F4F0D
:10232000DE01AB5BBF4F7D012130A1F58A010D526B
:102330001240013C110570F58C010A50110907315A
:10234000110540F589E090E098AF8FAB8EE090E00A
:102350009AAF89AF40E150E05CAF4BAF9EAF8DAF1D
:102360002A8386E0888380EA9FE0909389008093A7
:10237000880082E080936F008091640190916501F4
:10238000FB019183808380916001909161018D9325
:102390009C932DCEDB014D935C93D7018D939C9341
:1023A0002130F9F4BA016A5071096A327105C8F432
:1023B000BC01695C7109623A724008F0A8C13BE057
:1023C00038832A838051904F04E0880F991F0A9523
:1023D000E1F7909389008093880082E080936F00FA
:1023E00006CE4536510508F002CE8536910508F037
:1023F000FECD58AF4FAB9AAF89AF31E03A8332E0B0
:102400003883213009F0F3CD9C012A50310924177B
:10241000350728F42C5E3F4F42175307D8F09C0134
:1024200025503048220F331F2417350728F42C5E1F
:102430003F4F4217530770F0969587959C012A509D
:1024400031092417350708F0D2CD0A9648175907E5
:1024500008F0CDCD8DE08883CA019695879591834C
:10246000808321E030E03093630120936201429742
:1024700010F451834083808191810C97C39710F0B1
:1024800082E0888380EA9FE09093890080938800AF
:1024900082E080936F0080916001909161019EAF16
:1024A0008DAF80916401909165019CAF8BAF61E02D
:1024B000CE010E94F70241CEF090600100916401CC
:1024C0004F2D602FCE01C7960E9494019A818823D8
:1024D00041F16FA978AD77279B01220F331F620F5F
:1024E000731F600F711D759567957595679578AF2A
:1024F0006FAB49AD5AAD55279A01220F331F420FDA
:10250000531F4F0D511D55954795559547955AAFFA
:1025100049AFFE01E95BFF4F118210829F5F9A83F2
:1025200066CD943008F4D3CE80EA9FE09093890082
:102530008093880083E08883809164019091650195
:102540009CAF8BAF80916001909161019EAF8DAF88
:10255000198287E08B831C8210936F0048CD48302E
:10256000A8F560915D0170915E016217730720F418
:1025700030935E0120935D0120915D0130915E01F9
:102580002817390720F490935E0180935D0147304E
:10259000E9F420915D0130915E012115310529F1A9
:1025A000FE01EB5BFF4F80819181821B930B96951F
:1025B000879596958795820F931F04E0880F991F42
:1025C0000A95E1F7909389008093880080916001DB
:1025D000909161012EA9211108C0209164013091D0
:1025E000650138AF2FAB9AAF89AF8037910538F5C9
:1025F000FE01EB5BFF4F208131812A31314010F128
:102600002091640130916501245F3F4F60E08217A3
:10261000930750F161E0CE010E94F702FE01FF96A0
:10262000809164019091650191838083CF5BDF4F3E
:10263000809160019091610199838883D8CC8C3915
:10264000910588F4FE01EB5BFF4F20813181293336
:1026500041E0340710F060E0DECF8D35910518F4CD
:1026600028333140C1F761E0CE010E94F70280912A
:102670006401909165019CAF8BAF80916001909156
:1026800061019EAF8DAFB3CC80915F01813009F0C5
:10269000AECC80916401909165010B9708F029CD33
:1026A000DFCD402F612FCE01C7960E949401882371
:1026B00059F160E0CE010E94F7028FA998AD9927E9
:1026C0009C01220F331F280F391F80916401820F54
:1026D000932F911D959587959595879598AF8FAB7D
:1026E00089AD9AAD99279C01220F331F280F391FFE
:1026F00080916001820F932F911D959587959595F7
:1027000087959AAF89AF73CC0E94DE0270CC853674
:10271000910508F06CCC58AF4FAB9AAF89AF2A83C4
:1027200022E0288371CE1F920F920FB60F921124D0
:102730002F933F934F935F936F937F938F939F93C9
:10274000AF93BF93EF93FF9310926F008091880037
:102750009091890020E23EE4309389002093880024
:1027600090938500809384008091870383FF03C04A
:102770008EE20E9462048091F80199E4899FF00141
:102780001124EA59FE4F9081933018F091819230D4
:1027900098F40E94DE02FF91EF91BF91AF919F915B
:1027A0008F917F916F915F914F913F912F910F90FA
:1027B0000FBE0F901F90189590915C01913049F4D5
:1027C0008091870382FFE5CF80E892E00E94790440
:1027D000E0CF9F5F90935C018F5F823019F0809310
:1027E000F801D9CF1092F801D6CF1F920F920FB6F1
:1027F0000F9211248F939F93AF93BF9380915001B9
:1028000090915101A0915201B09153010196A11DE7
:10281000B11D8093500190935101A0935201B09348
:10282000530180914F018F5F80934F01BF91AF9112
:102830009F918F910F900FBE0F901F901895A1E858
:10284000B0E0E4E2F4E1E9C60FB6F894A89580910F
:102850006000886180936000109260000FBE80E885
:1028600091E00FB6F89480936100909361000FBEE1
:10287000219A299A2D9A84B18C6284B9249880E592
:102880008CBD8DB581608DBD90E080E00E94890691
:10289000813031F481E090E00E9489068A3119F09C
:1028A00090E080E056DA84E390E00E94890680930D
:1028B000000189EF87BD84E085BD82E084BD8093FF
:1028C0006E00109280008AE08093810084B7877F39
:1028D00084BF88E19FE00FB6F894A89580936000CC
:1028E0000FBE909360008CE090E09093C5008093C1
:1028F000C40088E98093C10086E08093C2000E94F2
:102900003007539A5B985298809169008160809358
:10291000690082EC91E090938A038093890310927E
:10292000AF01109288038FE196E090934E0180935F
:102930004D0181E0809386030E945707299878947F
:1029400079E4C72EE7E0AE2EB12C37E0D32E4BE072
:10295000942E5AE0852E69E0362EE0914D01F091DB
:102960004E0181E009958091C10085FD09C08091EB
:102970000002882329F08091C10080628093C10009
:10298000CF57DF4F1882C158D0408091600190919D
:102990006101892BB1F18091870387FF14C084E323
:1029A0000E948E058058803408F475C0803C08F081
:1029B00074C08055990B23E0959587952A95E1F78A
:1029C0008F590E9462048091870383FF16C082E7BB
:1029D0000E9462048091870384FF04C08091640197
:1029E0000E94620486E60E9462048091870384FF4D
:1029F00004C0809160010E946204109261011092F3
:102A0000600180915C01882309F42BC3299AE0902E
:102A10004901EC9C7001112497012A593E4F79011C
:102A200010915F01D9012C91113009F025C1D69682
:102A30009C91392F3B7F2B3009F084C0383139F01D
:102A4000993329F0892F877F813409F07BC0F70102
:102A500045AD56AD4F3A510508F074C0EF5BFF4FDE
:102A6000408151814D37510508F06CC09831B9F45F
:102A700001E09E012F573F4FA7014C5F5F4FD701E9
:102A800013966C91139711968C910E940202F70194
:102A9000D08209E695C080E093CF8FE091CF9C3142
:102AA00011F0993391F400E09E012F573F4FA70199
:102AB0004C5F5F4FD70113966C91139711968C91D1
:102AC0000E940202F7018082E4CF977F913409F7D8
:102AD000D701D9968D919C91DA978E359105C8F2E0
:102AE00011966C91462F50E0EBE8F3E03701B4E02B
:102AF0006B0E711C30E020E0261740F0CF57DF4FFF
:102B00006883C158D040F7013082C3CFD3018D9183
:102B10003D01982F990F2F5F3F4F2417350781F400
:102B20009083D70113968C91873041F0D3018C911B
:102B30008183881F8827881F890F80833196DCCF87
:102B40008C91F7CFD70111968C91383151F13CED32
:102B5000390F323030F19A3221F18C3009F467C0EC
:102B60002D3009F089C0D7011496EBE8F3E090E02E
:102B700098137EC0F7018381873061F0292F30E000
:102B8000F901E557FC4F2E0D3F1DD90114968C918C
:102B900080839F5FCF57DF4F9883C158D0400FE6A7
:102BA0000FC000E09E012F573F4FA7014C5F5F4FC2
:102BB000F70163810E94020288E0D7018C9303E74A
:102BC000F7018081833009F0F0C20111CEC0AE015F
:102BD0004F575F4F66E4C7010E942503882309F41D
:102BE00087C0CF57DF4F8881C158D0408150CF5721
:102BF000DF4F8883C158D040282F96E0211162C052
:102C0000E82FF0E0E557FC4F3081391302C08430E3
:102C100060F4492F50E04F5F5F4F3417150609F0FD
:102C2000DEC0843008F4DBC0908306E49EC026300A
:102C300009F096CFF7018381811118C03496ABE873
:102C4000B3E09701215F3F4F9191890F9D932E171C
:102C50003F07D1F7CF57DF4F9882C158D040D701F7
:102C60001F969C9102E7891709F4AACF00E0A8CF2C
:102C70002D9121939F5F7CCF2B30C1F7F70191817C
:102C8000D7011496EBE8F3E080E0891317C0D70171
:102C900013969C91973061F0282F30E0F901E557A9
:102CA000FC4F2E0D3F1DD90114969C9190838F5F90
:102CB000CF57DF4F8883C158D040D8CF2D91219373
:102CC0008F5FE3CF2150E22FF0E0E557FC4F3081DA
:102CD000930F94CF9150E92FF0E0E557FC4F4081DE
:102CE000240F9111F7CF321303C0843008F053C47E
:102CF000123049F4AE014F575F4F65E4C7010E949F
:102D0000250381116FC01D82DE82C70104969A835C
:102D10008983D70111968C91843009F087C0F7011F
:102D20008381813009F082C08BE8682E83E0782EA1
:102D3000011176C067E0CE0101960E94BE01806855
:102D4000D3018D933D010F5F043091F767E0CE0111
:102D500001960E94BE01880F80938F0385E0CF57B4
:102D6000DF4F8883C158D04004E79091870390FFDC
:102D70009EC080915B018E7F8B7F80935B0191FD74
:102D800065C2CE0101960E942505CF57DF4F88818D
:102D9000C158D04090914801981316C2A6E1B1E005
:102DA000EBE8F3E090E0891304C249815A816B811A
:102DB0007C8140901201509013016090140170903A
:102DC000150144195509660977094632510561050F
:102DD000710508F0F9C190915B019160F3C1982FE2
:102DE0002CE07FCFCF57DF4F8881C158D040815032
:102DF000CF57DF4F8883C158D040893009F083CF47
:102E0000E4E9F3E02BE833E080E0929189272E1784
:102E10003F07D9F790919403981375CF05E4A5CF98
:102E200068E0CE0101960E94BE018ACFF70145AD50
:102E300060916401C701CB960E949401682FC7017D
:102E40000E94F702AE014F575F4F6BE4C7010E942B
:102E50002503882309F497C3CF57DF4FE881C15872
:102E6000D0401FEF1E0FCF57DF4F1883C158D040FF
:102E700000915A01101708F486C3612F8BE893E084
:102E80000E94EC03212F201B330BF901E557FC4F67
:102E90009081891378C30BE468CFD70113961C92F5
:102EA000139711968C911197815011968C93809164
:102EB000870382FFC0C080E70E946204D7018C9123
:102EC00062E090E00E94E804F70187A990AD65E018
:102ED00024E0880F991F2A95E1F70E94E804D701A2
:102EE000D9968D919C9165E034E0880F991F3A95B1
:102EF000E1F70E94E804F70183AD94AD65E044E09A
:102F0000880F991F4A95E1F70E94E804D701DD96E2
:102F10008D919C9165E054E0880F991F5A95E1F7D7
:102F20000E94E804F701FF968081918165E074E0DA
:102F3000880F991F7A95E1F70E94E804F701EF5B8B
:102F4000FF4F8081918165E0E4E0880F991FEA9549
:102F5000E1F70E94E804F70186A964E090E00E948E
:102F6000E804D70112968C9163E090E00E94E80497
:102F7000F701818163E090E00E94E804D701139695
:102F80008C9162E0F501E81BF109CF010E94E80491
:102F900080E20E946204F701ED5BFF4F8081918126
:102FA00065E0F4E0880F991FFA95E1F70E94E804C4
:102FB00080E20E946204F701EB5BFF4F8081918108
:102FC00065E0A4E0880F991FAA95E1F70E94E80444
:102FD00080E20E946204F701E95BFF4F80819181EA
:102FE00065E0B4E0880F991FBA95E1F70E94E80404
:102FF00080E20E9462048091870385FF08C084E319
:103000000E948E050E94E50480E20E946204D701BE
:1030100013968C911397873031F011968C911197FC
:103020008F5F11968C9310E0F7018181181708F4D7
:1030300096C10E947504D7011C92D6961C921092DC
:103040005E0110925D0180915C01815080935C0172
:10305000809149018F5F823009F489C180934901D1
:1030600029988091500190915101A0915201B09105
:10307000530120914B01281771F1809150019091DB
:103080005101A0915201B091530180934B01A89539
:1030900080914F018D37F8F010924F01809100011F
:1030A00081FF04C085B192E0892785B980918903A9
:1030B00090918A038438B3E09B0728F4019690939B
:1030C0008A038093890380914A018F5F8C3309F4CE
:1030D00051C180934A018091F901882319F181300F
:1030E00009F04BC18091500190915101A091520182
:1030F000B091530120914C012817A1F085E30E9463
:103100008E05813129F48AE30E9452050E945605FA
:103110008091500190915101A0915201B0915301C1
:1031200080934C01809159018823B1F04A9B8EC154
:103130008FE30E948E058F7789838E3108F44EC10C
:103140008AE30E94520586E30E9452058DE30E94A5
:10315000520584E30E94520580915801882309F4A6
:10316000FCCB4A9BFBC186E30E9452058BE30E9485
:103170008E05082F0F7709F4E8CB2A988FEF0E946D
:103180004C058EE40E946204809158010E94E5047F
:1031900010E080E00E944C050E94E5041F5F0113CF
:1031A000F8CF2A9A0E947504D0CB002309F47FCE71
:1031B000DCCD3D9121919F5F321709F4F4CD9091C0
:1031C0005B019D7F90935B01ABE8B3E0E6E1F1E04A
:1031D00090E0891337C08093480189819A81AB813F
:1031E000BC818093120190931301A0931401B093BA
:1031F0001501043581F58091870386FD1EC0CF57E8
:10320000DF4F8881C158D0408530B8F080918D0360
:103210008B3471F0893661F09DEA980F923040F05E
:103220008D57823028F080918E038077803729F483
:1032300080915B01816080935B0180915B0180FFE5
:1032400015C01BC02D9121939F5FC3CF8D7F8160DF
:1032500080935B01CECF093611F0033771F780916F
:103260005B01982F9370913019F48260846003C0E1
:1032700080FF6AC08B7F80935B0180915B0182FF3E
:1032800016CE802F0E946204F70180818A3019F4E3
:1032900088E60E946204D7018C918D3019F48DE686
:1032A0000E94620400915A01002359F0CF57DF4F6A
:1032B0008881C158D0408150CF57DF4F8883C15893
:1032C000D04010E0CF57DF4FE881C158D0401E17E3
:1032D000E8F1002349F0F0E0E557FC4F80818F7062
:1032E00061E090E00E94A9048091870385FF05C0FA
:1032F00084E30E948E050E94E504F70180818830F6
:1033000001F58BE30E946204F701ED5BFF4F8081C2
:10331000918165E014E0880F991F1A95E1F70E94EA
:10332000E8048AE30E946204F701EB5BFF4F8081AF
:10333000918165E004E0880F991F0A95E1F70E94EA
:10334000E8040E947504B3CD8D7F95CFE12FF0E0A6
:10335000E557FC4F80810E94E5041F5FB3CFF70162
:10336000E10FF11D84810E94E5041F5F5DCE109284
:10337000490176CE10924A01AECE8FE30E948E05AF
:10338000682E87FD1AC02A988FEF0E944C058E0187
:103390000F5F1F4F7801502E8E2D801B861588F0F1
:1033A0002A9A81E080938603802F8519861580F004
:1033B0000E9475048FEF8093860381E08093F9016A
:1033C000B1CE80E00E944C05F70181937F01E4CFEC
:1033D000D8018D918D010E946204E6CF2A988FEF6B
:1033E0000E944C0510E08981181708F47EC080E027
:1033F0000E944C05082F80E00E944C052A9A84E325
:103400000E94520585E30E948E058D30C1F78A81A6
:1034100096E798279A8392E0E1E0F0E0EC0FFD1F39
:10342000E90FF11D20813981931708F46AC08B815F
:10343000822780838091870384FF74C081E60E9485
:10344000620410E08981811708F061C085E30E9461
:103450008E05813029F0813161F48AE30E945205A2
:1034600086E30E9452058DE30E94520584E30E9488
:10347000520585E30E948E058D3009F06DCE85E200
:103480000E948E058F3309F067CE85E20E948E057B
:103490008F33F9F486E30E9452058FE690E00E9494
:1034A000790483E30E94520510E085E30E948E05B3
:1034B000813031F084E090E00E940E041150A9F7B1
:1034C00085E20E948E058F3321F488E690E00E9409
:1034D00079041FEF84E30E945205115080778031F8
:1034E00009F43ACE1111F6CF37CE80E00E944C0598
:1034F000E2E0F0E0EC0FFD1FE10FF11D80831F5FA4
:1035000072CF8452822780839F5F822F85CFE1E034
:10351000F0E0EC0FFD1FE10FF11D80810E946204BD
:103520001F5F90CF81E40E94620410E089818117BF
:1035300050F48091870385FF03C0802F0E94E5042B
:103540000E94750483CFE1E0F0E0EC0FFD1FE10F76
:10355000F11D80810E94E5041F5FE8CF85E30E9492
:103560008E05813019F0813109F0EFC98AE30E949C
:10357000520586E30E9452058DE30E94520584E3C2
:103580000E945205E2C9F7018381873009F485CC96
:103590008F5F83838CCC04E5E8CBFC0161507040E5
:1035A00001900110D8F7809590958E0F9F1F089578
:1035B000F999FECF92BD81BDF89A992780B50895FB
:1035C000262FF999FECF1FBA92BD81BD20BD0FB63F
:1035D000F894FA9AF99A0FBE01960895AA1BBB1B9C
:1035E00051E107C0AA1FBB1FA617B70710F0A61B03
:1035F000B70B881F991F5A95A9F780959095BC0124
:10360000CD01089540D0A59F900DB49F900DA49F2B
:10361000800D911D112408952F923F924F925F9239
:103620006F927F928F929F92AF92BF92CF92DF92D2
:10363000EF92FF920F931F93CF93DF93CDB7DEB737
:10364000CA1BDB0B0FB6F894DEBF0FBECDBF0994CB
:103650002A88398848885F846E847D848C849B8422
:10366000AA84B984C884DF80EE80FD800C811B8130
:10367000AA81B981CE0FD11D0FB6F894DEBF0FBE5F
:10368000CDBFED010895A29FB001B39FC001A39FDC
:10369000700D811D1124911DB29F700D811D11248B
:0836A000911D0895F894FFCF7D
:1036A8000210B07106A401003046003130003131FB
:0236B800000010
:00000001FF
