:10000000C5C100000C94FA09DEC10000DCC100008B
:10001000DAC10000D8C10000D6C10000D4C1000080
:10002000D2C10000D0C10000CEC100000C94500B22
:10003000CAC10000C8C10000B6C20000C4C10000AF
:10004000C2C10000C0C100000C9428090C94E10852
:10005000BAC10000B8C10000B6C10000B4C10000C0
:10006000B2C10000B0C10000504C4C310D0A00502C
:100070004C4C300D0A0000030F1E26270000000321
:100080000F1E2536386700030F25674060500003B8
:100090000F275188838100030F2750C8C3C2002750
:1000A0000000000000000067000000000000005099
:1000B000000000000000008100000000000000C2FD
:1000C000000000000000202F2000203D2000424FB3
:1000D00056460D0A0000070246030D049A057D06E8
:1000E00042070C0B060D210E650F6A10C811931202
:1000F0000315341700181819161B431C6825002611
:1001000011FF0000000000000000000000000000DF
:100110000041781342B80C43750345F205653B0D69
:10012000466208661604472A08690C0E4B1F076CC6
:10013000E00C4D9F074E4A10520210545E0274BDEF
:100140000255F206569C0C57F20C581A11785204BC
:100150005A991200000020697320756E6B6E6F77DC
:100160006E2920557365206F6E65206F66003F20F5
:1001700028004C4F56460D0A00202F2000203D201D
:1001800000072E050DD391FF080500000C00216526
:100190006A2D3B1322F862073F181D1CC700B08769
:1001A0006BF8B611EA2A001F41000D2E2D07D391DE
:1001B0003D04320000060021656A57C43023B900AF
:1001C000070018146C070090876BF85611E92A0095
:1001D0001F41002028462D42616E643A203836388F
:1001E0004D487A29002028462D42616E643A203419
:1001F00033334D487A29006E616E6F43554C383663
:1002000038006E616E6F43554C34333300562031E5
:100210002E32362E3120612D63756C667720427543
:10022000696C643A20312028323032362D30352D39
:1002300033302030313A30313A30332920000D2E1E
:100240002D07D3913D04320000060010B07155E433
:100250003023B900070018146C070090876BF8561C
:1002600011E92A001F41000B08105B11F81547190E
:100270001D1A1C1BC71C001DB221B623EA00070271
:100280002E030D04E905CA070C0B060D210E650FA0
:100290006A10C81193120315341733181819161B56
:1002A0004321562500261129592C812D353EC34561
:1002B00052523A4343410D0A000007024604C60564
:1002C000260B0610C81193120313221534173F187A
:1002D0002819161B432156250026110D210E650FE6
:1002E0006A070C160720F81E871F6B29592C812DD1
:1002F000353EC3FF004C4F56460D0A004C454E4557
:1003000052520D0A000302FF00000000000000002E
:10031000000000000000000000030210881182FFAE
:1003200000000000000000000000000000030710B3
:1003300088110B0D210E6B0FD01553FF000000002C
:10034000000B060D210E650F6A1700181819161BF1
:10035000431C68250026110001024605D4042D0324
:1003600002070008021089115C12061556FF00737F
:100370007065636966792076616C6964206D6F646D
:1003800065206E756D6265720D0A000011241FBE36
:10039000CFEFD8E0DEBFCDBF11E0A0E0B1E0E6E3F3
:1003A000F8E302C005900D92A431B107D9F723E01C
:1003B000A4E1B1E001C01D92A53BB207E1F70E94A4
:1003C0004E140C94191C1CCE85E390E00E94AE0DD7
:1003D0008093540186E390E00E94AE0D8093530118
:1003E0000895A2E0B0E0E7EFF1E00C94E31B1A827D
:1003F000198242E0BE016F5F7F4FC4D4823031F476
:1004000089819A8198278927982702C0898190E05D
:100410000E94AE0D2296E2E00C94FF1B0E94941BFA
:10042000F999FECF0895CF93DF9388E091E0D9DF6B
:10043000C82F8BE091E0D5DFD82F8EE091E0D1DF9F
:100440004C2F50E060E070E0BA0155274427480F78
:10045000511D611D711D8D2F90E0982F88279A01E5
:10046000AB01280F391F411D511DAAE1B0E00E94C8
:10047000C91B853F914010F082E001C081E080936C
:100480008D01DF91CF91089562E090E0EAC39091F1
:10049000910290FF0EC0909110029E3730F097FDB0
:1004A00008C08D3011F08A3021F4682F8EE092E080
:1004B000B9C608958DE0EBDF8AE0E9CFA6E0B0E0B1
:1004C000E4E6F2E00C94E31B45E0BE016F5F7F4F72
:1004D000019658D48430B0F49981913091F48330EE
:1004E00051F46A8185E390E099DF6B8186E390E0C7
:1004F00095DF6ADF07C080915401C6DF8091530108
:10050000C3DFD8DF2696E2E00C94FF1BCF93DF9386
:10051000EC01FE018491882319F0B9DF2196F9CF0F
:10052000DF91CF910895CF93DF93EC0189918823D8
:1005300011F0ADDFFBCFDF91CF91089520ED37E0D3
:10054000815020F0F9013197F1F7FACF0895880F23
:10055000991F0197F1F70895FC019FB7F894409116
:10056000A5035091A6036091A7037091A80340834F
:100570005183628373839FBF0895A4E0B0E0E3ECEE
:10058000F2E00C94E31BCE010196E6DF8C817CDF68
:100590008B817ADF8A8178DF898176DF8BDF249611
:1005A000E2E00C94FF1B1F920F920FB60F921124E2
:1005B0008F939F93AF93BF938091A5039091A603D0
:1005C000A091A703B091A8030196A11DB11D80932E
:1005D000A5039093A603A093A703B093A8038091CB
:1005E00052018F5F80935201BF91AF919F918F9184
:1005F0000F900FBE0F901F901895EF92FF920F93E0
:100600001F93CF93C82F8A3008F0C8E028E0C29F1C
:10061000800111248BE290E00B521109FC01E00FE4
:10062000F11FEA58FF4F64917C012FEFE21AF20AA2
:10063000F5DEC7018333910589F7C550C53010F049
:1006400067E101C061E184E290E0E8DECF911F91B3
:100650000F91FF90EF9008958EBD0DB407FEFDCF72
:100660008EB508952A98F8DF2A9A08950F931F935C
:10067000CF93CFEF04E110E084E3F4DFC150807743
:10068000803129F0C8010197F1F7C111F5CFE89A3F
:10069000CF911F910F9108950F931F93CF93E898D7
:1006A00086E3E0DFCFEF04E110E085E3DBDFC1505C
:1006B0008077803229F0C8010197F1F7C111F5CF99
:1006C000CF911F910F910895CF93C62F2A988064E0
:1006D000C3DF8C2FC1DF2A9ACF9108952A98806CAE
:1006E000BBDF80E0B9DF2A9A0895A2E0B0E0EBE733
:1006F000F3E00C94E11B8C01FC0181818737E9F464
:1007000041E0BE016E5F7F4FC80102963BD3892B4B
:10071000A1F041E0BE016F5F7F4FC801049632D364
:10072000892B59F069818A81CFDF83E39BDF9EDFCC
:100730008A81AADE8981A8DE2BC041E0BE016F5FFD
:100740007F4FC80101961ED3892B19F18981893900
:1007500069F410E0812FC2DF97DE812F8770873028
:1007600009F4A8DE1F5F1033A9F713C0B7DF182FF5
:1007700083E48DDE898188DE8AEC90E0C7DE812FFC
:1007800083DE86EC90E0C2DE62E0812F90E0A7D2AB
:1007900091DE2296E4E00C94FD1BEF92FF920F9302
:1007A0001F93CF93DF93EC0110929502E898229A61
:1007B0002A9A8CE390E0FC013197F1F72A9801978F
:1007C000F1F72A9A8AE590E00197F1F780E34ADF92
:1007D00088EC90E00197F1F72A9880E43DDF8E01E4
:1007E000075D1F4F7E018FEFE81AF80ACE010E94C5
:1007F000AE0D32DFE701E016F106A1F72A9A2A983A
:100800008EE72ADF8BE290E0EC0121960E94AE0D8C
:1008100023DFCE01E397C1F72A9A83E323DF81E048
:100820008DDECDB7DEB7E6E00C94FB1BFF920F9395
:100830001F93CF93DF93EC01FC0101900020E9F7B7
:1008400031978F01081B190B8981823741F487E3A7
:1008500090E0A3DF0BDF81E080930C021EC08337A2
:10086000D1F4F02E2A988FE7F7DE8EEF800FF4DEBA
:10087000229612E01F1520F48991EEDE1F5FFACF59
:100880002A9A0ADF8AE32ADF8F7719F081E056DEA1
:10089000F9CFECDE02C010920C02CDB7DEB7E5E076
:1008A0000C94FC1BA1E0B0E0E8E5F4E00C94E31B41
:1008B00022E0298341E0BE016F5F7F4F019662D243
:1008C00089819BDE82E090E068DF2196E2E00C9473
:1008D000FF1BFC012FB7F8948281811102C02FBF4A
:1008E00008959FEF980F9283918181E0890F818312
:1008F000DF01A90FB11D13969C91803809F4118274
:100900002FBF892F0895FA019081882369F0DB01B8
:10091000A90FB11DE1E0F0E0022E01C0EE0F0A9434
:10092000EAF78C91E82BEC93222319F08FEF820FDA
:100930000BC081E0890F8C3010F4FA018083FB0139
:10094000E80FF11D108287E090E00895CF93C82F43
:100950005B9A882319F080919A0202C080919C02D0
:1009600020E1829FC0011124F2DD5B98CC2319F0B5
:100970008091990202C080919B0220E1829FC00178
:100980001124E5DDCF91089510926F00E091980257
:100990008FE3E89FF0011124E257FE4F108210927E
:1009A0008900109288000895A4E0B0E0EAEDF4E038
:1009B0000C94D31B4C01162FA22EC42ED12CC60191
:1009C0000296089F802D1124082E000C990B20916F
:1009D0009602309197022817390720F482E791E0B8
:1009E00095DD8CC0281B390B30939702209396021B
:1009F000299A80919502882349F01092950281E10D
:100A000091E00E941A1121E0298301C0198280918E
:100A1000940281110AC082E090E0BFDE81E0809301
:100A20009402109292021092950236DE212E312C01
:100A300066246394712CB12C1A82EA818E2FEE0FFA
:100A4000990B8215930534F480E080DF8A818F5FF3
:100A50008A83F3CF112311F081E078DFF12C8F2D01
:100A60000F2C000C990B9C838B838C159D05D4F463
:100A700037E0432E512C8B819C81880D991D9C83DE
:100A80008B83C301042C01C0880F0A94EAF7EB8121
:100A9000FC81908189235ADFF1E04F1A510888F7D1
:100AA000F394DDCF27E0F22E880D991D9C838B8374
:100AB0008F2D0F2C000C990BA816B9066CF4C301EE
:100AC0000F2C01C0880F0A94EAF7EB81FC8190811A
:100AD00089233CDFFA94ECCF8E2D30DD015009F0F4
:100AE000ABCF80919302882311F0C0DD02C086E372
:100AF000B9DDF981F1110E94321129982496E2E1C1
:100B00000C94EF1B1F93CF93DF93C09191028093BE
:100B1000910280912103882309F43CC08FE193E086
:100B2000D8DEE0911E038A3011F08D3041F5EE23BE
:100B300081F3F0E0E356FD4F108240919D0230E0DA
:100B4000832F90E0FC01EE0FFF1F8E0F9F1FFC0113
:100B5000EF5EFE4F2491FC01EE5EFE4F65917491B5
:100B60002223F1F0241305C08DE992E0FB010995E1
:100B700003C03F5FE5CF9EDC10921E03CACFE7FDA6
:100B8000C8CF91E09E0F90931E03F0E0E356FD4F17
:100B90008083BFCFC0939102DF91CF911F910895C1
:100BA0008EE691E0B3DC8DE992E0BDDC86E591E074
:100BB000ADDC10E0812F90E09C01220F331F280F45
:100BC000391FF901EF5EFE4FD491F901EE5EFE4F41
:100BD00085919491DD2379F280E259DC8D2F57DCE9
:100BE0001F5FE8CFCF93DF93FC018181823709F04B
:100BF00031C0E898229A2A9A8CE390E0FC01319760
:100C0000F1F72A980197F1F72A9A8AE590E001977F
:100C1000F1F780E327DD88EC90E00197F1F7C5ED6F
:100C2000D0E0FE018491813448F083E31BDD81E054
:100C300085DCF9DB81E080930D0210C0FE01319666
:100C40006491FE01849140DD2296F1E0C131DF071D
:100C500041F7EBCF833711F010920D02DF91CF9166
:100C60000895A5E0B0E0E7E3F6E00C94E31BAC01E7
:100C70001D8294E0242F2F709150E92FF0E02A304C
:100C800010F4205D01C0295CA1E0B0E0AC0FBD1FF5
:100C9000EA0FFB1F208384E0569547958A95E1F77C
:100CA00061504115510531F780E3615067FD0BC07C
:100CB000992349F09150E1E0F0E0EC0FFD1FE90FBE
:100CC000F11D8083F2CF21E030E02C0F3D1F290F72
:100CD000311DC90128DC2596E2E00C94FF1BA6E03B
:100CE000B0E0E5E7F6E00C94E11B362F1E8225E02C
:100CF000EAE0F0E0215001E010E00C0F1D1F020FB0
:100D0000111DBF010E94A21B805DD8018C93CB01F5
:100D10003150009711F480E20DC02111EBCFFBCFD1
:100D2000222359F02150E1E0F0E0EC0FFD1FE20F2B
:100D3000F11D8083315037FFF3CF81E090E08C0FBD
:100D40009D1F820F911DEFDB2696E4E00C94FD1BA6
:100D5000FC0120E030E08AE09191992379F040EDA8
:100D6000490F4A30C8F7829FA001839F500D11247C
:100D70009A0120533109290F311DEECFFB01318338
:100D800020830895DC01FB0130E020E09D91992350
:100D9000B1F0913608F0905280ED890F8A3010F44E
:100DA000982F05C08FEB890F863028F49753922B2C
:100DB000332389F006C0903249F39A3339F3CF01D7
:100DC00007C09F012F5F3F4F9083415049F4C901F5
:100DD000861B970B0895292F2295207F31E0D6CFCF
:100DE000F901D2CFEF920F93CF93DF9300D000D0D1
:100DF000CDB7DEB743E0BE016F5F7F4F0196C2DF24
:100E00008AE680939C0294E290939B0291E29093F5
:100E10009A028093990280E88C838FE0E82E03E0A9
:100E200026E043E060E0CE010196BEDD0F900F901A
:100E30000F900F90DF91CF910F91EF900895A9E15E
:100E4000B0E0E5E2F7E00C94DA1B7E012DE0E20E63
:100E5000F11C4BE0B701019695DF182F85E38093D5
:100E60009C0296E190939B0290939A028093990240
:100E7000612FC7010E94DD10F701E10FF11D808392
:100E800099249394910E198E1982670127E0AA2460
:100E9000A394B12C8C2D8E19891508F044C000E064
:100EA00010E0C501002E01C0880F0A94EAF7F60190
:100EB0009081AE01475E5F4FBE016F5F7F4F892318
:100EC00022DD282F0F5F1F4F0430110551F7AE01AF
:100ED000475E5F4FBE016F5F7F4F81E014DD282FBB
:100EE000C501002E01C0880F0A94EAF7F60190812F
:100EF000AE01475E5F4FBE016F5F7F4F892303DD09
:100F0000282F0F5F1F4F0830110551F7AE01475EC4
:100F10005F4FBE016F5F7F4F81E0F5DC282FFFEF51
:100F2000CF1ADF0AB7CF8AE0E82E03E0498D6AE0E6
:100F3000CE01019639DD6996EBE00C94F61B8F9299
:100F40009F92BF92CF92DF92EF92FF920F931F93E7
:100F5000CF93DF93CDB7DEB769970FB6F894DEBFB6
:100F60000FBECDBF8E01035F1F4F4BE0B80101964E
:100F700009DF282F893009F05BC039E130939B02EB
:100F800030939C0230939A0232E33093990299276E
:100F900030E02150F801E20FF11D4081342721118A
:100FA000F8CFF801E80FF91F3083198E1982780104
:100FB00027E088248394912CC12CD12CBE2CB01A0C
:100FC000F9E0FB1528F1C4010C2C01C0880F0A942C
:100FD000EAF7F7019081AE01475E5F4FBE016F5F98
:100FE0007F4F892390DC282FFFEFCF1ADF0A88E09C
:100FF000C816D10429F7AE01475E5F4FBE016F5F8F
:101000007F4F81E080DC282FEFEFEE1AFE0AD4CF6D
:10101000222311F0215004C0898D8F5F898F27E032
:101020008AE0E82E03E0498D6CE0CE010196BCDC3D
:1010300069960FB6F894DEBF0FBECDBFDF91CF919A
:101040001F910F91FF90EF90DF90CF90BF909F90F6
:101050008F900895EF920F93CF93DF93CDB7DEB7C4
:1010600060970FB6F894DEBF0FBECDBF40E1BE0162
:101070006F5F7F4F019686DE69814A810B818C818B
:1010800080939C028D8180939B028E8180939A0233
:101090008F8180939902E02EE2948FE0E8220F7016
:1010A000242F2F7042954F70CE0108967DDC6096FC
:1010B0000FB6F894DEBF0FBECDBFDF91CF910F9179
:1010C000EF900895A9E1B0E0E8E6F8E00C94DB1BAE
:1010D0004BE0BE01635F7F4F019654DEEDE0F0E030
:1010E000EC0FFD1FE80FF11D982F26E0992351F01A
:1010F0009150ADE0B0E0AC0FBD1FA90FB11D3C9108
:10110000230FF4CF208311E0180F198E198227E0E6
:1011100000E0EE24E394F12C97E0C92ED12C3DE0C1
:10112000A32EB12CAC0EBD1EA00EB11C011758F59C
:10113000C7010C2C01C0880F0A94EAF7F5019081D1
:10114000AE01475E5F4FBE016F5F7F4F8923DBDBE0
:10115000282FF1E0CF1AD10848F7F5018081082E39
:1011600082958025082E8695869580258F5F8695A9
:101170008170AE01475E5F4FBE016F5F7F4FC3DB83
:10118000282F0F5FC9CF222311F0215004C0898D71
:101190008F5F898F27E089E180939B0280939C0277
:1011A00085E28093990280939A028AE0E82E03E018
:1011B000498D6CE0CE010196F7DB6996EAE00C946C
:1011C000F71B1F920F920FB60F9211242F933F938C
:1011D0004F935F936F937F938F939F93AF93BF933F
:1011E000EF93FF9380911002882331F08EE092E01C
:1011F00070DB8093C60005C08091C1008F7D809315
:10120000C100FF91EF91BF91AF919F918F917F911D
:101210006F915F914F913F912F910F900FBE0F9063
:101220001F901895FC019FB7F894828187FD0EC02E
:101230008F5F8283208181E0820F8083DF01A20F94
:10124000B11D13966C93803809F410829FBF0895E6
:101250001F920F920FB60F9211242F933F934F932B
:101260005F936F937F938F939F93AF93BF93EF930E
:10127000FF936091C6008091C000887119F48FE1DE
:1012800093E0D0DFFF91EF91BF91AF919F918F914C
:101290007F916F915F914F913F912F910F900FBE72
:1012A0000F901F901895FC0184819581A081B181D8
:1012B000A80FB11D2C9130E0092E02C0359527955D
:1012C0000A94E2F721703FEF390F3583911104C082
:1012D0008F5F848387E08583822F0895A0E0B0E04C
:1012E000E4E7F9E00C94DA1B8C01942EC62ED12C85
:1012F000C0E0D0E0B12CAA24A394760121E0E21A48
:10130000F108CC15DD05C9F0C801CDDF882399F0BF
:10131000992051F0C7018C1B9D0B2A2D01C0220F73
:101320008A95EAF7822F06C08A2D0C2E01C0880FFD
:101330000A94EAF7B82A2196E4CF8B2DCDB7DEB711
:10134000EBE00C94F61BFC018181823308F01CCB8E
:10135000662389F0DF01A80FB11D21E030E0038092
:1013600002C0220F331F0A94E2F714969C9114973F
:10137000292B14962C939381992319F091509383E0
:1013800009C097E093838F5F8183DF01A80FB11DB0
:1013900014961C9286A98F5F86AB0895DC01362FC8
:1013A00011962C911197E22FF0E050E09C91BF0133
:1013B000641B750B655F7F4F67317105C8F4892F1A
:1013C00090E0632F70E09C01261B370B255F3F4F99
:1013D0002731310568F49F01280F391F640F751FED
:1013E000261B370B255F3F4F81E02731310508F081
:1013F00080E008951F920F920FB60F921124FF9272
:101400000F931F932F933F934F935F936F937F930C
:101410008F939F93AF93BF93CF93DF93EF93FF93FC
:1014200080910C02882321F082E080930C0222C17B
:101430000091840010918500E4E016950795EA95E7
:10144000E1F7C09198029FE3C99FE0011124C257C0
:10145000DE4F90918D01923089F42881243039F447
:101460000E3208F407C10F3448F08EDA03C125307C
:1014700029F4073108F4FEC00832B8F74A9910C0C1
:10148000923059F488818450823038F461E0CE0182
:101490005ADF109285001092840000938C01EAC0FC
:1014A00080918C01081B00938B0110928500109293
:1014B0008400923041F488818450823020F460E0CE
:1014C000CE0141DFD7C082E086BBF88000918C015D
:1014D000FF2049F010918B01F81609F17BC02430F0
:1014E00008F047C018821FAA18AE19AE1AAE1BAE7C
:1014F0001CAE1EAE1DAE1EAA198287E08B831C8215
:10150000053608F0B7C080918B01853608F0B2C06F
:101510000FAB88AF81E08A8382E08883ABC022E092
:10152000412F602FCE01C79639DF2A818823B9F277
:101530008FA990E0AC01440F551F840F951F800FB9
:10154000911D95958795959587958FAB88AD90E082
:10155000AC01440F551F840F951F810F911D959568
:1015600087959595879588AF1EAE1DAE2F5F2A8310
:1015700081C080EA9FE090938900809388008A81EF
:101580008C3050F02FA988AD90E0820F911D8536E8
:10159000910524F084E013C08A3080F02FA988AD33
:1015A00090E0820F911D85974CF485E0888388EE4A
:1015B00093E0909389008093880002C083E0888341
:1015C00009AF1AAF198287E08B831C8282E0809377
:1015D0006F0050C02F2D412F602FCE01C996DEDE47
:1015E000882301F161E0CE01AEDE89AD90E09C017F
:1015F000220F331F820F931F800F911D95958795A2
:101600009595879589AF8AAD90E09C01220F331F95
:10161000820F931F810F911D9595879595958795BD
:101620008AAF28C02F2D412F602FCE01C796B6DE7E
:10163000882309F41ACF60E0CE0185DE8FA990E0FF
:101640009C01220F331F820F931F800F911D9595D0
:101650008795959587958FAB88AD90E09C01220F7B
:10166000331F820F931F810F911D95958795959537
:10167000879588AFFF91EF91DF91CF91BF91AF91A7
:101680009F918F917F916F915F914F913F912F919A
:101690001F910F91FF900F900FBE0F901F90189504
:1016A0001F920F920FB60F9211242F933F934F93D7
:1016B0005F936F937F938F939F93AF93BF93EF93BA
:1016C000FF9310926F008091930283FF03C08EE21C
:1016D0000E944702809198029FE3899FF0011124A4
:1016E000E257FE4F9081933018F09181923010F4C0
:1016F0004BD918C090918A01913049F4809193029E
:1017000082FFF6CF8EEC90E00E948602F1CF9F5FC1
:1017100090938A018F5F823019F08093980202C003
:1017200010929802FF91EF91BF91AF919F918F918D
:101730007F916F915F914F913F912F910F900FBECD
:101740000F901F901895A0E0B0E0E9EAFBE00C9440
:10175000D71BFC018A0110928701A180AA0CAA0C58
:10176000AA0C8381A81A8A2D97E0992E9A0C1092C0
:10177000550128E0A22EA80E41E070E057E087E076
:10178000B12C90E037E0E32EF12CC1E0D0E0A416BC
:1017900009F481C09F012B0D311DD90114962C91A4
:1017A00030E0082E02C0359527950A94E2F72170A3
:1017B0003327882311F0815002C0B39487E06B3443
:1017C00069F4533009F04AC0711106C0232B09F0A7
:1017D0005FC0109287016EC070E042C05F3F41F56C
:1017E0006634B1F4C92ED12CD601AB5ABE4F5C91F0
:1017F000052E52955025052E5695569550255F5F1E
:1018000051FB662460F8712C2615370541F004C0A1
:10181000653429F4232B19F4709387014BC09F5F23
:10182000292F30E02B5A3E4FD9011C9257E031C08E
:10183000232B61F1663479F4292F30E0D901AB5ABA
:10184000BE4F8C909E01052E01C0220F0A94EAF72C
:1018500028292C931BC0653429F018C05F3FD1F2B2
:10186000232BA1F0292F30E02B5A3E4F6701C51AD8
:10187000D10857FDD394DE0102C0AA0FBB1FCA9442
:10188000E2F76D01D901DC90CD28CC92515001C016
:1018900071E04F5F7CCF709387019A1458F46534E0
:1018A00011F45F3F09F071119F5FF801908381E0AF
:1018B000911101C080E0CDB7DEB7EEE00C94F31BD0
:1018C0005B9A813041F483E191E00E94A7025B982A
:1018D0008CE994E025C0811108C083E191E00E9469
:1018E000A7025B9883E191E009C0823091F483E123
:1018F00091E00E94A7025B988CE994E00E94A70205
:101900005B9A83E191E00E94A7025B988CE994E0E6
:1019100011C083E191E00E94A7025B9883E191E00E
:101920000E94A7025B9A83E191E00E94A7025B9864
:1019300083E191E00C94A7028DE092E00E94860280
:101940008091070180FD03C082E092E002C087EF32
:1019500091E00E94860280918D01813019F485EE1C
:1019600091E002C083ED91E00E9486020C945A023D
:10197000A1E0B0E0EEEBFCE00C94E31B19820097D1
:1019800031F041E0BE016F5F7F4F0196FBD9898145
:101990008F3F09F4FFCF882329F061E083E390E0D3
:1019A0000E940E0210926E00F89498E088E10FB643
:1019B000F894A895809360000FBE90936000FFCFCD
:1019C00041E060E071E00196DDD98091000180FF87
:1019D00002C0299A01C029986091000184E390E037
:1019E0000C940E02A6E0B0E0E8EFFCE00C94DD1BE6
:1019F0008C0143E0BE016F5F7F4F0196C3D98230F7
:101A0000B0F1823019F4C980D12C05C0C980DA80C8
:101A1000DC24CD24DC247C01FF24FE01EE0DFF1D1F
:101A20006081C6010E940E02C6010F97039710F451
:101A30000E941302EE0CFF1C8FEFE81AF80A0E0D3D
:101A40001F1DF8018081882391F041E0BE016F5F86
:101A50007F4FC80197D9892B51F0EFEFCE1ADE0ADC
:101A60006981C6010E940E020E5F1F4FEACF2696C3
:101A7000E8E00C94F91B0F931F93CF93DF93EC01D5
:101A800061E080E090E00E940E026AE181E090E077
:101A90000E940E0282E090E0FC01E855FE4F649146
:101AA0008C010F5F1F4F0E940E02C8010B321105FF
:101AB00099F787E390E0FC01E65BFE4F64918C01AF
:101AC0000F5F1F4F0E940E02C8010036110599F7E3
:101AD0008091070180FD1EC060E18FE090E00E94D0
:101AE0000E0260EB80E190E00E940E0261E781E16E
:101AF00090E00E940E0260E184E490E00E940E02F9
:101B000060EB85E490E00E940E0261E786E490E0DD
:101B10000E940E0288E00E94FD020E94130260E013
:101B200080E690E00E940E0260E081E690E00E9474
:101B30000E0260E083E390E00E940E0262E084E324
:101B400090E00E940E028981883719F080E090E0D1
:101B50000FDFDF91CF911F910F9108950C948C1B93
:101B6000CF93DF93E898229A2A9A8CE390E0FC01C5
:101B70003197F1F72A980197F1F72A9A8AE590E0D0
:101B80000197F1F780E30E94320388EC90E001971F
:101B9000F1F72A9880E40E942C03CEE3D2E0FE0104
:101BA00084910E942C032196F2E0CB34DF07B9F731
:101BB000809101010E942C03809102010E942C035C
:101BC000809103010E942C03C0E0D0E0FE01E25BA3
:101BD000FD4F84910E942C032196C931D105B1F7A4
:101BE0002A9A2A988EE70E942C038BE290E0EC015F
:101BF0002196B4DF0E942C03CE01E397C1F72A9A05
:101C000083E30E94320381E00E949E0281E0809380
:101C10009402DF91CF910895A0E0B0E0E2E1FEE010
:101C20000C94DD1BEC018981843759F465E071E087
:101C3000CE0102968DD860E0809105019091060159
:101C40000FC0833709F04DC18A81823769F464E09F
:101C500071E0CE0103967CD88091040160E090E0B1
:101C60003ED80E945A02B0C1299A8091A2038111E4
:101C700016C080919202882329F081E08093A4030A
:101C80001092920280919502882329F081E080933E
:101C9000A3031092950264DF83E00E949E0286E314
:101CA0000E9432038AE30E9432038BE30E943203D4
:101CB0000E944C03FE0101900020E9F73197EC1BD4
:101CC000FD0BEE24EA94EE0EEB7F11E0E23209F018
:101CD00010E000E08091040190E0202F002E000C25
:101CE000330B281739070CF0B8C05B9A113091F408
:101CF0008BEE90E00E94A7025B9880E197E20E9441
:101D0000A7025B9A83E191E00E94A7025B988AE5B3
:101D10009AE009C080910501909106010E94A702F6
:101D20005B9880E197E20E94A7026E0182E0C80EF4
:101D3000D11CFF24F394FE140CF08DC0F6018191A8
:101D40006F018033B1F4113011F480E033C05B9A3D
:101D500080910501909106010E94A7025B988091F5
:101D60000501909106019C01220F331F820F931FE2
:101D700034C08133B1F4113011F481E01BC05B9A9F
:101D800080910501909106019C01220F331F820F63
:101D9000931F0E94A7025B98809105019091060114
:101DA00043C0823311F482E005C0843451F5113010
:101DB00019F483E085DD4DC05B9A80910501909117
:101DC00006019C01220F331F820F931F0E94A7025E
:101DD0005B9880910501909106010E94A7025B9A91
:101DE00080910501909106010E94A7025B98809165
:101DF0000501909106019C01220F331F820F931F52
:101E000026C01130B1F25B9A8091050190910601D4
:101E10000E94A7025B9880910501909106019C01A8
:101E2000220F331F820F931F0E94A7025B9A80919B
:101E30000501909106019C01220F331F820F931F11
:101E40000E94A7025B9880910501909106010E9473
:101E5000A702F39470CF0F5F3DCF8091A203882338
:101E600041F08091930281110EC086E30E943203FB
:101E700016C08091A403882349F01092A403E7D3ED
:101E800081E0809392020E94360309C08091A303EF
:101E9000882321F01092A303E5D101C0B0D1299885
:101EA00089E60E94470283E70E94470201E00E157F
:101EB0000CF0D7CEFE01E00FF11D07FDFA958181F0
:101EC000803359F0813349F0823339F0843411F48E
:101ED00084E403C01130E1F386E40E9447020F5FFF
:101EE000E6CF8237B9F480919202882329F081E00D
:101EF0008093A4031092920280919502882329F086
:101F000081E08093A303109295022ADE81E0809302
:101F1000A2035AC0863651F58A81803351F480E19C
:101F20008093010180EB8093020181E7809303019C
:101F300007C043E061E071E0CE0102960E94C20654
:101F400089E60E94470286E60E9447028AE30E94D1
:101F50004702809101010E944402809102010E9487
:101F60004402809103010E9444027BCE883721F510
:101F70008091A403882339F01092A40368D381E0F0
:101F80008093920210C08091A303882321F01092C5
:101F9000A30368D10EC082E090E00E94CD0380913F
:101FA0009302882319F00E94360303C086E30E943F
:101FB00032031092A20308C0833631F465E071E069
:101FC000CE0101960E94A806CDB7DEB7E8E00C94DA
:101FD000F91B0F931F93CF93CFEFC60FCF3F71F035
:101FE0008C010F5F1F4FBADD0E944402CC2319F011
:101FF0008AE30E944702C150C801F0CFCF911F91E0
:102000000F910895A2E0B0E0E8E0F0E10C94E01B4D
:10201000FC0121812D3421F466E08AEF93E005C0B4
:10202000203529F460E18AED93E0D3DF2DC01A82D8
:10203000198242E0BE016F5F7F4F01960E94C20687
:10204000823031F409811A8110270127102702C03C
:10205000098110E0C80182DDF82E82E50E94470266
:1020600064E0C8010E9431068DE791E00E9486027B
:102070008F2D0E94440289E791E00E94860262E06F
:102080008F2D90E00E946F060E945A022296E5E092
:102090000C94FC1BA1E0B0E0E0E5F0E10C94DC1B4B
:1020A0001982FC012181223709F072C0228122238A
:1020B00031F0BE016F5F7F4F02960E94A806B98083
:1020C0008FEF8B0D833028F08FE693E00E9486021D
:1020D00070C0E898229A1092AF032A9A8CE390E09D
:1020E000FC013197F1F72A980197F1F72A9A8AE5CE
:1020F00090E00197F1F780E30E94320388EC90E0D2
:102100000197F1F701E413E0F8018491813468F05C
:10211000F4E1BF9E80011124C12CD12C780184E10F
:10212000E81AF108035111091FC0F80131966491B2
:10213000F80184910E9464030E5F1F4FF3E00D3796
:102140001F0711F7E5CFF801EC0DFD1DEB5FFC4F0C
:102150006491FC0184910E946403F2E0CF0ED11CD3
:1021600084E1C816D10449F0C7018C0D9D1D8B5F19
:102170009C4FFC012491213430F383E30E9432030D
:10218000B092AF030E94130281E00E949E020BC036
:10219000283749F48091AF03882319F086E30E9421
:1021A00032031092AF038091AF030E9444020E9459
:1021B0005A022196E9E00C94F81BFC01709187010A
:1021C00040E095E020E0662399F06150DF01A60F22
:1021D000B11D3C91532F52955F702527950F7723A2
:1021E00011F0442319F03F702327930F4F5FEBCF7B
:1021F000920F30E1939FC0011124822B08958091AA
:102200009302882369F082E090E00E94CD0381E090
:102210008093940210929202109295020C943603CD
:1022200086E30E943203109294021092920210925E
:1022300095020895FC01218121110DC08091930226
:102240000E94440265E080919602909197020E945C
:102250006F060C945A0241E063E972E001960E9415
:10226000C206CDCF0F931F93CF93DF93E898229AA6
:102270002A9A8CE390E0FC013197F1F72A980197B4
:10228000F1F72A9A8AE590E00197F1F780E30E943E
:10229000320388EC90E00197F1F7C9EBD2E0FE0140
:1022A0008491813450F083E30E94320384E00E94E1
:1022B0009E02CFEF04E110E00DC0FE013196649163
:1022C000FE0184910E9464032296F2E0C53FDF077D
:1022D00031F7E9CF84E30E943203C8010197F1F797
:1022E000C150C1F781E0809395020E941302DF91F3
:1022F000CF911F910F9108954F925F926F927F92AD
:102300008F929F92AF92BF92EF92FF921F93CF93C3
:10231000DF937C01EB01FC0110811F5F209719F412
:1023200020E030E002C024E630E0F8E01F9FC0016A
:1023300011246AE070E00E94B61B260F371F490186
:10234000032E000CAA08BB08809196029091970278
:10235000AC0160E070E0481559056A057B0528F47A
:1023600085EF92E00E948602D6C0821B930B909369
:1023700097028093960280919502811101C072DFCD
:1023800085E30E946E038D3071F08AE50E9447025A
:1023900085E40E94470282E50E94470282E50E948E
:1023A000470281E349C08090B1039090B203A090AE
:1023B000B303B090B40381149104A104B104B1F447
:1023C0000E944C0385E30E946E03833109F43FC0F1
:1023D0008AE50E94470285E40E94470282E50E9446
:1023E000470282E50E94470282E326C024013501AC
:1023F0004FEF441A540A640A740A8091A50390911D
:10240000A603A091A703B091A80388169906AA066F
:10241000BB0621F481E00E949E02EFCF8091A503CC
:102420009091A603A091A703B091A803481659065E
:102430006A067B0679F3C4CF0E94470285E30E94B7
:102440006E030E9444020E945A020CDF64C0CD2B2E
:1024500041F42A988FE70E942C03BE2CCE2DDF2D4D
:1024600008C0CAE0D0E084E60E949E022197D9F716
:10247000F0CF8C2F8B19811720F489910E942C03A7
:10248000F8CF2A9AC0E085E30E946E03D82F85E337
:102490000E946E03D81305C0DD3031F081E00E9448
:1024A0009E02CF5FCA3F79F785E30E946E038D30AD
:1024B000E9F08AE50E94470285E40E94470282E52E
:1024C0000E94470282E50E94470283E30E9447027E
:1024D00085E30E946E030E9444028D2F0E944402F5
:1024E0008C2F0E9444020E945A02BCDE8091950209
:1024F000811101C084DE8091A5039091A603A09173
:10250000A703B091A8038093B1039093B203A09363
:10251000B303B093B403DF91CF911F91FF90EF907D
:10252000BF90AF909F908F907F906F905F904F90F3
:102530000895AEE1B0E0EFE9F2E10C94E11B8C010B
:10254000FC018181823711F48DDE36C0833711F0B2
:10255000863601F54DE1BE016F5F7F4FC8010296DF
:102560000E94C20699270197298130E082179307BC
:1025700029F08CEF92E00E9486021EC061E070E0BC
:10258000F8018181833711F060E070E0CE0101969F
:10259000B3DE12C0813621F443E06CEA73E005C07B
:1025A000873741F443E069EA73E0C80102960E946C
:1025B000C20602C0109295026E96E4E00C94FD1BD8
:1025C000ACE0B0E0E6EEF2E10C94E21BFC018BE043
:1025D000898381818A831B8282E08C8387818D83BA
:1025E00080858E8381858F83848188878581898793
:1025F00086818A871B861C8684E10E949E0260E099
:1026000070E0CE01019678DE8AE50E94470210E074
:10261000812F90E0298130E0281739075CF0E1E054
:10262000F0E0EC0FFD1FE80FF91F80810E944402CB
:102630001F5FEECF8091930285FF03C080E00E9470
:1026400044020E945A022C96E3E00C94FE1B0F9366
:102650001F93CF93DF93E898229A2A9A8CE390E015
:10266000FC013197F1F72A980197F1F72A9A8AE548
:1026700090E00197F1F780E30E94320388EC90E04C
:102680000197F1F7CDE7D2E0FE0131966491FE01AA
:1026900084910E9464032296F2E0CF3ADF07A1F70B
:1026A0008091B003811107C083E30E94320384E06C
:1026B0000E949E0210C0C7E6D2E00DE712E0FE01C4
:1026C00031966491FE0184910E94640322960C1756
:1026D0001D07A9F7E9CF84E30E94320385E30E9436
:1026E0006E038D30C1F7DF91CF911F910F91089547
:1026F000AAE3B0E0EEE7F3E10C94D91BFC01918171
:10270000923731F0923559F481E08093B00302C0E2
:102710001092B0039CDF81E080939202BCC093379B
:1027200009F0B7C041E38E010F5F1F4FB801CF0121
:1027300002960E94C2067C019C0133272150310978
:10274000898190E02817390709F0A5C0809192028D
:10275000811104C07CDF83E00E949E02DB809A81AD
:1027600086E789278A8322E03981822F90E0F80169
:10277000E80FF91F231750F4DE01A80FB91F8C9141
:1027800084529081892780832F5FEECF80818D25B1
:102790008083CE01C7960E94AC0285E30E9432037B
:1027A00085E30E946E03833181F1CE01C3960E94BE
:1027B000AC024BA95CA96DA97EA98FA998ADA9AD62
:1027C000BAAD84179507A607B70760F44A015B0105
:1027D000881A990AAA0ABB0A2DEB82169104A10451
:1027E000B10470F4481759076A077B0770F48454E2
:1027F0009F4FAF4FBF4F84179507A607B70728F421
:102800008FEA92E00E94860227C085E30E946E0351
:10281000833119F6D4FE08C088E70E949E0288E73B
:102820000E949E0288E701C08AE00E949E022A98C8
:102830008FE70E942C0368018C2D801B8E1530F4CD
:10284000F60181916F010E942C03F6CF2A9A85E34D
:102850000E946E038331D9F385E30E946E038631B3
:1028600049F48BE30E94320386E30E9432038DE336
:102870000E94320380919202882349F084E30E94EF
:10288000320385E30E946E038D30C1F704C0B7DCCC
:1028900002C010929202EA96ECE0A7C7A5E8B0E069
:1028A000E3E5F4E180C70FB6F894A8958091600045
:1028B000886180936000109260000FBE91E080E814
:1028C0000FB6F89480936100909361000FBE219A37
:1028D000299A2D9A84B18C6284B9249880E58CBDA4
:1028E0008DB581608DBD80E090E038D9813029F4CC
:1028F00081E090E033D98A3119F080E090E0BBD8D4
:1029000084E390E02BD98093000189EF87BD84E0B8
:1029100085BD82E084BD80936E00109280008AE0C5
:102920008093810084B7877F84BF9FE088E10FB6E2
:10293000F894A895809360000FBE909360008CE09F
:1029400090E09093C5008093C40088E98093C10013
:1029500086E08093C2000E94E401539A5B985298EB
:102960008091690081608093690082EC91E090938E
:102970009702809396021092CD011092940282E801
:1029800095E0909351018093500181E080939102F2
:102990000E9413022998789447E0C42ED12CE0912C
:1029A0005001F091510181E009958091C10085FDB0
:1029B00009C080911002882329F08091C1008062B3
:1029C0008093C100CF57DF4F1882C158D04080910B
:1029D0008B018823B9F18091930287FF17C084E3AC
:1029E0000E946E038058803458F0803C58F490E088
:1029F0008055910933E0959587953A95E1F703C0A5
:102A000080E001C08FE08F590E94470280919302BD
:102A100083FF16C082E70E9447028091930284FFE1
:102A200004C080918C010E94470286E60E94470202
:102A30008091930284FF04C080918B010E94470221
:102A400010928B0180918A01882309F40BC3299A83
:102A500000914C012FE3029F8001112402571E4F69
:102A600080918D01823009F065C01D8237E03E8380
:102A7000C80104969A838983D8018C91853009F026
:102A800059C011962C91119713968C91F601E81B61
:102A9000F109CF01F8E02F9F800D911D112480399D
:102AA000910509F047C085E5682E81E0782E99E808
:102AB000892E2FE0E22E20EFF22E41E068E0CE01D9
:102AC00001960E946E09E80EF11C8826D3018D92B2
:102AD0003D01B4E28B2E880EB4E66B16B1E07B06A6
:102AE00061F741E068E0CE0101960E946E09E80EB0
:102AF000F11C80958093640180E1CF57DF4F88837C
:102B0000C158D04041E068E0CE0101960E946E09B4
:102B100090E0982F8827E81AF90A41E068E0CE0192
:102B200001960E946E0990E0E816F90619F4F3E5A3
:102B30007F2E01C0712C80918D01823009F07BC005
:102B4000711079C0F8018081843009F074C01D8251
:102B5000F7E0FE83C80104969A838983D801119611
:102B60002C91119713968C91F601E81BF109CF0176
:102B7000F8E02F9F800D911D1124853491050CF4F0
:102B80005AC0E5E5EE2EE1E0FE2E812C40E068E043
:102B9000CE0101960E946E095701D7018C93682ED1
:102BA000062C62946024062C669466946024CE0100
:102BB00001960E945309639461FA222420F8312C73
:102BC00090E028163906B9F5CE0101960E94530906
:102BD000811131C0BFEFEB1AFB0AF5018081882615
:102BE0002BE531E02E153F0589F636E0CF57DF4F54
:102BF0003883C158D04040E068E0CE0101960E9481
:102C00006E09E82EF82E0F2CF294F0240F2CF69477
:102C1000F694F024CE0101960E945309F394F1FA40
:102C2000442440F8512C90E04816590621F48E10A7
:102C300002C078E4772ED8018C91833009F082C0ED
:102C400071104DC0AE014F575F4F66E4C8010E943E
:102C5000A30B882309F443C0CF57DF4F8881C158A5
:102C6000D0408150CF57DF4F8883C158D040282FA4
:102C700096E0222341F02150E22FF0E0EB5AFE4F84
:102C80003081930FF6CFE82FF0E0EB5AFE4F6081D2
:102C9000691302C0843008F5292F30E02F5F3F4FC1
:102CA000462F50E02417350711F4843018F4982F7C
:102CB0002CE002C0908311C0992341F09150E92F7C
:102CC000F0E0EB5AFE4F3081230FF6CF621307C0BE
:102CD000843028F054E5752E02C066E4762E80918B
:102CE0008D01823059F5711030C0AE014F575F4FE2
:102CF00065E4C8010E94A30B882309F488C4CF5758
:102D0000DF4F8881C158D0408150CF57DF4F888333
:102D1000C158D040893009F07AC490E08150E82F42
:102D2000F0E0EB5AFE4F208192278111F7CF80917E
:102D30005E0189136CC495E4792E07C0772009F4ED
:102D400066C403C0772009F4E4C04091930240FFB9
:102D5000E0C080914B018E7F8B7F80934B01B42F1D
:102D6000B270FB2E41FD68C060914A01CF57DF4F22
:102D70005881C158D04065133EC080E08617C0F42A
:102D8000282F30E071E0780FF901E85EFE4FD9019D
:102D9000AB5ABE4FE0812C91E21741F080934A017B
:102DA00020914B012D7F20934B0104C0872FE6CF4C
:102DB00080934A0186131FC08090A5039090A603BC
:102DC000A090A703B090A8038091140190911501E1
:102DD000A0911601B0911701881A990AAA0ABB0A94
:102DE00096E289169104A104B10428F480914B0164
:102DF000816080934B01F51660F42F2D30E0F901CE
:102E0000E85EFE4FD901AB5ABE4F8C918083F3949C
:102E1000F2CFF0924A018091A5039091A603A09170
:102E2000A703B091A8038093140190931501A09378
:102E30001601B093170104C08D7F816080934B0110
:102E4000A4E57A1220C046FD1EC0CF57DF4F88810F
:102E5000C158D0408530B8F0809157018B3471F063
:102E6000893661F09DEA980F923040F08D5782309C
:102E700028F0809158018077803729F480914B01A8
:102E8000816080934B0180914B0180FD03C0846081
:102E900080934B0180914B0182FF3BC0872D0E94A4
:102EA000470280918701882359F0CF57DF4F8881EF
:102EB000C158D0408150CF57DF4F8883C158D04090
:102EC000F12CCF57DF4FE881C158D040FE1648F4AF
:102ED000EF2DF0E0EB5AFE4F80810E944402F39404
:102EE000F0CF80918701882349F0F0E0EB5AFE4F44
:102EF00080818F7061E090E00E94310680919302A2
:102F000085FF05C084E30E946E030E9444020E9474
:102F10005A028091930282FF92C080E70E9447028A
:102F2000F801808162E090E00E946F06D801D79698
:102F30008C9165E0B0E18B9FC00111240E946F0667
:102F4000F80180AD65E0F0E18F9FC00111240E947F
:102F50006F06D801D9968C9165E0B0E18B9FC001D6
:102F600011240E946F06F80182AD65E0F0E18F9FA9
:102F7000C00111240E946F06D801DB968C9165E098
:102F8000B0E18B9FC00111240E946F06F80184AD4F
:102F900065E0F0E18F9FC00111240E946F06D80107
:102FA000D6968C9164E090E00E946F06F8018281D1
:102FB00063E090E00E946F06D80111968C9163E067
:102FC00090E00E946F06F801838162E09601281B61
:102FD0003109C9010E946F06D801DD968D919C913F
:102FE000DE9765E024E0880F991F2A95E1F70E949B
:102FF0006F0680E20E9447028091930285FF08C01D
:1030000084E30E946E030E94440280E20E94470211
:10301000F8018381873019F081818F5F8183F12CE2
:10302000D80111968C91F81640F4F801EF0DF11DBE
:1030300084810E944402F394F3CF0E945A02F80163
:10304000108216AA80918A01815080938A01809112
:103050004C018F5F823019F080934C0102C01092B6
:103060004C0129988091A5039091A603A091A703F4
:10307000B091A80320914E01281781F18091A503FA
:103080009091A603A091A703B091A80380934E014D
:10309000A895809152018D3708F1109252018091CC
:1030A000000181FF04C095B182E0892785B9809134
:1030B0009602909197028438F3E09F0728F40196D6
:1030C000909397028093960280914D018F5F8C338D
:1030D00019F080934D0102C010924D0180910C02B5
:1030E000882309F454C0813011F58091A503909193
:1030F000A603A091A703B091A80320914F01281720
:1031000009F445C085E30E946E03813129F48AE306
:103110000E9432030E9436038091A5039091A6037A
:10312000A091A703B091A80380934F0130C08FE313
:103130000E946E03882E87FD27C02A988FEF0E9479
:103140002C038E010F5F1F4F7801702E8E2D801B78
:10315000881538F480E00E942C03D7018D937D01FF
:10316000F5CF2A9A81E080939102802F87198815E4
:1031700030F4F80181918F010E944702F6CF0E943E
:103180005A028FEF8093910281E080930C0280912C
:103190009202882309F4D5C04A9B8AC08FE30E941B
:1031A0006E038F778983823368F08AE30E9432034B
:1031B00086E30E9432038DE30E94320384E30E947F
:1031C0003203BFC02A988FEF0E942C0310E0898140
:1031D000181760F480E00E942C03E2E0F0E0EC0FAE
:1031E000FD1FE10FF11D80831F5FF1CF80E00E9482
:1031F0002C03182F80E00E942C032A9A84E30E945B
:10320000320385E30E946E038D30C1F78A8196E711
:1032100098279A8392E02981E92FF0E0921768F4C9
:1032200021E030E02C0F3D1FE20FF31F208184527C
:10323000822780839F5F822FEECF41E050E04C0FCA
:103240005D1FE40FF51F90818B818927808380911A
:10325000930284FF12C081E60E94470210E0898138
:10326000811730F1E1E0F0E0EC0FFD1FE10FF11DFF
:1032700080810E9447021F5FF2CF81E40E944702D3
:1032800000E08981801758F0E1E0F0E0EC0FFD1FCD
:10329000E00FF11D80810E9444020F5FF2CF809108
:1032A000930285FF03C0812F0E9444020E945A02AC
:1032B00085E30E946E03813029F0813161F48AE355
:1032C0000E94320386E30E9432038DE30E943203A0
:1032D00084E30E94320385E30E946E038D3089F5FA
:1032E00085E20E946E038F3361F585E20E946E03D2
:1032F0008F3309F586E30E9432038FE690E00E9447
:10330000860283E30E94320310E085E30E946E038D
:10331000813051F485E20E946E038F3361F488E6B8
:1033200090E00E94860207C084E090E00E94A7021D
:10333000115059F7EFCF84E30E9432038077803138
:10334000D1F780919502882309F4AAC04A9B9AC0BC
:103350008FE30E946E038F778E3108F08DE18983B1
:103360002A988FEF0E942C0310E08981181760F4CF
:1033700080E00E942C03E2E0F0E0EC0FFD1FE10F83
:10338000F11D80831F5FF1CF80E00E942C03082F86
:1033900080E00E942C032A9A9091AC03911108C0FE
:1033A0008091AD03811104C08091AE038823B1F0F8
:1033B0008C81803319F08F7E803481F48885981356
:1033C0000DC099858091AD03981308C09A858091AE
:1033D000AE03981303C0CE010196F2D88091A903E1
:1033E000811108C09091AA03911104C09091AB0380
:1033F0009923B1F099819B3099F49C81903481F4A8
:10340000988589130DC099858091AA03981308C0E7
:103410009A858091AB03981303C0CE010196D0D852
:103420008091930284FF12C08AE70E94470210E055
:1034300089818117A8F1E1E0F0E0EC0FFD1FE10FB9
:10344000F11D80810E9447021F5FF2CF8AE50E9432
:10345000470210E08981811758F0E1E0F0E0EC0FBD
:10346000FD1FE10FF11D80810E9444021F5FF2CF1A
:103470008091930285FF03C0802F0E9444020E9426
:103480005A020EC085E30E946E03813149F48AE33B
:103490000E94320386E30E94320384E30E943203D7
:1034A00080910D02882309F474C04A9B5FC08FE3AA
:1034B0000E946E038F778E3108F08DE189832A9800
:1034C0008FEF0E942C0310E08981181760F480E0D0
:1034D0000E942C03E2E0F0E0EC0FFD1FE10FF11D74
:1034E00080831F5FF1CF80E00E942C03082F2A9A6F
:1034F0008AE30E94320386E30E9432038DE30E9436
:10350000320384E30E9432038091930284FF12C04D
:1035100087E70E94470210E089818117D0F1E1E03E
:10352000F0E0EC0FFD1FE10FF11D80810E944702CA
:103530001F5FF2CF87E50E94470210E08981811763
:1035400058F0E1E0F0E0EC0FFD1FE10FF11D80818C
:103550000E9444021F5FF2CF8091930285FF03C057
:10356000802F0E9444020E945A0213C085E30E94E9
:103570006E03813011F0813161F48AE30E943203DD
:1035800086E30E9432038DE30E94320384E30E94AB
:1035900032038091AF03882309F401CA4A9B22C0F9
:1035A00086E30E9432038BE30E946E03082F0F779D
:1035B00009F4F5C92A988FEF0E942C038EE40E942B
:1035C00047028091AF030E94440210E080E00E9415
:1035D0002C030E9444021F5F0113F8CF2A9A0E9415
:1035E0005A02DDC985E30E946E03813019F08131F2
:1035F00009F0D5C98AE30E94320386E30E943203B0
:103600008DE30E94320384E30E943203C8C91D8205
:1036100057E05E83C80104969A838983D801119686
:103620008C91843089F5F8018381813069F545E515
:10363000E42E41E0F42E812C41E0811007C067E0C8
:10364000CE0101960E946E09806805C068E0CE0137
:1036500001960E946E09D7018D937D018394B4E099
:103660008B12EACF41E067E0CE0101960E946E091D
:10367000880F8093590185E0CF57DF4F8883C15869
:10368000D04034E7732E61CBF801208142AD6091C8
:103690008C01C801C9960E94CE09682FC8010E94FA
:1036A000A309AE014F575F4F6BE4C8010E94A30B03
:1036B0008823E9F0CF57DF4FE881C158D040FF247D
:1036C000FA94FE0ECF57DF4FF882C158D0406F2DCD
:1036D00085E591E00E94DD10EF2DF0E090918701EB
:1036E000E91BF109EB5AFE4F9081891791F0F8011F
:1036F0008381873059F4D80113961C921397119641
:103700008C911197815011968C9303CC8F5F83839A
:1037100000CC8BE4782E19CBF999FECF92BD81BDF8
:10372000F89A992780B50895262FF999FECF1FBAE8
:1037300092BD81BD20BD0FB6F894FA9AF99A0FBEDA
:1037400001960895AA1BBB1B51E107C0AA1FBB1F0E
:10375000A617B70710F0A61BB70B881F991F5A951D
:10376000A9F780959095BC01CD01089597FB072E90
:1037700016F4009406D077FD08D0E4DF07FC05D0EE
:103780003EF4909581959F4F0895709561957F4F78
:10379000089540D0A59F900DB49F900DA49F800DDB
:1037A000911D112408952F923F924F925F926F9234
:1037B0007F928F929F92AF92BF92CF92DF92EF92C1
:1037C000FF920F931F93CF93DF93CDB7DEB7CA1B42
:1037D000DB0B0FB6F894DEBF0FBECDBF09942A886D
:1037E000398848885F846E847D848C849B84AA8415
:1037F000B984C884DF80EE80FD800C811B81AA81A2
:10380000B981CE0FD11D0FB6F894DEBF0FBECDBF6C
:10381000ED010895A29FB001B39FC001A39F700D59
:10382000811D1124911DB29F700D811D1124911DC8
:063830000895F894FFCF9B
:103836000210B07106A401FF30460031300031316C
:04384600003231001B
:00000001FF
