:10000000C6C100000C94D811DFC10000DDC10000A2
:10001000DBC10000D9C10000D7C10000D5C100007C
:10002000D3C10000D1C10000CFC100000C94261341
:10003000CBC10000C9C100000C947A13C5C10000F7
:10004000C3C10000C1C100000C947A110C94A61128
:10005000BBC10000B9C10000B7C10000B5C10000BC
:10006000B3C10000B1C10000504C4C310D0A00502A
:100070004C4C300D0A0000030F1E26270000000321
:100080000F1E2536386700030F25674060500003B8
:100090000F275188838100030F2750C8C3C2002750
:1000A0000000000000000067000000000000005099
:1000B000000000000000008100000000000000C2FD
:1000C000000000000000202F2000203D2000202FF5
:1000D0002000203D2000072E050DD391FF080500CC
:1000E000000C0021656A2D3B1322F862073F181DA2
:1000F0001CC700B0876BF8B611EA2A001F41000D3B
:100100002E2D07D3913D04320000060021656A5769
:10011000C43023B900070018146C070090876BF8EF
:100120005611E92A001F41002028462D42616E64C5
:100130003A203836384D487A29002028462D426129
:100140006E643A203433334D487A29006E616E6F05
:1001500043554C383638006E616E6F43554C34331E
:1001600033005620312E32382E313920612D6375FF
:100170006C6677204275696C643A203139202832E8
:100180003032362D30382D32322031333A32303A57
:1001900030322920000D2E2D07D3913D043200006E
:1001A000060010B07155E43023B900070018146C34
:1001B000070090876BF85611E92A001F41000B08D1
:1001C000105B11F81547191D1A1C1BC71C001DB226
:1001D00021B623EA0007022E030D04E905CA070C25
:1001E0000B060D210E650F6A10C81193120315340A
:1001F0001733181819161B432156250026112959A3
:100200002C812D353EC34552523A4343410D0A00DD
:100210000007024604C605260B0610C811931203F8
:1002200013221534173F182819161B432156250091
:1002300026110D210E650F6A070C160720F81E8780
:100240001F6B29592C812D353EC3FF004C4F56465C
:100250000D0A004C454E4552520D0A000302FF00A4
:10026000000000000000000000000000000000008E
:10027000030210881182FF0000000000000000004F
:100280000000000003071088110B0D210E6B0FD02A
:100290001553FF00000000000B060D210E650F6ACC
:1002A0001700181819161B431C6825002611000199
:1002B000024605D4042D0302070008021089115CD0
:1002C00012061556FF0073706563696679207661C2
:1002D0006C6964206D6F6465206E756D6265720D6A
:1002E0000A00424F56460D0A0000070246030D045D
:1002F0009A057D0642070C0B060D210E650F6A104C
:10030000C81193120315341700181819161B431C33
:100310006825002611FF000000000000000000001A
:10032000000000000041230D42201043F70545B6B0
:100330000765FB1046260B66D70F47ED0A69F90DD6
:100340004BFB096C48104D770A4EF30752210754B6
:10035000A21074500555CE0956A004575A10580FD4
:10036000097861115A9C0C00000020697320756E99
:100370006B6E6F776E2920557365206F6E65206FE9
:1003800066003F2028004C4F56460D0A00001124FD
:100390001FBECFEFD8E0DEBFCDBF11E0A0E0B1E0DF
:1003A000E8EAF6E302C005900D92A431B107D9F74F
:1003B00023E0A4E1B1E001C01D92A33BB207E1F745
:1003C0000E94A4130C94521B1BCEFC01218130E02F
:1003D00050E08081F901E41BF50B3B967797A0F480
:1003E00090E070E0FC01E61BF70B3B96779760F41A
:1003F000280F391F460F571F241B350B255F3F4F12
:1004000081E02731310508F080E00895FC0130E0FB
:1004100020E08AE09191911105C03093060120936C
:100420000501089540ED490F4A30A0F7829FA001D1
:10043000839F500D11249A0120533109290F311D3A
:10044000E9CFFC0120E08AE09191911103C0FB010A
:100450002083089530ED390F3A30B0F7289F900D82
:10046000112420ED290FF0CFDC01FB0130E020E06A
:100470009D919923D9F0913608F0905280ED890F23
:100480008A3050F4982F922B3323A1F0442371F03B
:10049000908341503196EACF8FEB890F863010F46C
:1004A0009753F1CF903221F39A3311F3CF01861B8A
:1004B000970B0895292F2295207F31E0D9CFFC0199
:1004C0002FB7F8948281811102C02FBF08959FEF4A
:1004D000980F9283A18191E09A0F9183AE0FBF2F65
:1004E000B11D13968C91903881F71182EECFFC01EB
:1004F0009FB7F894828187FF02C09FBF08958F5FE6
:100500008283A08181E08A0F8083AE0FBF2FB11D4F
:1005100013966C93803889F71082EFCFCF93DF93D7
:10052000DA01EC91882369F0EB01CE0FD11DA1E037
:10053000B0E0022E01C0AA0F0A94EAF788818A2B44
:100540008883222331F02150822F90E0DF91CF91D8
:100550000895EF5FEC3030F4DA01EC93E60FF72FFB
:10056000F11D108227E0F0CF880F991F0197F1F756
:100570000895CF93C82F5B9A80912102C11102C0C8
:100580008091230220E1829FC0011124EDDF5B985E
:1005900080912002C11102C08091220220E1829F3D
:1005A000C0011124E1DFCF910895FC018481958180
:1005B000A081B181A80FB11D2C9130E0092E02C09D
:1005C000359527950A94E2F721703FEF390F35836F
:1005D000911104C08F5F848387E08583822F089503
:1005E000B0E0A0E0E6EFF2E00C94141B7C01062FD3
:1005F000A42ED0E0C0E010E0BB24B394862F81503D
:10060000990B6C01C701D1DF882361F0AA2099F012
:10061000C6018C1B9D0B2B2D01C0220F8A95EAF77A
:10062000822F182B2196C01768F3812FCDB7DEB724
:10063000EAE00C94301B8B2D0C2E01C0880F0A941D
:10064000EAF7EFCF10926F00E0911D028FE3E89F71
:10065000F0011124E156FE4F108210928900109291
:1006600088000895CF93DF93FC01A181A23320F08D
:10067000E9DFDF91CF9108958381662369F0EF016F
:10068000CA0FD11D21E030E0082E01C0220F0A94CC
:10069000EAF79C81922B9C83882331F081508383DD
:1006A00086A98F5F86ABE5CF87E08383AF5FA183A9
:1006B000A233B1F3AE0FBF2FB11D14961C92F0CF31
:1006C000B0E0A0E0E6E6F3E00C94101BDC017A0158
:1006D00010929A0111969C901197990C990C990C73
:1006E00013968C911397981A892D97E0892E890C6F
:1006F0001092680128E0922E980E41E070E057E0D9
:10070000E7E0F0E090E037E0C32ED12C01E010E00C
:1007100094120DC070939A01891408F05EC065347C
:1007200009F089C05F3F09F086C09F5F86C09D01C8
:100730002F0F311DE9012C8130E00E2E02C03595BE
:1007400027950A94E2F7822F8170EE2389F0E15019
:100750006B3441F5533009F076C071110CC0811132
:1007600068C010929A01CDB7DEB7EEE00C942C1B56
:10077000FF5FE7E0EDCF70E0882309F458C0292F30
:1007800030E028593E4F5601A51AB10857FDB394E1
:10079000E80102C0CC0FDD1FAA94E2F75E01E90177
:1007A00088813FC05F3F61F56634C9F4292F30E08E
:1007B00028593E4FE9012881022E22952025022E3C
:1007C0002695269520252F5F21FB662460F8712C45
:1007D0008615170459F070939A0180E0C4CF6534F0
:1007E00029F4811103C070939A01BDCF9F5F292F17
:1007F00030E028593E4FE901188257E04F5F88CF1B
:100800008823A9F0663481F4292F30E028593E4F1F
:10081000E90188815801052E02C0AA0CBB1C0A946C
:10082000E2F7A82AA88203C0653409F4A8CF515082
:10083000E5CF71E0E3CF711178CFF701908381E0CC
:10084000911191CFCACF5F3F09F096CFCACFFC017B
:1008500050919A0195E020E08FEF860F611107C05B
:10086000920F30E1939FC0011124822B08956150B3
:10087000DF01A60FB11D3C91432F42954F702427F5
:10088000940F552311F0681749F33F702327930FF6
:10089000E5CF5B9A813079F483E191E065DE5B9886
:1008A0008CE994E061DE5B9A83E191E05DDE5B9828
:1008B00083E191E010C081110FC083E191E054DE2B
:1008C0005B9883E191E050DE5B9A83E191E04CDE3E
:1008D0005B988CE994E048CE823039F483E191E072
:1008E00043DE5B988CE994E0EECF83E191E03CDE5F
:1008F0005B9883E191E0D6CF9091AC0390FF0EC05E
:10090000909126029E3730F097FD08C08D3011F08F
:100910008A3021F4682F84E292E0E9CD08958DE0D9
:10092000EBDF8AE0E9CFCF93DF93EC01FE01849106
:10093000811103C0DF91CF910895DEDF2196F6CFBC
:1009400082E691E0F0DF8091070180FD0BC087E532
:1009500091E0E9DF80919E01813039F48AE391E0F2
:10096000E2DFDDCF8CE491E0F4CF88E291E0F8CFD4
:10097000CF93DF93EC018991811103C0DF91CF9177
:100980000895BADFF8CFA5E0B0E0E9ECF4E00C940C
:100990001C1BAC011D8294E0242F2F702A3020F5FF
:1009A000205D9150E1E0F0E0EC0FFD1FE90FF11D3B
:1009B000208384E0569547958A95E1F7615041156B
:1009C000510551F780E3615067FD02C091110EC0DF
:1009D00021E030E02C0F3D1F290F311DC901C8DF78
:1009E0002596E2E00C94381B295CDBCF9150E1E0C6
:1009F000F0E0EC0FFD1FE90FF11D8083E4CF62E012
:100A000090E0C1CFA6E0B0E0E8E0F5E00C941A1B5E
:100A1000362F1E82FE01369625E00AE010E02150B6
:100A2000B8010E94DB1A805D8293CB0131500097A0
:100A300089F480E2315037FD02C021110EC081E0FF
:100A400090E08C0F9D1F820F911D92DF2696E4E0AF
:100A50000C94361B2111E3CFECCF2150E1E0F0E004
:100A6000EC0FFD1FE20FF11D8083E4CF20ED37E096
:100A7000815008F40895F9013197F1F7F9CFFC019D
:100A80009FB7F8944091590150915A0160915B01D0
:100A900070915C0140835183628373839FBF08958B
:100AA000A4E0B0E0E6E5F5E00C941C1BCE01019655
:100AB000E6DF8C81A4DF8B81A2DF8A81A0DF8981C0
:100AC0009EDF2DDF2496E2E00C94381B8EBD0DB422
:100AD00007FEFDCF8EB508952A98F8DF2A9A08956B
:100AE0000F931F93CF93CFEF04E110E084E3F4DF83
:100AF000C1508077803129F0C8010197F1F7C11109
:100B0000F5CFE89ACF911F910F9108950F931F93FE
:100B1000CF93E89886E3E0DFCFEF04E110E085E3D0
:100B2000DBDFC1508077803229F0C8010197F1F7EF
:100B3000C111F5CFCF911F910F910895CF93C62F7B
:100B40002A988064C3DF8C2FC1DF2A9ACF91089541
:100B50002A98806CBBDF80E0B9DF2A9A08950F9352
:100B60001F93CF93DF93E898229A2A9A8CE390E020
:100B7000FC013197F1F72A980197F1F72A9A8AE553
:100B800090E00197F1F780E3A7DF88EC90E0019710
:100B9000F1F7C4EDD1E0FE0131966491FE0184913C
:100BA000CDDF2296F2E0C630DF07A9F78091580129
:100BB000882371F0CEEBD1E004ED11E0FE01319617
:100BC0006491FE018491BADF22960C171D07B1F7DC
:100BD00083E382DF84E04ADF84E37EDF85E3B8DFFE
:100BE0008D30D1F7DF91CF911F910F910895A2E041
:100BF000B0E0EDEFF5E00C941A1B8C01FC01818153
:100C00008737F1F441E0BE016E5F7F4FC801029665
:100C10002BDC892BA9F041E0BE016F5F7F4FC8013B
:100C2000049622DC892B61F069818A8187DF83E366
:100C300053DF56DF8A81E3DE8981E1DE70DE18C092
:100C400041E0BE016F5F7F4FC80101960DDC892B2B
:100C500079F08981893981F410E0812F79DFCFDE45
:100C6000812F8770873009F45ADE1F5F1033A9F790
:100C70002296E4E00C94361B6BDF182F83E43CDEF5
:100C80008981BDDE8AEC90E04EDE812FB8DE86ECF5
:100C900090E049DE62E0812F90E0B4DECFCF0F9389
:100CA0001F93CF93DF93D091AC038093AC03C3E049
:100CB00080912B03811107C0D093AC03DF91CF91BA
:100CC0001F910F91089589E293E0F9DBE0912803E9
:100CD0008A3019F08D3009F041C0EE2349F3F0E07D
:100CE000E955FD4F10823091A70220E02C9FC001F2
:100CF0001124FC01EB5DFC4F1491FC01EA5DFC4FFB
:100D000045915491112359F0131307C087EA92E0DB
:100D1000FA01099510922803CBCF2F5FE7CF82E825
:100D200093E001DE87EA92E023DE8AE693E0FBDDD2
:100D30001C9F90011124F901EB5DFC4F0491F90116
:100D4000EA5DFC4F85919491002331F080E2D4DD7F
:100D5000802FD2DD1F5FECCFE2DDDCCFE7FDA8CF37
:100D600091E09E0F90932803F0E0E955FD4F8083BA
:100D70009FCF0C94C51ACF93DF93E898229A2A9AB2
:100D80008CE390E0FC013197F1F72A980197F1F795
:100D90002A9A8AE590E00197F1F780E39DDE88ECDE
:100DA00090E00197F1F72A9880E490DEC5E9D1E060
:100DB000FE0184918BDE2196F1E0C23ADF07C1F794
:100DC0008091010183DE8091020180DE8091030128
:100DD0007DDED0E0C0E0FE01EB55FE4F849176DE73
:100DE0002196C931D105B9F72A9A2A988EE76EDE85
:100DF0008BE290E0EC012196BCDF68DECE01E39748
:100E0000C9F72A9A83E368DE81E030DE81E08093CF
:100E1000AF03DF91CF9108950F931F93CF93C62F08
:100E2000C15020F4CF911F910F9108958C010F5F55
:100E30001F4F9FDFE4DDCC2311F08AE35DDDC801A5
:100E4000EFCFA2E0B0E0E7E2F7E00C94191BFC0161
:100E500021812D3449F466E08AEF93E0DDDF5FDD28
:100E60002296E5E00C94351B203521F460E18AEDF3
:100E700093E0F4CF1A82198242E0BE016F5F7F4F88
:100E80000196F2DA098110E0823029F409811A8191
:100E9000102701271027C8016CDFF82E82E52CDD12
:100EA00064E0C80170DD82ED90E03DDD8F2DA7DDAF
:100EB0008EEC90E038DD62E08F2D90E0A3DDCFCFA7
:100EC00085E390E056DF8093540186E390E051DFA4
:100ED000809353010895A2E0B0E0E1E7F7E00C94BD
:100EE0001C1B1A82198242E0BE016F5F7F4FBCDA81
:100EF000823051F489819A8198278927982739DF90
:100F00002296E2E00C94381B898190E0F8CFCF93D1
:100F1000DF9388E091E0DFDFC82F8BE091E0DBDF3B
:100F2000D82F8EE091E0D7DF2C2F30E050E040E06A
:100F3000A90133272227280F311D411D511D8D2F57
:100F400090E0982F8827280F391F411D511DAAE1D5
:100F5000B0E00E94021B853F914030F082E0809318
:100F60009E01DF91CF91089581E0F9CFCF93DF9378
:100F7000FC018181823709F031C0E898229A2A9ACF
:100F80008CE390E0FC013197F1F72A980197F1F793
:100F90002A9A8AE590E00197F1F780E39DDD88ECDD
:100FA00090E00197F1F7C9EED2E0FE01849181341F
:100FB00050F431966491FE018491C0DD2296F3E0F5
:100FC000C532DF0791F783E387DD81E04FDD9FDFE7
:100FD00081E080931F02DF91CF9108958337D9F389
:100FE00010921F02F8CFA1E0B0E0E9EFF7E00C9417
:100FF000181B1982FC012181223709F065C022816A
:10100000222329F0BE016F5F7F4F02961ADAF98022
:101010008FEF8F0D833038F086EC92E084DC2196E0
:10102000E6E00C94341BE898229A109267012A9A01
:101030008CE390E0FC013197F1F72A980197F1F7E2
:101040002A9A8AE590E00197F1F780E345DD88EC84
:1010500090E00197F1F708E912E0F80184918134FA
:1010600058F431966491F801849168DD0E5F1F4F4A
:10107000F2E0063C1F0789F72F2D2150330BC901E1
:1010800024E1289F8001299F100D1124045A1D4F2F
:101090008AE0E82EF8018491813450F4319664910D
:1010A000F80184914BDDEA940E5F1F4FE110F2CFFF
:1010B00083E312DDF09267012ADF81E0D7DC8091C3
:1010C00067019DDC2CDCABCF2837C9F78091670125
:1010D000882311F086E300DD10926701F0CF0F93B3
:1010E0001F93CF93DF93E898229A2A9A8CE390E09B
:1010F000FC013197F1F72A980197F1F72A9A8AE5CE
:1011000090E00197F1F780E3E7DC88EC90E001974D
:10111000F1F7C0E1D2E0FE018491813450F43196C0
:101120006491FE0184910ADD2296F2E0CC34DF075F
:1011300091F783E3D1DC84E099DCCFEF04E110E0A8
:1011400084E3CADCC8010197F1F7C150C9F781E017
:101150008093B003DCDEDF91CF911F910F91089552
:10116000EF92FF920F931F93CF93DF93EC011092B6
:10117000B003E898229A2A9A8CE390E0FC01319718
:10118000F1F72A980197F1F72A9A8AE590E00197FA
:10119000F1F780E3A1DC88EC90E00197F1F72A9861
:1011A00080E494DC8E01075D1F4F7E018FEFE81A0B
:1011B000F80ACE01DEDD8ADCE7010E151F05A9F76E
:1011C0002A9A2A988EE782DC8BE290E0EC01219645
:1011D000D0DD7CDCCE01E397C9F72A9A83E37CDC7F
:1011E00081E044DCCDB7DEB7E6E00C94341B80919F
:1011F000AE03882359F082E090E0B2DF81E0809373
:10120000AF031092AD031092B0036ACC86E364DCA6
:101210001092AF031092AD031092B0030895FC0139
:10122000218121110AC08091AE03E9DB65E0809144
:10123000B1039091B203E6DB72CB41E06EEA73E05A
:10124000019612D9D4CFA4E0B0E0E9E2F9E00C9421
:101250000C1B4C016983C42EA22E002391F082E066
:10126000840F809F802D1124082E000C990B209153
:10127000B1033091B2032817390738F486E893E0B8
:1012800052DB2496E2E10C94281B281B390B309387
:10129000B2032093B103299A1091B003112331F0C6
:1012A0001092B00381E191E0BADF11E08091AF03C9
:1012B00081110AC082E090E053DF81E08093AF03A8
:1012C0001092AD031092B00321DC2981222E312C23
:1012D000D12C66246394712CB12C1A82EA818E2F52
:1012E000EE0F990B821593054CF1F981FF2311F054
:1012F00081E03FD9F12C8F2D0F2C000C990B9C8392
:101300008B838C159D0504F127E0F22E880D991D25
:101310009C838B838F2D0F2C000C990BA816B9067C
:101320006CF18E2DA3DB0150C1F68091AE038823B2
:1013300091F1D6DB1111D3DE2998A3CF80E019D922
:101340008A818F5F8A83CACF37E0432E512C8B81ED
:101350009C81880D991D9C838B83C301042C01C043
:10136000880F0A94EAF7EB81FC819081892301D9E7
:10137000F1E04F1A510888F7F394BDCFC3010F2C49
:1013800001C0880F0A94EAF7EB81FC8190818923E0
:10139000F0D8FA94BFCF86E39FDBCCCFEF920F93C8
:1013A000CF93DF9300D000D0CDB7DEB743E0BE01CE
:1013B0006F5F7F4F019658D88AE68093230294E2AC
:1013C0009093220291E2909321028093200280E880
:1013D0008C838FE0E82E03E026E043E060E0CE015E
:1013E000019631DF0F900F900F900F90DF91CF910A
:1013F0000F91EF900895A9E1B0E0E1E0FAE00C94DC
:10140000131B7E012DE0E20EF11C4BE0B7010196AB
:101410002BD8982E85E38093230296E190932202A5
:101420009093210280932002692DC70110DAF70101
:10143000E90DF11D80839394198E1982670127E0CD
:10144000AA24A394B12C8C2D8E19891560F08AE002
:10145000E82E03E0498D6AE0CE010196F4DE69963C
:10146000EBE00C942F1B10E000E0C501002E01C042
:10147000880F0A94EAF7F6019081AE01475E5F4F4C
:10148000BE016F5F7F4F892349D8282F0F5F1F4F01
:101490000430110551F7AE01475E5F4FBE016F5F2B
:1014A0007F4F81E03BD8282FC501002E01C0880F57
:1014B0000A94EAF7F6019081AE01475E5F4FBE01E4
:1014C0006F5F7F4F89232AD8282F0F5F1F4F083067
:1014D000110551F7AE01475E5F4FBE016F5F7F4F51
:1014E00081E01CD8282FFFEFCF1ADF0AACCFA9E18B
:1014F000B0E0EDE7FAE00C94141B7E012DE0E20E63
:10150000F11C4BE0B70101960E9434028930A1F52D
:1015100029E120932202209323022093210222E337
:101520002093200299276E01E6E1CE0ED11C40E007
:10153000F60152918F014527EE15FF0509F5F701D8
:10154000E80FF91F4083198E1982F9E0CF0ED11CE4
:1015500027E0AA24A394B12CF12CE12C0C151D0535
:1015600089F42223A9F121508AE0E82E03E0498D75
:101570006CE0CE01019667DE6996EAE00C94301BC0
:101580006801D6CFC5010E2C01C0880F0A94EAF776
:10159000F8019081AE01475E5F4FBE016F5F7F4FE4
:1015A00089230E948E02282FFFEFEF1AFF0A88E09E
:1015B000E816F10499F6AE01475E5F4FBE016F5F1A
:1015C0007F4F81E00E948E02282F0F5F1F4FC4CFF4
:1015D000898D8F5F898F27E0C7CFEF920F93CF93CD
:1015E000DF93CDB7DEB760970FB6F894DEBF0FBEBE
:1015F000CDBF40E1BE016F5F7F4F01960E94340274
:1016000069814A810B818C81809323028D81809333
:1016100022028E81809321028F8180932002E02E0E
:10162000E2948FE0E8220F70242F2F7042954F70C4
:10163000CE01089608DE60960FB6F894DEBF0FBEA6
:10164000CDBFDF91CF910F91EF900895A9E1B0E068
:10165000ECE2FBE00C94141B4BE0BE01635F7F4F98
:1016600001960E943402EDE0F0E0EC0FFD1FE80F60
:10167000F11DD82E96E0D1102CC09083CC24C394B9
:10168000C80E198E19828E01035F1F4F27E0EE24CA
:10169000E394F12C97E0A92EB12CDC1420F1222345
:1016A00009F44FC0215089E18093220280932302E4
:1016B00085E280932002809321028AE0E82E03E0F5
:1016C000498D6CE0CE010196BEDD6996EAE00C948E
:1016D000301BDA94ADE0B0E0AC0FBD1FAD0DB11D15
:1016E0002C91920FC8CFC7010A2C01C0880F0A9411
:1016F000EAF7F8019081AE01475E5F4FBE016F5F70
:101700007F4F89230E948E02282FF1E0AF1AB10883
:1017100020F6F80181918F01082E82958025082EF0
:101720008695869580258F5F86958170AE01475E90
:101730005F4FBE016F5F7F4F0E948E02282FD394B0
:10174000A9CF898D8F5F898F27E0ADCF4F925F92B0
:101750006F927F928F929F92AF92BF92EF92FF9281
:101760001F93CF93DF937C01EB01FC0110811F5F7E
:1017700024E630E0209711F430E020E0F8E01F9FED
:10178000C00111246AE070E00E94EF1A620F731F1B
:101790004B01072E000CAA08BB088091B103909161
:1017A000B2032C01712C612C481459046A047B0487
:1017B00088F48CE492E0B7D8DF91CF911F91FF902D
:1017C000EF90BF90AF909F908F907F906F905F90C1
:1017D0004F900895861B970B9093B2038093B103AB
:1017E0008091B003811101C07ADC85E3B1D98D30DD
:1017F00081F08AE581D885E47FD882E57DD882E5CD
:101800007BD881E379D885E3A3D9F9D888D867DC78
:10181000D3CF80905D0190905E01A0905F01B09069
:101820006001240135014FEF441A540A640A740A16
:1018300081149104A104B10489F468D985E388D99D
:10184000833139F18AE558D885E456D882E554D8F1
:1018500082E552D882E3D6CF81E008D98091590140
:1018600090915A01A0915B01B0915C018816990694
:10187000AA06BB0689F38091590190915A01A09163
:101880005B01B0915C0184159505A605B70521F3B0
:10189000D4CFCD2B31F0CAE0D0E084E6E7D8219751
:1018A000E1F72A988FE712D9BE2CCE2DDF2D8C2F91
:1018B0008B19811708F43DC02A9AC0E085E348D906
:1018C000D82F85E345D9D81304C0DD3029F081E055
:1018D000CDD8CF5FCA3F91F785E33AD98D3099F0E3
:1018E0008AE50AD885E408D882E506D882E504D8D6
:1018F00083E302D885E32CD982D88D2F80D88C2F12
:101900007ED80DD8ECDB8091B003811101C06FDC73
:101910008091590190915A01A0915B01B0915C01B5
:1019200080935D0190935E01A0935F01B09360018D
:1019300043CF8991CBD8BBCFAEE1B0E0E2EAFCE087
:101940000C941A1B8C01FC018181823729F4C7DBBE
:101950006E96E4E00C94361B833711F08636F9F46A
:101960004DE1BE016F5F7F4FC80102960E943402B5
:101970008150990B29812817190629F083E592E0F7
:101980000E949304E5CF61E070E0F8018181833724
:1019900011F070E060E0CE010196D8DED9CF43E0CF
:1019A00064E671E0813629F0873741F443E061E66F
:1019B00071E0C80102960E943402CACF1092B003AF
:1019C000C7CFACE0B0E0E7EEFCE00C941B1BFC01E1
:1019D0008BE0898381818A831B8282E08C8387816B
:1019E0008D8380858E8381858F838481888785819F
:1019F000898786818A871B861C8684E137D870E0B8
:101A000060E0CE010196A2DE8AE50E947C0410E02F
:101A10008981811768F48091AE0385FF03C080E05F
:101A20000E94FF040E948F042C96E3E00C94371B65
:101A3000E1E0F0E0EC0FFD1FE10FF11D80810E945D
:101A4000FF041F5FE5CFAAE3B0E0E9E2FDE00C94FC
:101A5000121BFC019181923769F0923571F481E09B
:101A6000809358017CD881E08093AD03EA96ECE046
:101A70000C942E1B10925801F5CF933709F0B6C085
:101A800041E38E010F5F1F4FB801CF0102960E9404
:101A90003402F82E282F2150330BC9012981281731
:101AA000190621F78091AD03811104C058D883E055
:101AB0000E943605EB808A8196E789278A8322E097
:101AC000422F50E0F801E40FF51F9081898128171B
:101AD00008F459C08E2D89278083CE01C7960E94B5
:101AE0003F0585E30E946C0585E332D8833109F414
:101AF00053C0CE01C3960E943F054BA95CA96DA9B6
:101B00007EA98FA998ADA9ADBAAD84179507A60790
:101B1000B70760F44A015B01881A990AAA0ABB0A4E
:101B2000EDEB8E169104A104B10470F44817590727
:101B30006A077B0788F584549F4FAF4FBF4F8417C8
:101B40009507A607B70740F586E092E00E94930448
:101B500085E30E94A805863149F48BE30E946C0559
:101B600086E30E946C058DE30E946C058091AD03B5
:101B70008823D1F184E30E946C0585E30E94A805C7
:101B80008D30C1F773CF4C0F5D1FDA018C918452F9
:101B9000892780832F5F94CF85E30E94A805833136
:101BA00009F09FCF8AE0E4FE07C088E70E9436056F
:101BB00088E70E94360588E70E9436052A988FE755
:101BC0000E94660568018C2D801B8F1538F02A9ABB
:101BD00085E30E94A8058331D9F3BACFD6018D9150
:101BE0006D010E946605EFCF02DB40CF1092AD037E
:101BF0003DCFB0E0A0E0EFEFFDE00C94171BEC014F
:101C00008981843791F4CE0102960E94060260E039
:101C100080910501909106010E9402050E948F04A7
:101C2000CDB7DEB7E7E00C94331B833709F04CC126
:101C30008A81823759F464E071E0CE0103960E94F4
:101C400021028091040160E090E0E6CF299A809122
:101C50005501811116C08091AD03882329F081E0E0
:101C6000809357011092AD038091B003882329F02F
:101C700081E0809356011092B0037DD883E00E94EA
:101C8000360586E30E946C058AE30E946C058BE3AF
:101C90000E946C050E948605FE0101900020E9F774
:101CA0003197EC1BFD0BEE24EA94EE0EEB7F11E076
:101CB000E23209F010E000E00E2C000CFF088091E9
:101CC0000401081768F080915501882309F4DAC0EF
:101CD0008091AE03882309F4BAC00E947005BAC08F
:101CE0005B9A1130E1F48BEE90E00E94B4025B98B5
:101CF00080E197E20E94B4025B9A83E191E00E9446
:101D0000B4025B988AE59AE00E94B402DD24D39481
:101D10008D2D90E08E159F0564F00F5FD0CF8091E0
:101D20000501909106010E94B4025B9880E197E260
:101D3000EBCF8C0F9D1FFC018181803359F580E032
:101D4000113009F454C05B9A80910501909106010D
:101D50000E94B4025B9880910501909106019C015C
:101D6000220F331F820F931F0E94B4025B9A80914F
:101D70000501909106010E94B4025B9880910501D3
:101D8000909106019C01220F331F820F931F0E9426
:101D9000B4022FC0813341F581E0113041F15B9AEB
:101DA00080910501909106019C01220F331F820F43
:101DB000931F0E94B4025B988091050190910601E7
:101DC0000E94B4025B9A80910501909106019C01EA
:101DD000220F331F820F931F0E94B4025B988091E1
:101DE000050190910601D3CF823329F482E00E944D
:101DF0004904D3948DCF8434B1F4113011F483E0CD
:101E0000F6CF5B9A80910501909106019C01220F0B
:101E1000331F820F931F0E94B4025B9880910501CB
:101E200090910601A1CF113051F35B9A8091050189
:101E3000909106010E94B4025B98809105019091F7
:101E400006019C01220F331F820F931FB9CF86E337
:101E50000E946C05299889E60E947C0483E70E9411
:101E60007C0401E0802F90E08E159F050CF0D6CE0B
:101E70008C0F9D1FFC0181818033D1F40E947C0472
:101E80000F5FF0CF80915701882341F010925701E6
:101E90000E94AF0581E08093AD031FCF8091560172
:101EA000882321F0109256011AD9D4CFA0D9D2CFCD
:101EB000813321F3823311F3843411F484E4DECFCF
:101EC0001130E1F386E4DACF8237C1F48091AD03BB
:101ED000882329F081E0809357011092AD0380910F
:101EE000B003882329F081E0809356011092B0035B
:101EF0000E94BB0681E08093550192CE863651F553
:101F00008A818033F9F480E18093010180EB809332
:101F1000020181E78093030189E60E947C0486E642
:101F20000E947C048AE30E947C04809101010E944B
:101F3000FF04809102010E94FF04809103010E942E
:101F4000FF046CCE43E061E071E0CE0102960E9496
:101F50003402E2CF883719F580915701882351F078
:101F6000109257010E94AF0581E08093AD030E945B
:101F7000700507C080915601882331F010925601F8
:101F8000AED8109255014CCE82E090E0E9D8809115
:101F9000AE038111ECCF86E30E946C05F2CF83364D
:101FA00009F03ECECE0101960E94060239CEFF9284
:101FB0000F931F93CF93DF93EC01FC01019000205E
:101FC000E9F731978F01081B190B8981823769F472
:101FD00087E390E0C5D80E94700581E080931E02DF
:101FE000CDB7DEB7E5E00C94351B833709F5F02E4D
:101FF0002A988FE70E9466058EEF800F0E94660583
:10200000229612E01F1558F02A9A0E9486058AE34C
:102010000E94A8058F7741F40E947005E1CF899155
:102020000E9466051F5FEECF81E00E943605EFCF6C
:1020300010921E02D5CF0E94CD1AF999FECF0895B5
:10204000A1E0B0E0E6E2F0E10C941C1B19820097DD
:1020500039F041E0BE016F5F7F4F01960E9434026C
:1020600089818F3F09F4FFCF882321F061E083E36A
:1020700090E0E1DF10926E00F89488E198E00FB6EE
:10208000F894A895809360000FBE90936000FFCFF6
:1020900041E060E071E001960E943402809100010D
:1020A00080FF06C0299A6091000184E390E0C3CFCD
:1020B0002998F9CFA6E0B0E0E0E6F0E10C94161B19
:1020C0006C0143E0BE016F5F7F4F01960E943402B6
:1020D000823010F1098110E0823029F009811A81E3
:1020E0001027012710277C01FF24FE01EE0DFF1DA4
:1020F0006081C801A0DFC8010F97039710F40E9408
:102100008707EE0CFF1C8FEFE81AF80AEC0CFD1C99
:10211000F7018081811104C02696E8E00C94321BFF
:1021200041E0BE016F5F7F4FC7010E943402892BDF
:1021300099F30F5F1F4F6981C8017DDFE2E0EE0E6A
:10214000F11CE6CFA6E0B0E0E8EAF0E10C941C1B3D
:1021500045E0BE016F5F7F4F01960E9434028430DC
:1021600078F499819130C1F4833071F46A8185E308
:1021700090E061DF6B8186E390E05DDF0E946007A5
:102180002696E2E00C94381B809154010E94FF04D3
:10219000809153010E94FF040E948F04F1CFEF92BF
:1021A000FF920F931F93CF93C82F8A3008F0C8E097
:1021B00028E0C29F800111248BE290E0055B1F4F55
:1021C000FC01E00FF11F64917C012FEFE21AF20A8B
:1021D00032DFC7018333910599F7C55067E1C530F8
:1021E00008F461E184E290E026DFCF911F910F9126
:1021F000FF90EF9008950F931F93CF93DF93EC011F
:1022000061E090E080E017DF6AE181E090E013DFB9
:1022100082E090E0FC01E350FF4F64918C010F5F7E
:102220001F4F09DFC8010B321105A1F787E390E0CA
:10223000FC01E156FF4F64918C010F5F1F4FFBDEE5
:10224000C80100361105A1F78091070180FD18C073
:1022500060E18FE090E0EFDE60EB80E190E0EBDEAC
:1022600061E781E190E0E7DE60E184E490E0E3DEB5
:1022700060EB85E490E0DFDE61E786E490E0DBDEA2
:1022800088E08DDF0E94870760E080E690E0D3DE83
:1022900060E081E690E0CFDE60E083E390E0CBDEBB
:1022A00062E084E390E0C7DE209719F089818837E7
:1022B00019F090E080E0C4DEDF91CF911F910F9183
:1022C0000895A1E0B0E0E7E6F1E10C941C1B22E0E8
:1022D000298341E0BE016F5F7F4F01960E94340267
:1022E00089815DDF82E090E00E94B0082196E2E003
:1022F0000C94381B1F920F920FB60F9211242F933C
:102300003F934F935F936F937F938F939F93AF937D
:10231000BF93EF93FF936091C6008091C0008871D6
:1023200021F489E293E00E947702FF91EF91BF913F
:10233000AF919F918F917F916F915F914F913F915D
:102340002F910F900FBE0F901F9018951F920F9214
:102350000FB60F9211242F933F934F935F936F9378
:102360007F938F939F93AF93BF93EF93FF9380914E
:1023700026028823B9F084E292E00E945F028093F3
:10238000C600FF91EF91BF91AF919F918F917F9187
:102390006F915F914F913F912F910F900FBE0F90D2
:1023A0001F9018958091C1008F7D8093C100E9CF67
:1023B0001F920F920FB60F9211240F931F932F931A
:1023C0003F934F935F936F937F938F939F93AF93BD
:1023D000BF93CF93DF93EF93FF9380911E028823E7
:1023E000C1F082E080931E02FF91EF91DF91CF91C7
:1023F000BF91AF919F918F917F916F915F914F911D
:102400003F912F911F910F910F900FBE0F901F9032
:1024100018950091840010918500A4E01695079509
:10242000AA95E1F7C0911D029FE3C99FE001112425
:10243000C156DE4F90919E01923081F42881243064
:1024400039F40E3288F20F3448F00E942203CCCFC8
:10245000253021F4073140F20832B8F74A9911C00B
:10246000923061F488818450823040F461E0CE0182
:102470000E943203109285001092840000939D0107
:10248000B3CF80919D01081B00939C0110928500A1
:1024900010928400923049F488818450823028F46C
:1024A00060E0CE010E9432039FCF82E086BB88812C
:1024B00000919D01882309F486C010919C0182300F
:1024C00039F1412F602FCE01C9960E94E501882382
:1024D00009F495C061E0CE010E94320399AD83E01A
:1024E000602F70E0989F600D711D112475956795A0
:1024F0007595679569AF9AAD412F50E0989F400D53
:10250000511D112455954795559547954AAF6CCF68
:10251000412F602FCE01C7960E94E5019A81882342
:10252000F1F02FA983E0602F70E0289F600D711DEE
:10253000112475956795759567956FAB28AD412FFB
:1025400050E0289F400D511D1124559547955595F4
:10255000479548AF1EAE1DAE9F5F9A8345CF94301E
:1025600088F180EA9FE090938900809388008A81B7
:102570008C3058F08FA998AD890F9927991F85360F
:1025800091052CF084E0888311C08A30C8F08FA9AF
:1025900098AD890F9927991F859794F485E08883D2
:1025A00088EE93E0909389008093880009AF1AAF7A
:1025B000198287E08B831C8282E080936F0014CFA6
:1025C00083E0E1CF18821FAA18AE19AE1AAE1BAE77
:1025D0001CAE1EAE1DAE1EAA198287E08B831C8224
:1025E000053608F001CF80919C01853608F0FCCEBD
:1025F0000FAB88AF81E08A8382E08883F5CE412FDC
:10260000602FCE01C7960E94E501882309F41DCFF3
:1026100060E0CE010E9432039FA983E0602F70E04A
:10262000989F600D711D1124759567957595679537
:102630006FAB98AD412F50E0989F400D511D112474
:10264000559547955595479548AFCECE1F920F9219
:102650000FB60F9211242F933F934F935F936F9375
:102660007F938F939F93AF93BF93EF93FF931092BA
:102670006F008091AE0383FF03C08EE20E947C0452
:1026800080911D029FE3899FF0011124E156FE4FC6
:102690009081933018F09181923098F40E94220337
:1026A000FF91EF91BF91AF919F918F917F916F912A
:1026B0005F914F913F912F910F900FBE0F901F9000
:1026C000189590919B01913049F48091AE0382FF5F
:1026D000E5CF82EE92E00E949304E0CF9F5F90935B
:1026E0009B018F5F823019F080931D02D9CF109229
:1026F0001D02D6CF1F920F920FB60F9211248F9307
:102700009F93AF93BF938091590190915A01A091EB
:102710005B01B0915C010196A11DB11D809359012F
:1027200090935A01A0935B01B0935C018091520198
:102730008F5F80935201BF91AF919F918F910F90C6
:102740000FBE0F901F901895A2E8B0E0E9EAF3E100
:1027500063C70FB6F894A895809160008861809354
:102760006000109260000FBE80E891E00FB6F89410
:1027700080936100909361000FBE219A299A2D9A4F
:1027800084B18C6284B9249880E58CBD8DB581605C
:102790008DBD90E080E00E94B906813031F481E087
:1027A00090E00E94B9068A3119F090E080E023DDC4
:1027B00084E390E00E94B9068093000189EF87BD11
:1027C00084E085BD82E084BD80936E00109280001D
:1027D0008AE08093810084B7877F84BF88E19FE08F
:1027E0000FB6F894A895809360000FBE9093600098
:1027F0008CE090E09093C5008093C40088E98093BA
:10280000C10086E08093C2000E946007539A5B98E3
:1028100052988091690081608093690082EC91E018
:102820009093B2038093B1031092DE011092AF0334
:102830008FE496E0909351018093500181E0809362
:10284000AC030E9487072998789457E0C52ED12CB5
:1028500047E0342EE0915001F091510181E009955B
:102860008091C10085FD09C080912602882329F04E
:102870008091C10080628093C100CF57DF4F1882E2
:10288000C158D04010919C01112399F18091AE0361
:1028900087FF14C084E30E94A8058058803408F4A0
:1028A00079C0803C08F078C08055990B33E095954D
:1028B00087953A95E1F78F590E947C048091AE0389
:1028C00083FF15C082E70E947C048091AE0384FFE1
:1028D00004C080919D010E947C0486E60E947C04D5
:1028E0008091AE0384FF03C0812F0E947C0410926C
:1028F0009C0180919B01882309F4B5C2299A00911B
:102900004C012FE3029F8001112401561E4F30918C
:102910009E01CE57DF4F3883C258D040323009F481
:102920003DC0B12CF8018081833009F0E9C3B110BA
:1029300064C1AE014F575F4F66E4C8010E94600357
:10294000882309F416C1CF57DF4F8881C158D04082
:102950008150CF57DF4F8883C158D040282F96E051
:102960002111F1C0E82FF0E0E859FE4F3081391312
:1029700002C0843060F4492F50E04F5F5F4F34173E
:10298000150609F074C1843008F471C1908396E48F
:10299000B92E33C180E08FCF8FE08DCF1D823E8274
:1029A000480144E0840E911C9A828982F80180815A
:1029B000853009F056C08181F8E08F9FC001112455
:1029C000F8012381A601421B5109840F951F80390C
:1029D000910509F046C088E6A82E81E0B82E99E856
:1029E000292E2FE0E22E20EFF22E41E068E0CE010A
:1029F00001960E94F002E80EF11C2826F5012192B2
:102A00005F01B4E22B2E280E27E731E02E173F0797
:102A100061F741E068E0CE0101960E94F002E80E05
:102A2000F11C80958093770180E1CF57DF4F888339
:102A3000C158D04041E068E0CE0101960E94F0020A
:102A400090E0982F8827E81AF90A41E068E0CE0163
:102A500001960E94F002F3E5BF2E8E151F0409F4C3
:102A600061CFF8018081843009F05BCF1D823E8206
:102A70009A8289828181F8E08F9FC0011124F80138
:102A80002381A601421B5109840F951F85349105AE
:102A90000CF447CFE8E6EE2EE1E0FE2EA12C40E05C
:102AA00068E0CE0101960E94F002F70181937F0158
:102AB000B82E0B2CB294B0240B2CB694B694B02440
:102AC000CE0101960E94D502B394B1FA662460F853
:102AD000712C8615170409F024CFCE0101960E94AF
:102AE000D50281111ECFF70131978081A8262EE6ED
:102AF00031E02E153F0599F636E0CF57DF4F38838A
:102B0000C158D04040E068E0CE0101960E94F0023A
:102B1000E82EF82E0F2CF294F0240F2CF694F69455
:102B2000F024CE0101960E94D502F394F1FA4424D8
:102B300040F8512C8415150409F0F3CEAE10F1CEF7
:102B400078E4B72EEFCE2150E22FF0E0E859FE4FA7
:102B50003081930F05CF9150E92FF0E0E859FE4FF7
:102B60004081240F9111F7CF321303C0843008F055
:102B700009C5CE57DF4FF881C258D040F23049F432
:102B8000AE014F575F4F65E4C8010E946003811199
:102B900071C01D823E82C80104969A838983F80120
:102BA0008181843009F08BC08381813009F087C036
:102BB00068E6E62E61E0F62E41E0B1107AC067E0EB
:102BC000CE0101960E94F0028068F70181937F0197
:102BD000B394F4E0BF12F0CF41E067E0CE0101967C
:102BE0000E94F002880F80936C0185E0CF57DF4F81
:102BF0008883C158D04054E7B52E9091AE0390FF22
:102C00009AC080914B018E7F8B7F80934B0191FD09
:102C100000C3CE0101960E943F05CF57DF4FF880D9
:102C2000C158D04090914A019F1179C2A8E1B1E00A
:102C3000E8E6F1E090E09F1167C249815A816B811B
:102C40007C818091140190911501A0911601B091A1
:102C50001701481B590B6A0B7B0B46325105610566
:102C6000710508F05CC290914B01916056C2982F9B
:102C70002CE078CFCF57DF4F8881C158D0408150AA
:102C8000CF57DF4F8883C158D040893009F081CFBA
:102C9000E1E7F1E028E631E080E0929189272E1704
:102CA0003F07D9F790917101981373CF45E4B42E83
:102CB000A4CF68E0CE0101960E94F00286CFF80111
:102CC00042AD60919D01C801C9960E94E501682F3F
:102CD000C8010E943203AE014F575F4F6BE4C80139
:102CE0000E946003882309F445C4CF57DF4FF88062
:102CF000C158D040FA94CF57DF4FF882C158D04026
:102D0000E0909A01FE1408F435C46F2D88E691E036
:102D10000E9427042F2D2E19330BF901E859FE4F7D
:102D20009081891327C43BE4B32E67CFF801138247
:102D30008181815081838091AE0382FF83C080E7CF
:102D40000E947C04F801808162E090E00E9402050C
:102D5000F80187A965E0F0E18F9FC00111240E946E
:102D60000205F80180AD65E0F0E18F9FC0011124FC
:102D70000E940205F80181AD65E0F0E18F9FC0017E
:102D800011240E940205F80182AD65E0F0E18F9FF9
:102D9000C00111240E940205F80183AD65E0F0E155
:102DA0008F9FC00111240E940205F80184AD65E0E7
:102DB000F0E18F9FC00111240E940205F80186A94D
:102DC00064E090E00E940205F801828163E090E0F7
:102DD0000E940205F801818163E090E00E940205F3
:102DE000F801838162E09601281B3109C9010E9424
:102DF0000205F80185AD96AD65E024E0880F991FC6
:102E00002A95E1F70E94020580E20E947C048091ED
:102E1000AE0385FF08C084E30E94A8050E94FF045A
:102E200080E20E947C04F8018381873019F081815F
:102E30008F5F8183F12CF8018181F81608F4F7C1C6
:102E40000E948F04F801108216AA80919B01815084
:102E500080939B0180914C018F5F823009F4EFC118
:102E600080934C0129988091590190915A01A09129
:102E70005B01B0915C0120914E01281771F18091A6
:102E8000590190915A01A0915B01B0915C0180932E
:102E90004E01A895809152018D37F8F010925201A1
:102EA0008091000181FF04C085B192E0892785B936
:102EB0008091B1039091B2038438F3E09F0728F426
:102EC00001969093B2038093B10380914D018F5F7F
:102ED0008C3309F4B7C180934D0180911E02882381
:102EE00019F1813009F0B1C18091590190915A01D5
:102EF000A0915B01B0915C0120914F012817A1F0D6
:102F000085E30E94A805813129F48AE30E946C05BB
:102F10000E9470058091590190915A01A0915B0126
:102F2000B0915C0180934F018091AD038823B1F093
:102F30004A9BF4C18FE30E94A8058F77898382336F
:102F400008F4B4C18AE30E946C0586E30E946C0514
:102F50008DE30E946C0584E30E946C058091B003B0
:102F6000882309F470C04A9B96C28FE30E94A8058B
:102F70008F778E3108F05AC289832A988FEF0E948A
:102F8000660510E08981181708F452C280E00E949B
:102F90006605082F80E00E9466052A9A90916401D8
:102FA000911108C080916501811104C08091660172
:102FB0008823D1F089818A30B8F08C81803319F070
:102FC0008F7E803489F4888598130EC0998580910E
:102FD0006501981309C09A8580916601981304C011
:102FE000CE0101960E94E10C80916101811108C01F
:102FF00090916201911104C0909163019923B9F0FD
:1030000099819B30A1F49C81903489F4988589132F
:103010000EC0998580916201981309C09A858091AC
:103020006301981304C0CE0101960E94E10C8091C7
:10303000AE0384FF14C28AE70E947C0410E08981F9
:10304000811708F001C280911F02882381F14A9BF9
:1030500067C28FE30E94A8058F778E3108F02BC2DC
:1030600089832A988FEF0E94660510E089811817DE
:1030700008F423C280E00E946605082F2A9A8AE39A
:103080000E946C0586E30E946C058DE30E946C052E
:1030900084E30E946C058091AE0384FF25C287E71C
:1030A0000E947C0410E08981811708F012C280918F
:1030B0006701882309F4CECB4A9B47C286E30E946E
:1030C0006C058BE30E94A805082F0F7709F4C0CB8D
:1030D0002A988FEF0E9466058EE40E947C048091FE
:1030E00067010E94FF0410E080E00E9466050E94D4
:1030F000FF041F5F0113F8CF2A9A0E948F04A8CB08
:10310000BB2009F418CE79CD3D9121919F5F3217F4
:1031100009F491CD90914B019D7F90934B01A8E6CE
:10312000B1E0E8E1F1E090E0F9126FC0F0924A01FD
:1031300089819A81AB81BC818093140190931501A0
:10314000A0931601B0931701F4E5BF1222C080913D
:10315000AE0386FD1EC0CF57DF4F8881C158D040D7
:103160008530B8F080916A018B3471F0893661F056
:103170009DEA980F923040F08D57823028F0809170
:103180006B018077803729F480914B0181608093B7
:103190004B0180914B0180FD03C0846080934B0103
:1031A00080914B0182FFC7CD8B2D0E947C04E09063
:1031B0009A01EE2059F0CF57DF4F8881C158D04097
:1031C0008150CF57DF4F8883C158D040F12CCF5763
:1031D000DF4FE881C158D040FE1600F1EE2049F0E3
:1031E000F0E0E859FE4F80818F7061E090E00E942E
:1031F000C3048091AE0385FF05C084E30E94A80547
:103200000E94FF040E948F0496CD2D9121939F5F11
:103210008BCF8D7F816080934B0196CFEF2DF0E0B7
:10322000E859FE4F80810E94FF04F394D0CFF8014B
:10323000EF0DF11D84810E94FF04F394FCCD1092E8
:103240004C0110CE10924D0148CE8FE30E94A8058C
:10325000B82E87FD1AC02A988FEF0E9466058E014E
:103260000F5F1F4F7801A02E8E2D801B8B1588F0CD
:103270002A9A81E08093AC03802F8A198B1580F005
:103280000E948F048FEF8093AC0381E080931E0235
:103290004BCE80E00E946605F70181937F01E4CF69
:1032A000F80181918F010E947C04E6CF2A988FEF6C
:1032B0000E94660510E08981181708F47EC080E03E
:1032C0000E946605182F80E00E9466052A9A84E312
:1032D0000E946C0585E30E94A8058D30C1F78A81A4
:1032E00096E798279A8392E0E1E0F0E0EC0FFD1F6B
:1032F000E90FF11D20813981931708F46AC08B8191
:10330000822780838091AE0384FF74C081E60E948F
:103310007C0410E08981811708F061C085E30E9478
:10332000A805813029F0813161F48AE30E946C059F
:1033300086E30E946C058DE30E946C0584E30E9485
:103340006C0585E30E94A8058D3009F007CE85E263
:103350000E94A8058F3309F001CE85E20E94A805DE
:103360008F33F9F486E30E946C058FE690E00E94AB
:10337000930483E30E946C0510E085E30E94A80596
:10338000813031F084E090E00E94B4021150A9F73E
:1033900085E20E94A8058F3321F488E690E00E9420
:1033A00093041FEF84E30E946C05115080778031F5
:1033B00009F4D4CD1111F6CFD1CD80E00E9466057D
:1033C000E2E0F0E0EC0FFD1FE10FF11D80831F5FD5
:1033D00072CF8452822780839F5F822F85CFE1E066
:1033E000F0E0EC0FFD1FE10FF11D80810E947C04D5
:1033F0001F5F90CF81E40E947C0400E089818017E8
:1034000050F48091AE0385FF03C0812F0E94FF041A
:103410000E948F0483CFE1E0F0E0EC0FFD1FE00F8E
:10342000F11D80810E94FF040F5FE8CF8DE1A4CDE4
:1034300080E00E946605E2E0F0E0EC0FFD1FE10F86
:10344000F11D80831F5F9ECDE1E0F0E0EC0FFD1FDA
:10345000E10FF11D80810E947C041F5FF0CD8AE5A1
:103460000E947C0410E08981811750F48091AE03A2
:1034700085FF03C0802F0E94FF040E948F04E3CDCC
:10348000E1E0F0E0EC0FFD1FE10FF11D80810E94F3
:10349000FF041F5FE8CF85E30E94A805813109F092
:1034A000D2CD8AE30E946C0586E30E946C0584E31A
:1034B0000E946C05C8CD8DE1D3CD80E00E946605E9
:1034C000E2E0F0E0EC0FFD1FE10FF11D80831F5FD4
:1034D000CDCDE1E0F0E0EC0FFD1FE10FF11D8081AB
:1034E0000E947C041F5FDFCD87E50E947C0410E012
:1034F0008981811750F48091AE0385FF03C0802F2E
:103500000E94FF040E948F04D2CDE1E0F0E0EC0FB6
:10351000FD1FE10FF11D80810E94FF041F5FE8CFB6
:1035200085E30E94A805813019F0813109F0BFCDF3
:103530008AE30E946C0586E30E946C058DE30E947D
:103540006C0584E30E946C05B2CD85E30E94A8055A
:10355000813019F0813109F07BC98AE30E946C0542
:1035600086E30E946C058DE30E946C0584E30E9453
:103570006C056EC9F8018381873009F4D7CB8F5F62
:103580008383D9CB84E5B82E38CBF999FECF92BD91
:1035900081BDF89A992780B50895262FF999FECF15
:1035A0001FBA92BD81BD20BD0FB6F894FA9AF99A60
:1035B0000FBE01960895AA1BBB1B51E107C0AA1FAD
:1035C000BB1FA617B70710F0A61BB70B881F991FC4
:1035D0005A95A9F780959095BC01CD01089597FB68
:1035E000072E16F4009406D077FD08D0E4DF07FC20
:1035F00005D03EF4909581959F4F08957095619503
:103600007F4F089540D0A59F900DB49F900DA49F2B
:10361000800D911D112408952F923F924F925F9239
:103620006F927F928F929F92AF92BF92CF92DF92D2
:10363000EF92FF920F931F93CF93DF93CDB7DEB737
:10364000CA1BDB0B0FB6F894DEBF0FBECDBF0994CB
:103650002A88398848885F846E847D848C849B8422
:10366000AA84B984C884DF80EE80FD800C811B8130
:10367000AA81B981CE0FD11D0FB6F894DEBF0FBE5F
:10368000CDBFED010895A29FB001B39FC001A39FDC
:10369000700D811D1124911DB29F700D811D11248B
:0836A000911D0895F894FFCF7D
:1036A8000210B07106A401FF3046003130003131FC
:0436B80000323100AB
:00000001FF
